{
	"contracts/ERC721.sol": {
		"ERC721Token": {
			"abi": [
				{
					"constant": true,
					"inputs": [
						{
							"name": "_interfaceId",
							"type": "bytes4"
						}
					],
					"name": "supportsInterface",
					"outputs": [
						{
							"name": "",
							"type": "bool"
						}
					],
					"payable": false,
					"stateMutability": "view",
					"type": "function"
				},
				{
					"constant": true,
					"inputs": [],
					"name": "name",
					"outputs": [
						{
							"name": "",
							"type": "string"
						}
					],
					"payable": false,
					"stateMutability": "view",
					"type": "function"
				},
				{
					"constant": true,
					"inputs": [
						{
							"name": "_tokenId",
							"type": "uint256"
						}
					],
					"name": "getApproved",
					"outputs": [
						{
							"name": "",
							"type": "address"
						}
					],
					"payable": false,
					"stateMutability": "view",
					"type": "function"
				},
				{
					"constant": false,
					"inputs": [
						{
							"name": "_to",
							"type": "address"
						},
						{
							"name": "_tokenId",
							"type": "uint256"
						}
					],
					"name": "approve",
					"outputs": [],
					"payable": false,
					"stateMutability": "nonpayable",
					"type": "function"
				},
				{
					"constant": true,
					"inputs": [],
					"name": "totalSupply",
					"outputs": [
						{
							"name": "",
							"type": "uint256"
						}
					],
					"payable": false,
					"stateMutability": "view",
					"type": "function"
				},
				{
					"constant": true,
					"inputs": [],
					"name": "InterfaceId_ERC165",
					"outputs": [
						{
							"name": "",
							"type": "bytes4"
						}
					],
					"payable": false,
					"stateMutability": "view",
					"type": "function"
				},
				{
					"constant": false,
					"inputs": [
						{
							"name": "_from",
							"type": "address"
						},
						{
							"name": "_to",
							"type": "address"
						},
						{
							"name": "_tokenId",
							"type": "uint256"
						}
					],
					"name": "transferFrom",
					"outputs": [],
					"payable": false,
					"stateMutability": "nonpayable",
					"type": "function"
				},
				{
					"constant": true,
					"inputs": [
						{
							"name": "_owner",
							"type": "address"
						},
						{
							"name": "_index",
							"type": "uint256"
						}
					],
					"name": "tokenOfOwnerByIndex",
					"outputs": [
						{
							"name": "",
							"type": "uint256"
						}
					],
					"payable": false,
					"stateMutability": "view",
					"type": "function"
				},
				{
					"constant": false,
					"inputs": [
						{
							"name": "_from",
							"type": "address"
						},
						{
							"name": "_to",
							"type": "address"
						},
						{
							"name": "_tokenId",
							"type": "uint256"
						}
					],
					"name": "safeTransferFrom",
					"outputs": [],
					"payable": false,
					"stateMutability": "nonpayable",
					"type": "function"
				},
				{
					"constant": true,
					"inputs": [
						{
							"name": "_tokenId",
							"type": "uint256"
						}
					],
					"name": "exists",
					"outputs": [
						{
							"name": "",
							"type": "bool"
						}
					],
					"payable": false,
					"stateMutability": "view",
					"type": "function"
				},
				{
					"constant": true,
					"inputs": [
						{
							"name": "_index",
							"type": "uint256"
						}
					],
					"name": "tokenByIndex",
					"outputs": [
						{
							"name": "",
							"type": "uint256"
						}
					],
					"payable": false,
					"stateMutability": "view",
					"type": "function"
				},
				{
					"constant": true,
					"inputs": [
						{
							"name": "_tokenId",
							"type": "uint256"
						}
					],
					"name": "ownerOf",
					"outputs": [
						{
							"name": "",
							"type": "address"
						}
					],
					"payable": false,
					"stateMutability": "view",
					"type": "function"
				},
				{
					"constant": true,
					"inputs": [
						{
							"name": "_owner",
							"type": "address"
						}
					],
					"name": "balanceOf",
					"outputs": [
						{
							"name": "",
							"type": "uint256"
						}
					],
					"payable": false,
					"stateMutability": "view",
					"type": "function"
				},
				{
					"constant": true,
					"inputs": [],
					"name": "symbol",
					"outputs": [
						{
							"name": "",
							"type": "string"
						}
					],
					"payable": false,
					"stateMutability": "view",
					"type": "function"
				},
				{
					"constant": false,
					"inputs": [
						{
							"name": "_to",
							"type": "address"
						},
						{
							"name": "_approved",
							"type": "bool"
						}
					],
					"name": "setApprovalForAll",
					"outputs": [],
					"payable": false,
					"stateMutability": "nonpayable",
					"type": "function"
				},
				{
					"constant": false,
					"inputs": [
						{
							"name": "_from",
							"type": "address"
						},
						{
							"name": "_to",
							"type": "address"
						},
						{
							"name": "_tokenId",
							"type": "uint256"
						},
						{
							"name": "_data",
							"type": "bytes"
						}
					],
					"name": "safeTransferFrom",
					"outputs": [],
					"payable": false,
					"stateMutability": "nonpayable",
					"type": "function"
				},
				{
					"constant": true,
					"inputs": [
						{
							"name": "_tokenId",
							"type": "uint256"
						}
					],
					"name": "tokenURI",
					"outputs": [
						{
							"name": "",
							"type": "string"
						}
					],
					"payable": false,
					"stateMutability": "view",
					"type": "function"
				},
				{
					"constant": true,
					"inputs": [
						{
							"name": "_owner",
							"type": "address"
						},
						{
							"name": "_operator",
							"type": "address"
						}
					],
					"name": "isApprovedForAll",
					"outputs": [
						{
							"name": "",
							"type": "bool"
						}
					],
					"payable": false,
					"stateMutability": "view",
					"type": "function"
				},
				{
					"inputs": [
						{
							"name": "_name",
							"type": "string"
						},
						{
							"name": "_symbol",
							"type": "string"
						}
					],
					"payable": false,
					"stateMutability": "nonpayable",
					"type": "constructor"
				},
				{
					"anonymous": false,
					"inputs": [
						{
							"indexed": true,
							"name": "_from",
							"type": "address"
						},
						{
							"indexed": true,
							"name": "_to",
							"type": "address"
						},
						{
							"indexed": true,
							"name": "_tokenId",
							"type": "uint256"
						}
					],
					"name": "Transfer",
					"type": "event"
				},
				{
					"anonymous": false,
					"inputs": [
						{
							"indexed": true,
							"name": "_owner",
							"type": "address"
						},
						{
							"indexed": true,
							"name": "_approved",
							"type": "address"
						},
						{
							"indexed": true,
							"name": "_tokenId",
							"type": "uint256"
						}
					],
					"name": "Approval",
					"type": "event"
				},
				{
					"anonymous": false,
					"inputs": [
						{
							"indexed": true,
							"name": "_owner",
							"type": "address"
						},
						{
							"indexed": true,
							"name": "_operator",
							"type": "address"
						},
						{
							"indexed": false,
							"name": "_approved",
							"type": "bool"
						}
					],
					"name": "ApprovalForAll",
					"type": "event"
				}
			],
			"devdoc": {
				"methods": {
					"approve(address,uint256)": {
						"details": "Approves another address to transfer the given token ID\rThe zero address indicates there is no approved address.\rThere can only be one approved address per token at a given time.\rCan only be called by the token owner or an approved operator.\r",
						"params": {
							"_to": "address to be approved for the given token ID\r",
							"_tokenId": "uint256 ID of the token to be approved\r"
						}
					},
					"balanceOf(address)": {
						"details": "Gets the balance of the specified address\r",
						"params": {
							"_owner": "address to query the balance of\r"
						},
						"return": "uint256 representing the amount owned by the passed address\r"
					},
					"exists(uint256)": {
						"details": "Returns whether the specified token exists\r",
						"params": {
							"_tokenId": "uint256 ID of the token to query the existence of\r"
						},
						"return": "whether the token exists\r"
					},
					"getApproved(uint256)": {
						"details": "Gets the approved address for a token ID, or zero if no address set\r",
						"params": {
							"_tokenId": "uint256 ID of the token to query the approval of\r"
						},
						"return": "address currently approved for the given token ID\r"
					},
					"isApprovedForAll(address,address)": {
						"details": "Tells whether an operator is approved by a given owner\r",
						"params": {
							"_operator": "operator address which you want to query the approval of\r",
							"_owner": "owner address which you want to query the approval of\r"
						},
						"return": "bool whether the given operator is approved by the given owner\r"
					},
					"name()": {
						"details": "Gets the token name\r",
						"return": "string representing the token name\r"
					},
					"ownerOf(uint256)": {
						"details": "Gets the owner of the specified token ID\r",
						"params": {
							"_tokenId": "uint256 ID of the token to query the owner of\r"
						},
						"return": "owner address currently marked as the owner of the given token ID\r"
					},
					"safeTransferFrom(address,address,uint256)": {
						"details": "Safely transfers the ownership of a given token ID to another address\rIf the target address is a contract, it must implement `onERC721Received`,\r which is called upon a safe transfer, and return the magic value\r `bytes4(keccak256(\"onERC721Received(address,uint256,bytes)\"))`; otherwise,\r the transfer is reverted.\rRequires the msg sender to be the owner, approved, or operator\r",
						"params": {
							"_from": "current owner of the token\r",
							"_to": "address to receive the ownership of the given token ID\r",
							"_tokenId": "uint256 ID of the token to be transferred\r"
						}
					},
					"safeTransferFrom(address,address,uint256,bytes)": {
						"details": "Safely transfers the ownership of a given token ID to another address\rIf the target address is a contract, it must implement `onERC721Received`,\r which is called upon a safe transfer, and return the magic value\r `bytes4(keccak256(\"onERC721Received(address,uint256,bytes)\"))`; otherwise,\r the transfer is reverted.\rRequires the msg sender to be the owner, approved, or operator\r",
						"params": {
							"_data": "bytes data to send along with a safe transfer check\r",
							"_from": "current owner of the token\r",
							"_to": "address to receive the ownership of the given token ID\r",
							"_tokenId": "uint256 ID of the token to be transferred\r"
						}
					},
					"setApprovalForAll(address,bool)": {
						"details": "Sets or unsets the approval of a given operator\rAn operator is allowed to transfer all tokens of the sender on their behalf\r",
						"params": {
							"_approved": "representing the status of the approval to be set\r",
							"_to": "operator address to set the approval\r"
						}
					},
					"supportsInterface(bytes4)": {
						"details": "implement supportsInterface(bytes4) using a lookup table\r"
					},
					"symbol()": {
						"details": "Gets the token symbol\r",
						"return": "string representing the token symbol\r"
					},
					"tokenByIndex(uint256)": {
						"details": "Gets the token ID at a given index of all the tokens in this contract\rReverts if the index is greater or equal to the total number of tokens\r",
						"params": {
							"_index": "uint256 representing the index to be accessed of the tokens list\r"
						},
						"return": "uint256 token ID at the given index of the tokens list\r"
					},
					"tokenOfOwnerByIndex(address,uint256)": {
						"details": "Gets the token ID at a given index of the tokens list of the requested owner\r",
						"params": {
							"_index": "uint256 representing the index to be accessed of the requested tokens list\r",
							"_owner": "address owning the tokens list to be accessed\r"
						},
						"return": "uint256 token ID at the given index of the tokens list owned by the requested address\r"
					},
					"tokenURI(uint256)": {
						"details": "Returns an URI for a given token ID\rThrows if the token ID does not exist. May return an empty string.\r",
						"params": {
							"_tokenId": "uint256 ID of the token to query\r"
						}
					},
					"totalSupply()": {
						"details": "Gets the total amount of tokens stored by the contract\r",
						"return": "uint256 representing the total amount of tokens\r"
					},
					"transferFrom(address,address,uint256)": {
						"details": "Transfers the ownership of a given token ID to another address\rUsage of this method is discouraged, use `safeTransferFrom` whenever possible\rRequires the msg sender to be the owner, approved, or operator\r",
						"params": {
							"_from": "current owner of the token\r",
							"_to": "address to receive the ownership of the given token ID\r",
							"_tokenId": "uint256 ID of the token to be transferred\r"
						}
					}
				},
				"title": "Full ERC721 Token\r This implementation includes all the required and some optional functionality of the ERC721 standard\r Moreover, it includes approve all functionality using operator terminology\r"
			},
			"evm": {
				"assembly": "    /* \"contracts/ERC721.sol\":25955:35520  contract ERC721Token is ERC721, ERC721BasicToken {\r... */\n  mstore(0x40, 0x80)\n    /* \"contracts/ERC721.sol\":27713:27825  constructor(string _name, string _symbol) public { // 생성자\r... */\n  callvalue\n    /* \"--CODEGEN--\":8:17   */\n  dup1\n    /* \"--CODEGEN--\":5:7   */\n  iszero\n  tag_1\n  jumpi\n    /* \"--CODEGEN--\":30:31   */\n  0x0\n    /* \"--CODEGEN--\":27:28   */\n  dup1\n    /* \"--CODEGEN--\":20:32   */\n  revert\n    /* \"--CODEGEN--\":5:7   */\ntag_1:\n    /* \"contracts/ERC721.sol\":27713:27825  constructor(string _name, string _symbol) public { // 생성자\r... */\n  pop\n  mload(0x40)\n  sub(codesize, bytecodeSize)\n  dup1\n  bytecodeSize\n  dup4\n  codecopy\n  dup2\n  add\n  dup1\n  0x40\n  mstore\n  dup2\n  add\n  swap1\n  dup1\n  dup1\n  mload\n  dup3\n  add\n  swap3\n  swap2\n  swap1\n  0x20\n  add\n  dup1\n  mload\n  dup3\n  add\n  swap3\n  swap2\n  swap1\n  pop\n  pop\n  pop\n    /* \"contracts/ERC721.sol\":1193:1231  _registerInterface(InterfaceId_ERC165) */\n  tag_8\n    /* \"contracts/ERC721.sol\":794:804  0x01ffc9a7 */\n  0x1ffc9a7\n    /* \"contracts/ERC721.sol\":1212:1230  InterfaceId_ERC165 */\n  0x100000000000000000000000000000000000000000000000000000000\n  mul\n    /* \"contracts/ERC721.sol\":1193:1211  _registerInterface */\n  mul(0x100000000, tag_9)\n    /* \"contracts/ERC721.sol\":1193:1231  _registerInterface(InterfaceId_ERC165) */\n  0x100000000\n  swap1\n  div\n  jump\t// in\ntag_8:\n    /* \"contracts/ERC721.sol\":3333:3371  _registerInterface(InterfaceId_ERC721) */\n  tag_11\n    /* \"contracts/ERC721.sol\":2471:2481  0x80ac58cd */\n  0x80ac58cd\n    /* \"contracts/ERC721.sol\":3352:3370  InterfaceId_ERC721 */\n  0x100000000000000000000000000000000000000000000000000000000\n  mul\n    /* \"contracts/ERC721.sol\":3333:3351  _registerInterface */\n  mul(0x100000000, tag_9)\n    /* \"contracts/ERC721.sol\":3333:3371  _registerInterface(InterfaceId_ERC721) */\n  0x100000000\n  swap1\n  div\n  jump\t// in\ntag_11:\n    /* \"contracts/ERC721.sol\":3378:3422  _registerInterface(InterfaceId_ERC721Exists) */\n  tag_12\n    /* \"contracts/ERC721.sol\":3126:3136  0x4f558e79 */\n  0x4f558e79\n    /* \"contracts/ERC721.sol\":3397:3421  InterfaceId_ERC721Exists */\n  0x100000000000000000000000000000000000000000000000000000000\n  mul\n    /* \"contracts/ERC721.sol\":3378:3396  _registerInterface */\n  mul(0x100000000, tag_9)\n    /* \"contracts/ERC721.sol\":3378:3422  _registerInterface(InterfaceId_ERC721Exists) */\n  0x100000000\n  swap1\n  div\n  jump\t// in\ntag_12:\n    /* \"contracts/ERC721.sol\":23089:23137  _registerInterface(InterfaceId_ERC721Enumerable) */\n  tag_14\n    /* \"contracts/ERC721.sol\":22837:22847  0x780e9d63 */\n  0x780e9d63\n    /* \"contracts/ERC721.sol\":23108:23136  InterfaceId_ERC721Enumerable */\n  0x100000000000000000000000000000000000000000000000000000000\n  mul\n    /* \"contracts/ERC721.sol\":23089:23107  _registerInterface */\n  mul(0x100000000, tag_9)\n    /* \"contracts/ERC721.sol\":23089:23137  _registerInterface(InterfaceId_ERC721Enumerable) */\n  0x100000000\n  swap1\n  div\n  jump\t// in\ntag_14:\n    /* \"contracts/ERC721.sol\":24175:24221  _registerInterface(InterfaceId_ERC721Metadata) */\n  tag_16\n    /* \"contracts/ERC721.sol\":23962:23972  0x5b5e139f */\n  0x5b5e139f\n    /* \"contracts/ERC721.sol\":24194:24220  InterfaceId_ERC721Metadata */\n  0x100000000000000000000000000000000000000000000000000000000\n  mul\n    /* \"contracts/ERC721.sol\":24175:24193  _registerInterface */\n  mul(0x100000000, tag_9)\n    /* \"contracts/ERC721.sol\":24175:24221  _registerInterface(InterfaceId_ERC721Metadata) */\n  0x100000000\n  swap1\n  div\n  jump\t// in\ntag_16:\n    /* \"contracts/ERC721.sol\":27790:27795  _name */\n  dup2\n    /* \"contracts/ERC721.sol\":27782:27787  name_ */\n  0x5\n    /* \"contracts/ERC721.sol\":27782:27795  name_ = _name */\n  swap1\n  dup1\n  mload\n  swap1\n  0x20\n  add\n  swap1\n  tag_18\n  swap3\n  swap2\n  swap1\n  jump\t// in(tag_19)\ntag_18:\n  pop\n    /* \"contracts/ERC721.sol\":27812:27819  _symbol */\n  dup1\n    /* \"contracts/ERC721.sol\":27802:27809  symbol_ */\n  0x6\n    /* \"contracts/ERC721.sol\":27802:27819  symbol_ = _symbol */\n  swap1\n  dup1\n  mload\n  swap1\n  0x20\n  add\n  swap1\n  tag_20\n  swap3\n  swap2\n  swap1\n  jump\t// in(tag_19)\ntag_20:\n  pop\n    /* \"contracts/ERC721.sol\":27713:27825  constructor(string _name, string _symbol) public { // 생성자\r... */\n  pop\n  pop\n    /* \"contracts/ERC721.sol\":25955:35520  contract ERC721Token is ERC721, ERC721BasicToken {\r... */\n  jump(tag_21)\n    /* \"contracts/ERC721.sol\":1548:1709  function _registerInterface(bytes4 _interfaceId)\r... */\ntag_9:\n    /* \"contracts/ERC721.sol\":1645:1655  0xffffffff */\n  0xffffffff\n    /* \"contracts/ERC721.sol\":1629:1655  _interfaceId != 0xffffffff */\n  0x100000000000000000000000000000000000000000000000000000000\n  mul\n    /* \"contracts/ERC721.sol\":1629:1641  _interfaceId */\n  dup2\n    /* \"contracts/ERC721.sol\":1629:1655  _interfaceId != 0xffffffff */\n  not(0xffffffffffffffffffffffffffffffffffffffffffffffffffffffff)\n  and\n  eq\n  iszero\n    /* \"contracts/ERC721.sol\":1621:1656  require(_interfaceId != 0xffffffff) */\n  iszero\n  iszero\n  tag_23\n  jumpi\n  0x0\n  dup1\n  revert\ntag_23:\n    /* \"contracts/ERC721.sol\":1699:1703  true */\n  0x1\n    /* \"contracts/ERC721.sol\":1663:1682  supportedInterfaces */\n  0x0\n    /* \"contracts/ERC721.sol\":1663:1696  supportedInterfaces[_interfaceId] */\n  dup1\n    /* \"contracts/ERC721.sol\":1683:1695  _interfaceId */\n  dup4\n    /* \"contracts/ERC721.sol\":1663:1696  supportedInterfaces[_interfaceId] */\n  not(0xffffffffffffffffffffffffffffffffffffffffffffffffffffffff)\n  and\n  not(0xffffffffffffffffffffffffffffffffffffffffffffffffffffffff)\n  and\n  dup2\n  mstore\n  0x20\n  add\n  swap1\n  dup2\n  mstore\n  0x20\n  add\n  0x0\n  keccak256\n  0x0\n    /* \"contracts/ERC721.sol\":1663:1703  supportedInterfaces[_interfaceId] = true */\n  0x100\n  exp\n  dup2\n  sload\n  dup2\n  0xff\n  mul\n  not\n  and\n  swap1\n  dup4\n  iszero\n  iszero\n  mul\n  or\n  swap1\n  sstore\n  pop\n    /* \"contracts/ERC721.sol\":1548:1709  function _registerInterface(bytes4 _interfaceId)\r... */\n  pop\n  jump\t// out\n    /* \"contracts/ERC721.sol\":25955:35520  contract ERC721Token is ERC721, ERC721BasicToken {\r... */\ntag_19:\n  dup3\n  dup1\n  sload\n  0x1\n  dup2\n  0x1\n  and\n  iszero\n  0x100\n  mul\n  sub\n  and\n  0x2\n  swap1\n  div\n  swap1\n  0x0\n  mstore\n  keccak256(0x0, 0x20)\n  swap1\n  0x1f\n  add\n  0x20\n  swap1\n  div\n  dup2\n  add\n  swap3\n  dup3\n  0x1f\n  lt\n  tag_25\n  jumpi\n  dup1\n  mload\n  not(0xff)\n  and\n  dup4\n  dup1\n  add\n  or\n  dup6\n  sstore\n  jump(tag_24)\ntag_25:\n  dup3\n  dup1\n  add\n  0x1\n  add\n  dup6\n  sstore\n  dup3\n  iszero\n  tag_24\n  jumpi\n  swap2\n  dup3\n  add\ntag_26:\n  dup3\n  dup2\n  gt\n  iszero\n  tag_27\n  jumpi\n  dup3\n  mload\n  dup3\n  sstore\n  swap2\n  0x20\n  add\n  swap2\n  swap1\n  0x1\n  add\n  swap1\n  jump(tag_26)\ntag_27:\ntag_24:\n  pop\n  swap1\n  pop\n  tag_28\n  swap2\n  swap1\n  jump\t// in(tag_29)\ntag_28:\n  pop\n  swap1\n  jump\t// out\ntag_29:\n  tag_30\n  swap2\n  swap1\ntag_31:\n  dup1\n  dup3\n  gt\n  iszero\n  tag_32\n  jumpi\n  0x0\n  dup2\n  0x0\n  swap1\n  sstore\n  pop\n  0x1\n  add\n  jump(tag_31)\ntag_32:\n  pop\n  swap1\n  jump\ntag_30:\n  swap1\n  jump\t// out\ntag_21:\n  dataSize(sub_0)\n  dup1\n  dataOffset(sub_0)\n  0x0\n  codecopy\n  0x0\n  return\nstop\n\nsub_0: assembly {\n        /* \"contracts/ERC721.sol\":25955:35520  contract ERC721Token is ERC721, ERC721BasicToken {\r... */\n      mstore(0x40, 0x80)\n      jumpi(tag_1, lt(calldatasize, 0x4))\n      calldataload(0x0)\n      0x100000000000000000000000000000000000000000000000000000000\n      swap1\n      div\n      0xffffffff\n      and\n      dup1\n      0x1ffc9a7\n      eq\n      tag_2\n      jumpi\n      dup1\n      0x6fdde03\n      eq\n      tag_3\n      jumpi\n      dup1\n      0x81812fc\n      eq\n      tag_4\n      jumpi\n      dup1\n      0x95ea7b3\n      eq\n      tag_5\n      jumpi\n      dup1\n      0x18160ddd\n      eq\n      tag_6\n      jumpi\n      dup1\n      0x19fa8f50\n      eq\n      tag_7\n      jumpi\n      dup1\n      0x23b872dd\n      eq\n      tag_8\n      jumpi\n      dup1\n      0x2f745c59\n      eq\n      tag_9\n      jumpi\n      dup1\n      0x42842e0e\n      eq\n      tag_10\n      jumpi\n      dup1\n      0x4f558e79\n      eq\n      tag_11\n      jumpi\n      dup1\n      0x4f6ccce7\n      eq\n      tag_12\n      jumpi\n      dup1\n      0x6352211e\n      eq\n      tag_13\n      jumpi\n      dup1\n      0x70a08231\n      eq\n      tag_14\n      jumpi\n      dup1\n      0x95d89b41\n      eq\n      tag_15\n      jumpi\n      dup1\n      0xa22cb465\n      eq\n      tag_16\n      jumpi\n      dup1\n      0xb88d4fde\n      eq\n      tag_17\n      jumpi\n      dup1\n      0xc87b56dd\n      eq\n      tag_18\n      jumpi\n      dup1\n      0xe985e9c5\n      eq\n      tag_19\n      jumpi\n    tag_1:\n      0x0\n      dup1\n      revert\n        /* \"contracts/ERC721.sol\":1325:1473  function supportsInterface(bytes4 _interfaceId)\r... */\n    tag_2:\n      callvalue\n        /* \"--CODEGEN--\":8:17   */\n      dup1\n        /* \"--CODEGEN--\":5:7   */\n      iszero\n      tag_20\n      jumpi\n        /* \"--CODEGEN--\":30:31   */\n      0x0\n        /* \"--CODEGEN--\":27:28   */\n      dup1\n        /* \"--CODEGEN--\":20:32   */\n      revert\n        /* \"--CODEGEN--\":5:7   */\n    tag_20:\n        /* \"contracts/ERC721.sol\":1325:1473  function supportsInterface(bytes4 _interfaceId)\r... */\n      pop\n      tag_21\n      0x4\n      dup1\n      calldatasize\n      sub\n      dup2\n      add\n      swap1\n      dup1\n      dup1\n      calldataload\n      not(0xffffffffffffffffffffffffffffffffffffffffffffffffffffffff)\n      and\n      swap1\n      0x20\n      add\n      swap1\n      swap3\n      swap2\n      swap1\n      pop\n      pop\n      pop\n      jump(tag_22)\n    tag_21:\n      mload(0x40)\n      dup1\n      dup3\n      iszero\n      iszero\n      iszero\n      iszero\n      dup2\n      mstore\n      0x20\n      add\n      swap2\n      pop\n      pop\n      mload(0x40)\n      dup1\n      swap2\n      sub\n      swap1\n      return\n        /* \"contracts/ERC721.sol\":27925:28012  function name() external view returns (string) { // name 함수\r... */\n    tag_3:\n      callvalue\n        /* \"--CODEGEN--\":8:17   */\n      dup1\n        /* \"--CODEGEN--\":5:7   */\n      iszero\n      tag_23\n      jumpi\n        /* \"--CODEGEN--\":30:31   */\n      0x0\n        /* \"--CODEGEN--\":27:28   */\n      dup1\n        /* \"--CODEGEN--\":20:32   */\n      revert\n        /* \"--CODEGEN--\":5:7   */\n    tag_23:\n        /* \"contracts/ERC721.sol\":27925:28012  function name() external view returns (string) { // name 함수\r... */\n      pop\n      tag_24\n      jump(tag_25)\n    tag_24:\n      mload(0x40)\n      dup1\n      dup1\n      0x20\n      add\n      dup3\n      dup2\n      sub\n      dup3\n      mstore\n      dup4\n      dup2\n      dup2\n      mload\n      dup2\n      mstore\n      0x20\n      add\n      swap2\n      pop\n      dup1\n      mload\n      swap1\n      0x20\n      add\n      swap1\n      dup1\n      dup4\n      dup4\n        /* \"--CODEGEN--\":23:24   */\n      0x0\n        /* \"--CODEGEN--\":8:108   */\n    tag_26:\n        /* \"--CODEGEN--\":33:36   */\n      dup4\n        /* \"--CODEGEN--\":30:31   */\n      dup2\n        /* \"--CODEGEN--\":27:37   */\n      lt\n        /* \"--CODEGEN--\":8:108   */\n      iszero\n      tag_27\n      jumpi\n        /* \"--CODEGEN--\":99:100   */\n      dup1\n        /* \"--CODEGEN--\":94:97   */\n      dup3\n        /* \"--CODEGEN--\":90:101   */\n      add\n        /* \"--CODEGEN--\":84:102   */\n      mload\n        /* \"--CODEGEN--\":80:81   */\n      dup2\n        /* \"--CODEGEN--\":75:78   */\n      dup5\n        /* \"--CODEGEN--\":71:82   */\n      add\n        /* \"--CODEGEN--\":64:103   */\n      mstore\n        /* \"--CODEGEN--\":52:54   */\n      0x20\n        /* \"--CODEGEN--\":49:50   */\n      dup2\n        /* \"--CODEGEN--\":45:55   */\n      add\n        /* \"--CODEGEN--\":40:55   */\n      swap1\n      pop\n        /* \"--CODEGEN--\":8:108   */\n      jump(tag_26)\n    tag_27:\n        /* \"--CODEGEN--\":12:26   */\n      pop\n        /* \"contracts/ERC721.sol\":27925:28012  function name() external view returns (string) { // name 함수\r... */\n      pop\n      pop\n      pop\n      swap1\n      pop\n      swap1\n      dup2\n      add\n      swap1\n      0x1f\n      and\n      dup1\n      iszero\n      tag_29\n      jumpi\n      dup1\n      dup3\n      sub\n      dup1\n      mload\n      0x1\n      dup4\n      0x20\n      sub\n      0x100\n      exp\n      sub\n      not\n      and\n      dup2\n      mstore\n      0x20\n      add\n      swap2\n      pop\n    tag_29:\n      pop\n      swap3\n      pop\n      pop\n      pop\n      mload(0x40)\n      dup1\n      swap2\n      sub\n      swap1\n      return\n        /* \"contracts/ERC721.sol\":12182:12329  function getApproved(uint256 _tokenId) public view returns (address) {\r... */\n    tag_4:\n      callvalue\n        /* \"--CODEGEN--\":8:17   */\n      dup1\n        /* \"--CODEGEN--\":5:7   */\n      iszero\n      tag_30\n      jumpi\n        /* \"--CODEGEN--\":30:31   */\n      0x0\n        /* \"--CODEGEN--\":27:28   */\n      dup1\n        /* \"--CODEGEN--\":20:32   */\n      revert\n        /* \"--CODEGEN--\":5:7   */\n    tag_30:\n        /* \"contracts/ERC721.sol\":12182:12329  function getApproved(uint256 _tokenId) public view returns (address) {\r... */\n      pop\n      tag_31\n      0x4\n      dup1\n      calldatasize\n      sub\n      dup2\n      add\n      swap1\n      dup1\n      dup1\n      calldataload\n      swap1\n      0x20\n      add\n      swap1\n      swap3\n      swap2\n      swap1\n      pop\n      pop\n      pop\n      jump(tag_32)\n    tag_31:\n      mload(0x40)\n      dup1\n      dup3\n      0xffffffffffffffffffffffffffffffffffffffff\n      and\n      0xffffffffffffffffffffffffffffffffffffffff\n      and\n      dup2\n      mstore\n      0x20\n      add\n      swap2\n      pop\n      pop\n      mload(0x40)\n      dup1\n      swap2\n      sub\n      swap1\n      return\n        /* \"contracts/ERC721.sol\":11284:11948  function approve(address _to, uint256 _tokenId) public {\r... */\n    tag_5:\n      callvalue\n        /* \"--CODEGEN--\":8:17   */\n      dup1\n        /* \"--CODEGEN--\":5:7   */\n      iszero\n      tag_33\n      jumpi\n        /* \"--CODEGEN--\":30:31   */\n      0x0\n        /* \"--CODEGEN--\":27:28   */\n      dup1\n        /* \"--CODEGEN--\":20:32   */\n      revert\n        /* \"--CODEGEN--\":5:7   */\n    tag_33:\n        /* \"contracts/ERC721.sol\":11284:11948  function approve(address _to, uint256 _tokenId) public {\r... */\n      pop\n      tag_34\n      0x4\n      dup1\n      calldatasize\n      sub\n      dup2\n      add\n      swap1\n      dup1\n      dup1\n      calldataload\n      0xffffffffffffffffffffffffffffffffffffffff\n      and\n      swap1\n      0x20\n      add\n      swap1\n      swap3\n      swap2\n      swap1\n      dup1\n      calldataload\n      swap1\n      0x20\n      add\n      swap1\n      swap3\n      swap2\n      swap1\n      pop\n      pop\n      pop\n      jump(tag_35)\n    tag_34:\n      stop\n        /* \"contracts/ERC721.sol\":29448:29615  function totalSupply() public view returns (uint256) {\r... */\n    tag_6:\n      callvalue\n        /* \"--CODEGEN--\":8:17   */\n      dup1\n        /* \"--CODEGEN--\":5:7   */\n      iszero\n      tag_36\n      jumpi\n        /* \"--CODEGEN--\":30:31   */\n      0x0\n        /* \"--CODEGEN--\":27:28   */\n      dup1\n        /* \"--CODEGEN--\":20:32   */\n      revert\n        /* \"--CODEGEN--\":5:7   */\n    tag_36:\n        /* \"contracts/ERC721.sol\":29448:29615  function totalSupply() public view returns (uint256) {\r... */\n      pop\n      tag_37\n      jump(tag_38)\n    tag_37:\n      mload(0x40)\n      dup1\n      dup3\n      dup2\n      mstore\n      0x20\n      add\n      swap2\n      pop\n      pop\n      mload(0x40)\n      dup1\n      swap2\n      sub\n      swap1\n      return\n        /* \"contracts/ERC721.sol\":750:804  bytes4 public constant InterfaceId_ERC165 = 0x01ffc9a7 */\n    tag_7:\n      callvalue\n        /* \"--CODEGEN--\":8:17   */\n      dup1\n        /* \"--CODEGEN--\":5:7   */\n      iszero\n      tag_39\n      jumpi\n        /* \"--CODEGEN--\":30:31   */\n      0x0\n        /* \"--CODEGEN--\":27:28   */\n      dup1\n        /* \"--CODEGEN--\":20:32   */\n      revert\n        /* \"--CODEGEN--\":5:7   */\n    tag_39:\n        /* \"contracts/ERC721.sol\":750:804  bytes4 public constant InterfaceId_ERC165 = 0x01ffc9a7 */\n      pop\n      tag_40\n      jump(tag_41)\n    tag_40:\n      mload(0x40)\n      dup1\n      dup3\n      not(0xffffffffffffffffffffffffffffffffffffffffffffffffffffffff)\n      and\n      not(0xffffffffffffffffffffffffffffffffffffffffffffffffffffffff)\n      and\n      dup2\n      mstore\n      0x20\n      add\n      swap2\n      pop\n      pop\n      mload(0x40)\n      dup1\n      swap2\n      sub\n      swap1\n      return\n        /* \"contracts/ERC721.sol\":13945:14502  function transferFrom(\r... */\n    tag_8:\n      callvalue\n        /* \"--CODEGEN--\":8:17   */\n      dup1\n        /* \"--CODEGEN--\":5:7   */\n      iszero\n      tag_42\n      jumpi\n        /* \"--CODEGEN--\":30:31   */\n      0x0\n        /* \"--CODEGEN--\":27:28   */\n      dup1\n        /* \"--CODEGEN--\":20:32   */\n      revert\n        /* \"--CODEGEN--\":5:7   */\n    tag_42:\n        /* \"contracts/ERC721.sol\":13945:14502  function transferFrom(\r... */\n      pop\n      tag_43\n      0x4\n      dup1\n      calldatasize\n      sub\n      dup2\n      add\n      swap1\n      dup1\n      dup1\n      calldataload\n      0xffffffffffffffffffffffffffffffffffffffff\n      and\n      swap1\n      0x20\n      add\n      swap1\n      swap3\n      swap2\n      swap1\n      dup1\n      calldataload\n      0xffffffffffffffffffffffffffffffffffffffff\n      and\n      swap1\n      0x20\n      add\n      swap1\n      swap3\n      swap2\n      swap1\n      dup1\n      calldataload\n      swap1\n      0x20\n      add\n      swap1\n      swap3\n      swap2\n      swap1\n      pop\n      pop\n      pop\n      jump(tag_44)\n    tag_43:\n      stop\n        /* \"contracts/ERC721.sol\":28985:29294  function tokenOfOwnerByIndex(\r... */\n    tag_9:\n      callvalue\n        /* \"--CODEGEN--\":8:17   */\n      dup1\n        /* \"--CODEGEN--\":5:7   */\n      iszero\n      tag_45\n      jumpi\n        /* \"--CODEGEN--\":30:31   */\n      0x0\n        /* \"--CODEGEN--\":27:28   */\n      dup1\n        /* \"--CODEGEN--\":20:32   */\n      revert\n        /* \"--CODEGEN--\":5:7   */\n    tag_45:\n        /* \"contracts/ERC721.sol\":28985:29294  function tokenOfOwnerByIndex(\r... */\n      pop\n      tag_46\n      0x4\n      dup1\n      calldatasize\n      sub\n      dup2\n      add\n      swap1\n      dup1\n      dup1\n      calldataload\n      0xffffffffffffffffffffffffffffffffffffffff\n      and\n      swap1\n      0x20\n      add\n      swap1\n      swap3\n      swap2\n      swap1\n      dup1\n      calldataload\n      swap1\n      0x20\n      add\n      swap1\n      swap3\n      swap2\n      swap1\n      pop\n      pop\n      pop\n      jump(tag_47)\n    tag_46:\n      mload(0x40)\n      dup1\n      dup3\n      dup2\n      mstore\n      0x20\n      add\n      swap2\n      pop\n      pop\n      mload(0x40)\n      dup1\n      swap2\n      sub\n      swap1\n      return\n        /* \"contracts/ERC721.sol\":15135:15477  function safeTransferFrom(\r... */\n    tag_10:\n      callvalue\n        /* \"--CODEGEN--\":8:17   */\n      dup1\n        /* \"--CODEGEN--\":5:7   */\n      iszero\n      tag_48\n      jumpi\n        /* \"--CODEGEN--\":30:31   */\n      0x0\n        /* \"--CODEGEN--\":27:28   */\n      dup1\n        /* \"--CODEGEN--\":20:32   */\n      revert\n        /* \"--CODEGEN--\":5:7   */\n    tag_48:\n        /* \"contracts/ERC721.sol\":15135:15477  function safeTransferFrom(\r... */\n      pop\n      tag_49\n      0x4\n      dup1\n      calldatasize\n      sub\n      dup2\n      add\n      swap1\n      dup1\n      dup1\n      calldataload\n      0xffffffffffffffffffffffffffffffffffffffff\n      and\n      swap1\n      0x20\n      add\n      swap1\n      swap3\n      swap2\n      swap1\n      dup1\n      calldataload\n      0xffffffffffffffffffffffffffffffffffffffff\n      and\n      swap1\n      0x20\n      add\n      swap1\n      swap3\n      swap2\n      swap1\n      dup1\n      calldataload\n      swap1\n      0x20\n      add\n      swap1\n      swap3\n      swap2\n      swap1\n      pop\n      pop\n      pop\n      jump(tag_50)\n    tag_49:\n      stop\n        /* \"contracts/ERC721.sol\":10557:10854  function exists(uint256 _tokenId) public view returns (bool) {\r... */\n    tag_11:\n      callvalue\n        /* \"--CODEGEN--\":8:17   */\n      dup1\n        /* \"--CODEGEN--\":5:7   */\n      iszero\n      tag_51\n      jumpi\n        /* \"--CODEGEN--\":30:31   */\n      0x0\n        /* \"--CODEGEN--\":27:28   */\n      dup1\n        /* \"--CODEGEN--\":20:32   */\n      revert\n        /* \"--CODEGEN--\":5:7   */\n    tag_51:\n        /* \"contracts/ERC721.sol\":10557:10854  function exists(uint256 _tokenId) public view returns (bool) {\r... */\n      pop\n      tag_52\n      0x4\n      dup1\n      calldatasize\n      sub\n      dup2\n      add\n      swap1\n      dup1\n      dup1\n      calldataload\n      swap1\n      0x20\n      add\n      swap1\n      swap3\n      swap2\n      swap1\n      pop\n      pop\n      pop\n      jump(tag_53)\n    tag_52:\n      mload(0x40)\n      dup1\n      dup3\n      iszero\n      iszero\n      iszero\n      iszero\n      dup2\n      mstore\n      0x20\n      add\n      swap2\n      pop\n      pop\n      mload(0x40)\n      dup1\n      swap2\n      sub\n      swap1\n      return\n        /* \"contracts/ERC721.sol\":29960:30193  function tokenByIndex(uint256 _index) public view returns (uint256) {\r... */\n    tag_12:\n      callvalue\n        /* \"--CODEGEN--\":8:17   */\n      dup1\n        /* \"--CODEGEN--\":5:7   */\n      iszero\n      tag_54\n      jumpi\n        /* \"--CODEGEN--\":30:31   */\n      0x0\n        /* \"--CODEGEN--\":27:28   */\n      dup1\n        /* \"--CODEGEN--\":20:32   */\n      revert\n        /* \"--CODEGEN--\":5:7   */\n    tag_54:\n        /* \"contracts/ERC721.sol\":29960:30193  function tokenByIndex(uint256 _index) public view returns (uint256) {\r... */\n      pop\n      tag_55\n      0x4\n      dup1\n      calldatasize\n      sub\n      dup2\n      add\n      swap1\n      dup1\n      dup1\n      calldataload\n      swap1\n      0x20\n      add\n      swap1\n      swap3\n      swap2\n      swap1\n      pop\n      pop\n      pop\n      jump(tag_56)\n    tag_55:\n      mload(0x40)\n      dup1\n      dup3\n      dup2\n      mstore\n      0x20\n      add\n      swap2\n      pop\n      pop\n      mload(0x40)\n      dup1\n      swap2\n      sub\n      swap1\n      return\n        /* \"contracts/ERC721.sol\":10093:10372  function ownerOf(uint256 _tokenId) public view returns (address) {\r... */\n    tag_13:\n      callvalue\n        /* \"--CODEGEN--\":8:17   */\n      dup1\n        /* \"--CODEGEN--\":5:7   */\n      iszero\n      tag_57\n      jumpi\n        /* \"--CODEGEN--\":30:31   */\n      0x0\n        /* \"--CODEGEN--\":27:28   */\n      dup1\n        /* \"--CODEGEN--\":20:32   */\n      revert\n        /* \"--CODEGEN--\":5:7   */\n    tag_57:\n        /* \"contracts/ERC721.sol\":10093:10372  function ownerOf(uint256 _tokenId) public view returns (address) {\r... */\n      pop\n      tag_58\n      0x4\n      dup1\n      calldatasize\n      sub\n      dup2\n      add\n      swap1\n      dup1\n      dup1\n      calldataload\n      swap1\n      0x20\n      add\n      swap1\n      swap3\n      swap2\n      swap1\n      pop\n      pop\n      pop\n      jump(tag_59)\n    tag_58:\n      mload(0x40)\n      dup1\n      dup3\n      0xffffffffffffffffffffffffffffffffffffffff\n      and\n      0xffffffffffffffffffffffffffffffffffffffff\n      and\n      dup2\n      mstore\n      0x20\n      add\n      swap2\n      pop\n      pop\n      mload(0x40)\n      dup1\n      swap2\n      sub\n      swap1\n      return\n        /* \"contracts/ERC721.sol\":9653:9873  function balanceOf(address _owner) public view returns (uint256) {\r... */\n    tag_14:\n      callvalue\n        /* \"--CODEGEN--\":8:17   */\n      dup1\n        /* \"--CODEGEN--\":5:7   */\n      iszero\n      tag_60\n      jumpi\n        /* \"--CODEGEN--\":30:31   */\n      0x0\n        /* \"--CODEGEN--\":27:28   */\n      dup1\n        /* \"--CODEGEN--\":20:32   */\n      revert\n        /* \"--CODEGEN--\":5:7   */\n    tag_60:\n        /* \"contracts/ERC721.sol\":9653:9873  function balanceOf(address _owner) public view returns (uint256) {\r... */\n      pop\n      tag_61\n      0x4\n      dup1\n      calldatasize\n      sub\n      dup2\n      add\n      swap1\n      dup1\n      dup1\n      calldataload\n      0xffffffffffffffffffffffffffffffffffffffff\n      and\n      swap1\n      0x20\n      add\n      swap1\n      swap3\n      swap2\n      swap1\n      pop\n      pop\n      pop\n      jump(tag_62)\n    tag_61:\n      mload(0x40)\n      dup1\n      dup3\n      dup2\n      mstore\n      0x20\n      add\n      swap2\n      pop\n      pop\n      mload(0x40)\n      dup1\n      swap2\n      sub\n      swap1\n      return\n        /* \"contracts/ERC721.sol\":28116:28209  function symbol() external view returns (string) { // 심볼 함수\r... */\n    tag_15:\n      callvalue\n        /* \"--CODEGEN--\":8:17   */\n      dup1\n        /* \"--CODEGEN--\":5:7   */\n      iszero\n      tag_63\n      jumpi\n        /* \"--CODEGEN--\":30:31   */\n      0x0\n        /* \"--CODEGEN--\":27:28   */\n      dup1\n        /* \"--CODEGEN--\":20:32   */\n      revert\n        /* \"--CODEGEN--\":5:7   */\n    tag_63:\n        /* \"contracts/ERC721.sol\":28116:28209  function symbol() external view returns (string) { // 심볼 함수\r... */\n      pop\n      tag_64\n      jump(tag_65)\n    tag_64:\n      mload(0x40)\n      dup1\n      dup1\n      0x20\n      add\n      dup3\n      dup2\n      sub\n      dup3\n      mstore\n      dup4\n      dup2\n      dup2\n      mload\n      dup2\n      mstore\n      0x20\n      add\n      swap2\n      pop\n      dup1\n      mload\n      swap1\n      0x20\n      add\n      swap1\n      dup1\n      dup4\n      dup4\n        /* \"--CODEGEN--\":23:24   */\n      0x0\n        /* \"--CODEGEN--\":8:108   */\n    tag_66:\n        /* \"--CODEGEN--\":33:36   */\n      dup4\n        /* \"--CODEGEN--\":30:31   */\n      dup2\n        /* \"--CODEGEN--\":27:37   */\n      lt\n        /* \"--CODEGEN--\":8:108   */\n      iszero\n      tag_67\n      jumpi\n        /* \"--CODEGEN--\":99:100   */\n      dup1\n        /* \"--CODEGEN--\":94:97   */\n      dup3\n        /* \"--CODEGEN--\":90:101   */\n      add\n        /* \"--CODEGEN--\":84:102   */\n      mload\n        /* \"--CODEGEN--\":80:81   */\n      dup2\n        /* \"--CODEGEN--\":75:78   */\n      dup5\n        /* \"--CODEGEN--\":71:82   */\n      add\n        /* \"--CODEGEN--\":64:103   */\n      mstore\n        /* \"--CODEGEN--\":52:54   */\n      0x20\n        /* \"--CODEGEN--\":49:50   */\n      dup2\n        /* \"--CODEGEN--\":45:55   */\n      add\n        /* \"--CODEGEN--\":40:55   */\n      swap1\n      pop\n        /* \"--CODEGEN--\":8:108   */\n      jump(tag_66)\n    tag_67:\n        /* \"--CODEGEN--\":12:26   */\n      pop\n        /* \"contracts/ERC721.sol\":28116:28209  function symbol() external view returns (string) { // 심볼 함수\r... */\n      pop\n      pop\n      pop\n      swap1\n      pop\n      swap1\n      dup2\n      add\n      swap1\n      0x1f\n      and\n      dup1\n      iszero\n      tag_69\n      jumpi\n      dup1\n      dup3\n      sub\n      dup1\n      mload\n      0x1\n      dup4\n      0x20\n      sub\n      0x100\n      exp\n      sub\n      not\n      and\n      dup2\n      mstore\n      0x20\n      add\n      swap2\n      pop\n    tag_69:\n      pop\n      swap3\n      pop\n      pop\n      pop\n      mload(0x40)\n      dup1\n      swap2\n      sub\n      swap1\n      return\n        /* \"contracts/ERC721.sol\":12622:12927  function setApprovalForAll(address _to, bool _approved) public {\r... */\n    tag_16:\n      callvalue\n        /* \"--CODEGEN--\":8:17   */\n      dup1\n        /* \"--CODEGEN--\":5:7   */\n      iszero\n      tag_70\n      jumpi\n        /* \"--CODEGEN--\":30:31   */\n      0x0\n        /* \"--CODEGEN--\":27:28   */\n      dup1\n        /* \"--CODEGEN--\":20:32   */\n      revert\n        /* \"--CODEGEN--\":5:7   */\n    tag_70:\n        /* \"contracts/ERC721.sol\":12622:12927  function setApprovalForAll(address _to, bool _approved) public {\r... */\n      pop\n      tag_71\n      0x4\n      dup1\n      calldatasize\n      sub\n      dup2\n      add\n      swap1\n      dup1\n      dup1\n      calldataload\n      0xffffffffffffffffffffffffffffffffffffffff\n      and\n      swap1\n      0x20\n      add\n      swap1\n      swap3\n      swap2\n      swap1\n      dup1\n      calldataload\n      iszero\n      iszero\n      swap1\n      0x20\n      add\n      swap1\n      swap3\n      swap2\n      swap1\n      pop\n      pop\n      pop\n      jump(tag_72)\n    tag_71:\n      stop\n        /* \"contracts/ERC721.sol\":16178:16645  function safeTransferFrom(\r... */\n    tag_17:\n      callvalue\n        /* \"--CODEGEN--\":8:17   */\n      dup1\n        /* \"--CODEGEN--\":5:7   */\n      iszero\n      tag_73\n      jumpi\n        /* \"--CODEGEN--\":30:31   */\n      0x0\n        /* \"--CODEGEN--\":27:28   */\n      dup1\n        /* \"--CODEGEN--\":20:32   */\n      revert\n        /* \"--CODEGEN--\":5:7   */\n    tag_73:\n        /* \"contracts/ERC721.sol\":16178:16645  function safeTransferFrom(\r... */\n      pop\n      tag_74\n      0x4\n      dup1\n      calldatasize\n      sub\n      dup2\n      add\n      swap1\n      dup1\n      dup1\n      calldataload\n      0xffffffffffffffffffffffffffffffffffffffff\n      and\n      swap1\n      0x20\n      add\n      swap1\n      swap3\n      swap2\n      swap1\n      dup1\n      calldataload\n      0xffffffffffffffffffffffffffffffffffffffff\n      and\n      swap1\n      0x20\n      add\n      swap1\n      swap3\n      swap2\n      swap1\n      dup1\n      calldataload\n      swap1\n      0x20\n      add\n      swap1\n      swap3\n      swap2\n      swap1\n      dup1\n      calldataload\n      swap1\n      0x20\n      add\n      swap1\n      dup3\n      add\n      dup1\n      calldataload\n      swap1\n      0x20\n      add\n      swap1\n      dup1\n      dup1\n      0x1f\n      add\n      0x20\n      dup1\n      swap2\n      div\n      mul\n      0x20\n      add\n      mload(0x40)\n      swap1\n      dup2\n      add\n      0x40\n      mstore\n      dup1\n      swap4\n      swap3\n      swap2\n      swap1\n      dup2\n      dup2\n      mstore\n      0x20\n      add\n      dup4\n      dup4\n      dup1\n      dup3\n      dup5\n      calldatacopy\n      dup3\n      add\n      swap2\n      pop\n      pop\n      pop\n      pop\n      pop\n      pop\n      swap2\n      swap3\n      swap2\n      swap3\n      swap1\n      pop\n      pop\n      pop\n      jump(tag_75)\n    tag_74:\n      stop\n        /* \"contracts/ERC721.sol\":28409:28610  function tokenURI(uint256 _tokenId) public view returns (string) {\r... */\n    tag_18:\n      callvalue\n        /* \"--CODEGEN--\":8:17   */\n      dup1\n        /* \"--CODEGEN--\":5:7   */\n      iszero\n      tag_76\n      jumpi\n        /* \"--CODEGEN--\":30:31   */\n      0x0\n        /* \"--CODEGEN--\":27:28   */\n      dup1\n        /* \"--CODEGEN--\":20:32   */\n      revert\n        /* \"--CODEGEN--\":5:7   */\n    tag_76:\n        /* \"contracts/ERC721.sol\":28409:28610  function tokenURI(uint256 _tokenId) public view returns (string) {\r... */\n      pop\n      tag_77\n      0x4\n      dup1\n      calldatasize\n      sub\n      dup2\n      add\n      swap1\n      dup1\n      dup1\n      calldataload\n      swap1\n      0x20\n      add\n      swap1\n      swap3\n      swap2\n      swap1\n      pop\n      pop\n      pop\n      jump(tag_78)\n    tag_77:\n      mload(0x40)\n      dup1\n      dup1\n      0x20\n      add\n      dup3\n      dup2\n      sub\n      dup3\n      mstore\n      dup4\n      dup2\n      dup2\n      mload\n      dup2\n      mstore\n      0x20\n      add\n      swap2\n      pop\n      dup1\n      mload\n      swap1\n      0x20\n      add\n      swap1\n      dup1\n      dup4\n      dup4\n        /* \"--CODEGEN--\":23:24   */\n      0x0\n        /* \"--CODEGEN--\":8:108   */\n    tag_79:\n        /* \"--CODEGEN--\":33:36   */\n      dup4\n        /* \"--CODEGEN--\":30:31   */\n      dup2\n        /* \"--CODEGEN--\":27:37   */\n      lt\n        /* \"--CODEGEN--\":8:108   */\n      iszero\n      tag_80\n      jumpi\n        /* \"--CODEGEN--\":99:100   */\n      dup1\n        /* \"--CODEGEN--\":94:97   */\n      dup3\n        /* \"--CODEGEN--\":90:101   */\n      add\n        /* \"--CODEGEN--\":84:102   */\n      mload\n        /* \"--CODEGEN--\":80:81   */\n      dup2\n        /* \"--CODEGEN--\":75:78   */\n      dup5\n        /* \"--CODEGEN--\":71:82   */\n      add\n        /* \"--CODEGEN--\":64:103   */\n      mstore\n        /* \"--CODEGEN--\":52:54   */\n      0x20\n        /* \"--CODEGEN--\":49:50   */\n      dup2\n        /* \"--CODEGEN--\":45:55   */\n      add\n        /* \"--CODEGEN--\":40:55   */\n      swap1\n      pop\n        /* \"--CODEGEN--\":8:108   */\n      jump(tag_79)\n    tag_80:\n        /* \"--CODEGEN--\":12:26   */\n      pop\n        /* \"contracts/ERC721.sol\":28409:28610  function tokenURI(uint256 _tokenId) public view returns (string) {\r... */\n      pop\n      pop\n      pop\n      swap1\n      pop\n      swap1\n      dup2\n      add\n      swap1\n      0x1f\n      and\n      dup1\n      iszero\n      tag_82\n      jumpi\n      dup1\n      dup3\n      sub\n      dup1\n      mload\n      0x1\n      dup4\n      0x20\n      sub\n      0x100\n      exp\n      sub\n      not\n      and\n      dup2\n      mstore\n      0x20\n      add\n      swap2\n      pop\n    tag_82:\n      pop\n      swap3\n      pop\n      pop\n      pop\n      mload(0x40)\n      dup1\n      swap2\n      sub\n      swap1\n      return\n        /* \"contracts/ERC721.sol\":13244:13503  function isApprovedForAll(\r... */\n    tag_19:\n      callvalue\n        /* \"--CODEGEN--\":8:17   */\n      dup1\n        /* \"--CODEGEN--\":5:7   */\n      iszero\n      tag_83\n      jumpi\n        /* \"--CODEGEN--\":30:31   */\n      0x0\n        /* \"--CODEGEN--\":27:28   */\n      dup1\n        /* \"--CODEGEN--\":20:32   */\n      revert\n        /* \"--CODEGEN--\":5:7   */\n    tag_83:\n        /* \"contracts/ERC721.sol\":13244:13503  function isApprovedForAll(\r... */\n      pop\n      tag_84\n      0x4\n      dup1\n      calldatasize\n      sub\n      dup2\n      add\n      swap1\n      dup1\n      dup1\n      calldataload\n      0xffffffffffffffffffffffffffffffffffffffff\n      and\n      swap1\n      0x20\n      add\n      swap1\n      swap3\n      swap2\n      swap1\n      dup1\n      calldataload\n      0xffffffffffffffffffffffffffffffffffffffff\n      and\n      swap1\n      0x20\n      add\n      swap1\n      swap3\n      swap2\n      swap1\n      pop\n      pop\n      pop\n      jump(tag_85)\n    tag_84:\n      mload(0x40)\n      dup1\n      dup3\n      iszero\n      iszero\n      iszero\n      iszero\n      dup2\n      mstore\n      0x20\n      add\n      swap2\n      pop\n      pop\n      mload(0x40)\n      dup1\n      swap2\n      sub\n      swap1\n      return\n        /* \"contracts/ERC721.sol\":1325:1473  function supportsInterface(bytes4 _interfaceId)\r... */\n    tag_22:\n        /* \"contracts/ERC721.sol\":1411:1415  bool */\n      0x0\n        /* \"contracts/ERC721.sol\":1434:1453  supportedInterfaces */\n      dup1\n        /* \"contracts/ERC721.sol\":1434:1467  supportedInterfaces[_interfaceId] */\n      0x0\n        /* \"contracts/ERC721.sol\":1454:1466  _interfaceId */\n      dup4\n        /* \"contracts/ERC721.sol\":1434:1467  supportedInterfaces[_interfaceId] */\n      not(0xffffffffffffffffffffffffffffffffffffffffffffffffffffffff)\n      and\n      not(0xffffffffffffffffffffffffffffffffffffffffffffffffffffffff)\n      and\n      dup2\n      mstore\n      0x20\n      add\n      swap1\n      dup2\n      mstore\n      0x20\n      add\n      0x0\n      keccak256\n      0x0\n      swap1\n      sload\n      swap1\n      0x100\n      exp\n      swap1\n      div\n      0xff\n      and\n        /* \"contracts/ERC721.sol\":1427:1467  return supportedInterfaces[_interfaceId] */\n      swap1\n      pop\n        /* \"contracts/ERC721.sol\":1325:1473  function supportsInterface(bytes4 _interfaceId)\r... */\n      swap2\n      swap1\n      pop\n      jump\t// out\n        /* \"contracts/ERC721.sol\":27925:28012  function name() external view returns (string) { // name 함수\r... */\n    tag_25:\n        /* \"contracts/ERC721.sol\":27964:27970  string */\n      0x60\n        /* \"contracts/ERC721.sol\":28001:28006  name_ */\n      0x5\n        /* \"contracts/ERC721.sol\":27994:28006  return name_ */\n      dup1\n      sload\n      0x1\n      dup2\n      0x1\n      and\n      iszero\n      0x100\n      mul\n      sub\n      and\n      0x2\n      swap1\n      div\n      dup1\n      0x1f\n      add\n      0x20\n      dup1\n      swap2\n      div\n      mul\n      0x20\n      add\n      mload(0x40)\n      swap1\n      dup2\n      add\n      0x40\n      mstore\n      dup1\n      swap3\n      swap2\n      swap1\n      dup2\n      dup2\n      mstore\n      0x20\n      add\n      dup3\n      dup1\n      sload\n      0x1\n      dup2\n      0x1\n      and\n      iszero\n      0x100\n      mul\n      sub\n      and\n      0x2\n      swap1\n      div\n      dup1\n      iszero\n      tag_88\n      jumpi\n      dup1\n      0x1f\n      lt\n      tag_89\n      jumpi\n      0x100\n      dup1\n      dup4\n      sload\n      div\n      mul\n      dup4\n      mstore\n      swap2\n      0x20\n      add\n      swap2\n      jump(tag_88)\n    tag_89:\n      dup3\n      add\n      swap2\n      swap1\n      0x0\n      mstore\n      keccak256(0x0, 0x20)\n      swap1\n    tag_90:\n      dup2\n      sload\n      dup2\n      mstore\n      swap1\n      0x1\n      add\n      swap1\n      0x20\n      add\n      dup1\n      dup4\n      gt\n      tag_90\n      jumpi\n      dup3\n      swap1\n      sub\n      0x1f\n      and\n      dup3\n      add\n      swap2\n    tag_88:\n      pop\n      pop\n      pop\n      pop\n      pop\n      swap1\n      pop\n        /* \"contracts/ERC721.sol\":27925:28012  function name() external view returns (string) { // name 함수\r... */\n      swap1\n      jump\t// out\n        /* \"contracts/ERC721.sol\":12182:12329  function getApproved(uint256 _tokenId) public view returns (address) {\r... */\n    tag_32:\n        /* \"contracts/ERC721.sol\":12242:12249  address */\n      0x0\n        /* \"contracts/ERC721.sol\":12265:12279  tokenApprovals */\n      0x2\n        /* \"contracts/ERC721.sol\":12265:12289  tokenApprovals[_tokenId] */\n      0x0\n        /* \"contracts/ERC721.sol\":12280:12288  _tokenId */\n      dup4\n        /* \"contracts/ERC721.sol\":12265:12289  tokenApprovals[_tokenId] */\n      dup2\n      mstore\n      0x20\n      add\n      swap1\n      dup2\n      mstore\n      0x20\n      add\n      0x0\n      keccak256\n      0x0\n      swap1\n      sload\n      swap1\n      0x100\n      exp\n      swap1\n      div\n      0xffffffffffffffffffffffffffffffffffffffff\n      and\n        /* \"contracts/ERC721.sol\":12258:12289  return tokenApprovals[_tokenId] */\n      swap1\n      pop\n        /* \"contracts/ERC721.sol\":12182:12329  function getApproved(uint256 _tokenId) public view returns (address) {\r... */\n      swap2\n      swap1\n      pop\n      jump\t// out\n        /* \"contracts/ERC721.sol\":11284:11948  function approve(address _to, uint256 _tokenId) public {\r... */\n    tag_35:\n        /* \"contracts/ERC721.sol\":11346:11359  address owner */\n      0x0\n        /* \"contracts/ERC721.sol\":11362:11379  ownerOf(_tokenId) */\n      tag_93\n        /* \"contracts/ERC721.sol\":11370:11378  _tokenId */\n      dup3\n        /* \"contracts/ERC721.sol\":11362:11369  ownerOf */\n      tag_59\n        /* \"contracts/ERC721.sol\":11362:11379  ownerOf(_tokenId) */\n      jump\t// in\n    tag_93:\n        /* \"contracts/ERC721.sol\":11346:11379  address owner = ownerOf(_tokenId) */\n      swap1\n      pop\n        /* \"contracts/ERC721.sol\":11401:11406  owner */\n      dup1\n        /* \"contracts/ERC721.sol\":11394:11406  _to != owner */\n      0xffffffffffffffffffffffffffffffffffffffff\n      and\n        /* \"contracts/ERC721.sol\":11394:11397  _to */\n      dup4\n        /* \"contracts/ERC721.sol\":11394:11406  _to != owner */\n      0xffffffffffffffffffffffffffffffffffffffff\n      and\n      eq\n      iszero\n        /* \"contracts/ERC721.sol\":11386:11407  require(_to != owner) */\n      iszero\n      iszero\n      tag_94\n      jumpi\n      0x0\n      dup1\n      revert\n    tag_94:\n        /* \"contracts/ERC721.sol\":11474:11479  owner */\n      dup1\n        /* \"contracts/ERC721.sol\":11460:11479  msg.sender == owner */\n      0xffffffffffffffffffffffffffffffffffffffff\n      and\n        /* \"contracts/ERC721.sol\":11460:11470  msg.sender */\n      caller\n        /* \"contracts/ERC721.sol\":11460:11479  msg.sender == owner */\n      0xffffffffffffffffffffffffffffffffffffffff\n      and\n      eq\n        /* \"contracts/ERC721.sol\":11460:11518  msg.sender == owner || isApprovedForAll(owner, msg.sender) */\n      dup1\n      tag_95\n      jumpi\n      pop\n        /* \"contracts/ERC721.sol\":11483:11518  isApprovedForAll(owner, msg.sender) */\n      tag_96\n        /* \"contracts/ERC721.sol\":11500:11505  owner */\n      dup2\n        /* \"contracts/ERC721.sol\":11507:11517  msg.sender */\n      caller\n        /* \"contracts/ERC721.sol\":11483:11499  isApprovedForAll */\n      tag_85\n        /* \"contracts/ERC721.sol\":11483:11518  isApprovedForAll(owner, msg.sender) */\n      jump\t// in\n    tag_96:\n        /* \"contracts/ERC721.sol\":11460:11518  msg.sender == owner || isApprovedForAll(owner, msg.sender) */\n    tag_95:\n        /* \"contracts/ERC721.sol\":11452:11519  require(msg.sender == owner || isApprovedForAll(owner, msg.sender)) */\n      iszero\n      iszero\n      tag_97\n      jumpi\n      0x0\n      dup1\n      revert\n    tag_97:\n        /* \"contracts/ERC721.sol\":11621:11622  0 */\n      0x0\n        /* \"contracts/ERC721.sol\":11588:11623  getApproved(_tokenId) != address(0) */\n      0xffffffffffffffffffffffffffffffffffffffff\n      and\n        /* \"contracts/ERC721.sol\":11588:11609  getApproved(_tokenId) */\n      tag_98\n        /* \"contracts/ERC721.sol\":11600:11608  _tokenId */\n      dup4\n        /* \"contracts/ERC721.sol\":11588:11599  getApproved */\n      tag_32\n        /* \"contracts/ERC721.sol\":11588:11609  getApproved(_tokenId) */\n      jump\t// in\n    tag_98:\n        /* \"contracts/ERC721.sol\":11588:11623  getApproved(_tokenId) != address(0) */\n      0xffffffffffffffffffffffffffffffffffffffff\n      and\n      eq\n      iszero\n        /* \"contracts/ERC721.sol\":11588:11644  getApproved(_tokenId) != address(0) || _to != address(0) */\n      dup1\n      tag_99\n      jumpi\n      pop\n        /* \"contracts/ERC721.sol\":11642:11643  0 */\n      0x0\n        /* \"contracts/ERC721.sol\":11627:11644  _to != address(0) */\n      0xffffffffffffffffffffffffffffffffffffffff\n      and\n        /* \"contracts/ERC721.sol\":11627:11630  _to */\n      dup4\n        /* \"contracts/ERC721.sol\":11627:11644  _to != address(0) */\n      0xffffffffffffffffffffffffffffffffffffffff\n      and\n      eq\n      iszero\n        /* \"contracts/ERC721.sol\":11588:11644  getApproved(_tokenId) != address(0) || _to != address(0) */\n    tag_99:\n        /* \"contracts/ERC721.sol\":11584:11943  if (getApproved(_tokenId) != address(0) || _to != address(0)) { // _tokenId 가 0 이 아니거나 _to 가 0 이 아님을 체크 (_tokenId 가 0 인 경우에는 _to 에 0 을 입력하여 초기화할 수 있음)\r... */\n      iszero\n      tag_100\n      jumpi\n        /* \"contracts/ERC721.sol\":11833:11836  _to */\n      dup3\n        /* \"contracts/ERC721.sol\":11806:11820  tokenApprovals */\n      0x2\n        /* \"contracts/ERC721.sol\":11806:11830  tokenApprovals[_tokenId] */\n      0x0\n        /* \"contracts/ERC721.sol\":11821:11829  _tokenId */\n      dup5\n        /* \"contracts/ERC721.sol\":11806:11830  tokenApprovals[_tokenId] */\n      dup2\n      mstore\n      0x20\n      add\n      swap1\n      dup2\n      mstore\n      0x20\n      add\n      0x0\n      keccak256\n      0x0\n        /* \"contracts/ERC721.sol\":11806:11836  tokenApprovals[_tokenId] = _to */\n      0x100\n      exp\n      dup2\n      sload\n      dup2\n      0xffffffffffffffffffffffffffffffffffffffff\n      mul\n      not\n      and\n      swap1\n      dup4\n      0xffffffffffffffffffffffffffffffffffffffff\n      and\n      mul\n      or\n      swap1\n      sstore\n      pop\n        /* \"contracts/ERC721.sol\":11906:11914  _tokenId */\n      dup2\n        /* \"contracts/ERC721.sol\":11901:11904  _to */\n      dup4\n        /* \"contracts/ERC721.sol\":11885:11915  Approval(owner, _to, _tokenId) */\n      0xffffffffffffffffffffffffffffffffffffffff\n      and\n        /* \"contracts/ERC721.sol\":11894:11899  owner */\n      dup3\n        /* \"contracts/ERC721.sol\":11885:11915  Approval(owner, _to, _tokenId) */\n      0xffffffffffffffffffffffffffffffffffffffff\n      and\n      0x8c5be1e5ebec7d5bd14f71427d1e84f3dd0314c0f7b2291e5b200ac8c7c3b925\n      mload(0x40)\n      mload(0x40)\n      dup1\n      swap2\n      sub\n      swap1\n      log4\n        /* \"contracts/ERC721.sol\":11584:11943  if (getApproved(_tokenId) != address(0) || _to != address(0)) { // _tokenId 가 0 이 아니거나 _to 가 0 이 아님을 체크 (_tokenId 가 0 인 경우에는 _to 에 0 을 입력하여 초기화할 수 있음)\r... */\n    tag_100:\n        /* \"contracts/ERC721.sol\":11284:11948  function approve(address _to, uint256 _tokenId) public {\r... */\n      pop\n      pop\n      pop\n      jump\t// out\n        /* \"contracts/ERC721.sol\":29448:29615  function totalSupply() public view returns (uint256) {\r... */\n    tag_38:\n        /* \"contracts/ERC721.sol\":29492:29499  uint256 */\n      0x0\n        /* \"contracts/ERC721.sol\":29515:29524  allTokens */\n      0x9\n        /* \"contracts/ERC721.sol\":29515:29531  allTokens.length */\n      dup1\n      sload\n      swap1\n      pop\n        /* \"contracts/ERC721.sol\":29508:29531  return allTokens.length */\n      swap1\n      pop\n        /* \"contracts/ERC721.sol\":29448:29615  function totalSupply() public view returns (uint256) {\r... */\n      swap1\n      jump\t// out\n        /* \"contracts/ERC721.sol\":750:804  bytes4 public constant InterfaceId_ERC165 = 0x01ffc9a7 */\n    tag_41:\n        /* \"contracts/ERC721.sol\":794:804  0x01ffc9a7 */\n      0x1ffc9a7\n        /* \"contracts/ERC721.sol\":750:804  bytes4 public constant InterfaceId_ERC165 = 0x01ffc9a7 */\n      0x100000000000000000000000000000000000000000000000000000000\n      mul\n      dup2\n      jump\t// out\n        /* \"contracts/ERC721.sol\":13945:14502  function transferFrom(\r... */\n    tag_44:\n        /* \"contracts/ERC721.sol\":14062:14070  _tokenId */\n      dup1\n        /* \"contracts/ERC721.sol\":9350:9389  isApprovedOrOwner(msg.sender, _tokenId) */\n      tag_103\n        /* \"contracts/ERC721.sol\":9368:9378  msg.sender */\n      caller\n        /* \"contracts/ERC721.sol\":9380:9388  _tokenId */\n      dup3\n        /* \"contracts/ERC721.sol\":9350:9367  isApprovedOrOwner */\n      tag_104\n        /* \"contracts/ERC721.sol\":9350:9389  isApprovedOrOwner(msg.sender, _tokenId) */\n      jump\t// in\n    tag_103:\n        /* \"contracts/ERC721.sol\":9342:9390  require(isApprovedOrOwner(msg.sender, _tokenId)) */\n      iszero\n      iszero\n      tag_105\n      jumpi\n      0x0\n      dup1\n      revert\n    tag_105:\n        /* \"contracts/ERC721.sol\":14149:14150  0 */\n      0x0\n        /* \"contracts/ERC721.sol\":14132:14151  _from != address(0) */\n      0xffffffffffffffffffffffffffffffffffffffff\n      and\n        /* \"contracts/ERC721.sol\":14132:14137  _from */\n      dup5\n        /* \"contracts/ERC721.sol\":14132:14151  _from != address(0) */\n      0xffffffffffffffffffffffffffffffffffffffff\n      and\n      eq\n      iszero\n        /* \"contracts/ERC721.sol\":14124:14152  require(_from != address(0)) */\n      iszero\n      iszero\n      tag_107\n      jumpi\n      0x0\n      dup1\n      revert\n    tag_107:\n        /* \"contracts/ERC721.sol\":14211:14212  0 */\n      0x0\n        /* \"contracts/ERC721.sol\":14196:14213  _to != address(0) */\n      0xffffffffffffffffffffffffffffffffffffffff\n      and\n        /* \"contracts/ERC721.sol\":14196:14199  _to */\n      dup4\n        /* \"contracts/ERC721.sol\":14196:14213  _to != address(0) */\n      0xffffffffffffffffffffffffffffffffffffffff\n      and\n      eq\n      iszero\n        /* \"contracts/ERC721.sol\":14188:14214  require(_to != address(0)) */\n      iszero\n      iszero\n      tag_108\n      jumpi\n      0x0\n      dup1\n      revert\n    tag_108:\n        /* \"contracts/ERC721.sol\":14252:14282  clearApproval(_from, _tokenId) */\n      tag_109\n        /* \"contracts/ERC721.sol\":14266:14271  _from */\n      dup5\n        /* \"contracts/ERC721.sol\":14273:14281  _tokenId */\n      dup4\n        /* \"contracts/ERC721.sol\":14252:14265  clearApproval */\n      tag_110\n        /* \"contracts/ERC721.sol\":14252:14282  clearApproval(_from, _tokenId) */\n      jump\t// in\n    tag_109:\n        /* \"contracts/ERC721.sol\":14315:14347  removeTokenFrom(_from, _tokenId) */\n      tag_111\n        /* \"contracts/ERC721.sol\":14331:14336  _from */\n      dup5\n        /* \"contracts/ERC721.sol\":14338:14346  _tokenId */\n      dup4\n        /* \"contracts/ERC721.sol\":14315:14330  removeTokenFrom */\n      tag_112\n        /* \"contracts/ERC721.sol\":14315:14347  removeTokenFrom(_from, _tokenId) */\n      jump\t// in\n    tag_111:\n        /* \"contracts/ERC721.sol\":14381:14406  addTokenTo(_to, _tokenId) */\n      tag_113\n        /* \"contracts/ERC721.sol\":14392:14395  _to */\n      dup4\n        /* \"contracts/ERC721.sol\":14397:14405  _tokenId */\n      dup4\n        /* \"contracts/ERC721.sol\":14381:14391  addTokenTo */\n      tag_114\n        /* \"contracts/ERC721.sol\":14381:14406  addTokenTo(_to, _tokenId) */\n      jump\t// in\n    tag_113:\n        /* \"contracts/ERC721.sol\":14467:14475  _tokenId */\n      dup2\n        /* \"contracts/ERC721.sol\":14462:14465  _to */\n      dup4\n        /* \"contracts/ERC721.sol\":14446:14476  Transfer(_from, _to, _tokenId) */\n      0xffffffffffffffffffffffffffffffffffffffff\n      and\n        /* \"contracts/ERC721.sol\":14455:14460  _from */\n      dup6\n        /* \"contracts/ERC721.sol\":14446:14476  Transfer(_from, _to, _tokenId) */\n      0xffffffffffffffffffffffffffffffffffffffff\n      and\n      0xddf252ad1be2c89b69c2b068fc378daa952ba7f163c4a11628f55a4df523b3ef\n      mload(0x40)\n      mload(0x40)\n      dup1\n      swap2\n      sub\n      swap1\n      log4\n        /* \"contracts/ERC721.sol\":13945:14502  function transferFrom(\r... */\n      pop\n      pop\n      pop\n      pop\n      jump\t// out\n        /* \"contracts/ERC721.sol\":28985:29294  function tokenOfOwnerByIndex(\r... */\n    tag_47:\n        /* \"contracts/ERC721.sol\":29097:29104  uint256 */\n      0x0\n        /* \"contracts/ERC721.sol\":29133:29150  balanceOf(_owner) */\n      tag_116\n        /* \"contracts/ERC721.sol\":29143:29149  _owner */\n      dup4\n        /* \"contracts/ERC721.sol\":29133:29142  balanceOf */\n      tag_62\n        /* \"contracts/ERC721.sol\":29133:29150  balanceOf(_owner) */\n      jump\t// in\n    tag_116:\n        /* \"contracts/ERC721.sol\":29124:29130  _index */\n      dup3\n        /* \"contracts/ERC721.sol\":29124:29150  _index < balanceOf(_owner) */\n      lt\n        /* \"contracts/ERC721.sol\":29116:29151  require(_index < balanceOf(_owner)) */\n      iszero\n      iszero\n      tag_117\n      jumpi\n      0x0\n      dup1\n      revert\n    tag_117:\n        /* \"contracts/ERC721.sol\":29213:29224  ownedTokens */\n      0x7\n        /* \"contracts/ERC721.sol\":29213:29232  ownedTokens[_owner] */\n      0x0\n        /* \"contracts/ERC721.sol\":29225:29231  _owner */\n      dup5\n        /* \"contracts/ERC721.sol\":29213:29232  ownedTokens[_owner] */\n      0xffffffffffffffffffffffffffffffffffffffff\n      and\n      0xffffffffffffffffffffffffffffffffffffffff\n      and\n      dup2\n      mstore\n      0x20\n      add\n      swap1\n      dup2\n      mstore\n      0x20\n      add\n      0x0\n      keccak256\n        /* \"contracts/ERC721.sol\":29233:29239  _index */\n      dup3\n        /* \"contracts/ERC721.sol\":29213:29240  ownedTokens[_owner][_index] */\n      dup2\n      sload\n      dup2\n      lt\n      iszero\n      iszero\n      tag_118\n      jumpi\n      invalid\n    tag_118:\n      swap1\n      0x0\n      mstore\n      keccak256(0x0, 0x20)\n      add\n      sload\n        /* \"contracts/ERC721.sol\":29206:29240  return ownedTokens[_owner][_index] */\n      swap1\n      pop\n        /* \"contracts/ERC721.sol\":28985:29294  function tokenOfOwnerByIndex(\r... */\n      swap3\n      swap2\n      pop\n      pop\n      jump\t// out\n        /* \"contracts/ERC721.sol\":15135:15477  function safeTransferFrom(\r... */\n    tag_50:\n        /* \"contracts/ERC721.sol\":15256:15264  _tokenId */\n      dup1\n        /* \"contracts/ERC721.sol\":9350:9389  isApprovedOrOwner(msg.sender, _tokenId) */\n      tag_121\n        /* \"contracts/ERC721.sol\":9368:9378  msg.sender */\n      caller\n        /* \"contracts/ERC721.sol\":9380:9388  _tokenId */\n      dup3\n        /* \"contracts/ERC721.sol\":9350:9367  isApprovedOrOwner */\n      tag_104\n        /* \"contracts/ERC721.sol\":9350:9389  isApprovedOrOwner(msg.sender, _tokenId) */\n      jump\t// in\n    tag_121:\n        /* \"contracts/ERC721.sol\":9342:9390  require(isApprovedOrOwner(msg.sender, _tokenId)) */\n      iszero\n      iszero\n      tag_122\n      jumpi\n      0x0\n      dup1\n      revert\n    tag_122:\n        /* \"contracts/ERC721.sol\":15364:15406  safeTransferFrom(_from, _to, _tokenId, \"\") */\n      tag_124\n        /* \"contracts/ERC721.sol\":15381:15386  _from */\n      dup5\n        /* \"contracts/ERC721.sol\":15388:15391  _to */\n      dup5\n        /* \"contracts/ERC721.sol\":15393:15401  _tokenId */\n      dup5\n        /* \"contracts/ERC721.sol\":15364:15406  safeTransferFrom(_from, _to, _tokenId, \"\") */\n      0x20\n      mload(0x40)\n      swap1\n      dup2\n      add\n      0x40\n      mstore\n      dup1\n      0x0\n      dup2\n      mstore\n      pop\n        /* \"contracts/ERC721.sol\":15364:15380  safeTransferFrom */\n      tag_75\n        /* \"contracts/ERC721.sol\":15364:15406  safeTransferFrom(_from, _to, _tokenId, \"\") */\n      jump\t// in\n    tag_124:\n        /* \"contracts/ERC721.sol\":15135:15477  function safeTransferFrom(\r... */\n      pop\n      pop\n      pop\n      pop\n      jump\t// out\n        /* \"contracts/ERC721.sol\":10557:10854  function exists(uint256 _tokenId) public view returns (bool) {\r... */\n    tag_53:\n        /* \"contracts/ERC721.sol\":10612:10616  bool */\n      0x0\n        /* \"contracts/ERC721.sol\":10625:10638  address owner */\n      dup1\n        /* \"contracts/ERC721.sol\":10641:10651  tokenOwner */\n      0x1\n        /* \"contracts/ERC721.sol\":10641:10661  tokenOwner[_tokenId] */\n      0x0\n        /* \"contracts/ERC721.sol\":10652:10660  _tokenId */\n      dup5\n        /* \"contracts/ERC721.sol\":10641:10661  tokenOwner[_tokenId] */\n      dup2\n      mstore\n      0x20\n      add\n      swap1\n      dup2\n      mstore\n      0x20\n      add\n      0x0\n      keccak256\n      0x0\n      swap1\n      sload\n      swap1\n      0x100\n      exp\n      swap1\n      div\n      0xffffffffffffffffffffffffffffffffffffffff\n      and\n        /* \"contracts/ERC721.sol\":10625:10661  address owner = tokenOwner[_tokenId] */\n      swap1\n      pop\n        /* \"contracts/ERC721.sol\":10692:10693  0 */\n      0x0\n        /* \"contracts/ERC721.sol\":10675:10694  owner != address(0) */\n      0xffffffffffffffffffffffffffffffffffffffff\n      and\n        /* \"contracts/ERC721.sol\":10675:10680  owner */\n      dup2\n        /* \"contracts/ERC721.sol\":10675:10694  owner != address(0) */\n      0xffffffffffffffffffffffffffffffffffffffff\n      and\n      eq\n      iszero\n        /* \"contracts/ERC721.sol\":10668:10694  return owner != address(0) */\n      swap2\n      pop\n        /* \"contracts/ERC721.sol\":10557:10854  function exists(uint256 _tokenId) public view returns (bool) {\r... */\n      pop\n      swap2\n      swap1\n      pop\n      jump\t// out\n        /* \"contracts/ERC721.sol\":29960:30193  function tokenByIndex(uint256 _index) public view returns (uint256) {\r... */\n    tag_56:\n        /* \"contracts/ERC721.sol\":30019:30026  uint256 */\n      0x0\n        /* \"contracts/ERC721.sol\":30052:30065  totalSupply() */\n      tag_127\n        /* \"contracts/ERC721.sol\":30052:30063  totalSupply */\n      tag_38\n        /* \"contracts/ERC721.sol\":30052:30065  totalSupply() */\n      jump\t// in\n    tag_127:\n        /* \"contracts/ERC721.sol\":30043:30049  _index */\n      dup3\n        /* \"contracts/ERC721.sol\":30043:30065  _index < totalSupply() */\n      lt\n        /* \"contracts/ERC721.sol\":30035:30066  require(_index < totalSupply()) */\n      iszero\n      iszero\n      tag_128\n      jumpi\n      0x0\n      dup1\n      revert\n    tag_128:\n        /* \"contracts/ERC721.sol\":30116:30125  allTokens */\n      0x9\n        /* \"contracts/ERC721.sol\":30126:30132  _index */\n      dup3\n        /* \"contracts/ERC721.sol\":30116:30133  allTokens[_index] */\n      dup2\n      sload\n      dup2\n      lt\n      iszero\n      iszero\n      tag_129\n      jumpi\n      invalid\n    tag_129:\n      swap1\n      0x0\n      mstore\n      keccak256(0x0, 0x20)\n      add\n      sload\n        /* \"contracts/ERC721.sol\":30109:30133  return allTokens[_index] */\n      swap1\n      pop\n        /* \"contracts/ERC721.sol\":29960:30193  function tokenByIndex(uint256 _index) public view returns (uint256) {\r... */\n      swap2\n      swap1\n      pop\n      jump\t// out\n        /* \"contracts/ERC721.sol\":10093:10372  function ownerOf(uint256 _tokenId) public view returns (address) {\r... */\n    tag_59:\n        /* \"contracts/ERC721.sol\":10149:10156  address */\n      0x0\n        /* \"contracts/ERC721.sol\":10165:10178  address owner */\n      dup1\n        /* \"contracts/ERC721.sol\":10181:10191  tokenOwner */\n      0x1\n        /* \"contracts/ERC721.sol\":10181:10201  tokenOwner[_tokenId] */\n      0x0\n        /* \"contracts/ERC721.sol\":10192:10200  _tokenId */\n      dup5\n        /* \"contracts/ERC721.sol\":10181:10201  tokenOwner[_tokenId] */\n      dup2\n      mstore\n      0x20\n      add\n      swap1\n      dup2\n      mstore\n      0x20\n      add\n      0x0\n      keccak256\n      0x0\n      swap1\n      sload\n      swap1\n      0x100\n      exp\n      swap1\n      div\n      0xffffffffffffffffffffffffffffffffffffffff\n      and\n        /* \"contracts/ERC721.sol\":10165:10201  address owner = tokenOwner[_tokenId] */\n      swap1\n      pop\n        /* \"contracts/ERC721.sol\":10264:10265  0 */\n      0x0\n        /* \"contracts/ERC721.sol\":10247:10266  owner != address(0) */\n      0xffffffffffffffffffffffffffffffffffffffff\n      and\n        /* \"contracts/ERC721.sol\":10247:10252  owner */\n      dup2\n        /* \"contracts/ERC721.sol\":10247:10266  owner != address(0) */\n      0xffffffffffffffffffffffffffffffffffffffff\n      and\n      eq\n      iszero\n        /* \"contracts/ERC721.sol\":10239:10267  require(owner != address(0)) */\n      iszero\n      iszero\n      tag_132\n      jumpi\n      0x0\n      dup1\n      revert\n    tag_132:\n        /* \"contracts/ERC721.sol\":10361:10366  owner */\n      dup1\n        /* \"contracts/ERC721.sol\":10354:10366  return owner */\n      swap2\n      pop\n        /* \"contracts/ERC721.sol\":10093:10372  function ownerOf(uint256 _tokenId) public view returns (address) {\r... */\n      pop\n      swap2\n      swap1\n      pop\n      jump\t// out\n        /* \"contracts/ERC721.sol\":9653:9873  function balanceOf(address _owner) public view returns (uint256) {\r... */\n    tag_62:\n        /* \"contracts/ERC721.sol\":9709:9716  uint256 */\n      0x0\n        /* \"contracts/ERC721.sol\":9751:9752  0 */\n      dup1\n        /* \"contracts/ERC721.sol\":9733:9753  _owner != address(0) */\n      0xffffffffffffffffffffffffffffffffffffffff\n      and\n        /* \"contracts/ERC721.sol\":9733:9739  _owner */\n      dup3\n        /* \"contracts/ERC721.sol\":9733:9753  _owner != address(0) */\n      0xffffffffffffffffffffffffffffffffffffffff\n      and\n      eq\n      iszero\n        /* \"contracts/ERC721.sol\":9725:9754  require(_owner != address(0)) */\n      iszero\n      iszero\n      tag_134\n      jumpi\n      0x0\n      dup1\n      revert\n    tag_134:\n        /* \"contracts/ERC721.sol\":9768:9784  ownedTokensCount */\n      0x3\n        /* \"contracts/ERC721.sol\":9768:9792  ownedTokensCount[_owner] */\n      0x0\n        /* \"contracts/ERC721.sol\":9785:9791  _owner */\n      dup4\n        /* \"contracts/ERC721.sol\":9768:9792  ownedTokensCount[_owner] */\n      0xffffffffffffffffffffffffffffffffffffffff\n      and\n      0xffffffffffffffffffffffffffffffffffffffff\n      and\n      dup2\n      mstore\n      0x20\n      add\n      swap1\n      dup2\n      mstore\n      0x20\n      add\n      0x0\n      keccak256\n      sload\n        /* \"contracts/ERC721.sol\":9761:9792  return ownedTokensCount[_owner] */\n      swap1\n      pop\n        /* \"contracts/ERC721.sol\":9653:9873  function balanceOf(address _owner) public view returns (uint256) {\r... */\n      swap2\n      swap1\n      pop\n      jump\t// out\n        /* \"contracts/ERC721.sol\":28116:28209  function symbol() external view returns (string) { // 심볼 함수\r... */\n    tag_65:\n        /* \"contracts/ERC721.sol\":28157:28163  string */\n      0x60\n        /* \"contracts/ERC721.sol\":28196:28203  symbol_ */\n      0x6\n        /* \"contracts/ERC721.sol\":28189:28203  return symbol_ */\n      dup1\n      sload\n      0x1\n      dup2\n      0x1\n      and\n      iszero\n      0x100\n      mul\n      sub\n      and\n      0x2\n      swap1\n      div\n      dup1\n      0x1f\n      add\n      0x20\n      dup1\n      swap2\n      div\n      mul\n      0x20\n      add\n      mload(0x40)\n      swap1\n      dup2\n      add\n      0x40\n      mstore\n      dup1\n      swap3\n      swap2\n      swap1\n      dup2\n      dup2\n      mstore\n      0x20\n      add\n      dup3\n      dup1\n      sload\n      0x1\n      dup2\n      0x1\n      and\n      iszero\n      0x100\n      mul\n      sub\n      and\n      0x2\n      swap1\n      div\n      dup1\n      iszero\n      tag_136\n      jumpi\n      dup1\n      0x1f\n      lt\n      tag_137\n      jumpi\n      0x100\n      dup1\n      dup4\n      sload\n      div\n      mul\n      dup4\n      mstore\n      swap2\n      0x20\n      add\n      swap2\n      jump(tag_136)\n    tag_137:\n      dup3\n      add\n      swap2\n      swap1\n      0x0\n      mstore\n      keccak256(0x0, 0x20)\n      swap1\n    tag_138:\n      dup2\n      sload\n      dup2\n      mstore\n      swap1\n      0x1\n      add\n      swap1\n      0x20\n      add\n      dup1\n      dup4\n      gt\n      tag_138\n      jumpi\n      dup3\n      swap1\n      sub\n      0x1f\n      and\n      dup3\n      add\n      swap2\n    tag_136:\n      pop\n      pop\n      pop\n      pop\n      pop\n      swap1\n      pop\n        /* \"contracts/ERC721.sol\":28116:28209  function symbol() external view returns (string) { // 심볼 함수\r... */\n      swap1\n      jump\t// out\n        /* \"contracts/ERC721.sol\":12622:12927  function setApprovalForAll(address _to, bool _approved) public {\r... */\n    tag_72:\n        /* \"contracts/ERC721.sol\":12707:12717  msg.sender */\n      caller\n        /* \"contracts/ERC721.sol\":12700:12717  _to != msg.sender */\n      0xffffffffffffffffffffffffffffffffffffffff\n      and\n        /* \"contracts/ERC721.sol\":12700:12703  _to */\n      dup3\n        /* \"contracts/ERC721.sol\":12700:12717  _to != msg.sender */\n      0xffffffffffffffffffffffffffffffffffffffff\n      and\n      eq\n      iszero\n        /* \"contracts/ERC721.sol\":12692:12718  require(_to != msg.sender) */\n      iszero\n      iszero\n      tag_140\n      jumpi\n      0x0\n      dup1\n      revert\n    tag_140:\n        /* \"contracts/ERC721.sol\":12799:12808  _approved */\n      dup1\n        /* \"contracts/ERC721.sol\":12762:12779  operatorApprovals */\n      0x4\n        /* \"contracts/ERC721.sol\":12762:12791  operatorApprovals[msg.sender] */\n      0x0\n        /* \"contracts/ERC721.sol\":12780:12790  msg.sender */\n      caller\n        /* \"contracts/ERC721.sol\":12762:12791  operatorApprovals[msg.sender] */\n      0xffffffffffffffffffffffffffffffffffffffff\n      and\n      0xffffffffffffffffffffffffffffffffffffffff\n      and\n      dup2\n      mstore\n      0x20\n      add\n      swap1\n      dup2\n      mstore\n      0x20\n      add\n      0x0\n      keccak256\n        /* \"contracts/ERC721.sol\":12762:12796  operatorApprovals[msg.sender][_to] */\n      0x0\n        /* \"contracts/ERC721.sol\":12792:12795  _to */\n      dup5\n        /* \"contracts/ERC721.sol\":12762:12796  operatorApprovals[msg.sender][_to] */\n      0xffffffffffffffffffffffffffffffffffffffff\n      and\n      0xffffffffffffffffffffffffffffffffffffffff\n      and\n      dup2\n      mstore\n      0x20\n      add\n      swap1\n      dup2\n      mstore\n      0x20\n      add\n      0x0\n      keccak256\n      0x0\n        /* \"contracts/ERC721.sol\":12762:12808  operatorApprovals[msg.sender][_to] = _approved */\n      0x100\n      exp\n      dup2\n      sload\n      dup2\n      0xff\n      mul\n      not\n      and\n      swap1\n      dup4\n      iszero\n      iszero\n      mul\n      or\n      swap1\n      sstore\n      pop\n        /* \"contracts/ERC721.sol\":12886:12889  _to */\n      dup2\n        /* \"contracts/ERC721.sol\":12859:12901  ApprovalForAll(msg.sender, _to, _approved) */\n      0xffffffffffffffffffffffffffffffffffffffff\n      and\n        /* \"contracts/ERC721.sol\":12874:12884  msg.sender */\n      caller\n        /* \"contracts/ERC721.sol\":12859:12901  ApprovalForAll(msg.sender, _to, _approved) */\n      0xffffffffffffffffffffffffffffffffffffffff\n      and\n      0x17307eab39ab6107e8899845ad3d59bd9653f200f220920489ca2b5937696c31\n        /* \"contracts/ERC721.sol\":12891:12900  _approved */\n      dup4\n        /* \"contracts/ERC721.sol\":12859:12901  ApprovalForAll(msg.sender, _to, _approved) */\n      mload(0x40)\n      dup1\n      dup3\n      iszero\n      iszero\n      iszero\n      iszero\n      dup2\n      mstore\n      0x20\n      add\n      swap2\n      pop\n      pop\n      mload(0x40)\n      dup1\n      swap2\n      sub\n      swap1\n      log3\n        /* \"contracts/ERC721.sol\":12622:12927  function setApprovalForAll(address _to, bool _approved) public {\r... */\n      pop\n      pop\n      jump\t// out\n        /* \"contracts/ERC721.sol\":16178:16645  function safeTransferFrom(\r... */\n    tag_75:\n        /* \"contracts/ERC721.sol\":16317:16325  _tokenId */\n      dup2\n        /* \"contracts/ERC721.sol\":9350:9389  isApprovedOrOwner(msg.sender, _tokenId) */\n      tag_142\n        /* \"contracts/ERC721.sol\":9368:9378  msg.sender */\n      caller\n        /* \"contracts/ERC721.sol\":9380:9388  _tokenId */\n      dup3\n        /* \"contracts/ERC721.sol\":9350:9367  isApprovedOrOwner */\n      tag_104\n        /* \"contracts/ERC721.sol\":9350:9389  isApprovedOrOwner(msg.sender, _tokenId) */\n      jump\t// in\n    tag_142:\n        /* \"contracts/ERC721.sol\":9342:9390  require(isApprovedOrOwner(msg.sender, _tokenId)) */\n      iszero\n      iszero\n      tag_143\n      jumpi\n      0x0\n      dup1\n      revert\n    tag_143:\n        /* \"contracts/ERC721.sol\":16337:16371  transferFrom(_from, _to, _tokenId) */\n      tag_145\n        /* \"contracts/ERC721.sol\":16350:16355  _from */\n      dup6\n        /* \"contracts/ERC721.sol\":16357:16360  _to */\n      dup6\n        /* \"contracts/ERC721.sol\":16362:16370  _tokenId */\n      dup6\n        /* \"contracts/ERC721.sol\":16337:16349  transferFrom */\n      tag_44\n        /* \"contracts/ERC721.sol\":16337:16371  transferFrom(_from, _to, _tokenId) */\n      jump\t// in\n    tag_145:\n        /* \"contracts/ERC721.sol\":16449:16502  checkAndCallSafeTransfer(_from, _to, _tokenId, _data) */\n      tag_146\n        /* \"contracts/ERC721.sol\":16474:16479  _from */\n      dup6\n        /* \"contracts/ERC721.sol\":16481:16484  _to */\n      dup6\n        /* \"contracts/ERC721.sol\":16486:16494  _tokenId */\n      dup6\n        /* \"contracts/ERC721.sol\":16496:16501  _data */\n      dup6\n        /* \"contracts/ERC721.sol\":16449:16473  checkAndCallSafeTransfer */\n      tag_147\n        /* \"contracts/ERC721.sol\":16449:16502  checkAndCallSafeTransfer(_from, _to, _tokenId, _data) */\n      jump\t// in\n    tag_146:\n        /* \"contracts/ERC721.sol\":16441:16503  require(checkAndCallSafeTransfer(_from, _to, _tokenId, _data)) */\n      iszero\n      iszero\n      tag_148\n      jumpi\n      0x0\n      dup1\n      revert\n    tag_148:\n        /* \"contracts/ERC721.sol\":16178:16645  function safeTransferFrom(\r... */\n      pop\n      pop\n      pop\n      pop\n      pop\n      jump\t// out\n        /* \"contracts/ERC721.sol\":28409:28610  function tokenURI(uint256 _tokenId) public view returns (string) {\r... */\n    tag_78:\n        /* \"contracts/ERC721.sol\":28466:28472  string */\n      0x60\n        /* \"contracts/ERC721.sol\":28489:28505  exists(_tokenId) */\n      tag_150\n        /* \"contracts/ERC721.sol\":28496:28504  _tokenId */\n      dup3\n        /* \"contracts/ERC721.sol\":28489:28495  exists */\n      tag_53\n        /* \"contracts/ERC721.sol\":28489:28505  exists(_tokenId) */\n      jump\t// in\n    tag_150:\n        /* \"contracts/ERC721.sol\":28481:28506  require(exists(_tokenId)) */\n      iszero\n      iszero\n      tag_151\n      jumpi\n      0x0\n      dup1\n      revert\n    tag_151:\n        /* \"contracts/ERC721.sol\":28566:28575  tokenURIs */\n      0xb\n        /* \"contracts/ERC721.sol\":28566:28585  tokenURIs[_tokenId] */\n      0x0\n        /* \"contracts/ERC721.sol\":28576:28584  _tokenId */\n      dup4\n        /* \"contracts/ERC721.sol\":28566:28585  tokenURIs[_tokenId] */\n      dup2\n      mstore\n      0x20\n      add\n      swap1\n      dup2\n      mstore\n      0x20\n      add\n      0x0\n      keccak256\n        /* \"contracts/ERC721.sol\":28559:28585  return tokenURIs[_tokenId] */\n      dup1\n      sload\n      0x1\n      dup2\n      0x1\n      and\n      iszero\n      0x100\n      mul\n      sub\n      and\n      0x2\n      swap1\n      div\n      dup1\n      0x1f\n      add\n      0x20\n      dup1\n      swap2\n      div\n      mul\n      0x20\n      add\n      mload(0x40)\n      swap1\n      dup2\n      add\n      0x40\n      mstore\n      dup1\n      swap3\n      swap2\n      swap1\n      dup2\n      dup2\n      mstore\n      0x20\n      add\n      dup3\n      dup1\n      sload\n      0x1\n      dup2\n      0x1\n      and\n      iszero\n      0x100\n      mul\n      sub\n      and\n      0x2\n      swap1\n      div\n      dup1\n      iszero\n      tag_152\n      jumpi\n      dup1\n      0x1f\n      lt\n      tag_153\n      jumpi\n      0x100\n      dup1\n      dup4\n      sload\n      div\n      mul\n      dup4\n      mstore\n      swap2\n      0x20\n      add\n      swap2\n      jump(tag_152)\n    tag_153:\n      dup3\n      add\n      swap2\n      swap1\n      0x0\n      mstore\n      keccak256(0x0, 0x20)\n      swap1\n    tag_154:\n      dup2\n      sload\n      dup2\n      mstore\n      swap1\n      0x1\n      add\n      swap1\n      0x20\n      add\n      dup1\n      dup4\n      gt\n      tag_154\n      jumpi\n      dup3\n      swap1\n      sub\n      0x1f\n      and\n      dup3\n      add\n      swap2\n    tag_152:\n      pop\n      pop\n      pop\n      pop\n      pop\n      swap1\n      pop\n        /* \"contracts/ERC721.sol\":28409:28610  function tokenURI(uint256 _tokenId) public view returns (string) {\r... */\n      swap2\n      swap1\n      pop\n      jump\t// out\n        /* \"contracts/ERC721.sol\":13244:13503  function isApprovedForAll(\r... */\n    tag_85:\n        /* \"contracts/ERC721.sol\":13356:13360  bool */\n      0x0\n        /* \"contracts/ERC721.sol\":13379:13396  operatorApprovals */\n      0x4\n        /* \"contracts/ERC721.sol\":13379:13404  operatorApprovals[_owner] */\n      0x0\n        /* \"contracts/ERC721.sol\":13397:13403  _owner */\n      dup5\n        /* \"contracts/ERC721.sol\":13379:13404  operatorApprovals[_owner] */\n      0xffffffffffffffffffffffffffffffffffffffff\n      and\n      0xffffffffffffffffffffffffffffffffffffffff\n      and\n      dup2\n      mstore\n      0x20\n      add\n      swap1\n      dup2\n      mstore\n      0x20\n      add\n      0x0\n      keccak256\n        /* \"contracts/ERC721.sol\":13379:13415  operatorApprovals[_owner][_operator] */\n      0x0\n        /* \"contracts/ERC721.sol\":13405:13414  _operator */\n      dup4\n        /* \"contracts/ERC721.sol\":13379:13415  operatorApprovals[_owner][_operator] */\n      0xffffffffffffffffffffffffffffffffffffffff\n      and\n      0xffffffffffffffffffffffffffffffffffffffff\n      and\n      dup2\n      mstore\n      0x20\n      add\n      swap1\n      dup2\n      mstore\n      0x20\n      add\n      0x0\n      keccak256\n      0x0\n      swap1\n      sload\n      swap1\n      0x100\n      exp\n      swap1\n      div\n      0xff\n      and\n        /* \"contracts/ERC721.sol\":13372:13415  return operatorApprovals[_owner][_operator] */\n      swap1\n      pop\n        /* \"contracts/ERC721.sol\":13244:13503  function isApprovedForAll(\r... */\n      swap3\n      swap2\n      pop\n      pop\n      jump\t// out\n        /* \"contracts/ERC721.sol\":17001:17566  function isApprovedOrOwner(\r... */\n    tag_104:\n        /* \"contracts/ERC721.sol\":17117:17121  bool */\n      0x0\n        /* \"contracts/ERC721.sol\":17133:17146  address owner */\n      dup1\n        /* \"contracts/ERC721.sol\":17149:17166  ownerOf(_tokenId) */\n      tag_157\n        /* \"contracts/ERC721.sol\":17157:17165  _tokenId */\n      dup4\n        /* \"contracts/ERC721.sol\":17149:17156  ownerOf */\n      tag_59\n        /* \"contracts/ERC721.sol\":17149:17166  ownerOf(_tokenId) */\n      jump\t// in\n    tag_157:\n        /* \"contracts/ERC721.sol\":17133:17166  address owner = ownerOf(_tokenId) */\n      swap1\n      pop\n        /* \"contracts/ERC721.sol\":17350:17355  owner */\n      dup1\n        /* \"contracts/ERC721.sol\":17338:17355  _spender == owner */\n      0xffffffffffffffffffffffffffffffffffffffff\n      and\n        /* \"contracts/ERC721.sol\":17338:17346  _spender */\n      dup5\n        /* \"contracts/ERC721.sol\":17338:17355  _spender == owner */\n      0xffffffffffffffffffffffffffffffffffffffff\n      and\n      eq\n        /* \"contracts/ERC721.sol\":17338:17418  _spender == owner || // owner 이거나\r... */\n      dup1\n      tag_158\n      jumpi\n      pop\n        /* \"contracts/ERC721.sol\":17410:17418  _spender */\n      dup4\n        /* \"contracts/ERC721.sol\":17385:17418  getApproved(_tokenId) == _spender */\n      0xffffffffffffffffffffffffffffffffffffffff\n      and\n        /* \"contracts/ERC721.sol\":17385:17406  getApproved(_tokenId) */\n      tag_159\n        /* \"contracts/ERC721.sol\":17397:17405  _tokenId */\n      dup5\n        /* \"contracts/ERC721.sol\":17385:17396  getApproved */\n      tag_32\n        /* \"contracts/ERC721.sol\":17385:17406  getApproved(_tokenId) */\n      jump\t// in\n    tag_159:\n        /* \"contracts/ERC721.sol\":17385:17418  getApproved(_tokenId) == _spender */\n      0xffffffffffffffffffffffffffffffffffffffff\n      and\n      eq\n        /* \"contracts/ERC721.sol\":17338:17418  _spender == owner || // owner 이거나\r... */\n    tag_158:\n        /* \"contracts/ERC721.sol\":17338:17496  _spender == owner || // owner 이거나\r... */\n      dup1\n      tag_160\n      jumpi\n      pop\n        /* \"contracts/ERC721.sol\":17463:17496  isApprovedForAll(owner, _spender) */\n      tag_161\n        /* \"contracts/ERC721.sol\":17480:17485  owner */\n      dup2\n        /* \"contracts/ERC721.sol\":17487:17495  _spender */\n      dup6\n        /* \"contracts/ERC721.sol\":17463:17479  isApprovedForAll */\n      tag_85\n        /* \"contracts/ERC721.sol\":17463:17496  isApprovedForAll(owner, _spender) */\n      jump\t// in\n    tag_161:\n        /* \"contracts/ERC721.sol\":17338:17496  _spender == owner || // owner 이거나\r... */\n    tag_160:\n        /* \"contracts/ERC721.sol\":17322:17560  return (\r... */\n      swap2\n      pop\n        /* \"contracts/ERC721.sol\":17001:17566  function isApprovedOrOwner(\r... */\n      pop\n      swap3\n      swap2\n      pop\n      pop\n      jump\t// out\n        /* \"contracts/ERC721.sol\":19470:19924  function clearApproval(address _owner, uint256 _tokenId) internal { // 내부에서만 호출 가능\r... */\n    tag_110:\n        /* \"contracts/ERC721.sol\":19605:19611  _owner */\n      dup2\n        /* \"contracts/ERC721.sol\":19584:19611  ownerOf(_tokenId) == _owner */\n      0xffffffffffffffffffffffffffffffffffffffff\n      and\n        /* \"contracts/ERC721.sol\":19584:19601  ownerOf(_tokenId) */\n      tag_163\n        /* \"contracts/ERC721.sol\":19592:19600  _tokenId */\n      dup3\n        /* \"contracts/ERC721.sol\":19584:19591  ownerOf */\n      tag_59\n        /* \"contracts/ERC721.sol\":19584:19601  ownerOf(_tokenId) */\n      jump\t// in\n    tag_163:\n        /* \"contracts/ERC721.sol\":19584:19611  ownerOf(_tokenId) == _owner */\n      0xffffffffffffffffffffffffffffffffffffffff\n      and\n      eq\n        /* \"contracts/ERC721.sol\":19576:19612  require(ownerOf(_tokenId) == _owner) */\n      iszero\n      iszero\n      tag_164\n      jumpi\n      0x0\n      dup1\n      revert\n    tag_164:\n        /* \"contracts/ERC721.sol\":19710:19711  0 */\n      0x0\n        /* \"contracts/ERC721.sol\":19674:19712  tokenApprovals[_tokenId] != address(0) */\n      0xffffffffffffffffffffffffffffffffffffffff\n      and\n        /* \"contracts/ERC721.sol\":19674:19688  tokenApprovals */\n      0x2\n        /* \"contracts/ERC721.sol\":19674:19698  tokenApprovals[_tokenId] */\n      0x0\n        /* \"contracts/ERC721.sol\":19689:19697  _tokenId */\n      dup4\n        /* \"contracts/ERC721.sol\":19674:19698  tokenApprovals[_tokenId] */\n      dup2\n      mstore\n      0x20\n      add\n      swap1\n      dup2\n      mstore\n      0x20\n      add\n      0x0\n      keccak256\n      0x0\n      swap1\n      sload\n      swap1\n      0x100\n      exp\n      swap1\n      div\n      0xffffffffffffffffffffffffffffffffffffffff\n      and\n        /* \"contracts/ERC721.sol\":19674:19712  tokenApprovals[_tokenId] != address(0) */\n      0xffffffffffffffffffffffffffffffffffffffff\n      and\n      eq\n      iszero\n        /* \"contracts/ERC721.sol\":19670:19919  if (tokenApprovals[_tokenId] != address(0)) { // Approval 값이 이미 존재할 때만\r... */\n      iszero\n      tag_165\n      jumpi\n        /* \"contracts/ERC721.sol\":19801:19802  0 */\n      0x0\n        /* \"contracts/ERC721.sol\":19766:19780  tokenApprovals */\n      0x2\n        /* \"contracts/ERC721.sol\":19766:19790  tokenApprovals[_tokenId] */\n      0x0\n        /* \"contracts/ERC721.sol\":19781:19789  _tokenId */\n      dup4\n        /* \"contracts/ERC721.sol\":19766:19790  tokenApprovals[_tokenId] */\n      dup2\n      mstore\n      0x20\n      add\n      swap1\n      dup2\n      mstore\n      0x20\n      add\n      0x0\n      keccak256\n      0x0\n        /* \"contracts/ERC721.sol\":19766:19803  tokenApprovals[_tokenId] = address(0) */\n      0x100\n      exp\n      dup2\n      sload\n      dup2\n      0xffffffffffffffffffffffffffffffffffffffff\n      mul\n      not\n      and\n      swap1\n      dup4\n      0xffffffffffffffffffffffffffffffffffffffff\n      and\n      mul\n      or\n      swap1\n      sstore\n      pop\n        /* \"contracts/ERC721.sol\":19859:19867  _tokenId */\n      dup1\n        /* \"contracts/ERC721.sol\":19855:19856  0 */\n      0x0\n        /* \"contracts/ERC721.sol\":19830:19868  Approval(_owner, address(0), _tokenId) */\n      0xffffffffffffffffffffffffffffffffffffffff\n      and\n        /* \"contracts/ERC721.sol\":19839:19845  _owner */\n      dup4\n        /* \"contracts/ERC721.sol\":19830:19868  Approval(_owner, address(0), _tokenId) */\n      0xffffffffffffffffffffffffffffffffffffffff\n      and\n      0x8c5be1e5ebec7d5bd14f71427d1e84f3dd0314c0f7b2291e5b200ac8c7c3b925\n      mload(0x40)\n      mload(0x40)\n      dup1\n      swap2\n      sub\n      swap1\n      log4\n        /* \"contracts/ERC721.sol\":19670:19919  if (tokenApprovals[_tokenId] != address(0)) { // Approval 값이 이미 존재할 때만\r... */\n    tag_165:\n        /* \"contracts/ERC721.sol\":19470:19924  function clearApproval(address _owner, uint256 _tokenId) internal { // 내부에서만 호출 가능\r... */\n      pop\n      pop\n      jump\t// out\n        /* \"contracts/ERC721.sol\":31892:33173  function removeTokenFrom(address _from, uint256 _tokenId) internal {\r... */\n    tag_112:\n        /* \"contracts/ERC721.sol\":32065:32083  uint256 tokenIndex */\n      0x0\n        /* \"contracts/ERC721.sol\":32159:32181  uint256 lastTokenIndex */\n      dup1\n        /* \"contracts/ERC721.sol\":32252:32269  uint256 lastToken */\n      0x0\n        /* \"contracts/ERC721.sol\":31966:32004  super.removeTokenFrom(_from, _tokenId) */\n      tag_167\n        /* \"contracts/ERC721.sol\":31988:31993  _from */\n      dup6\n        /* \"contracts/ERC721.sol\":31995:32003  _tokenId */\n      dup6\n        /* \"contracts/ERC721.sol\":31966:31987  super.removeTokenFrom */\n      tag_168\n        /* \"contracts/ERC721.sol\":31966:32004  super.removeTokenFrom(_from, _tokenId) */\n      jump\t// in\n    tag_167:\n        /* \"contracts/ERC721.sol\":32086:32102  ownedTokensIndex */\n      0x8\n        /* \"contracts/ERC721.sol\":32086:32112  ownedTokensIndex[_tokenId] */\n      0x0\n        /* \"contracts/ERC721.sol\":32103:32111  _tokenId */\n      dup6\n        /* \"contracts/ERC721.sol\":32086:32112  ownedTokensIndex[_tokenId] */\n      dup2\n      mstore\n      0x20\n      add\n      swap1\n      dup2\n      mstore\n      0x20\n      add\n      0x0\n      keccak256\n      sload\n        /* \"contracts/ERC721.sol\":32065:32112  uint256 tokenIndex = ownedTokensIndex[_tokenId] */\n      swap3\n      pop\n        /* \"contracts/ERC721.sol\":32184:32216  ownedTokens[_from].length.sub(1) */\n      tag_169\n        /* \"contracts/ERC721.sol\":32214:32215  1 */\n      0x1\n        /* \"contracts/ERC721.sol\":32184:32195  ownedTokens */\n      0x7\n        /* \"contracts/ERC721.sol\":32184:32202  ownedTokens[_from] */\n      0x0\n        /* \"contracts/ERC721.sol\":32196:32201  _from */\n      dup9\n        /* \"contracts/ERC721.sol\":32184:32202  ownedTokens[_from] */\n      0xffffffffffffffffffffffffffffffffffffffff\n      and\n      0xffffffffffffffffffffffffffffffffffffffff\n      and\n      dup2\n      mstore\n      0x20\n      add\n      swap1\n      dup2\n      mstore\n      0x20\n      add\n      0x0\n      keccak256\n        /* \"contracts/ERC721.sol\":32184:32209  ownedTokens[_from].length */\n      dup1\n      sload\n      swap1\n      pop\n        /* \"contracts/ERC721.sol\":32184:32213  ownedTokens[_from].length.sub */\n      tag_170\n      swap1\n        /* \"contracts/ERC721.sol\":32184:32216  ownedTokens[_from].length.sub(1) */\n      swap2\n      swap1\n      0xffffffff\n      and\n      jump\t// in\n    tag_169:\n        /* \"contracts/ERC721.sol\":32159:32216  uint256 lastTokenIndex = ownedTokens[_from].length.sub(1) */\n      swap2\n      pop\n        /* \"contracts/ERC721.sol\":32272:32283  ownedTokens */\n      0x7\n        /* \"contracts/ERC721.sol\":32272:32290  ownedTokens[_from] */\n      0x0\n        /* \"contracts/ERC721.sol\":32284:32289  _from */\n      dup7\n        /* \"contracts/ERC721.sol\":32272:32290  ownedTokens[_from] */\n      0xffffffffffffffffffffffffffffffffffffffff\n      and\n      0xffffffffffffffffffffffffffffffffffffffff\n      and\n      dup2\n      mstore\n      0x20\n      add\n      swap1\n      dup2\n      mstore\n      0x20\n      add\n      0x0\n      keccak256\n        /* \"contracts/ERC721.sol\":32291:32305  lastTokenIndex */\n      dup3\n        /* \"contracts/ERC721.sol\":32272:32306  ownedTokens[_from][lastTokenIndex] */\n      dup2\n      sload\n      dup2\n      lt\n      iszero\n      iszero\n      tag_171\n      jumpi\n      invalid\n    tag_171:\n      swap1\n      0x0\n      mstore\n      keccak256(0x0, 0x20)\n      add\n      sload\n        /* \"contracts/ERC721.sol\":32252:32306  uint256 lastToken = ownedTokens[_from][lastTokenIndex] */\n      swap1\n      pop\n        /* \"contracts/ERC721.sol\":32378:32387  lastToken */\n      dup1\n        /* \"contracts/ERC721.sol\":32345:32356  ownedTokens */\n      0x7\n        /* \"contracts/ERC721.sol\":32345:32363  ownedTokens[_from] */\n      0x0\n        /* \"contracts/ERC721.sol\":32357:32362  _from */\n      dup8\n        /* \"contracts/ERC721.sol\":32345:32363  ownedTokens[_from] */\n      0xffffffffffffffffffffffffffffffffffffffff\n      and\n      0xffffffffffffffffffffffffffffffffffffffff\n      and\n      dup2\n      mstore\n      0x20\n      add\n      swap1\n      dup2\n      mstore\n      0x20\n      add\n      0x0\n      keccak256\n        /* \"contracts/ERC721.sol\":32364:32374  tokenIndex */\n      dup5\n        /* \"contracts/ERC721.sol\":32345:32375  ownedTokens[_from][tokenIndex] */\n      dup2\n      sload\n      dup2\n      lt\n      iszero\n      iszero\n      tag_173\n      jumpi\n      invalid\n    tag_173:\n      swap1\n      0x0\n      mstore\n      keccak256(0x0, 0x20)\n      add\n        /* \"contracts/ERC721.sol\":32345:32387  ownedTokens[_from][tokenIndex] = lastToken */\n      dup2\n      swap1\n      sstore\n      pop\n        /* \"contracts/ERC721.sol\":32488:32489  0 */\n      0x0\n        /* \"contracts/ERC721.sol\":32451:32462  ownedTokens */\n      0x7\n        /* \"contracts/ERC721.sol\":32451:32469  ownedTokens[_from] */\n      0x0\n        /* \"contracts/ERC721.sol\":32463:32468  _from */\n      dup8\n        /* \"contracts/ERC721.sol\":32451:32469  ownedTokens[_from] */\n      0xffffffffffffffffffffffffffffffffffffffff\n      and\n      0xffffffffffffffffffffffffffffffffffffffff\n      and\n      dup2\n      mstore\n      0x20\n      add\n      swap1\n      dup2\n      mstore\n      0x20\n      add\n      0x0\n      keccak256\n        /* \"contracts/ERC721.sol\":32470:32484  lastTokenIndex */\n      dup4\n        /* \"contracts/ERC721.sol\":32451:32485  ownedTokens[_from][lastTokenIndex] */\n      dup2\n      sload\n      dup2\n      lt\n      iszero\n      iszero\n      tag_175\n      jumpi\n      invalid\n    tag_175:\n      swap1\n      0x0\n      mstore\n      keccak256(0x0, 0x20)\n      add\n        /* \"contracts/ERC721.sol\":32451:32489  ownedTokens[_from][lastTokenIndex] = 0 */\n      dup2\n      swap1\n      sstore\n      pop\n        /* \"contracts/ERC721.sol\":32903:32914  ownedTokens */\n      0x7\n        /* \"contracts/ERC721.sol\":32903:32921  ownedTokens[_from] */\n      0x0\n        /* \"contracts/ERC721.sol\":32915:32920  _from */\n      dup7\n        /* \"contracts/ERC721.sol\":32903:32921  ownedTokens[_from] */\n      0xffffffffffffffffffffffffffffffffffffffff\n      and\n      0xffffffffffffffffffffffffffffffffffffffff\n      and\n      dup2\n      mstore\n      0x20\n      add\n      swap1\n      dup2\n      mstore\n      0x20\n      add\n      0x0\n      keccak256\n        /* \"contracts/ERC721.sol\":32903:32930  ownedTokens[_from].length-- */\n      dup1\n      sload\n      dup1\n      swap2\n      swap1\n      0x1\n      swap1\n      sub\n      tag_177\n      swap2\n      swap1\n      jump\t// in(tag_178)\n    tag_177:\n      pop\n        /* \"contracts/ERC721.sol\":33000:33001  0 */\n      0x0\n        /* \"contracts/ERC721.sol\":32971:32987  ownedTokensIndex */\n      0x8\n        /* \"contracts/ERC721.sol\":32971:32997  ownedTokensIndex[_tokenId] */\n      0x0\n        /* \"contracts/ERC721.sol\":32988:32996  _tokenId */\n      dup7\n        /* \"contracts/ERC721.sol\":32971:32997  ownedTokensIndex[_tokenId] */\n      dup2\n      mstore\n      0x20\n      add\n      swap1\n      dup2\n      mstore\n      0x20\n      add\n      0x0\n      keccak256\n        /* \"contracts/ERC721.sol\":32971:33001  ownedTokensIndex[_tokenId] = 0 */\n      dup2\n      swap1\n      sstore\n      pop\n        /* \"contracts/ERC721.sol\":33094:33104  tokenIndex */\n      dup3\n        /* \"contracts/ERC721.sol\":33064:33080  ownedTokensIndex */\n      0x8\n        /* \"contracts/ERC721.sol\":33064:33091  ownedTokensIndex[lastToken] */\n      0x0\n        /* \"contracts/ERC721.sol\":33081:33090  lastToken */\n      dup4\n        /* \"contracts/ERC721.sol\":33064:33091  ownedTokensIndex[lastToken] */\n      dup2\n      mstore\n      0x20\n      add\n      swap1\n      dup2\n      mstore\n      0x20\n      add\n      0x0\n      keccak256\n        /* \"contracts/ERC721.sol\":33064:33104  ownedTokensIndex[lastToken] = tokenIndex */\n      dup2\n      swap1\n      sstore\n      pop\n        /* \"contracts/ERC721.sol\":31892:33173  function removeTokenFrom(address _from, uint256 _tokenId) internal {\r... */\n      pop\n      pop\n      pop\n      pop\n      pop\n      jump\t// out\n        /* \"contracts/ERC721.sol\":30917:31598  function addTokenTo(address _to, uint256 _tokenId) internal {\r... */\n    tag_114:\n        /* \"contracts/ERC721.sol\":31100:31114  uint256 length */\n      0x0\n        /* \"contracts/ERC721.sol\":30984:31015  super.addTokenTo(_to, _tokenId) */\n      tag_180\n        /* \"contracts/ERC721.sol\":31001:31004  _to */\n      dup4\n        /* \"contracts/ERC721.sol\":31006:31014  _tokenId */\n      dup4\n        /* \"contracts/ERC721.sol\":30984:31000  super.addTokenTo */\n      tag_181\n        /* \"contracts/ERC721.sol\":30984:31015  super.addTokenTo(_to, _tokenId) */\n      jump\t// in\n    tag_180:\n        /* \"contracts/ERC721.sol\":31117:31128  ownedTokens */\n      0x7\n        /* \"contracts/ERC721.sol\":31117:31133  ownedTokens[_to] */\n      0x0\n        /* \"contracts/ERC721.sol\":31129:31132  _to */\n      dup5\n        /* \"contracts/ERC721.sol\":31117:31133  ownedTokens[_to] */\n      0xffffffffffffffffffffffffffffffffffffffff\n      and\n      0xffffffffffffffffffffffffffffffffffffffff\n      and\n      dup2\n      mstore\n      0x20\n      add\n      swap1\n      dup2\n      mstore\n      0x20\n      add\n      0x0\n      keccak256\n        /* \"contracts/ERC721.sol\":31117:31140  ownedTokens[_to].length */\n      dup1\n      sload\n      swap1\n      pop\n        /* \"contracts/ERC721.sol\":31100:31140  uint256 length = ownedTokens[_to].length */\n      swap1\n      pop\n        /* \"contracts/ERC721.sol\":31202:31213  ownedTokens */\n      0x7\n        /* \"contracts/ERC721.sol\":31202:31218  ownedTokens[_to] */\n      0x0\n        /* \"contracts/ERC721.sol\":31214:31217  _to */\n      dup5\n        /* \"contracts/ERC721.sol\":31202:31218  ownedTokens[_to] */\n      0xffffffffffffffffffffffffffffffffffffffff\n      and\n      0xffffffffffffffffffffffffffffffffffffffff\n      and\n      dup2\n      mstore\n      0x20\n      add\n      swap1\n      dup2\n      mstore\n      0x20\n      add\n      0x0\n      keccak256\n        /* \"contracts/ERC721.sol\":31224:31232  _tokenId */\n      dup3\n        /* \"contracts/ERC721.sol\":31202:31233  ownedTokens[_to].push(_tokenId) */\n      swap1\n      dup1\n        /* \"--CODEGEN--\":39:40   */\n      0x1\n        /* \"--CODEGEN--\":33:36   */\n      dup2\n        /* \"--CODEGEN--\":27:37   */\n      sload\n        /* \"--CODEGEN--\":23:41   */\n      add\n        /* \"--CODEGEN--\":57:67   */\n      dup1\n        /* \"--CODEGEN--\":52:55   */\n      dup3\n        /* \"--CODEGEN--\":45:68   */\n      sstore\n        /* \"--CODEGEN--\":79:89   */\n      dup1\n        /* \"--CODEGEN--\":72:89   */\n      swap2\n      pop\n        /* \"--CODEGEN--\":0:93   */\n      pop\n        /* \"contracts/ERC721.sol\":31202:31233  ownedTokens[_to].push(_tokenId) */\n      swap1\n      0x1\n      dup3\n      sub\n      swap1\n      0x0\n      mstore\n      keccak256(0x0, 0x20)\n      add\n      0x0\n      swap1\n      swap2\n      swap3\n      swap1\n      swap2\n      swap1\n      swap2\n      pop\n      sstore\n      pop\n        /* \"contracts/ERC721.sol\":31313:31319  length */\n      dup1\n        /* \"contracts/ERC721.sol\":31284:31300  ownedTokensIndex */\n      0x8\n        /* \"contracts/ERC721.sol\":31284:31310  ownedTokensIndex[_tokenId] */\n      0x0\n        /* \"contracts/ERC721.sol\":31301:31309  _tokenId */\n      dup5\n        /* \"contracts/ERC721.sol\":31284:31310  ownedTokensIndex[_tokenId] */\n      dup2\n      mstore\n      0x20\n      add\n      swap1\n      dup2\n      mstore\n      0x20\n      add\n      0x0\n      keccak256\n        /* \"contracts/ERC721.sol\":31284:31319  ownedTokensIndex[_tokenId] = length */\n      dup2\n      swap1\n      sstore\n      pop\n        /* \"contracts/ERC721.sol\":30917:31598  function addTokenTo(address _to, uint256 _tokenId) internal {\r... */\n      pop\n      pop\n      pop\n      jump\t// out\n        /* \"contracts/ERC721.sol\":21788:22415  function checkAndCallSafeTransfer(\r... */\n    tag_147:\n        /* \"contracts/ERC721.sol\":21967:21971  bool */\n      0x0\n        /* \"contracts/ERC721.sol\":22088:22101  bytes4 retval */\n      dup1\n        /* \"contracts/ERC721.sol\":21988:22004  _to.isContract() */\n      tag_184\n        /* \"contracts/ERC721.sol\":21988:21991  _to */\n      dup6\n        /* \"contracts/ERC721.sol\":21988:22002  _to.isContract */\n      0xffffffffffffffffffffffffffffffffffffffff\n      and\n      tag_185\n        /* \"contracts/ERC721.sol\":21988:22004  _to.isContract() */\n      jump\t// in\n    tag_184:\n        /* \"contracts/ERC721.sol\":21987:22004  !_to.isContract() */\n      iszero\n        /* \"contracts/ERC721.sol\":21983:22082  if (!_to.isContract()) { // 콘트랙트가 아니면 그냥 return true\r... */\n      iszero\n      tag_186\n      jumpi\n        /* \"contracts/ERC721.sol\":22070:22074  true */\n      0x1\n        /* \"contracts/ERC721.sol\":22063:22074  return true */\n      swap2\n      pop\n      jump(tag_183)\n        /* \"contracts/ERC721.sol\":21983:22082  if (!_to.isContract()) { // 콘트랙트가 아니면 그냥 return true\r... */\n    tag_186:\n        /* \"contracts/ERC721.sol\":22119:22122  _to */\n      dup5\n        /* \"contracts/ERC721.sol\":22104:22140  ERC721Receiver(_to).onERC721Received */\n      0xffffffffffffffffffffffffffffffffffffffff\n      and\n      0xf0b9e5ba\n        /* \"contracts/ERC721.sol\":22149:22154  _from */\n      dup8\n        /* \"contracts/ERC721.sol\":22156:22164  _tokenId */\n      dup7\n        /* \"contracts/ERC721.sol\":22166:22171  _data */\n      dup7\n        /* \"contracts/ERC721.sol\":22104:22172  ERC721Receiver(_to).onERC721Received(\r... */\n      mload(0x40)\n      dup5\n      0xffffffff\n      and\n      0x100000000000000000000000000000000000000000000000000000000\n      mul\n      dup2\n      mstore\n      0x4\n      add\n      dup1\n      dup5\n      0xffffffffffffffffffffffffffffffffffffffff\n      and\n      0xffffffffffffffffffffffffffffffffffffffff\n      and\n      dup2\n      mstore\n      0x20\n      add\n      dup4\n      dup2\n      mstore\n      0x20\n      add\n      dup1\n      0x20\n      add\n      dup3\n      dup2\n      sub\n      dup3\n      mstore\n      dup4\n      dup2\n      dup2\n      mload\n      dup2\n      mstore\n      0x20\n      add\n      swap2\n      pop\n      dup1\n      mload\n      swap1\n      0x20\n      add\n      swap1\n      dup1\n      dup4\n      dup4\n        /* \"--CODEGEN--\":23:24   */\n      0x0\n        /* \"--CODEGEN--\":8:108   */\n    tag_187:\n        /* \"--CODEGEN--\":33:36   */\n      dup4\n        /* \"--CODEGEN--\":30:31   */\n      dup2\n        /* \"--CODEGEN--\":27:37   */\n      lt\n        /* \"--CODEGEN--\":8:108   */\n      iszero\n      tag_188\n      jumpi\n        /* \"--CODEGEN--\":99:100   */\n      dup1\n        /* \"--CODEGEN--\":94:97   */\n      dup3\n        /* \"--CODEGEN--\":90:101   */\n      add\n        /* \"--CODEGEN--\":84:102   */\n      mload\n        /* \"--CODEGEN--\":80:81   */\n      dup2\n        /* \"--CODEGEN--\":75:78   */\n      dup5\n        /* \"--CODEGEN--\":71:82   */\n      add\n        /* \"--CODEGEN--\":64:103   */\n      mstore\n        /* \"--CODEGEN--\":52:54   */\n      0x20\n        /* \"--CODEGEN--\":49:50   */\n      dup2\n        /* \"--CODEGEN--\":45:55   */\n      add\n        /* \"--CODEGEN--\":40:55   */\n      swap1\n      pop\n        /* \"--CODEGEN--\":8:108   */\n      jump(tag_187)\n    tag_188:\n        /* \"--CODEGEN--\":12:26   */\n      pop\n        /* \"contracts/ERC721.sol\":22104:22172  ERC721Receiver(_to).onERC721Received(\r... */\n      pop\n      pop\n      pop\n      swap1\n      pop\n      swap1\n      dup2\n      add\n      swap1\n      0x1f\n      and\n      dup1\n      iszero\n      tag_190\n      jumpi\n      dup1\n      dup3\n      sub\n      dup1\n      mload\n      0x1\n      dup4\n      0x20\n      sub\n      0x100\n      exp\n      sub\n      not\n      and\n      dup2\n      mstore\n      0x20\n      add\n      swap2\n      pop\n    tag_190:\n      pop\n      swap5\n      pop\n      pop\n      pop\n      pop\n      pop\n      0x20\n      mload(0x40)\n      dup1\n      dup4\n      sub\n      dup2\n      0x0\n      dup8\n      dup1\n      extcodesize\n      iszero\n        /* \"--CODEGEN--\":8:17   */\n      dup1\n        /* \"--CODEGEN--\":5:7   */\n      iszero\n      tag_191\n      jumpi\n        /* \"--CODEGEN--\":30:31   */\n      0x0\n        /* \"--CODEGEN--\":27:28   */\n      dup1\n        /* \"--CODEGEN--\":20:32   */\n      revert\n        /* \"--CODEGEN--\":5:7   */\n    tag_191:\n        /* \"contracts/ERC721.sol\":22104:22172  ERC721Receiver(_to).onERC721Received(\r... */\n      pop\n      gas\n      call\n      iszero\n        /* \"--CODEGEN--\":8:17   */\n      dup1\n        /* \"--CODEGEN--\":5:7   */\n      iszero\n      tag_192\n      jumpi\n        /* \"--CODEGEN--\":45:61   */\n      returndatasize\n        /* \"--CODEGEN--\":42:43   */\n      0x0\n        /* \"--CODEGEN--\":39:40   */\n      dup1\n        /* \"--CODEGEN--\":24:62   */\n      returndatacopy\n        /* \"--CODEGEN--\":77:93   */\n      returndatasize\n        /* \"--CODEGEN--\":74:75   */\n      0x0\n        /* \"--CODEGEN--\":67:94   */\n      revert\n        /* \"--CODEGEN--\":5:7   */\n    tag_192:\n        /* \"contracts/ERC721.sol\":22104:22172  ERC721Receiver(_to).onERC721Received(\r... */\n      pop\n      pop\n      pop\n      pop\n      mload(0x40)\n      returndatasize\n        /* \"--CODEGEN--\":13:15   */\n      0x20\n        /* \"--CODEGEN--\":8:11   */\n      dup2\n        /* \"--CODEGEN--\":5:16   */\n      lt\n        /* \"--CODEGEN--\":2:4   */\n      iszero\n      tag_193\n      jumpi\n        /* \"--CODEGEN--\":29:30   */\n      0x0\n        /* \"--CODEGEN--\":26:27   */\n      dup1\n        /* \"--CODEGEN--\":19:31   */\n      revert\n        /* \"--CODEGEN--\":2:4   */\n    tag_193:\n        /* \"contracts/ERC721.sol\":22104:22172  ERC721Receiver(_to).onERC721Received(\r... */\n      dup2\n      add\n      swap1\n      dup1\n      dup1\n      mload\n      swap1\n      0x20\n      add\n      swap1\n      swap3\n      swap2\n      swap1\n      pop\n      pop\n      pop\n        /* \"contracts/ERC721.sol\":22088:22172  bytes4 retval = ERC721Receiver(_to).onERC721Received(\r... */\n      swap1\n      pop\n        /* \"contracts/ERC721.sol\":8032:8042  0xf0b9e5ba */\n      0xf0b9e5ba\n        /* \"contracts/ERC721.sol\":22310:22325  ERC721_RECEIVED */\n      0x100000000000000000000000000000000000000000000000000000000\n      mul\n        /* \"contracts/ERC721.sol\":22300:22325  retval == ERC721_RECEIVED */\n      not(0xffffffffffffffffffffffffffffffffffffffffffffffffffffffff)\n      and\n        /* \"contracts/ERC721.sol\":22300:22306  retval */\n      dup2\n        /* \"contracts/ERC721.sol\":22300:22325  retval == ERC721_RECEIVED */\n      not(0xffffffffffffffffffffffffffffffffffffffffffffffffffffffff)\n      and\n      eq\n        /* \"contracts/ERC721.sol\":22292:22326  return (retval == ERC721_RECEIVED) */\n      swap2\n      pop\n        /* \"contracts/ERC721.sol\":21788:22415  function checkAndCallSafeTransfer(\r... */\n    tag_183:\n      pop\n      swap5\n      swap4\n      pop\n      pop\n      pop\n      pop\n      jump\t// out\n        /* \"contracts/ERC721.sol\":20905:21262  function removeTokenFrom(address _from, uint256 _tokenId) internal { // 내부에서만 호출 가능\r... */\n    tag_168:\n        /* \"contracts/ERC721.sol\":21041:21046  _from */\n      dup2\n        /* \"contracts/ERC721.sol\":21020:21046  ownerOf(_tokenId) == _from */\n      0xffffffffffffffffffffffffffffffffffffffff\n      and\n        /* \"contracts/ERC721.sol\":21020:21037  ownerOf(_tokenId) */\n      tag_195\n        /* \"contracts/ERC721.sol\":21028:21036  _tokenId */\n      dup3\n        /* \"contracts/ERC721.sol\":21020:21027  ownerOf */\n      tag_59\n        /* \"contracts/ERC721.sol\":21020:21037  ownerOf(_tokenId) */\n      jump\t// in\n    tag_195:\n        /* \"contracts/ERC721.sol\":21020:21046  ownerOf(_tokenId) == _from */\n      0xffffffffffffffffffffffffffffffffffffffff\n      and\n      eq\n        /* \"contracts/ERC721.sol\":21012:21047  require(ownerOf(_tokenId) == _from) */\n      iszero\n      iszero\n      tag_196\n      jumpi\n      0x0\n      dup1\n      revert\n    tag_196:\n        /* \"contracts/ERC721.sol\":21126:21156  ownedTokensCount[_from].sub(1) */\n      tag_197\n        /* \"contracts/ERC721.sol\":21154:21155  1 */\n      0x1\n        /* \"contracts/ERC721.sol\":21126:21142  ownedTokensCount */\n      0x3\n        /* \"contracts/ERC721.sol\":21126:21149  ownedTokensCount[_from] */\n      0x0\n        /* \"contracts/ERC721.sol\":21143:21148  _from */\n      dup6\n        /* \"contracts/ERC721.sol\":21126:21149  ownedTokensCount[_from] */\n      0xffffffffffffffffffffffffffffffffffffffff\n      and\n      0xffffffffffffffffffffffffffffffffffffffff\n      and\n      dup2\n      mstore\n      0x20\n      add\n      swap1\n      dup2\n      mstore\n      0x20\n      add\n      0x0\n      keccak256\n      sload\n        /* \"contracts/ERC721.sol\":21126:21153  ownedTokensCount[_from].sub */\n      tag_170\n      swap1\n        /* \"contracts/ERC721.sol\":21126:21156  ownedTokensCount[_from].sub(1) */\n      swap2\n      swap1\n      0xffffffff\n      and\n      jump\t// in\n    tag_197:\n        /* \"contracts/ERC721.sol\":21100:21116  ownedTokensCount */\n      0x3\n        /* \"contracts/ERC721.sol\":21100:21123  ownedTokensCount[_from] */\n      0x0\n        /* \"contracts/ERC721.sol\":21117:21122  _from */\n      dup5\n        /* \"contracts/ERC721.sol\":21100:21123  ownedTokensCount[_from] */\n      0xffffffffffffffffffffffffffffffffffffffff\n      and\n      0xffffffffffffffffffffffffffffffffffffffff\n      and\n      dup2\n      mstore\n      0x20\n      add\n      swap1\n      dup2\n      mstore\n      0x20\n      add\n      0x0\n      keccak256\n        /* \"contracts/ERC721.sol\":21100:21156  ownedTokensCount[_from] = ownedTokensCount[_from].sub(1) */\n      dup2\n      swap1\n      sstore\n      pop\n        /* \"contracts/ERC721.sol\":21237:21238  0 */\n      0x0\n        /* \"contracts/ERC721.sol\":21206:21216  tokenOwner */\n      0x1\n        /* \"contracts/ERC721.sol\":21206:21226  tokenOwner[_tokenId] */\n      0x0\n        /* \"contracts/ERC721.sol\":21217:21225  _tokenId */\n      dup4\n        /* \"contracts/ERC721.sol\":21206:21226  tokenOwner[_tokenId] */\n      dup2\n      mstore\n      0x20\n      add\n      swap1\n      dup2\n      mstore\n      0x20\n      add\n      0x0\n      keccak256\n      0x0\n        /* \"contracts/ERC721.sol\":21206:21239  tokenOwner[_tokenId] = address(0) */\n      0x100\n      exp\n      dup2\n      sload\n      dup2\n      0xffffffffffffffffffffffffffffffffffffffff\n      mul\n      not\n      and\n      swap1\n      dup4\n      0xffffffffffffffffffffffffffffffffffffffff\n      and\n      mul\n      or\n      swap1\n      sstore\n      pop\n        /* \"contracts/ERC721.sol\":20905:21262  function removeTokenFrom(address _from, uint256 _tokenId) internal { // 내부에서만 호출 가능\r... */\n      pop\n      pop\n      jump\t// out\n        /* \"contracts/SafeMath.sol\":564:687  function sub(uint256 a, uint256 b) internal pure returns (uint256) {\r... */\n    tag_170:\n        /* \"contracts/SafeMath.sol\":622:629  uint256 */\n      0x0\n        /* \"contracts/SafeMath.sol\":654:655  a */\n      dup3\n        /* \"contracts/SafeMath.sol\":649:650  b */\n      dup3\n        /* \"contracts/SafeMath.sol\":649:655  b <= a */\n      gt\n      iszero\n        /* \"contracts/SafeMath.sol\":642:656  assert(b <= a) */\n      iszero\n      iszero\n      tag_199\n      jumpi\n      invalid\n    tag_199:\n        /* \"contracts/SafeMath.sol\":678:679  b */\n      dup2\n        /* \"contracts/SafeMath.sol\":674:675  a */\n      dup4\n        /* \"contracts/SafeMath.sol\":674:679  a - b */\n      sub\n        /* \"contracts/SafeMath.sol\":667:679  return a - b */\n      swap1\n      pop\n        /* \"contracts/SafeMath.sol\":564:687  function sub(uint256 a, uint256 b) internal pure returns (uint256) {\r... */\n      swap3\n      swap2\n      pop\n      pop\n      jump\t// out\n        /* \"contracts/ERC721.sol\":20196:20619  function addTokenTo(address _to, uint256 _tokenId) internal { // 내부에서만 호출 가능\r... */\n    tag_181:\n        /* \"contracts/ERC721.sol\":20336:20337  0 */\n      0x0\n        /* \"contracts/ERC721.sol\":20304:20338  tokenOwner[_tokenId] == address(0) */\n      0xffffffffffffffffffffffffffffffffffffffff\n      and\n        /* \"contracts/ERC721.sol\":20304:20314  tokenOwner */\n      0x1\n        /* \"contracts/ERC721.sol\":20304:20324  tokenOwner[_tokenId] */\n      0x0\n        /* \"contracts/ERC721.sol\":20315:20323  _tokenId */\n      dup4\n        /* \"contracts/ERC721.sol\":20304:20324  tokenOwner[_tokenId] */\n      dup2\n      mstore\n      0x20\n      add\n      swap1\n      dup2\n      mstore\n      0x20\n      add\n      0x0\n      keccak256\n      0x0\n      swap1\n      sload\n      swap1\n      0x100\n      exp\n      swap1\n      div\n      0xffffffffffffffffffffffffffffffffffffffff\n      and\n        /* \"contracts/ERC721.sol\":20304:20338  tokenOwner[_tokenId] == address(0) */\n      0xffffffffffffffffffffffffffffffffffffffff\n      and\n      eq\n        /* \"contracts/ERC721.sol\":20296:20339  require(tokenOwner[_tokenId] == address(0)) */\n      iszero\n      iszero\n      tag_201\n      jumpi\n      0x0\n      dup1\n      revert\n    tag_201:\n        /* \"contracts/ERC721.sol\":20458:20461  _to */\n      dup2\n        /* \"contracts/ERC721.sol\":20435:20445  tokenOwner */\n      0x1\n        /* \"contracts/ERC721.sol\":20435:20455  tokenOwner[_tokenId] */\n      0x0\n        /* \"contracts/ERC721.sol\":20446:20454  _tokenId */\n      dup4\n        /* \"contracts/ERC721.sol\":20435:20455  tokenOwner[_tokenId] */\n      dup2\n      mstore\n      0x20\n      add\n      swap1\n      dup2\n      mstore\n      0x20\n      add\n      0x0\n      keccak256\n      0x0\n        /* \"contracts/ERC721.sol\":20435:20461  tokenOwner[_tokenId] = _to */\n      0x100\n      exp\n      dup2\n      sload\n      dup2\n      0xffffffffffffffffffffffffffffffffffffffff\n      mul\n      not\n      and\n      swap1\n      dup4\n      0xffffffffffffffffffffffffffffffffffffffff\n      and\n      mul\n      or\n      swap1\n      sstore\n      pop\n        /* \"contracts/ERC721.sol\":20544:20572  ownedTokensCount[_to].add(1) */\n      tag_202\n        /* \"contracts/ERC721.sol\":20570:20571  1 */\n      0x1\n        /* \"contracts/ERC721.sol\":20544:20560  ownedTokensCount */\n      0x3\n        /* \"contracts/ERC721.sol\":20544:20565  ownedTokensCount[_to] */\n      0x0\n        /* \"contracts/ERC721.sol\":20561:20564  _to */\n      dup6\n        /* \"contracts/ERC721.sol\":20544:20565  ownedTokensCount[_to] */\n      0xffffffffffffffffffffffffffffffffffffffff\n      and\n      0xffffffffffffffffffffffffffffffffffffffff\n      and\n      dup2\n      mstore\n      0x20\n      add\n      swap1\n      dup2\n      mstore\n      0x20\n      add\n      0x0\n      keccak256\n      sload\n        /* \"contracts/ERC721.sol\":20544:20569  ownedTokensCount[_to].add */\n      tag_203\n      swap1\n        /* \"contracts/ERC721.sol\":20544:20572  ownedTokensCount[_to].add(1) */\n      swap2\n      swap1\n      0xffffffff\n      and\n      jump\t// in\n    tag_202:\n        /* \"contracts/ERC721.sol\":20520:20536  ownedTokensCount */\n      0x3\n        /* \"contracts/ERC721.sol\":20520:20541  ownedTokensCount[_to] */\n      0x0\n        /* \"contracts/ERC721.sol\":20537:20540  _to */\n      dup5\n        /* \"contracts/ERC721.sol\":20520:20541  ownedTokensCount[_to] */\n      0xffffffffffffffffffffffffffffffffffffffff\n      and\n      0xffffffffffffffffffffffffffffffffffffffff\n      and\n      dup2\n      mstore\n      0x20\n      add\n      swap1\n      dup2\n      mstore\n      0x20\n      add\n      0x0\n      keccak256\n        /* \"contracts/ERC721.sol\":20520:20572  ownedTokensCount[_to] = ownedTokensCount[_to].add(1) */\n      dup2\n      swap1\n      sstore\n      pop\n        /* \"contracts/ERC721.sol\":20196:20619  function addTokenTo(address _to, uint256 _tokenId) internal { // 내부에서만 호출 가능\r... */\n      pop\n      pop\n      jump\t// out\n        /* \"contracts/ERC721.sol\":6797:7384  function isContract(address addr) internal view returns (bool) {\r... */\n    tag_185:\n        /* \"contracts/ERC721.sol\":6854:6858  bool */\n      0x0\n        /* \"contracts/ERC721.sol\":6867:6879  uint256 size */\n      dup1\n        /* \"contracts/ERC721.sol\":7350:7354  addr */\n      dup3\n        /* \"contracts/ERC721.sol\":7338:7355  extcodesize(addr) */\n      extcodesize\n        /* \"contracts/ERC721.sol\":7330:7355  size := extcodesize(addr) */\n      swap1\n      pop\n        /* \"contracts/ERC721.sol\":7377:7378  0 */\n      0x0\n        /* \"contracts/ERC721.sol\":7370:7374  size */\n      dup2\n        /* \"contracts/ERC721.sol\":7370:7378  size > 0 */\n      gt\n        /* \"contracts/ERC721.sol\":7363:7378  return size > 0 */\n      swap2\n      pop\n        /* \"contracts/ERC721.sol\":6797:7384  function isContract(address addr) internal view returns (bool) {\r... */\n      pop\n      swap2\n      swap1\n      pop\n      jump\t// out\n        /* \"contracts/SafeMath.sol\":695:842  function add(uint256 a, uint256 b) internal pure returns (uint256) {\r... */\n    tag_203:\n        /* \"contracts/SafeMath.sol\":753:760  uint256 */\n      0x0\n        /* \"contracts/SafeMath.sol\":773:782  uint256 c */\n      dup1\n        /* \"contracts/SafeMath.sol\":789:790  b */\n      dup3\n        /* \"contracts/SafeMath.sol\":785:786  a */\n      dup5\n        /* \"contracts/SafeMath.sol\":785:790  a + b */\n      add\n        /* \"contracts/SafeMath.sol\":773:790  uint256 c = a + b */\n      swap1\n      pop\n        /* \"contracts/SafeMath.sol\":813:814  a */\n      dup4\n        /* \"contracts/SafeMath.sol\":808:809  c */\n      dup2\n        /* \"contracts/SafeMath.sol\":808:814  c >= a */\n      lt\n      iszero\n        /* \"contracts/SafeMath.sol\":801:815  assert(c >= a) */\n      iszero\n      iszero\n      tag_206\n      jumpi\n      invalid\n    tag_206:\n        /* \"contracts/SafeMath.sol\":833:834  c */\n      dup1\n        /* \"contracts/SafeMath.sol\":826:834  return c */\n      swap2\n      pop\n        /* \"contracts/SafeMath.sol\":695:842  function add(uint256 a, uint256 b) internal pure returns (uint256) {\r... */\n      pop\n      swap3\n      swap2\n      pop\n      pop\n      jump\t// out\n        /* \"contracts/ERC721.sol\":25955:35520  contract ERC721Token is ERC721, ERC721BasicToken {\r... */\n    tag_178:\n      dup2\n      sload\n      dup2\n      dup4\n      sstore\n      dup2\n      dup2\n      gt\n      iszero\n      tag_207\n      jumpi\n      dup2\n      dup4\n      0x0\n      mstore\n      keccak256(0x0, 0x20)\n      swap2\n      dup3\n      add\n      swap2\n      add\n      tag_208\n      swap2\n      swap1\n      jump\t// in(tag_209)\n    tag_208:\n    tag_207:\n      pop\n      pop\n      pop\n      jump\t// out\n    tag_209:\n      tag_210\n      swap2\n      swap1\n    tag_211:\n      dup1\n      dup3\n      gt\n      iszero\n      tag_212\n      jumpi\n      0x0\n      dup2\n      0x0\n      swap1\n      sstore\n      pop\n      0x1\n      add\n      jump(tag_211)\n    tag_212:\n      pop\n      swap1\n      jump\n    tag_210:\n      swap1\n      jump\t// out\n\n    auxdata: 0xa165627a7a72305820909969416537ef6961f8a27d1927607a6ab3507f2887128685f78278a9c808910029\n}\n",
				"bytecode": {
					"linkReferences": {},
					"object": "60806040523480156200001157600080fd5b5060405162001fdc38038062001fdc83398101806040528101908080518201929190602001805182019291905050506200007d6301ffc9a77c010000000000000000000000000000000000000000000000000000000002620001ab640100000000026401000000009004565b620000ba6380ac58cd7c010000000000000000000000000000000000000000000000000000000002620001ab640100000000026401000000009004565b620000f7634f558e797c010000000000000000000000000000000000000000000000000000000002620001ab640100000000026401000000009004565b6200013463780e9d637c010000000000000000000000000000000000000000000000000000000002620001ab640100000000026401000000009004565b62000171635b5e139f7c010000000000000000000000000000000000000000000000000000000002620001ab640100000000026401000000009004565b81600590805190602001906200018992919062000269565b508060069080519060200190620001a292919062000269565b50505062000318565b63ffffffff7c010000000000000000000000000000000000000000000000000000000002817bffffffffffffffffffffffffffffffffffffffffffffffffffffffff191614151515620001fd57600080fd5b6001600080837bffffffffffffffffffffffffffffffffffffffffffffffffffffffff19167bffffffffffffffffffffffffffffffffffffffffffffffffffffffff1916815260200190815260200160002060006101000a81548160ff02191690831515021790555050565b828054600181600116156101000203166002900490600052602060002090601f016020900481019282601f10620002ac57805160ff1916838001178555620002dd565b82800160010185558215620002dd579182015b82811115620002dc578251825591602001919060010190620002bf565b5b509050620002ec9190620002f0565b5090565b6200031591905b8082111562000311576000816000905550600101620002f7565b5090565b90565b611cb480620003286000396000f3006080604052600436106100fc576000357c0100000000000000000000000000000000000000000000000000000000900463ffffffff16806301ffc9a71461010157806306fdde0314610165578063081812fc146101f5578063095ea7b31461026257806318160ddd146102af57806319fa8f50146102da57806323b872dd146103435780632f745c59146103b057806342842e0e146104115780634f558e791461047e5780634f6ccce7146104c35780636352211e1461050457806370a082311461057157806395d89b41146105c8578063a22cb46514610658578063b88d4fde146106a7578063c87b56dd1461075a578063e985e9c514610800575b600080fd5b34801561010d57600080fd5b5061014b60048036038101908080357bffffffffffffffffffffffffffffffffffffffffffffffffffffffff1916906020019092919050505061087b565b604051808215151515815260200191505060405180910390f35b34801561017157600080fd5b5061017a6108e2565b6040518080602001828103825283818151815260200191508051906020019080838360005b838110156101ba57808201518184015260208101905061019f565b50505050905090810190601f1680156101e75780820380516001836020036101000a031916815260200191505b509250505060405180910390f35b34801561020157600080fd5b5061022060048036038101908080359060200190929190505050610984565b604051808273ffffffffffffffffffffffffffffffffffffffff1673ffffffffffffffffffffffffffffffffffffffff16815260200191505060405180910390f35b34801561026e57600080fd5b506102ad600480360381019080803573ffffffffffffffffffffffffffffffffffffffff169060200190929190803590602001909291905050506109c1565b005b3480156102bb57600080fd5b506102c4610b7d565b6040518082815260200191505060405180910390f35b3480156102e657600080fd5b506102ef610b8a565b60405180827bffffffffffffffffffffffffffffffffffffffffffffffffffffffff19167bffffffffffffffffffffffffffffffffffffffffffffffffffffffff1916815260200191505060405180910390f35b34801561034f57600080fd5b506103ae600480360381019080803573ffffffffffffffffffffffffffffffffffffffff169060200190929190803573ffffffffffffffffffffffffffffffffffffffff16906020019092919080359060200190929190505050610bb1565b005b3480156103bc57600080fd5b506103fb600480360381019080803573ffffffffffffffffffffffffffffffffffffffff16906020019092919080359060200190929190505050610cbe565b6040518082815260200191505060405180910390f35b34801561041d57600080fd5b5061047c600480360381019080803573ffffffffffffffffffffffffffffffffffffffff169060200190929190803573ffffffffffffffffffffffffffffffffffffffff16906020019092919080359060200190929190505050610d35565b005b34801561048a57600080fd5b506104a960048036038101908080359060200190929190505050610d6d565b604051808215151515815260200191505060405180910390f35b3480156104cf57600080fd5b506104ee60048036038101908080359060200190929190505050610ddf565b6040518082815260200191505060405180910390f35b34801561051057600080fd5b5061052f60048036038101908080359060200190929190505050610e17565b604051808273ffffffffffffffffffffffffffffffffffffffff1673ffffffffffffffffffffffffffffffffffffffff16815260200191505060405180910390f35b34801561057d57600080fd5b506105b2600480360381019080803573ffffffffffffffffffffffffffffffffffffffff169060200190929190505050610e95565b6040518082815260200191505060405180910390f35b3480156105d457600080fd5b506105dd610f19565b6040518080602001828103825283818151815260200191508051906020019080838360005b8381101561061d578082015181840152602081019050610602565b50505050905090810190601f16801561064a5780820380516001836020036101000a031916815260200191505b509250505060405180910390f35b34801561066457600080fd5b506106a5600480360381019080803573ffffffffffffffffffffffffffffffffffffffff169060200190929190803515159060200190929190505050610fbb565b005b3480156106b357600080fd5b50610758600480360381019080803573ffffffffffffffffffffffffffffffffffffffff169060200190929190803573ffffffffffffffffffffffffffffffffffffffff16906020019092919080359060200190929190803590602001908201803590602001908080601f01602080910402602001604051908101604052809392919081815260200183838082843782019150505050505091929192905050506110f7565b005b34801561076657600080fd5b5061078560048036038101908080359060200190929190505050611136565b6040518080602001828103825283818151815260200191508051906020019080838360005b838110156107c55780820151818401526020810190506107aa565b50505050905090810190601f1680156107f25780820380516001836020036101000a031916815260200191505b509250505060405180910390f35b34801561080c57600080fd5b50610861600480360381019080803573ffffffffffffffffffffffffffffffffffffffff169060200190929190803573ffffffffffffffffffffffffffffffffffffffff1690602001909291905050506111ff565b604051808215151515815260200191505060405180910390f35b6000806000837bffffffffffffffffffffffffffffffffffffffffffffffffffffffff19167bffffffffffffffffffffffffffffffffffffffffffffffffffffffff1916815260200190815260200160002060009054906101000a900460ff169050919050565b606060058054600181600116156101000203166002900480601f01602080910402602001604051908101604052809291908181526020018280546001816001161561010002031660029004801561097a5780601f1061094f5761010080835404028352916020019161097a565b820191906000526020600020905b81548152906001019060200180831161095d57829003601f168201915b5050505050905090565b60006002600083815260200190815260200160002060009054906101000a900473ffffffffffffffffffffffffffffffffffffffff169050919050565b60006109cc82610e17565b90508073ffffffffffffffffffffffffffffffffffffffff168373ffffffffffffffffffffffffffffffffffffffff1614151515610a0957600080fd5b8073ffffffffffffffffffffffffffffffffffffffff163373ffffffffffffffffffffffffffffffffffffffff161480610a495750610a4881336111ff565b5b1515610a5457600080fd5b600073ffffffffffffffffffffffffffffffffffffffff16610a7583610984565b73ffffffffffffffffffffffffffffffffffffffff16141580610ac55750600073ffffffffffffffffffffffffffffffffffffffff168373ffffffffffffffffffffffffffffffffffffffff1614155b15610b7857826002600084815260200190815260200160002060006101000a81548173ffffffffffffffffffffffffffffffffffffffff021916908373ffffffffffffffffffffffffffffffffffffffff160217905550818373ffffffffffffffffffffffffffffffffffffffff168273ffffffffffffffffffffffffffffffffffffffff167f8c5be1e5ebec7d5bd14f71427d1e84f3dd0314c0f7b2291e5b200ac8c7c3b92560405160405180910390a45b505050565b6000600980549050905090565b6301ffc9a77c01000000000000000000000000000000000000000000000000000000000281565b80610bbc3382611293565b1515610bc757600080fd5b600073ffffffffffffffffffffffffffffffffffffffff168473ffffffffffffffffffffffffffffffffffffffff1614151515610c0357600080fd5b600073ffffffffffffffffffffffffffffffffffffffff168373ffffffffffffffffffffffffffffffffffffffff1614151515610c3f57600080fd5b610c498483611328565b610c538483611487565b610c5d838361169f565b818373ffffffffffffffffffffffffffffffffffffffff168573ffffffffffffffffffffffffffffffffffffffff167fddf252ad1be2c89b69c2b068fc378daa952ba7f163c4a11628f55a4df523b3ef60405160405180910390a450505050565b6000610cc983610e95565b82101515610cd657600080fd5b600760008473ffffffffffffffffffffffffffffffffffffffff1673ffffffffffffffffffffffffffffffffffffffff16815260200190815260200160002082815481101515610d2257fe5b9060005260206000200154905092915050565b80610d403382611293565b1515610d4b57600080fd5b610d6784848460206040519081016040528060008152506110f7565b50505050565b6000806001600084815260200190815260200160002060009054906101000a900473ffffffffffffffffffffffffffffffffffffffff169050600073ffffffffffffffffffffffffffffffffffffffff168173ffffffffffffffffffffffffffffffffffffffff161415915050919050565b6000610de9610b7d565b82101515610df657600080fd5b600982815481101515610e0557fe5b90600052602060002001549050919050565b6000806001600084815260200190815260200160002060009054906101000a900473ffffffffffffffffffffffffffffffffffffffff169050600073ffffffffffffffffffffffffffffffffffffffff168173ffffffffffffffffffffffffffffffffffffffff1614151515610e8c57600080fd5b80915050919050565b60008073ffffffffffffffffffffffffffffffffffffffff168273ffffffffffffffffffffffffffffffffffffffff1614151515610ed257600080fd5b600360008373ffffffffffffffffffffffffffffffffffffffff1673ffffffffffffffffffffffffffffffffffffffff168152602001908152602001600020549050919050565b606060068054600181600116156101000203166002900480601f016020809104026020016040519081016040528092919081815260200182805460018160011615610100020316600290048015610fb15780601f10610f8657610100808354040283529160200191610fb1565b820191906000526020600020905b815481529060010190602001808311610f9457829003601f168201915b5050505050905090565b3373ffffffffffffffffffffffffffffffffffffffff168273ffffffffffffffffffffffffffffffffffffffff1614151515610ff657600080fd5b80600460003373ffffffffffffffffffffffffffffffffffffffff1673ffffffffffffffffffffffffffffffffffffffff16815260200190815260200160002060008473ffffffffffffffffffffffffffffffffffffffff1673ffffffffffffffffffffffffffffffffffffffff16815260200190815260200160002060006101000a81548160ff0219169083151502179055508173ffffffffffffffffffffffffffffffffffffffff163373ffffffffffffffffffffffffffffffffffffffff167f17307eab39ab6107e8899845ad3d59bd9653f200f220920489ca2b5937696c3183604051808215151515815260200191505060405180910390a35050565b816111023382611293565b151561110d57600080fd5b611118858585610bb1565b61112485858585611776565b151561112f57600080fd5b5050505050565b606061114182610d6d565b151561114c57600080fd5b600b60008381526020019081526020016000208054600181600116156101000203166002900480601f0160208091040260200160405190810160405280929190818152602001828054600181600116156101000203166002900480156111f35780601f106111c8576101008083540402835291602001916111f3565b820191906000526020600020905b8154815290600101906020018083116111d657829003601f168201915b50505050509050919050565b6000600460008473ffffffffffffffffffffffffffffffffffffffff1673ffffffffffffffffffffffffffffffffffffffff16815260200190815260200160002060008373ffffffffffffffffffffffffffffffffffffffff1673ffffffffffffffffffffffffffffffffffffffff16815260200190815260200160002060009054906101000a900460ff16905092915050565b60008061129f83610e17565b90508073ffffffffffffffffffffffffffffffffffffffff168473ffffffffffffffffffffffffffffffffffffffff16148061130e57508373ffffffffffffffffffffffffffffffffffffffff166112f684610984565b73ffffffffffffffffffffffffffffffffffffffff16145b8061131f575061131e81856111ff565b5b91505092915050565b8173ffffffffffffffffffffffffffffffffffffffff1661134882610e17565b73ffffffffffffffffffffffffffffffffffffffff1614151561136a57600080fd5b600073ffffffffffffffffffffffffffffffffffffffff166002600083815260200190815260200160002060009054906101000a900473ffffffffffffffffffffffffffffffffffffffff1673ffffffffffffffffffffffffffffffffffffffff161415156114835760006002600083815260200190815260200160002060006101000a81548173ffffffffffffffffffffffffffffffffffffffff021916908373ffffffffffffffffffffffffffffffffffffffff16021790555080600073ffffffffffffffffffffffffffffffffffffffff168373ffffffffffffffffffffffffffffffffffffffff167f8c5be1e5ebec7d5bd14f71427d1e84f3dd0314c0f7b2291e5b200ac8c7c3b92560405160405180910390a45b5050565b60008060006114968585611964565b600860008581526020019081526020016000205492506115026001600760008873ffffffffffffffffffffffffffffffffffffffff1673ffffffffffffffffffffffffffffffffffffffff16815260200190815260200160002080549050611a9390919063ffffffff16565b9150600760008673ffffffffffffffffffffffffffffffffffffffff1673ffffffffffffffffffffffffffffffffffffffff1681526020019081526020016000208281548110151561155057fe5b9060005260206000200154905080600760008773ffffffffffffffffffffffffffffffffffffffff1673ffffffffffffffffffffffffffffffffffffffff168152602001908152602001600020848154811015156115aa57fe5b90600052602060002001819055506000600760008773ffffffffffffffffffffffffffffffffffffffff1673ffffffffffffffffffffffffffffffffffffffff1681526020019081526020016000208381548110151561160657fe5b9060005260206000200181905550600760008673ffffffffffffffffffffffffffffffffffffffff1673ffffffffffffffffffffffffffffffffffffffff1681526020019081526020016000208054809190600190036116669190611c37565b50600060086000868152602001908152602001600020819055508260086000838152602001908152602001600020819055505050505050565b60006116ab8383611aac565b600760008473ffffffffffffffffffffffffffffffffffffffff1673ffffffffffffffffffffffffffffffffffffffff168152602001908152602001600020805490509050600760008473ffffffffffffffffffffffffffffffffffffffff1673ffffffffffffffffffffffffffffffffffffffff168152602001908152602001600020829080600181540180825580915050906001820390600052602060002001600090919290919091505550806008600084815260200190815260200160002081905550505050565b6000806117988573ffffffffffffffffffffffffffffffffffffffff16611c06565b15156117a7576001915061195b565b8473ffffffffffffffffffffffffffffffffffffffff1663f0b9e5ba8786866040518463ffffffff167c0100000000000000000000000000000000000000000000000000000000028152600401808473ffffffffffffffffffffffffffffffffffffffff1673ffffffffffffffffffffffffffffffffffffffff16815260200183815260200180602001828103825283818151815260200191508051906020019080838360005b8381101561186957808201518184015260208101905061184e565b50505050905090810190601f1680156118965780820380516001836020036101000a031916815260200191505b50945050505050602060405180830381600087803b1580156118b757600080fd5b505af11580156118cb573d6000803e3d6000fd5b505050506040513d60208110156118e157600080fd5b8101908080519060200190929190505050905063f0b9e5ba7c0100000000000000000000000000000000000000000000000000000000027bffffffffffffffffffffffffffffffffffffffffffffffffffffffff1916817bffffffffffffffffffffffffffffffffffffffffffffffffffffffff19161491505b50949350505050565b8173ffffffffffffffffffffffffffffffffffffffff1661198482610e17565b73ffffffffffffffffffffffffffffffffffffffff161415156119a657600080fd5b6119f96001600360008573ffffffffffffffffffffffffffffffffffffffff1673ffffffffffffffffffffffffffffffffffffffff16815260200190815260200160002054611a9390919063ffffffff16565b600360008473ffffffffffffffffffffffffffffffffffffffff1673ffffffffffffffffffffffffffffffffffffffff1681526020019081526020016000208190555060006001600083815260200190815260200160002060006101000a81548173ffffffffffffffffffffffffffffffffffffffff021916908373ffffffffffffffffffffffffffffffffffffffff1602179055505050565b6000828211151515611aa157fe5b818303905092915050565b600073ffffffffffffffffffffffffffffffffffffffff166001600083815260200190815260200160002060009054906101000a900473ffffffffffffffffffffffffffffffffffffffff1673ffffffffffffffffffffffffffffffffffffffff16141515611b1a57600080fd5b816001600083815260200190815260200160002060006101000a81548173ffffffffffffffffffffffffffffffffffffffff021916908373ffffffffffffffffffffffffffffffffffffffff160217905550611bbf6001600360008573ffffffffffffffffffffffffffffffffffffffff1673ffffffffffffffffffffffffffffffffffffffff16815260200190815260200160002054611c1990919063ffffffff16565b600360008473ffffffffffffffffffffffffffffffffffffffff1673ffffffffffffffffffffffffffffffffffffffff168152602001908152602001600020819055505050565b600080823b905060008111915050919050565b6000808284019050838110151515611c2d57fe5b8091505092915050565b815481835581811115611c5e57818360005260206000209182019101611c5d9190611c63565b5b505050565b611c8591905b80821115611c81576000816000905550600101611c69565b5090565b905600a165627a7a72305820909969416537ef6961f8a27d1927607a6ab3507f2887128685f78278a9c808910029",
					"opcodes": "PUSH1 0x80 PUSH1 0x40 MSTORE CALLVALUE DUP1 ISZERO PUSH3 0x11 JUMPI PUSH1 0x0 DUP1 REVERT JUMPDEST POP PUSH1 0x40 MLOAD PUSH3 0x1FDC CODESIZE SUB DUP1 PUSH3 0x1FDC DUP4 CODECOPY DUP2 ADD DUP1 PUSH1 0x40 MSTORE DUP2 ADD SWAP1 DUP1 DUP1 MLOAD DUP3 ADD SWAP3 SWAP2 SWAP1 PUSH1 0x20 ADD DUP1 MLOAD DUP3 ADD SWAP3 SWAP2 SWAP1 POP POP POP PUSH3 0x7D PUSH4 0x1FFC9A7 PUSH29 0x100000000000000000000000000000000000000000000000000000000 MUL PUSH3 0x1AB PUSH5 0x100000000 MUL PUSH5 0x100000000 SWAP1 DIV JUMP JUMPDEST PUSH3 0xBA PUSH4 0x80AC58CD PUSH29 0x100000000000000000000000000000000000000000000000000000000 MUL PUSH3 0x1AB PUSH5 0x100000000 MUL PUSH5 0x100000000 SWAP1 DIV JUMP JUMPDEST PUSH3 0xF7 PUSH4 0x4F558E79 PUSH29 0x100000000000000000000000000000000000000000000000000000000 MUL PUSH3 0x1AB PUSH5 0x100000000 MUL PUSH5 0x100000000 SWAP1 DIV JUMP JUMPDEST PUSH3 0x134 PUSH4 0x780E9D63 PUSH29 0x100000000000000000000000000000000000000000000000000000000 MUL PUSH3 0x1AB PUSH5 0x100000000 MUL PUSH5 0x100000000 SWAP1 DIV JUMP JUMPDEST PUSH3 0x171 PUSH4 0x5B5E139F PUSH29 0x100000000000000000000000000000000000000000000000000000000 MUL PUSH3 0x1AB PUSH5 0x100000000 MUL PUSH5 0x100000000 SWAP1 DIV JUMP JUMPDEST DUP2 PUSH1 0x5 SWAP1 DUP1 MLOAD SWAP1 PUSH1 0x20 ADD SWAP1 PUSH3 0x189 SWAP3 SWAP2 SWAP1 PUSH3 0x269 JUMP JUMPDEST POP DUP1 PUSH1 0x6 SWAP1 DUP1 MLOAD SWAP1 PUSH1 0x20 ADD SWAP1 PUSH3 0x1A2 SWAP3 SWAP2 SWAP1 PUSH3 0x269 JUMP JUMPDEST POP POP POP PUSH3 0x318 JUMP JUMPDEST PUSH4 0xFFFFFFFF PUSH29 0x100000000000000000000000000000000000000000000000000000000 MUL DUP2 PUSH28 0xFFFFFFFFFFFFFFFFFFFFFFFFFFFFFFFFFFFFFFFFFFFFFFFFFFFFFFFF NOT AND EQ ISZERO ISZERO ISZERO PUSH3 0x1FD JUMPI PUSH1 0x0 DUP1 REVERT JUMPDEST PUSH1 0x1 PUSH1 0x0 DUP1 DUP4 PUSH28 0xFFFFFFFFFFFFFFFFFFFFFFFFFFFFFFFFFFFFFFFFFFFFFFFFFFFFFFFF NOT AND PUSH28 0xFFFFFFFFFFFFFFFFFFFFFFFFFFFFFFFFFFFFFFFFFFFFFFFFFFFFFFFF NOT AND DUP2 MSTORE PUSH1 0x20 ADD SWAP1 DUP2 MSTORE PUSH1 0x20 ADD PUSH1 0x0 KECCAK256 PUSH1 0x0 PUSH2 0x100 EXP DUP2 SLOAD DUP2 PUSH1 0xFF MUL NOT AND SWAP1 DUP4 ISZERO ISZERO MUL OR SWAP1 SSTORE POP POP JUMP JUMPDEST DUP3 DUP1 SLOAD PUSH1 0x1 DUP2 PUSH1 0x1 AND ISZERO PUSH2 0x100 MUL SUB AND PUSH1 0x2 SWAP1 DIV SWAP1 PUSH1 0x0 MSTORE PUSH1 0x20 PUSH1 0x0 KECCAK256 SWAP1 PUSH1 0x1F ADD PUSH1 0x20 SWAP1 DIV DUP2 ADD SWAP3 DUP3 PUSH1 0x1F LT PUSH3 0x2AC JUMPI DUP1 MLOAD PUSH1 0xFF NOT AND DUP4 DUP1 ADD OR DUP6 SSTORE PUSH3 0x2DD JUMP JUMPDEST DUP3 DUP1 ADD PUSH1 0x1 ADD DUP6 SSTORE DUP3 ISZERO PUSH3 0x2DD JUMPI SWAP2 DUP3 ADD JUMPDEST DUP3 DUP2 GT ISZERO PUSH3 0x2DC JUMPI DUP3 MLOAD DUP3 SSTORE SWAP2 PUSH1 0x20 ADD SWAP2 SWAP1 PUSH1 0x1 ADD SWAP1 PUSH3 0x2BF JUMP JUMPDEST JUMPDEST POP SWAP1 POP PUSH3 0x2EC SWAP2 SWAP1 PUSH3 0x2F0 JUMP JUMPDEST POP SWAP1 JUMP JUMPDEST PUSH3 0x315 SWAP2 SWAP1 JUMPDEST DUP1 DUP3 GT ISZERO PUSH3 0x311 JUMPI PUSH1 0x0 DUP2 PUSH1 0x0 SWAP1 SSTORE POP PUSH1 0x1 ADD PUSH3 0x2F7 JUMP JUMPDEST POP SWAP1 JUMP JUMPDEST SWAP1 JUMP JUMPDEST PUSH2 0x1CB4 DUP1 PUSH3 0x328 PUSH1 0x0 CODECOPY PUSH1 0x0 RETURN STOP PUSH1 0x80 PUSH1 0x40 MSTORE PUSH1 0x4 CALLDATASIZE LT PUSH2 0xFC JUMPI PUSH1 0x0 CALLDATALOAD PUSH29 0x100000000000000000000000000000000000000000000000000000000 SWAP1 DIV PUSH4 0xFFFFFFFF AND DUP1 PUSH4 0x1FFC9A7 EQ PUSH2 0x101 JUMPI DUP1 PUSH4 0x6FDDE03 EQ PUSH2 0x165 JUMPI DUP1 PUSH4 0x81812FC EQ PUSH2 0x1F5 JUMPI DUP1 PUSH4 0x95EA7B3 EQ PUSH2 0x262 JUMPI DUP1 PUSH4 0x18160DDD EQ PUSH2 0x2AF JUMPI DUP1 PUSH4 0x19FA8F50 EQ PUSH2 0x2DA JUMPI DUP1 PUSH4 0x23B872DD EQ PUSH2 0x343 JUMPI DUP1 PUSH4 0x2F745C59 EQ PUSH2 0x3B0 JUMPI DUP1 PUSH4 0x42842E0E EQ PUSH2 0x411 JUMPI DUP1 PUSH4 0x4F558E79 EQ PUSH2 0x47E JUMPI DUP1 PUSH4 0x4F6CCCE7 EQ PUSH2 0x4C3 JUMPI DUP1 PUSH4 0x6352211E EQ PUSH2 0x504 JUMPI DUP1 PUSH4 0x70A08231 EQ PUSH2 0x571 JUMPI DUP1 PUSH4 0x95D89B41 EQ PUSH2 0x5C8 JUMPI DUP1 PUSH4 0xA22CB465 EQ PUSH2 0x658 JUMPI DUP1 PUSH4 0xB88D4FDE EQ PUSH2 0x6A7 JUMPI DUP1 PUSH4 0xC87B56DD EQ PUSH2 0x75A JUMPI DUP1 PUSH4 0xE985E9C5 EQ PUSH2 0x800 JUMPI JUMPDEST PUSH1 0x0 DUP1 REVERT JUMPDEST CALLVALUE DUP1 ISZERO PUSH2 0x10D JUMPI PUSH1 0x0 DUP1 REVERT JUMPDEST POP PUSH2 0x14B PUSH1 0x4 DUP1 CALLDATASIZE SUB DUP2 ADD SWAP1 DUP1 DUP1 CALLDATALOAD PUSH28 0xFFFFFFFFFFFFFFFFFFFFFFFFFFFFFFFFFFFFFFFFFFFFFFFFFFFFFFFF NOT AND SWAP1 PUSH1 0x20 ADD SWAP1 SWAP3 SWAP2 SWAP1 POP POP POP PUSH2 0x87B JUMP JUMPDEST PUSH1 0x40 MLOAD DUP1 DUP3 ISZERO ISZERO ISZERO ISZERO DUP2 MSTORE PUSH1 0x20 ADD SWAP2 POP POP PUSH1 0x40 MLOAD DUP1 SWAP2 SUB SWAP1 RETURN JUMPDEST CALLVALUE DUP1 ISZERO PUSH2 0x171 JUMPI PUSH1 0x0 DUP1 REVERT JUMPDEST POP PUSH2 0x17A PUSH2 0x8E2 JUMP JUMPDEST PUSH1 0x40 MLOAD DUP1 DUP1 PUSH1 0x20 ADD DUP3 DUP2 SUB DUP3 MSTORE DUP4 DUP2 DUP2 MLOAD DUP2 MSTORE PUSH1 0x20 ADD SWAP2 POP DUP1 MLOAD SWAP1 PUSH1 0x20 ADD SWAP1 DUP1 DUP4 DUP4 PUSH1 0x0 JUMPDEST DUP4 DUP2 LT ISZERO PUSH2 0x1BA JUMPI DUP1 DUP3 ADD MLOAD DUP2 DUP5 ADD MSTORE PUSH1 0x20 DUP2 ADD SWAP1 POP PUSH2 0x19F JUMP JUMPDEST POP POP POP POP SWAP1 POP SWAP1 DUP2 ADD SWAP1 PUSH1 0x1F AND DUP1 ISZERO PUSH2 0x1E7 JUMPI DUP1 DUP3 SUB DUP1 MLOAD PUSH1 0x1 DUP4 PUSH1 0x20 SUB PUSH2 0x100 EXP SUB NOT AND DUP2 MSTORE PUSH1 0x20 ADD SWAP2 POP JUMPDEST POP SWAP3 POP POP POP PUSH1 0x40 MLOAD DUP1 SWAP2 SUB SWAP1 RETURN JUMPDEST CALLVALUE DUP1 ISZERO PUSH2 0x201 JUMPI PUSH1 0x0 DUP1 REVERT JUMPDEST POP PUSH2 0x220 PUSH1 0x4 DUP1 CALLDATASIZE SUB DUP2 ADD SWAP1 DUP1 DUP1 CALLDATALOAD SWAP1 PUSH1 0x20 ADD SWAP1 SWAP3 SWAP2 SWAP1 POP POP POP PUSH2 0x984 JUMP JUMPDEST PUSH1 0x40 MLOAD DUP1 DUP3 PUSH20 0xFFFFFFFFFFFFFFFFFFFFFFFFFFFFFFFFFFFFFFFF AND PUSH20 0xFFFFFFFFFFFFFFFFFFFFFFFFFFFFFFFFFFFFFFFF AND DUP2 MSTORE PUSH1 0x20 ADD SWAP2 POP POP PUSH1 0x40 MLOAD DUP1 SWAP2 SUB SWAP1 RETURN JUMPDEST CALLVALUE DUP1 ISZERO PUSH2 0x26E JUMPI PUSH1 0x0 DUP1 REVERT JUMPDEST POP PUSH2 0x2AD PUSH1 0x4 DUP1 CALLDATASIZE SUB DUP2 ADD SWAP1 DUP1 DUP1 CALLDATALOAD PUSH20 0xFFFFFFFFFFFFFFFFFFFFFFFFFFFFFFFFFFFFFFFF AND SWAP1 PUSH1 0x20 ADD SWAP1 SWAP3 SWAP2 SWAP1 DUP1 CALLDATALOAD SWAP1 PUSH1 0x20 ADD SWAP1 SWAP3 SWAP2 SWAP1 POP POP POP PUSH2 0x9C1 JUMP JUMPDEST STOP JUMPDEST CALLVALUE DUP1 ISZERO PUSH2 0x2BB JUMPI PUSH1 0x0 DUP1 REVERT JUMPDEST POP PUSH2 0x2C4 PUSH2 0xB7D JUMP JUMPDEST PUSH1 0x40 MLOAD DUP1 DUP3 DUP2 MSTORE PUSH1 0x20 ADD SWAP2 POP POP PUSH1 0x40 MLOAD DUP1 SWAP2 SUB SWAP1 RETURN JUMPDEST CALLVALUE DUP1 ISZERO PUSH2 0x2E6 JUMPI PUSH1 0x0 DUP1 REVERT JUMPDEST POP PUSH2 0x2EF PUSH2 0xB8A JUMP JUMPDEST PUSH1 0x40 MLOAD DUP1 DUP3 PUSH28 0xFFFFFFFFFFFFFFFFFFFFFFFFFFFFFFFFFFFFFFFFFFFFFFFFFFFFFFFF NOT AND PUSH28 0xFFFFFFFFFFFFFFFFFFFFFFFFFFFFFFFFFFFFFFFFFFFFFFFFFFFFFFFF NOT AND DUP2 MSTORE PUSH1 0x20 ADD SWAP2 POP POP PUSH1 0x40 MLOAD DUP1 SWAP2 SUB SWAP1 RETURN JUMPDEST CALLVALUE DUP1 ISZERO PUSH2 0x34F JUMPI PUSH1 0x0 DUP1 REVERT JUMPDEST POP PUSH2 0x3AE PUSH1 0x4 DUP1 CALLDATASIZE SUB DUP2 ADD SWAP1 DUP1 DUP1 CALLDATALOAD PUSH20 0xFFFFFFFFFFFFFFFFFFFFFFFFFFFFFFFFFFFFFFFF AND SWAP1 PUSH1 0x20 ADD SWAP1 SWAP3 SWAP2 SWAP1 DUP1 CALLDATALOAD PUSH20 0xFFFFFFFFFFFFFFFFFFFFFFFFFFFFFFFFFFFFFFFF AND SWAP1 PUSH1 0x20 ADD SWAP1 SWAP3 SWAP2 SWAP1 DUP1 CALLDATALOAD SWAP1 PUSH1 0x20 ADD SWAP1 SWAP3 SWAP2 SWAP1 POP POP POP PUSH2 0xBB1 JUMP JUMPDEST STOP JUMPDEST CALLVALUE DUP1 ISZERO PUSH2 0x3BC JUMPI PUSH1 0x0 DUP1 REVERT JUMPDEST POP PUSH2 0x3FB PUSH1 0x4 DUP1 CALLDATASIZE SUB DUP2 ADD SWAP1 DUP1 DUP1 CALLDATALOAD PUSH20 0xFFFFFFFFFFFFFFFFFFFFFFFFFFFFFFFFFFFFFFFF AND SWAP1 PUSH1 0x20 ADD SWAP1 SWAP3 SWAP2 SWAP1 DUP1 CALLDATALOAD SWAP1 PUSH1 0x20 ADD SWAP1 SWAP3 SWAP2 SWAP1 POP POP POP PUSH2 0xCBE JUMP JUMPDEST PUSH1 0x40 MLOAD DUP1 DUP3 DUP2 MSTORE PUSH1 0x20 ADD SWAP2 POP POP PUSH1 0x40 MLOAD DUP1 SWAP2 SUB SWAP1 RETURN JUMPDEST CALLVALUE DUP1 ISZERO PUSH2 0x41D JUMPI PUSH1 0x0 DUP1 REVERT JUMPDEST POP PUSH2 0x47C PUSH1 0x4 DUP1 CALLDATASIZE SUB DUP2 ADD SWAP1 DUP1 DUP1 CALLDATALOAD PUSH20 0xFFFFFFFFFFFFFFFFFFFFFFFFFFFFFFFFFFFFFFFF AND SWAP1 PUSH1 0x20 ADD SWAP1 SWAP3 SWAP2 SWAP1 DUP1 CALLDATALOAD PUSH20 0xFFFFFFFFFFFFFFFFFFFFFFFFFFFFFFFFFFFFFFFF AND SWAP1 PUSH1 0x20 ADD SWAP1 SWAP3 SWAP2 SWAP1 DUP1 CALLDATALOAD SWAP1 PUSH1 0x20 ADD SWAP1 SWAP3 SWAP2 SWAP1 POP POP POP PUSH2 0xD35 JUMP JUMPDEST STOP JUMPDEST CALLVALUE DUP1 ISZERO PUSH2 0x48A JUMPI PUSH1 0x0 DUP1 REVERT JUMPDEST POP PUSH2 0x4A9 PUSH1 0x4 DUP1 CALLDATASIZE SUB DUP2 ADD SWAP1 DUP1 DUP1 CALLDATALOAD SWAP1 PUSH1 0x20 ADD SWAP1 SWAP3 SWAP2 SWAP1 POP POP POP PUSH2 0xD6D JUMP JUMPDEST PUSH1 0x40 MLOAD DUP1 DUP3 ISZERO ISZERO ISZERO ISZERO DUP2 MSTORE PUSH1 0x20 ADD SWAP2 POP POP PUSH1 0x40 MLOAD DUP1 SWAP2 SUB SWAP1 RETURN JUMPDEST CALLVALUE DUP1 ISZERO PUSH2 0x4CF JUMPI PUSH1 0x0 DUP1 REVERT JUMPDEST POP PUSH2 0x4EE PUSH1 0x4 DUP1 CALLDATASIZE SUB DUP2 ADD SWAP1 DUP1 DUP1 CALLDATALOAD SWAP1 PUSH1 0x20 ADD SWAP1 SWAP3 SWAP2 SWAP1 POP POP POP PUSH2 0xDDF JUMP JUMPDEST PUSH1 0x40 MLOAD DUP1 DUP3 DUP2 MSTORE PUSH1 0x20 ADD SWAP2 POP POP PUSH1 0x40 MLOAD DUP1 SWAP2 SUB SWAP1 RETURN JUMPDEST CALLVALUE DUP1 ISZERO PUSH2 0x510 JUMPI PUSH1 0x0 DUP1 REVERT JUMPDEST POP PUSH2 0x52F PUSH1 0x4 DUP1 CALLDATASIZE SUB DUP2 ADD SWAP1 DUP1 DUP1 CALLDATALOAD SWAP1 PUSH1 0x20 ADD SWAP1 SWAP3 SWAP2 SWAP1 POP POP POP PUSH2 0xE17 JUMP JUMPDEST PUSH1 0x40 MLOAD DUP1 DUP3 PUSH20 0xFFFFFFFFFFFFFFFFFFFFFFFFFFFFFFFFFFFFFFFF AND PUSH20 0xFFFFFFFFFFFFFFFFFFFFFFFFFFFFFFFFFFFFFFFF AND DUP2 MSTORE PUSH1 0x20 ADD SWAP2 POP POP PUSH1 0x40 MLOAD DUP1 SWAP2 SUB SWAP1 RETURN JUMPDEST CALLVALUE DUP1 ISZERO PUSH2 0x57D JUMPI PUSH1 0x0 DUP1 REVERT JUMPDEST POP PUSH2 0x5B2 PUSH1 0x4 DUP1 CALLDATASIZE SUB DUP2 ADD SWAP1 DUP1 DUP1 CALLDATALOAD PUSH20 0xFFFFFFFFFFFFFFFFFFFFFFFFFFFFFFFFFFFFFFFF AND SWAP1 PUSH1 0x20 ADD SWAP1 SWAP3 SWAP2 SWAP1 POP POP POP PUSH2 0xE95 JUMP JUMPDEST PUSH1 0x40 MLOAD DUP1 DUP3 DUP2 MSTORE PUSH1 0x20 ADD SWAP2 POP POP PUSH1 0x40 MLOAD DUP1 SWAP2 SUB SWAP1 RETURN JUMPDEST CALLVALUE DUP1 ISZERO PUSH2 0x5D4 JUMPI PUSH1 0x0 DUP1 REVERT JUMPDEST POP PUSH2 0x5DD PUSH2 0xF19 JUMP JUMPDEST PUSH1 0x40 MLOAD DUP1 DUP1 PUSH1 0x20 ADD DUP3 DUP2 SUB DUP3 MSTORE DUP4 DUP2 DUP2 MLOAD DUP2 MSTORE PUSH1 0x20 ADD SWAP2 POP DUP1 MLOAD SWAP1 PUSH1 0x20 ADD SWAP1 DUP1 DUP4 DUP4 PUSH1 0x0 JUMPDEST DUP4 DUP2 LT ISZERO PUSH2 0x61D JUMPI DUP1 DUP3 ADD MLOAD DUP2 DUP5 ADD MSTORE PUSH1 0x20 DUP2 ADD SWAP1 POP PUSH2 0x602 JUMP JUMPDEST POP POP POP POP SWAP1 POP SWAP1 DUP2 ADD SWAP1 PUSH1 0x1F AND DUP1 ISZERO PUSH2 0x64A JUMPI DUP1 DUP3 SUB DUP1 MLOAD PUSH1 0x1 DUP4 PUSH1 0x20 SUB PUSH2 0x100 EXP SUB NOT AND DUP2 MSTORE PUSH1 0x20 ADD SWAP2 POP JUMPDEST POP SWAP3 POP POP POP PUSH1 0x40 MLOAD DUP1 SWAP2 SUB SWAP1 RETURN JUMPDEST CALLVALUE DUP1 ISZERO PUSH2 0x664 JUMPI PUSH1 0x0 DUP1 REVERT JUMPDEST POP PUSH2 0x6A5 PUSH1 0x4 DUP1 CALLDATASIZE SUB DUP2 ADD SWAP1 DUP1 DUP1 CALLDATALOAD PUSH20 0xFFFFFFFFFFFFFFFFFFFFFFFFFFFFFFFFFFFFFFFF AND SWAP1 PUSH1 0x20 ADD SWAP1 SWAP3 SWAP2 SWAP1 DUP1 CALLDATALOAD ISZERO ISZERO SWAP1 PUSH1 0x20 ADD SWAP1 SWAP3 SWAP2 SWAP1 POP POP POP PUSH2 0xFBB JUMP JUMPDEST STOP JUMPDEST CALLVALUE DUP1 ISZERO PUSH2 0x6B3 JUMPI PUSH1 0x0 DUP1 REVERT JUMPDEST POP PUSH2 0x758 PUSH1 0x4 DUP1 CALLDATASIZE SUB DUP2 ADD SWAP1 DUP1 DUP1 CALLDATALOAD PUSH20 0xFFFFFFFFFFFFFFFFFFFFFFFFFFFFFFFFFFFFFFFF AND SWAP1 PUSH1 0x20 ADD SWAP1 SWAP3 SWAP2 SWAP1 DUP1 CALLDATALOAD PUSH20 0xFFFFFFFFFFFFFFFFFFFFFFFFFFFFFFFFFFFFFFFF AND SWAP1 PUSH1 0x20 ADD SWAP1 SWAP3 SWAP2 SWAP1 DUP1 CALLDATALOAD SWAP1 PUSH1 0x20 ADD SWAP1 SWAP3 SWAP2 SWAP1 DUP1 CALLDATALOAD SWAP1 PUSH1 0x20 ADD SWAP1 DUP3 ADD DUP1 CALLDATALOAD SWAP1 PUSH1 0x20 ADD SWAP1 DUP1 DUP1 PUSH1 0x1F ADD PUSH1 0x20 DUP1 SWAP2 DIV MUL PUSH1 0x20 ADD PUSH1 0x40 MLOAD SWAP1 DUP2 ADD PUSH1 0x40 MSTORE DUP1 SWAP4 SWAP3 SWAP2 SWAP1 DUP2 DUP2 MSTORE PUSH1 0x20 ADD DUP4 DUP4 DUP1 DUP3 DUP5 CALLDATACOPY DUP3 ADD SWAP2 POP POP POP POP POP POP SWAP2 SWAP3 SWAP2 SWAP3 SWAP1 POP POP POP PUSH2 0x10F7 JUMP JUMPDEST STOP JUMPDEST CALLVALUE DUP1 ISZERO PUSH2 0x766 JUMPI PUSH1 0x0 DUP1 REVERT JUMPDEST POP PUSH2 0x785 PUSH1 0x4 DUP1 CALLDATASIZE SUB DUP2 ADD SWAP1 DUP1 DUP1 CALLDATALOAD SWAP1 PUSH1 0x20 ADD SWAP1 SWAP3 SWAP2 SWAP1 POP POP POP PUSH2 0x1136 JUMP JUMPDEST PUSH1 0x40 MLOAD DUP1 DUP1 PUSH1 0x20 ADD DUP3 DUP2 SUB DUP3 MSTORE DUP4 DUP2 DUP2 MLOAD DUP2 MSTORE PUSH1 0x20 ADD SWAP2 POP DUP1 MLOAD SWAP1 PUSH1 0x20 ADD SWAP1 DUP1 DUP4 DUP4 PUSH1 0x0 JUMPDEST DUP4 DUP2 LT ISZERO PUSH2 0x7C5 JUMPI DUP1 DUP3 ADD MLOAD DUP2 DUP5 ADD MSTORE PUSH1 0x20 DUP2 ADD SWAP1 POP PUSH2 0x7AA JUMP JUMPDEST POP POP POP POP SWAP1 POP SWAP1 DUP2 ADD SWAP1 PUSH1 0x1F AND DUP1 ISZERO PUSH2 0x7F2 JUMPI DUP1 DUP3 SUB DUP1 MLOAD PUSH1 0x1 DUP4 PUSH1 0x20 SUB PUSH2 0x100 EXP SUB NOT AND DUP2 MSTORE PUSH1 0x20 ADD SWAP2 POP JUMPDEST POP SWAP3 POP POP POP PUSH1 0x40 MLOAD DUP1 SWAP2 SUB SWAP1 RETURN JUMPDEST CALLVALUE DUP1 ISZERO PUSH2 0x80C JUMPI PUSH1 0x0 DUP1 REVERT JUMPDEST POP PUSH2 0x861 PUSH1 0x4 DUP1 CALLDATASIZE SUB DUP2 ADD SWAP1 DUP1 DUP1 CALLDATALOAD PUSH20 0xFFFFFFFFFFFFFFFFFFFFFFFFFFFFFFFFFFFFFFFF AND SWAP1 PUSH1 0x20 ADD SWAP1 SWAP3 SWAP2 SWAP1 DUP1 CALLDATALOAD PUSH20 0xFFFFFFFFFFFFFFFFFFFFFFFFFFFFFFFFFFFFFFFF AND SWAP1 PUSH1 0x20 ADD SWAP1 SWAP3 SWAP2 SWAP1 POP POP POP PUSH2 0x11FF JUMP JUMPDEST PUSH1 0x40 MLOAD DUP1 DUP3 ISZERO ISZERO ISZERO ISZERO DUP2 MSTORE PUSH1 0x20 ADD SWAP2 POP POP PUSH1 0x40 MLOAD DUP1 SWAP2 SUB SWAP1 RETURN JUMPDEST PUSH1 0x0 DUP1 PUSH1 0x0 DUP4 PUSH28 0xFFFFFFFFFFFFFFFFFFFFFFFFFFFFFFFFFFFFFFFFFFFFFFFFFFFFFFFF NOT AND PUSH28 0xFFFFFFFFFFFFFFFFFFFFFFFFFFFFFFFFFFFFFFFFFFFFFFFFFFFFFFFF NOT AND DUP2 MSTORE PUSH1 0x20 ADD SWAP1 DUP2 MSTORE PUSH1 0x20 ADD PUSH1 0x0 KECCAK256 PUSH1 0x0 SWAP1 SLOAD SWAP1 PUSH2 0x100 EXP SWAP1 DIV PUSH1 0xFF AND SWAP1 POP SWAP2 SWAP1 POP JUMP JUMPDEST PUSH1 0x60 PUSH1 0x5 DUP1 SLOAD PUSH1 0x1 DUP2 PUSH1 0x1 AND ISZERO PUSH2 0x100 MUL SUB AND PUSH1 0x2 SWAP1 DIV DUP1 PUSH1 0x1F ADD PUSH1 0x20 DUP1 SWAP2 DIV MUL PUSH1 0x20 ADD PUSH1 0x40 MLOAD SWAP1 DUP2 ADD PUSH1 0x40 MSTORE DUP1 SWAP3 SWAP2 SWAP1 DUP2 DUP2 MSTORE PUSH1 0x20 ADD DUP3 DUP1 SLOAD PUSH1 0x1 DUP2 PUSH1 0x1 AND ISZERO PUSH2 0x100 MUL SUB AND PUSH1 0x2 SWAP1 DIV DUP1 ISZERO PUSH2 0x97A JUMPI DUP1 PUSH1 0x1F LT PUSH2 0x94F JUMPI PUSH2 0x100 DUP1 DUP4 SLOAD DIV MUL DUP4 MSTORE SWAP2 PUSH1 0x20 ADD SWAP2 PUSH2 0x97A JUMP JUMPDEST DUP3 ADD SWAP2 SWAP1 PUSH1 0x0 MSTORE PUSH1 0x20 PUSH1 0x0 KECCAK256 SWAP1 JUMPDEST DUP2 SLOAD DUP2 MSTORE SWAP1 PUSH1 0x1 ADD SWAP1 PUSH1 0x20 ADD DUP1 DUP4 GT PUSH2 0x95D JUMPI DUP3 SWAP1 SUB PUSH1 0x1F AND DUP3 ADD SWAP2 JUMPDEST POP POP POP POP POP SWAP1 POP SWAP1 JUMP JUMPDEST PUSH1 0x0 PUSH1 0x2 PUSH1 0x0 DUP4 DUP2 MSTORE PUSH1 0x20 ADD SWAP1 DUP2 MSTORE PUSH1 0x20 ADD PUSH1 0x0 KECCAK256 PUSH1 0x0 SWAP1 SLOAD SWAP1 PUSH2 0x100 EXP SWAP1 DIV PUSH20 0xFFFFFFFFFFFFFFFFFFFFFFFFFFFFFFFFFFFFFFFF AND SWAP1 POP SWAP2 SWAP1 POP JUMP JUMPDEST PUSH1 0x0 PUSH2 0x9CC DUP3 PUSH2 0xE17 JUMP JUMPDEST SWAP1 POP DUP1 PUSH20 0xFFFFFFFFFFFFFFFFFFFFFFFFFFFFFFFFFFFFFFFF AND DUP4 PUSH20 0xFFFFFFFFFFFFFFFFFFFFFFFFFFFFFFFFFFFFFFFF AND EQ ISZERO ISZERO ISZERO PUSH2 0xA09 JUMPI PUSH1 0x0 DUP1 REVERT JUMPDEST DUP1 PUSH20 0xFFFFFFFFFFFFFFFFFFFFFFFFFFFFFFFFFFFFFFFF AND CALLER PUSH20 0xFFFFFFFFFFFFFFFFFFFFFFFFFFFFFFFFFFFFFFFF AND EQ DUP1 PUSH2 0xA49 JUMPI POP PUSH2 0xA48 DUP2 CALLER PUSH2 0x11FF JUMP JUMPDEST JUMPDEST ISZERO ISZERO PUSH2 0xA54 JUMPI PUSH1 0x0 DUP1 REVERT JUMPDEST PUSH1 0x0 PUSH20 0xFFFFFFFFFFFFFFFFFFFFFFFFFFFFFFFFFFFFFFFF AND PUSH2 0xA75 DUP4 PUSH2 0x984 JUMP JUMPDEST PUSH20 0xFFFFFFFFFFFFFFFFFFFFFFFFFFFFFFFFFFFFFFFF AND EQ ISZERO DUP1 PUSH2 0xAC5 JUMPI POP PUSH1 0x0 PUSH20 0xFFFFFFFFFFFFFFFFFFFFFFFFFFFFFFFFFFFFFFFF AND DUP4 PUSH20 0xFFFFFFFFFFFFFFFFFFFFFFFFFFFFFFFFFFFFFFFF AND EQ ISZERO JUMPDEST ISZERO PUSH2 0xB78 JUMPI DUP3 PUSH1 0x2 PUSH1 0x0 DUP5 DUP2 MSTORE PUSH1 0x20 ADD SWAP1 DUP2 MSTORE PUSH1 0x20 ADD PUSH1 0x0 KECCAK256 PUSH1 0x0 PUSH2 0x100 EXP DUP2 SLOAD DUP2 PUSH20 0xFFFFFFFFFFFFFFFFFFFFFFFFFFFFFFFFFFFFFFFF MUL NOT AND SWAP1 DUP4 PUSH20 0xFFFFFFFFFFFFFFFFFFFFFFFFFFFFFFFFFFFFFFFF AND MUL OR SWAP1 SSTORE POP DUP2 DUP4 PUSH20 0xFFFFFFFFFFFFFFFFFFFFFFFFFFFFFFFFFFFFFFFF AND DUP3 PUSH20 0xFFFFFFFFFFFFFFFFFFFFFFFFFFFFFFFFFFFFFFFF AND PUSH32 0x8C5BE1E5EBEC7D5BD14F71427D1E84F3DD0314C0F7B2291E5B200AC8C7C3B925 PUSH1 0x40 MLOAD PUSH1 0x40 MLOAD DUP1 SWAP2 SUB SWAP1 LOG4 JUMPDEST POP POP POP JUMP JUMPDEST PUSH1 0x0 PUSH1 0x9 DUP1 SLOAD SWAP1 POP SWAP1 POP SWAP1 JUMP JUMPDEST PUSH4 0x1FFC9A7 PUSH29 0x100000000000000000000000000000000000000000000000000000000 MUL DUP2 JUMP JUMPDEST DUP1 PUSH2 0xBBC CALLER DUP3 PUSH2 0x1293 JUMP JUMPDEST ISZERO ISZERO PUSH2 0xBC7 JUMPI PUSH1 0x0 DUP1 REVERT JUMPDEST PUSH1 0x0 PUSH20 0xFFFFFFFFFFFFFFFFFFFFFFFFFFFFFFFFFFFFFFFF AND DUP5 PUSH20 0xFFFFFFFFFFFFFFFFFFFFFFFFFFFFFFFFFFFFFFFF AND EQ ISZERO ISZERO ISZERO PUSH2 0xC03 JUMPI PUSH1 0x0 DUP1 REVERT JUMPDEST PUSH1 0x0 PUSH20 0xFFFFFFFFFFFFFFFFFFFFFFFFFFFFFFFFFFFFFFFF AND DUP4 PUSH20 0xFFFFFFFFFFFFFFFFFFFFFFFFFFFFFFFFFFFFFFFF AND EQ ISZERO ISZERO ISZERO PUSH2 0xC3F JUMPI PUSH1 0x0 DUP1 REVERT JUMPDEST PUSH2 0xC49 DUP5 DUP4 PUSH2 0x1328 JUMP JUMPDEST PUSH2 0xC53 DUP5 DUP4 PUSH2 0x1487 JUMP JUMPDEST PUSH2 0xC5D DUP4 DUP4 PUSH2 0x169F JUMP JUMPDEST DUP2 DUP4 PUSH20 0xFFFFFFFFFFFFFFFFFFFFFFFFFFFFFFFFFFFFFFFF AND DUP6 PUSH20 0xFFFFFFFFFFFFFFFFFFFFFFFFFFFFFFFFFFFFFFFF AND PUSH32 0xDDF252AD1BE2C89B69C2B068FC378DAA952BA7F163C4A11628F55A4DF523B3EF PUSH1 0x40 MLOAD PUSH1 0x40 MLOAD DUP1 SWAP2 SUB SWAP1 LOG4 POP POP POP POP JUMP JUMPDEST PUSH1 0x0 PUSH2 0xCC9 DUP4 PUSH2 0xE95 JUMP JUMPDEST DUP3 LT ISZERO ISZERO PUSH2 0xCD6 JUMPI PUSH1 0x0 DUP1 REVERT JUMPDEST PUSH1 0x7 PUSH1 0x0 DUP5 PUSH20 0xFFFFFFFFFFFFFFFFFFFFFFFFFFFFFFFFFFFFFFFF AND PUSH20 0xFFFFFFFFFFFFFFFFFFFFFFFFFFFFFFFFFFFFFFFF AND DUP2 MSTORE PUSH1 0x20 ADD SWAP1 DUP2 MSTORE PUSH1 0x20 ADD PUSH1 0x0 KECCAK256 DUP3 DUP2 SLOAD DUP2 LT ISZERO ISZERO PUSH2 0xD22 JUMPI INVALID JUMPDEST SWAP1 PUSH1 0x0 MSTORE PUSH1 0x20 PUSH1 0x0 KECCAK256 ADD SLOAD SWAP1 POP SWAP3 SWAP2 POP POP JUMP JUMPDEST DUP1 PUSH2 0xD40 CALLER DUP3 PUSH2 0x1293 JUMP JUMPDEST ISZERO ISZERO PUSH2 0xD4B JUMPI PUSH1 0x0 DUP1 REVERT JUMPDEST PUSH2 0xD67 DUP5 DUP5 DUP5 PUSH1 0x20 PUSH1 0x40 MLOAD SWAP1 DUP2 ADD PUSH1 0x40 MSTORE DUP1 PUSH1 0x0 DUP2 MSTORE POP PUSH2 0x10F7 JUMP JUMPDEST POP POP POP POP JUMP JUMPDEST PUSH1 0x0 DUP1 PUSH1 0x1 PUSH1 0x0 DUP5 DUP2 MSTORE PUSH1 0x20 ADD SWAP1 DUP2 MSTORE PUSH1 0x20 ADD PUSH1 0x0 KECCAK256 PUSH1 0x0 SWAP1 SLOAD SWAP1 PUSH2 0x100 EXP SWAP1 DIV PUSH20 0xFFFFFFFFFFFFFFFFFFFFFFFFFFFFFFFFFFFFFFFF AND SWAP1 POP PUSH1 0x0 PUSH20 0xFFFFFFFFFFFFFFFFFFFFFFFFFFFFFFFFFFFFFFFF AND DUP2 PUSH20 0xFFFFFFFFFFFFFFFFFFFFFFFFFFFFFFFFFFFFFFFF AND EQ ISZERO SWAP2 POP POP SWAP2 SWAP1 POP JUMP JUMPDEST PUSH1 0x0 PUSH2 0xDE9 PUSH2 0xB7D JUMP JUMPDEST DUP3 LT ISZERO ISZERO PUSH2 0xDF6 JUMPI PUSH1 0x0 DUP1 REVERT JUMPDEST PUSH1 0x9 DUP3 DUP2 SLOAD DUP2 LT ISZERO ISZERO PUSH2 0xE05 JUMPI INVALID JUMPDEST SWAP1 PUSH1 0x0 MSTORE PUSH1 0x20 PUSH1 0x0 KECCAK256 ADD SLOAD SWAP1 POP SWAP2 SWAP1 POP JUMP JUMPDEST PUSH1 0x0 DUP1 PUSH1 0x1 PUSH1 0x0 DUP5 DUP2 MSTORE PUSH1 0x20 ADD SWAP1 DUP2 MSTORE PUSH1 0x20 ADD PUSH1 0x0 KECCAK256 PUSH1 0x0 SWAP1 SLOAD SWAP1 PUSH2 0x100 EXP SWAP1 DIV PUSH20 0xFFFFFFFFFFFFFFFFFFFFFFFFFFFFFFFFFFFFFFFF AND SWAP1 POP PUSH1 0x0 PUSH20 0xFFFFFFFFFFFFFFFFFFFFFFFFFFFFFFFFFFFFFFFF AND DUP2 PUSH20 0xFFFFFFFFFFFFFFFFFFFFFFFFFFFFFFFFFFFFFFFF AND EQ ISZERO ISZERO ISZERO PUSH2 0xE8C JUMPI PUSH1 0x0 DUP1 REVERT JUMPDEST DUP1 SWAP2 POP POP SWAP2 SWAP1 POP JUMP JUMPDEST PUSH1 0x0 DUP1 PUSH20 0xFFFFFFFFFFFFFFFFFFFFFFFFFFFFFFFFFFFFFFFF AND DUP3 PUSH20 0xFFFFFFFFFFFFFFFFFFFFFFFFFFFFFFFFFFFFFFFF AND EQ ISZERO ISZERO ISZERO PUSH2 0xED2 JUMPI PUSH1 0x0 DUP1 REVERT JUMPDEST PUSH1 0x3 PUSH1 0x0 DUP4 PUSH20 0xFFFFFFFFFFFFFFFFFFFFFFFFFFFFFFFFFFFFFFFF AND PUSH20 0xFFFFFFFFFFFFFFFFFFFFFFFFFFFFFFFFFFFFFFFF AND DUP2 MSTORE PUSH1 0x20 ADD SWAP1 DUP2 MSTORE PUSH1 0x20 ADD PUSH1 0x0 KECCAK256 SLOAD SWAP1 POP SWAP2 SWAP1 POP JUMP JUMPDEST PUSH1 0x60 PUSH1 0x6 DUP1 SLOAD PUSH1 0x1 DUP2 PUSH1 0x1 AND ISZERO PUSH2 0x100 MUL SUB AND PUSH1 0x2 SWAP1 DIV DUP1 PUSH1 0x1F ADD PUSH1 0x20 DUP1 SWAP2 DIV MUL PUSH1 0x20 ADD PUSH1 0x40 MLOAD SWAP1 DUP2 ADD PUSH1 0x40 MSTORE DUP1 SWAP3 SWAP2 SWAP1 DUP2 DUP2 MSTORE PUSH1 0x20 ADD DUP3 DUP1 SLOAD PUSH1 0x1 DUP2 PUSH1 0x1 AND ISZERO PUSH2 0x100 MUL SUB AND PUSH1 0x2 SWAP1 DIV DUP1 ISZERO PUSH2 0xFB1 JUMPI DUP1 PUSH1 0x1F LT PUSH2 0xF86 JUMPI PUSH2 0x100 DUP1 DUP4 SLOAD DIV MUL DUP4 MSTORE SWAP2 PUSH1 0x20 ADD SWAP2 PUSH2 0xFB1 JUMP JUMPDEST DUP3 ADD SWAP2 SWAP1 PUSH1 0x0 MSTORE PUSH1 0x20 PUSH1 0x0 KECCAK256 SWAP1 JUMPDEST DUP2 SLOAD DUP2 MSTORE SWAP1 PUSH1 0x1 ADD SWAP1 PUSH1 0x20 ADD DUP1 DUP4 GT PUSH2 0xF94 JUMPI DUP3 SWAP1 SUB PUSH1 0x1F AND DUP3 ADD SWAP2 JUMPDEST POP POP POP POP POP SWAP1 POP SWAP1 JUMP JUMPDEST CALLER PUSH20 0xFFFFFFFFFFFFFFFFFFFFFFFFFFFFFFFFFFFFFFFF AND DUP3 PUSH20 0xFFFFFFFFFFFFFFFFFFFFFFFFFFFFFFFFFFFFFFFF AND EQ ISZERO ISZERO ISZERO PUSH2 0xFF6 JUMPI PUSH1 0x0 DUP1 REVERT JUMPDEST DUP1 PUSH1 0x4 PUSH1 0x0 CALLER PUSH20 0xFFFFFFFFFFFFFFFFFFFFFFFFFFFFFFFFFFFFFFFF AND PUSH20 0xFFFFFFFFFFFFFFFFFFFFFFFFFFFFFFFFFFFFFFFF AND DUP2 MSTORE PUSH1 0x20 ADD SWAP1 DUP2 MSTORE PUSH1 0x20 ADD PUSH1 0x0 KECCAK256 PUSH1 0x0 DUP5 PUSH20 0xFFFFFFFFFFFFFFFFFFFFFFFFFFFFFFFFFFFFFFFF AND PUSH20 0xFFFFFFFFFFFFFFFFFFFFFFFFFFFFFFFFFFFFFFFF AND DUP2 MSTORE PUSH1 0x20 ADD SWAP1 DUP2 MSTORE PUSH1 0x20 ADD PUSH1 0x0 KECCAK256 PUSH1 0x0 PUSH2 0x100 EXP DUP2 SLOAD DUP2 PUSH1 0xFF MUL NOT AND SWAP1 DUP4 ISZERO ISZERO MUL OR SWAP1 SSTORE POP DUP2 PUSH20 0xFFFFFFFFFFFFFFFFFFFFFFFFFFFFFFFFFFFFFFFF AND CALLER PUSH20 0xFFFFFFFFFFFFFFFFFFFFFFFFFFFFFFFFFFFFFFFF AND PUSH32 0x17307EAB39AB6107E8899845AD3D59BD9653F200F220920489CA2B5937696C31 DUP4 PUSH1 0x40 MLOAD DUP1 DUP3 ISZERO ISZERO ISZERO ISZERO DUP2 MSTORE PUSH1 0x20 ADD SWAP2 POP POP PUSH1 0x40 MLOAD DUP1 SWAP2 SUB SWAP1 LOG3 POP POP JUMP JUMPDEST DUP2 PUSH2 0x1102 CALLER DUP3 PUSH2 0x1293 JUMP JUMPDEST ISZERO ISZERO PUSH2 0x110D JUMPI PUSH1 0x0 DUP1 REVERT JUMPDEST PUSH2 0x1118 DUP6 DUP6 DUP6 PUSH2 0xBB1 JUMP JUMPDEST PUSH2 0x1124 DUP6 DUP6 DUP6 DUP6 PUSH2 0x1776 JUMP JUMPDEST ISZERO ISZERO PUSH2 0x112F JUMPI PUSH1 0x0 DUP1 REVERT JUMPDEST POP POP POP POP POP JUMP JUMPDEST PUSH1 0x60 PUSH2 0x1141 DUP3 PUSH2 0xD6D JUMP JUMPDEST ISZERO ISZERO PUSH2 0x114C JUMPI PUSH1 0x0 DUP1 REVERT JUMPDEST PUSH1 0xB PUSH1 0x0 DUP4 DUP2 MSTORE PUSH1 0x20 ADD SWAP1 DUP2 MSTORE PUSH1 0x20 ADD PUSH1 0x0 KECCAK256 DUP1 SLOAD PUSH1 0x1 DUP2 PUSH1 0x1 AND ISZERO PUSH2 0x100 MUL SUB AND PUSH1 0x2 SWAP1 DIV DUP1 PUSH1 0x1F ADD PUSH1 0x20 DUP1 SWAP2 DIV MUL PUSH1 0x20 ADD PUSH1 0x40 MLOAD SWAP1 DUP2 ADD PUSH1 0x40 MSTORE DUP1 SWAP3 SWAP2 SWAP1 DUP2 DUP2 MSTORE PUSH1 0x20 ADD DUP3 DUP1 SLOAD PUSH1 0x1 DUP2 PUSH1 0x1 AND ISZERO PUSH2 0x100 MUL SUB AND PUSH1 0x2 SWAP1 DIV DUP1 ISZERO PUSH2 0x11F3 JUMPI DUP1 PUSH1 0x1F LT PUSH2 0x11C8 JUMPI PUSH2 0x100 DUP1 DUP4 SLOAD DIV MUL DUP4 MSTORE SWAP2 PUSH1 0x20 ADD SWAP2 PUSH2 0x11F3 JUMP JUMPDEST DUP3 ADD SWAP2 SWAP1 PUSH1 0x0 MSTORE PUSH1 0x20 PUSH1 0x0 KECCAK256 SWAP1 JUMPDEST DUP2 SLOAD DUP2 MSTORE SWAP1 PUSH1 0x1 ADD SWAP1 PUSH1 0x20 ADD DUP1 DUP4 GT PUSH2 0x11D6 JUMPI DUP3 SWAP1 SUB PUSH1 0x1F AND DUP3 ADD SWAP2 JUMPDEST POP POP POP POP POP SWAP1 POP SWAP2 SWAP1 POP JUMP JUMPDEST PUSH1 0x0 PUSH1 0x4 PUSH1 0x0 DUP5 PUSH20 0xFFFFFFFFFFFFFFFFFFFFFFFFFFFFFFFFFFFFFFFF AND PUSH20 0xFFFFFFFFFFFFFFFFFFFFFFFFFFFFFFFFFFFFFFFF AND DUP2 MSTORE PUSH1 0x20 ADD SWAP1 DUP2 MSTORE PUSH1 0x20 ADD PUSH1 0x0 KECCAK256 PUSH1 0x0 DUP4 PUSH20 0xFFFFFFFFFFFFFFFFFFFFFFFFFFFFFFFFFFFFFFFF AND PUSH20 0xFFFFFFFFFFFFFFFFFFFFFFFFFFFFFFFFFFFFFFFF AND DUP2 MSTORE PUSH1 0x20 ADD SWAP1 DUP2 MSTORE PUSH1 0x20 ADD PUSH1 0x0 KECCAK256 PUSH1 0x0 SWAP1 SLOAD SWAP1 PUSH2 0x100 EXP SWAP1 DIV PUSH1 0xFF AND SWAP1 POP SWAP3 SWAP2 POP POP JUMP JUMPDEST PUSH1 0x0 DUP1 PUSH2 0x129F DUP4 PUSH2 0xE17 JUMP JUMPDEST SWAP1 POP DUP1 PUSH20 0xFFFFFFFFFFFFFFFFFFFFFFFFFFFFFFFFFFFFFFFF AND DUP5 PUSH20 0xFFFFFFFFFFFFFFFFFFFFFFFFFFFFFFFFFFFFFFFF AND EQ DUP1 PUSH2 0x130E JUMPI POP DUP4 PUSH20 0xFFFFFFFFFFFFFFFFFFFFFFFFFFFFFFFFFFFFFFFF AND PUSH2 0x12F6 DUP5 PUSH2 0x984 JUMP JUMPDEST PUSH20 0xFFFFFFFFFFFFFFFFFFFFFFFFFFFFFFFFFFFFFFFF AND EQ JUMPDEST DUP1 PUSH2 0x131F JUMPI POP PUSH2 0x131E DUP2 DUP6 PUSH2 0x11FF JUMP JUMPDEST JUMPDEST SWAP2 POP POP SWAP3 SWAP2 POP POP JUMP JUMPDEST DUP2 PUSH20 0xFFFFFFFFFFFFFFFFFFFFFFFFFFFFFFFFFFFFFFFF AND PUSH2 0x1348 DUP3 PUSH2 0xE17 JUMP JUMPDEST PUSH20 0xFFFFFFFFFFFFFFFFFFFFFFFFFFFFFFFFFFFFFFFF AND EQ ISZERO ISZERO PUSH2 0x136A JUMPI PUSH1 0x0 DUP1 REVERT JUMPDEST PUSH1 0x0 PUSH20 0xFFFFFFFFFFFFFFFFFFFFFFFFFFFFFFFFFFFFFFFF AND PUSH1 0x2 PUSH1 0x0 DUP4 DUP2 MSTORE PUSH1 0x20 ADD SWAP1 DUP2 MSTORE PUSH1 0x20 ADD PUSH1 0x0 KECCAK256 PUSH1 0x0 SWAP1 SLOAD SWAP1 PUSH2 0x100 EXP SWAP1 DIV PUSH20 0xFFFFFFFFFFFFFFFFFFFFFFFFFFFFFFFFFFFFFFFF AND PUSH20 0xFFFFFFFFFFFFFFFFFFFFFFFFFFFFFFFFFFFFFFFF AND EQ ISZERO ISZERO PUSH2 0x1483 JUMPI PUSH1 0x0 PUSH1 0x2 PUSH1 0x0 DUP4 DUP2 MSTORE PUSH1 0x20 ADD SWAP1 DUP2 MSTORE PUSH1 0x20 ADD PUSH1 0x0 KECCAK256 PUSH1 0x0 PUSH2 0x100 EXP DUP2 SLOAD DUP2 PUSH20 0xFFFFFFFFFFFFFFFFFFFFFFFFFFFFFFFFFFFFFFFF MUL NOT AND SWAP1 DUP4 PUSH20 0xFFFFFFFFFFFFFFFFFFFFFFFFFFFFFFFFFFFFFFFF AND MUL OR SWAP1 SSTORE POP DUP1 PUSH1 0x0 PUSH20 0xFFFFFFFFFFFFFFFFFFFFFFFFFFFFFFFFFFFFFFFF AND DUP4 PUSH20 0xFFFFFFFFFFFFFFFFFFFFFFFFFFFFFFFFFFFFFFFF AND PUSH32 0x8C5BE1E5EBEC7D5BD14F71427D1E84F3DD0314C0F7B2291E5B200AC8C7C3B925 PUSH1 0x40 MLOAD PUSH1 0x40 MLOAD DUP1 SWAP2 SUB SWAP1 LOG4 JUMPDEST POP POP JUMP JUMPDEST PUSH1 0x0 DUP1 PUSH1 0x0 PUSH2 0x1496 DUP6 DUP6 PUSH2 0x1964 JUMP JUMPDEST PUSH1 0x8 PUSH1 0x0 DUP6 DUP2 MSTORE PUSH1 0x20 ADD SWAP1 DUP2 MSTORE PUSH1 0x20 ADD PUSH1 0x0 KECCAK256 SLOAD SWAP3 POP PUSH2 0x1502 PUSH1 0x1 PUSH1 0x7 PUSH1 0x0 DUP9 PUSH20 0xFFFFFFFFFFFFFFFFFFFFFFFFFFFFFFFFFFFFFFFF AND PUSH20 0xFFFFFFFFFFFFFFFFFFFFFFFFFFFFFFFFFFFFFFFF AND DUP2 MSTORE PUSH1 0x20 ADD SWAP1 DUP2 MSTORE PUSH1 0x20 ADD PUSH1 0x0 KECCAK256 DUP1 SLOAD SWAP1 POP PUSH2 0x1A93 SWAP1 SWAP2 SWAP1 PUSH4 0xFFFFFFFF AND JUMP JUMPDEST SWAP2 POP PUSH1 0x7 PUSH1 0x0 DUP7 PUSH20 0xFFFFFFFFFFFFFFFFFFFFFFFFFFFFFFFFFFFFFFFF AND PUSH20 0xFFFFFFFFFFFFFFFFFFFFFFFFFFFFFFFFFFFFFFFF AND DUP2 MSTORE PUSH1 0x20 ADD SWAP1 DUP2 MSTORE PUSH1 0x20 ADD PUSH1 0x0 KECCAK256 DUP3 DUP2 SLOAD DUP2 LT ISZERO ISZERO PUSH2 0x1550 JUMPI INVALID JUMPDEST SWAP1 PUSH1 0x0 MSTORE PUSH1 0x20 PUSH1 0x0 KECCAK256 ADD SLOAD SWAP1 POP DUP1 PUSH1 0x7 PUSH1 0x0 DUP8 PUSH20 0xFFFFFFFFFFFFFFFFFFFFFFFFFFFFFFFFFFFFFFFF AND PUSH20 0xFFFFFFFFFFFFFFFFFFFFFFFFFFFFFFFFFFFFFFFF AND DUP2 MSTORE PUSH1 0x20 ADD SWAP1 DUP2 MSTORE PUSH1 0x20 ADD PUSH1 0x0 KECCAK256 DUP5 DUP2 SLOAD DUP2 LT ISZERO ISZERO PUSH2 0x15AA JUMPI INVALID JUMPDEST SWAP1 PUSH1 0x0 MSTORE PUSH1 0x20 PUSH1 0x0 KECCAK256 ADD DUP2 SWAP1 SSTORE POP PUSH1 0x0 PUSH1 0x7 PUSH1 0x0 DUP8 PUSH20 0xFFFFFFFFFFFFFFFFFFFFFFFFFFFFFFFFFFFFFFFF AND PUSH20 0xFFFFFFFFFFFFFFFFFFFFFFFFFFFFFFFFFFFFFFFF AND DUP2 MSTORE PUSH1 0x20 ADD SWAP1 DUP2 MSTORE PUSH1 0x20 ADD PUSH1 0x0 KECCAK256 DUP4 DUP2 SLOAD DUP2 LT ISZERO ISZERO PUSH2 0x1606 JUMPI INVALID JUMPDEST SWAP1 PUSH1 0x0 MSTORE PUSH1 0x20 PUSH1 0x0 KECCAK256 ADD DUP2 SWAP1 SSTORE POP PUSH1 0x7 PUSH1 0x0 DUP7 PUSH20 0xFFFFFFFFFFFFFFFFFFFFFFFFFFFFFFFFFFFFFFFF AND PUSH20 0xFFFFFFFFFFFFFFFFFFFFFFFFFFFFFFFFFFFFFFFF AND DUP2 MSTORE PUSH1 0x20 ADD SWAP1 DUP2 MSTORE PUSH1 0x20 ADD PUSH1 0x0 KECCAK256 DUP1 SLOAD DUP1 SWAP2 SWAP1 PUSH1 0x1 SWAP1 SUB PUSH2 0x1666 SWAP2 SWAP1 PUSH2 0x1C37 JUMP JUMPDEST POP PUSH1 0x0 PUSH1 0x8 PUSH1 0x0 DUP7 DUP2 MSTORE PUSH1 0x20 ADD SWAP1 DUP2 MSTORE PUSH1 0x20 ADD PUSH1 0x0 KECCAK256 DUP2 SWAP1 SSTORE POP DUP3 PUSH1 0x8 PUSH1 0x0 DUP4 DUP2 MSTORE PUSH1 0x20 ADD SWAP1 DUP2 MSTORE PUSH1 0x20 ADD PUSH1 0x0 KECCAK256 DUP2 SWAP1 SSTORE POP POP POP POP POP POP JUMP JUMPDEST PUSH1 0x0 PUSH2 0x16AB DUP4 DUP4 PUSH2 0x1AAC JUMP JUMPDEST PUSH1 0x7 PUSH1 0x0 DUP5 PUSH20 0xFFFFFFFFFFFFFFFFFFFFFFFFFFFFFFFFFFFFFFFF AND PUSH20 0xFFFFFFFFFFFFFFFFFFFFFFFFFFFFFFFFFFFFFFFF AND DUP2 MSTORE PUSH1 0x20 ADD SWAP1 DUP2 MSTORE PUSH1 0x20 ADD PUSH1 0x0 KECCAK256 DUP1 SLOAD SWAP1 POP SWAP1 POP PUSH1 0x7 PUSH1 0x0 DUP5 PUSH20 0xFFFFFFFFFFFFFFFFFFFFFFFFFFFFFFFFFFFFFFFF AND PUSH20 0xFFFFFFFFFFFFFFFFFFFFFFFFFFFFFFFFFFFFFFFF AND DUP2 MSTORE PUSH1 0x20 ADD SWAP1 DUP2 MSTORE PUSH1 0x20 ADD PUSH1 0x0 KECCAK256 DUP3 SWAP1 DUP1 PUSH1 0x1 DUP2 SLOAD ADD DUP1 DUP3 SSTORE DUP1 SWAP2 POP POP SWAP1 PUSH1 0x1 DUP3 SUB SWAP1 PUSH1 0x0 MSTORE PUSH1 0x20 PUSH1 0x0 KECCAK256 ADD PUSH1 0x0 SWAP1 SWAP2 SWAP3 SWAP1 SWAP2 SWAP1 SWAP2 POP SSTORE POP DUP1 PUSH1 0x8 PUSH1 0x0 DUP5 DUP2 MSTORE PUSH1 0x20 ADD SWAP1 DUP2 MSTORE PUSH1 0x20 ADD PUSH1 0x0 KECCAK256 DUP2 SWAP1 SSTORE POP POP POP POP JUMP JUMPDEST PUSH1 0x0 DUP1 PUSH2 0x1798 DUP6 PUSH20 0xFFFFFFFFFFFFFFFFFFFFFFFFFFFFFFFFFFFFFFFF AND PUSH2 0x1C06 JUMP JUMPDEST ISZERO ISZERO PUSH2 0x17A7 JUMPI PUSH1 0x1 SWAP2 POP PUSH2 0x195B JUMP JUMPDEST DUP5 PUSH20 0xFFFFFFFFFFFFFFFFFFFFFFFFFFFFFFFFFFFFFFFF AND PUSH4 0xF0B9E5BA DUP8 DUP7 DUP7 PUSH1 0x40 MLOAD DUP5 PUSH4 0xFFFFFFFF AND PUSH29 0x100000000000000000000000000000000000000000000000000000000 MUL DUP2 MSTORE PUSH1 0x4 ADD DUP1 DUP5 PUSH20 0xFFFFFFFFFFFFFFFFFFFFFFFFFFFFFFFFFFFFFFFF AND PUSH20 0xFFFFFFFFFFFFFFFFFFFFFFFFFFFFFFFFFFFFFFFF AND DUP2 MSTORE PUSH1 0x20 ADD DUP4 DUP2 MSTORE PUSH1 0x20 ADD DUP1 PUSH1 0x20 ADD DUP3 DUP2 SUB DUP3 MSTORE DUP4 DUP2 DUP2 MLOAD DUP2 MSTORE PUSH1 0x20 ADD SWAP2 POP DUP1 MLOAD SWAP1 PUSH1 0x20 ADD SWAP1 DUP1 DUP4 DUP4 PUSH1 0x0 JUMPDEST DUP4 DUP2 LT ISZERO PUSH2 0x1869 JUMPI DUP1 DUP3 ADD MLOAD DUP2 DUP5 ADD MSTORE PUSH1 0x20 DUP2 ADD SWAP1 POP PUSH2 0x184E JUMP JUMPDEST POP POP POP POP SWAP1 POP SWAP1 DUP2 ADD SWAP1 PUSH1 0x1F AND DUP1 ISZERO PUSH2 0x1896 JUMPI DUP1 DUP3 SUB DUP1 MLOAD PUSH1 0x1 DUP4 PUSH1 0x20 SUB PUSH2 0x100 EXP SUB NOT AND DUP2 MSTORE PUSH1 0x20 ADD SWAP2 POP JUMPDEST POP SWAP5 POP POP POP POP POP PUSH1 0x20 PUSH1 0x40 MLOAD DUP1 DUP4 SUB DUP2 PUSH1 0x0 DUP8 DUP1 EXTCODESIZE ISZERO DUP1 ISZERO PUSH2 0x18B7 JUMPI PUSH1 0x0 DUP1 REVERT JUMPDEST POP GAS CALL ISZERO DUP1 ISZERO PUSH2 0x18CB JUMPI RETURNDATASIZE PUSH1 0x0 DUP1 RETURNDATACOPY RETURNDATASIZE PUSH1 0x0 REVERT JUMPDEST POP POP POP POP PUSH1 0x40 MLOAD RETURNDATASIZE PUSH1 0x20 DUP2 LT ISZERO PUSH2 0x18E1 JUMPI PUSH1 0x0 DUP1 REVERT JUMPDEST DUP2 ADD SWAP1 DUP1 DUP1 MLOAD SWAP1 PUSH1 0x20 ADD SWAP1 SWAP3 SWAP2 SWAP1 POP POP POP SWAP1 POP PUSH4 0xF0B9E5BA PUSH29 0x100000000000000000000000000000000000000000000000000000000 MUL PUSH28 0xFFFFFFFFFFFFFFFFFFFFFFFFFFFFFFFFFFFFFFFFFFFFFFFFFFFFFFFF NOT AND DUP2 PUSH28 0xFFFFFFFFFFFFFFFFFFFFFFFFFFFFFFFFFFFFFFFFFFFFFFFFFFFFFFFF NOT AND EQ SWAP2 POP JUMPDEST POP SWAP5 SWAP4 POP POP POP POP JUMP JUMPDEST DUP2 PUSH20 0xFFFFFFFFFFFFFFFFFFFFFFFFFFFFFFFFFFFFFFFF AND PUSH2 0x1984 DUP3 PUSH2 0xE17 JUMP JUMPDEST PUSH20 0xFFFFFFFFFFFFFFFFFFFFFFFFFFFFFFFFFFFFFFFF AND EQ ISZERO ISZERO PUSH2 0x19A6 JUMPI PUSH1 0x0 DUP1 REVERT JUMPDEST PUSH2 0x19F9 PUSH1 0x1 PUSH1 0x3 PUSH1 0x0 DUP6 PUSH20 0xFFFFFFFFFFFFFFFFFFFFFFFFFFFFFFFFFFFFFFFF AND PUSH20 0xFFFFFFFFFFFFFFFFFFFFFFFFFFFFFFFFFFFFFFFF AND DUP2 MSTORE PUSH1 0x20 ADD SWAP1 DUP2 MSTORE PUSH1 0x20 ADD PUSH1 0x0 KECCAK256 SLOAD PUSH2 0x1A93 SWAP1 SWAP2 SWAP1 PUSH4 0xFFFFFFFF AND JUMP JUMPDEST PUSH1 0x3 PUSH1 0x0 DUP5 PUSH20 0xFFFFFFFFFFFFFFFFFFFFFFFFFFFFFFFFFFFFFFFF AND PUSH20 0xFFFFFFFFFFFFFFFFFFFFFFFFFFFFFFFFFFFFFFFF AND DUP2 MSTORE PUSH1 0x20 ADD SWAP1 DUP2 MSTORE PUSH1 0x20 ADD PUSH1 0x0 KECCAK256 DUP2 SWAP1 SSTORE POP PUSH1 0x0 PUSH1 0x1 PUSH1 0x0 DUP4 DUP2 MSTORE PUSH1 0x20 ADD SWAP1 DUP2 MSTORE PUSH1 0x20 ADD PUSH1 0x0 KECCAK256 PUSH1 0x0 PUSH2 0x100 EXP DUP2 SLOAD DUP2 PUSH20 0xFFFFFFFFFFFFFFFFFFFFFFFFFFFFFFFFFFFFFFFF MUL NOT AND SWAP1 DUP4 PUSH20 0xFFFFFFFFFFFFFFFFFFFFFFFFFFFFFFFFFFFFFFFF AND MUL OR SWAP1 SSTORE POP POP POP JUMP JUMPDEST PUSH1 0x0 DUP3 DUP3 GT ISZERO ISZERO ISZERO PUSH2 0x1AA1 JUMPI INVALID JUMPDEST DUP2 DUP4 SUB SWAP1 POP SWAP3 SWAP2 POP POP JUMP JUMPDEST PUSH1 0x0 PUSH20 0xFFFFFFFFFFFFFFFFFFFFFFFFFFFFFFFFFFFFFFFF AND PUSH1 0x1 PUSH1 0x0 DUP4 DUP2 MSTORE PUSH1 0x20 ADD SWAP1 DUP2 MSTORE PUSH1 0x20 ADD PUSH1 0x0 KECCAK256 PUSH1 0x0 SWAP1 SLOAD SWAP1 PUSH2 0x100 EXP SWAP1 DIV PUSH20 0xFFFFFFFFFFFFFFFFFFFFFFFFFFFFFFFFFFFFFFFF AND PUSH20 0xFFFFFFFFFFFFFFFFFFFFFFFFFFFFFFFFFFFFFFFF AND EQ ISZERO ISZERO PUSH2 0x1B1A JUMPI PUSH1 0x0 DUP1 REVERT JUMPDEST DUP2 PUSH1 0x1 PUSH1 0x0 DUP4 DUP2 MSTORE PUSH1 0x20 ADD SWAP1 DUP2 MSTORE PUSH1 0x20 ADD PUSH1 0x0 KECCAK256 PUSH1 0x0 PUSH2 0x100 EXP DUP2 SLOAD DUP2 PUSH20 0xFFFFFFFFFFFFFFFFFFFFFFFFFFFFFFFFFFFFFFFF MUL NOT AND SWAP1 DUP4 PUSH20 0xFFFFFFFFFFFFFFFFFFFFFFFFFFFFFFFFFFFFFFFF AND MUL OR SWAP1 SSTORE POP PUSH2 0x1BBF PUSH1 0x1 PUSH1 0x3 PUSH1 0x0 DUP6 PUSH20 0xFFFFFFFFFFFFFFFFFFFFFFFFFFFFFFFFFFFFFFFF AND PUSH20 0xFFFFFFFFFFFFFFFFFFFFFFFFFFFFFFFFFFFFFFFF AND DUP2 MSTORE PUSH1 0x20 ADD SWAP1 DUP2 MSTORE PUSH1 0x20 ADD PUSH1 0x0 KECCAK256 SLOAD PUSH2 0x1C19 SWAP1 SWAP2 SWAP1 PUSH4 0xFFFFFFFF AND JUMP JUMPDEST PUSH1 0x3 PUSH1 0x0 DUP5 PUSH20 0xFFFFFFFFFFFFFFFFFFFFFFFFFFFFFFFFFFFFFFFF AND PUSH20 0xFFFFFFFFFFFFFFFFFFFFFFFFFFFFFFFFFFFFFFFF AND DUP2 MSTORE PUSH1 0x20 ADD SWAP1 DUP2 MSTORE PUSH1 0x20 ADD PUSH1 0x0 KECCAK256 DUP2 SWAP1 SSTORE POP POP POP JUMP JUMPDEST PUSH1 0x0 DUP1 DUP3 EXTCODESIZE SWAP1 POP PUSH1 0x0 DUP2 GT SWAP2 POP POP SWAP2 SWAP1 POP JUMP JUMPDEST PUSH1 0x0 DUP1 DUP3 DUP5 ADD SWAP1 POP DUP4 DUP2 LT ISZERO ISZERO ISZERO PUSH2 0x1C2D JUMPI INVALID JUMPDEST DUP1 SWAP2 POP POP SWAP3 SWAP2 POP POP JUMP JUMPDEST DUP2 SLOAD DUP2 DUP4 SSTORE DUP2 DUP2 GT ISZERO PUSH2 0x1C5E JUMPI DUP2 DUP4 PUSH1 0x0 MSTORE PUSH1 0x20 PUSH1 0x0 KECCAK256 SWAP2 DUP3 ADD SWAP2 ADD PUSH2 0x1C5D SWAP2 SWAP1 PUSH2 0x1C63 JUMP JUMPDEST JUMPDEST POP POP POP JUMP JUMPDEST PUSH2 0x1C85 SWAP2 SWAP1 JUMPDEST DUP1 DUP3 GT ISZERO PUSH2 0x1C81 JUMPI PUSH1 0x0 DUP2 PUSH1 0x0 SWAP1 SSTORE POP PUSH1 0x1 ADD PUSH2 0x1C69 JUMP JUMPDEST POP SWAP1 JUMP JUMPDEST SWAP1 JUMP STOP LOG1 PUSH6 0x627A7A723058 KECCAK256 SWAP1 SWAP10 PUSH10 0x416537EF6961F8A27D19 0x27 PUSH1 0x7A PUSH11 0xB3507F2887128685F78278 0xa9 0xc8 ADDMOD SWAP2 STOP 0x29 "
				},
				"gasEstimates": {
					"creation": {
						"codeDepositCost": "1469600",
						"executionCost": "infinite",
						"totalCost": "infinite"
					},
					"external": {
						"InterfaceId_ERC165()": "330",
						"approve(address,uint256)": "23997",
						"balanceOf(address)": "867",
						"exists(uint256)": "821",
						"getApproved(uint256)": "633",
						"isApprovedForAll(address,address)": "1106",
						"name()": "infinite",
						"ownerOf(uint256)": "888",
						"safeTransferFrom(address,address,uint256)": "infinite",
						"safeTransferFrom(address,address,uint256,bytes)": "infinite",
						"setApprovalForAll(address,bool)": "22875",
						"supportsInterface(bytes4)": "616",
						"symbol()": "infinite",
						"tokenByIndex(uint256)": "1241",
						"tokenOfOwnerByIndex(address,uint256)": "1434",
						"tokenURI(uint256)": "infinite",
						"totalSupply()": "498",
						"transferFrom(address,address,uint256)": "infinite"
					},
					"internal": {
						"_burn(address,uint256)": "infinite",
						"_mint(address,uint256)": "infinite",
						"_setTokenURI(uint256,string memory)": "infinite",
						"addTokenTo(address,uint256)": "infinite",
						"removeTokenFrom(address,uint256)": "infinite"
					}
				},
				"methodIdentifiers": {
					"InterfaceId_ERC165()": "19fa8f50",
					"approve(address,uint256)": "095ea7b3",
					"balanceOf(address)": "70a08231",
					"exists(uint256)": "4f558e79",
					"getApproved(uint256)": "081812fc",
					"isApprovedForAll(address,address)": "e985e9c5",
					"name()": "06fdde03",
					"ownerOf(uint256)": "6352211e",
					"safeTransferFrom(address,address,uint256)": "42842e0e",
					"safeTransferFrom(address,address,uint256,bytes)": "b88d4fde",
					"setApprovalForAll(address,bool)": "a22cb465",
					"supportsInterface(bytes4)": "01ffc9a7",
					"symbol()": "95d89b41",
					"tokenByIndex(uint256)": "4f6ccce7",
					"tokenOfOwnerByIndex(address,uint256)": "2f745c59",
					"tokenURI(uint256)": "c87b56dd",
					"totalSupply()": "18160ddd",
					"transferFrom(address,address,uint256)": "23b872dd"
				}
			},
			"userdoc": {
				"methods": {}
			}
		}
	}
}