{
	"contracts/Tocken721.sol": {
		"SupportsInterfaceWithLookup": {
			"abi": [
				{
					"constant": true,
					"inputs": [
						{
							"name": "_interfaceId",
							"type": "bytes4"
						}
					],
					"name": "supportsInterface",
					"outputs": [
						{
							"name": "",
							"type": "bool"
						}
					],
					"payable": false,
					"stateMutability": "view",
					"type": "function"
				},
				{
					"constant": true,
					"inputs": [],
					"name": "InterfaceId_ERC165",
					"outputs": [
						{
							"name": "",
							"type": "bytes4"
						}
					],
					"payable": false,
					"stateMutability": "view",
					"type": "function"
				},
				{
					"inputs": [],
					"payable": false,
					"stateMutability": "nonpayable",
					"type": "constructor"
				}
			],
			"devdoc": {
				"author": "Matt Condon (@shrugs)\r",
				"methods": {
					"supportsInterface(bytes4)": {
						"details": "implement supportsInterface(bytes4) using a lookup table\r30,000 gas 이하로 동작해야 함. 현재 이 함수의 gas estimated 는 616.\r"
					}
				},
				"title": "SupportsInterfaceWithLookup\r"
			},
			"evm": {
				"assembly": "    /* \"contracts/Tocken721.sol\":1133:2390  contract SupportsInterfaceWithLookup is ERC165 {\r... */\n  mstore(0x40, 0x80)\n    /* \"contracts/Tocken721.sol\":1622:1710  constructor()\r... */\n  callvalue\n    /* \"--CODEGEN--\":8:17   */\n  dup1\n    /* \"--CODEGEN--\":5:7   */\n  iszero\n  tag_1\n  jumpi\n    /* \"--CODEGEN--\":30:31   */\n  0x0\n    /* \"--CODEGEN--\":27:28   */\n  dup1\n    /* \"--CODEGEN--\":20:32   */\n  revert\n    /* \"--CODEGEN--\":5:7   */\ntag_1:\n    /* \"contracts/Tocken721.sol\":1622:1710  constructor()\r... */\n  pop\n    /* \"contracts/Tocken721.sol\":1664:1702  _registerInterface(InterfaceId_ERC165) */\n  tag_4\n    /* \"contracts/Tocken721.sol\":1233:1243  0x01ffc9a7 */\n  0x1ffc9a7\n    /* \"contracts/Tocken721.sol\":1683:1701  InterfaceId_ERC165 */\n  0x100000000000000000000000000000000000000000000000000000000\n  mul\n    /* \"contracts/Tocken721.sol\":1664:1682  _registerInterface */\n  mul(0x100000000, tag_5)\n    /* \"contracts/Tocken721.sol\":1664:1702  _registerInterface(InterfaceId_ERC165) */\n  0x100000000\n  swap1\n  div\n  jump\t// in\ntag_4:\n    /* \"contracts/Tocken721.sol\":1133:2390  contract SupportsInterfaceWithLookup is ERC165 {\r... */\n  jump(tag_6)\n    /* \"contracts/Tocken721.sol\":2141:2385  function _registerInterface(bytes4 _interfaceId)\r... */\ntag_5:\n    /* \"contracts/Tocken721.sol\":2244:2254  0xffffffff */\n  0xffffffff\n    /* \"contracts/Tocken721.sol\":2228:2254  _interfaceId != 0xffffffff */\n  0x100000000000000000000000000000000000000000000000000000000\n  mul\n    /* \"contracts/Tocken721.sol\":2228:2240  _interfaceId */\n  dup2\n    /* \"contracts/Tocken721.sol\":2228:2254  _interfaceId != 0xffffffff */\n  not(0xffffffffffffffffffffffffffffffffffffffffffffffffffffffff)\n  and\n  eq\n  iszero\n    /* \"contracts/Tocken721.sol\":2220:2255  require(_interfaceId != 0xffffffff) */\n  iszero\n  iszero\n  tag_8\n  jumpi\n  0x0\n  dup1\n  revert\ntag_8:\n    /* \"contracts/Tocken721.sol\":2373:2377  true */\n  0x1\n    /* \"contracts/Tocken721.sol\":2337:2356  supportedInterfaces */\n  0x0\n    /* \"contracts/Tocken721.sol\":2337:2370  supportedInterfaces[_interfaceId] */\n  dup1\n    /* \"contracts/Tocken721.sol\":2357:2369  _interfaceId */\n  dup4\n    /* \"contracts/Tocken721.sol\":2337:2370  supportedInterfaces[_interfaceId] */\n  not(0xffffffffffffffffffffffffffffffffffffffffffffffffffffffff)\n  and\n  not(0xffffffffffffffffffffffffffffffffffffffffffffffffffffffff)\n  and\n  dup2\n  mstore\n  0x20\n  add\n  swap1\n  dup2\n  mstore\n  0x20\n  add\n  0x0\n  keccak256\n  0x0\n    /* \"contracts/Tocken721.sol\":2337:2377  supportedInterfaces[_interfaceId] = true */\n  0x100\n  exp\n  dup2\n  sload\n  dup2\n  0xff\n  mul\n  not\n  and\n  swap1\n  dup4\n  iszero\n  iszero\n  mul\n  or\n  swap1\n  sstore\n  pop\n    /* \"contracts/Tocken721.sol\":2141:2385  function _registerInterface(bytes4 _interfaceId)\r... */\n  pop\n  jump\t// out\n    /* \"contracts/Tocken721.sol\":1133:2390  contract SupportsInterfaceWithLookup is ERC165 {\r... */\ntag_6:\n  dataSize(sub_0)\n  dup1\n  dataOffset(sub_0)\n  0x0\n  codecopy\n  0x0\n  return\nstop\n\nsub_0: assembly {\n        /* \"contracts/Tocken721.sol\":1133:2390  contract SupportsInterfaceWithLookup is ERC165 {\r... */\n      mstore(0x40, 0x80)\n      jumpi(tag_1, lt(calldatasize, 0x4))\n      calldataload(0x0)\n      0x100000000000000000000000000000000000000000000000000000000\n      swap1\n      div\n      0xffffffff\n      and\n      dup1\n      0x1ffc9a7\n      eq\n      tag_2\n      jumpi\n      dup1\n      0x19fa8f50\n      eq\n      tag_3\n      jumpi\n    tag_1:\n      0x0\n      dup1\n      revert\n        /* \"contracts/Tocken721.sol\":1902:2058  function supportsInterface(bytes4 _interfaceId)\r... */\n    tag_2:\n      callvalue\n        /* \"--CODEGEN--\":8:17   */\n      dup1\n        /* \"--CODEGEN--\":5:7   */\n      iszero\n      tag_4\n      jumpi\n        /* \"--CODEGEN--\":30:31   */\n      0x0\n        /* \"--CODEGEN--\":27:28   */\n      dup1\n        /* \"--CODEGEN--\":20:32   */\n      revert\n        /* \"--CODEGEN--\":5:7   */\n    tag_4:\n        /* \"contracts/Tocken721.sol\":1902:2058  function supportsInterface(bytes4 _interfaceId)\r... */\n      pop\n      tag_5\n      0x4\n      dup1\n      calldatasize\n      sub\n      dup2\n      add\n      swap1\n      dup1\n      dup1\n      calldataload\n      not(0xffffffffffffffffffffffffffffffffffffffffffffffffffffffff)\n      and\n      swap1\n      0x20\n      add\n      swap1\n      swap3\n      swap2\n      swap1\n      pop\n      pop\n      pop\n      jump(tag_6)\n    tag_5:\n      mload(0x40)\n      dup1\n      dup3\n      iszero\n      iszero\n      iszero\n      iszero\n      dup2\n      mstore\n      0x20\n      add\n      swap2\n      pop\n      pop\n      mload(0x40)\n      dup1\n      swap2\n      sub\n      swap1\n      return\n        /* \"contracts/Tocken721.sol\":1189:1243  bytes4 public constant InterfaceId_ERC165 = 0x01ffc9a7 */\n    tag_3:\n      callvalue\n        /* \"--CODEGEN--\":8:17   */\n      dup1\n        /* \"--CODEGEN--\":5:7   */\n      iszero\n      tag_7\n      jumpi\n        /* \"--CODEGEN--\":30:31   */\n      0x0\n        /* \"--CODEGEN--\":27:28   */\n      dup1\n        /* \"--CODEGEN--\":20:32   */\n      revert\n        /* \"--CODEGEN--\":5:7   */\n    tag_7:\n        /* \"contracts/Tocken721.sol\":1189:1243  bytes4 public constant InterfaceId_ERC165 = 0x01ffc9a7 */\n      pop\n      tag_8\n      jump(tag_9)\n    tag_8:\n      mload(0x40)\n      dup1\n      dup3\n      not(0xffffffffffffffffffffffffffffffffffffffffffffffffffffffff)\n      and\n      not(0xffffffffffffffffffffffffffffffffffffffffffffffffffffffff)\n      and\n      dup2\n      mstore\n      0x20\n      add\n      swap2\n      pop\n      pop\n      mload(0x40)\n      dup1\n      swap2\n      sub\n      swap1\n      return\n        /* \"contracts/Tocken721.sol\":1902:2058  function supportsInterface(bytes4 _interfaceId)\r... */\n    tag_6:\n        /* \"contracts/Tocken721.sol\":1988:1992  bool */\n      0x0\n        /* \"contracts/Tocken721.sol\":2017:2036  supportedInterfaces */\n      dup1\n        /* \"contracts/Tocken721.sol\":2017:2050  supportedInterfaces[_interfaceId] */\n      0x0\n        /* \"contracts/Tocken721.sol\":2037:2049  _interfaceId */\n      dup4\n        /* \"contracts/Tocken721.sol\":2017:2050  supportedInterfaces[_interfaceId] */\n      not(0xffffffffffffffffffffffffffffffffffffffffffffffffffffffff)\n      and\n      not(0xffffffffffffffffffffffffffffffffffffffffffffffffffffffff)\n      and\n      dup2\n      mstore\n      0x20\n      add\n      swap1\n      dup2\n      mstore\n      0x20\n      add\n      0x0\n      keccak256\n      0x0\n      swap1\n      sload\n      swap1\n      0x100\n      exp\n      swap1\n      div\n      0xff\n      and\n        /* \"contracts/Tocken721.sol\":2010:2050  return supportedInterfaces[_interfaceId] */\n      swap1\n      pop\n        /* \"contracts/Tocken721.sol\":1902:2058  function supportsInterface(bytes4 _interfaceId)\r... */\n      swap2\n      swap1\n      pop\n      jump\t// out\n        /* \"contracts/Tocken721.sol\":1189:1243  bytes4 public constant InterfaceId_ERC165 = 0x01ffc9a7 */\n    tag_9:\n        /* \"contracts/Tocken721.sol\":1233:1243  0x01ffc9a7 */\n      0x1ffc9a7\n        /* \"contracts/Tocken721.sol\":1189:1243  bytes4 public constant InterfaceId_ERC165 = 0x01ffc9a7 */\n      0x100000000000000000000000000000000000000000000000000000000\n      mul\n      dup2\n      jump\t// out\n\n    auxdata: 0xa165627a7a723058203d1dba07739daec4df215e801820c76f637ac078452a0c2b71682a0f71df7fb40029\n}\n",
				"bytecode": {
					"linkReferences": {},
					"object": "608060405234801561001057600080fd5b5061004c6301ffc9a77c010000000000000000000000000000000000000000000000000000000002610051640100000000026401000000009004565b61010e565b63ffffffff7c010000000000000000000000000000000000000000000000000000000002817bffffffffffffffffffffffffffffffffffffffffffffffffffffffff1916141515156100a257600080fd5b6001600080837bffffffffffffffffffffffffffffffffffffffffffffffffffffffff19167bffffffffffffffffffffffffffffffffffffffffffffffffffffffff1916815260200190815260200160002060006101000a81548160ff02191690831515021790555050565b6101d88061011d6000396000f30060806040526004361061004c576000357c0100000000000000000000000000000000000000000000000000000000900463ffffffff16806301ffc9a71461005157806319fa8f50146100b5575b600080fd5b34801561005d57600080fd5b5061009b60048036038101908080357bffffffffffffffffffffffffffffffffffffffffffffffffffffffff1916906020019092919050505061011e565b604051808215151515815260200191505060405180910390f35b3480156100c157600080fd5b506100ca610185565b60405180827bffffffffffffffffffffffffffffffffffffffffffffffffffffffff19167bffffffffffffffffffffffffffffffffffffffffffffffffffffffff1916815260200191505060405180910390f35b6000806000837bffffffffffffffffffffffffffffffffffffffffffffffffffffffff19167bffffffffffffffffffffffffffffffffffffffffffffffffffffffff1916815260200190815260200160002060009054906101000a900460ff169050919050565b6301ffc9a77c010000000000000000000000000000000000000000000000000000000002815600a165627a7a723058203d1dba07739daec4df215e801820c76f637ac078452a0c2b71682a0f71df7fb40029",
					"opcodes": "PUSH1 0x80 PUSH1 0x40 MSTORE CALLVALUE DUP1 ISZERO PUSH2 0x10 JUMPI PUSH1 0x0 DUP1 REVERT JUMPDEST POP PUSH2 0x4C PUSH4 0x1FFC9A7 PUSH29 0x100000000000000000000000000000000000000000000000000000000 MUL PUSH2 0x51 PUSH5 0x100000000 MUL PUSH5 0x100000000 SWAP1 DIV JUMP JUMPDEST PUSH2 0x10E JUMP JUMPDEST PUSH4 0xFFFFFFFF PUSH29 0x100000000000000000000000000000000000000000000000000000000 MUL DUP2 PUSH28 0xFFFFFFFFFFFFFFFFFFFFFFFFFFFFFFFFFFFFFFFFFFFFFFFFFFFFFFFF NOT AND EQ ISZERO ISZERO ISZERO PUSH2 0xA2 JUMPI PUSH1 0x0 DUP1 REVERT JUMPDEST PUSH1 0x1 PUSH1 0x0 DUP1 DUP4 PUSH28 0xFFFFFFFFFFFFFFFFFFFFFFFFFFFFFFFFFFFFFFFFFFFFFFFFFFFFFFFF NOT AND PUSH28 0xFFFFFFFFFFFFFFFFFFFFFFFFFFFFFFFFFFFFFFFFFFFFFFFFFFFFFFFF NOT AND DUP2 MSTORE PUSH1 0x20 ADD SWAP1 DUP2 MSTORE PUSH1 0x20 ADD PUSH1 0x0 KECCAK256 PUSH1 0x0 PUSH2 0x100 EXP DUP2 SLOAD DUP2 PUSH1 0xFF MUL NOT AND SWAP1 DUP4 ISZERO ISZERO MUL OR SWAP1 SSTORE POP POP JUMP JUMPDEST PUSH2 0x1D8 DUP1 PUSH2 0x11D PUSH1 0x0 CODECOPY PUSH1 0x0 RETURN STOP PUSH1 0x80 PUSH1 0x40 MSTORE PUSH1 0x4 CALLDATASIZE LT PUSH2 0x4C JUMPI PUSH1 0x0 CALLDATALOAD PUSH29 0x100000000000000000000000000000000000000000000000000000000 SWAP1 DIV PUSH4 0xFFFFFFFF AND DUP1 PUSH4 0x1FFC9A7 EQ PUSH2 0x51 JUMPI DUP1 PUSH4 0x19FA8F50 EQ PUSH2 0xB5 JUMPI JUMPDEST PUSH1 0x0 DUP1 REVERT JUMPDEST CALLVALUE DUP1 ISZERO PUSH2 0x5D JUMPI PUSH1 0x0 DUP1 REVERT JUMPDEST POP PUSH2 0x9B PUSH1 0x4 DUP1 CALLDATASIZE SUB DUP2 ADD SWAP1 DUP1 DUP1 CALLDATALOAD PUSH28 0xFFFFFFFFFFFFFFFFFFFFFFFFFFFFFFFFFFFFFFFFFFFFFFFFFFFFFFFF NOT AND SWAP1 PUSH1 0x20 ADD SWAP1 SWAP3 SWAP2 SWAP1 POP POP POP PUSH2 0x11E JUMP JUMPDEST PUSH1 0x40 MLOAD DUP1 DUP3 ISZERO ISZERO ISZERO ISZERO DUP2 MSTORE PUSH1 0x20 ADD SWAP2 POP POP PUSH1 0x40 MLOAD DUP1 SWAP2 SUB SWAP1 RETURN JUMPDEST CALLVALUE DUP1 ISZERO PUSH2 0xC1 JUMPI PUSH1 0x0 DUP1 REVERT JUMPDEST POP PUSH2 0xCA PUSH2 0x185 JUMP JUMPDEST PUSH1 0x40 MLOAD DUP1 DUP3 PUSH28 0xFFFFFFFFFFFFFFFFFFFFFFFFFFFFFFFFFFFFFFFFFFFFFFFFFFFFFFFF NOT AND PUSH28 0xFFFFFFFFFFFFFFFFFFFFFFFFFFFFFFFFFFFFFFFFFFFFFFFFFFFFFFFF NOT AND DUP2 MSTORE PUSH1 0x20 ADD SWAP2 POP POP PUSH1 0x40 MLOAD DUP1 SWAP2 SUB SWAP1 RETURN JUMPDEST PUSH1 0x0 DUP1 PUSH1 0x0 DUP4 PUSH28 0xFFFFFFFFFFFFFFFFFFFFFFFFFFFFFFFFFFFFFFFFFFFFFFFFFFFFFFFF NOT AND PUSH28 0xFFFFFFFFFFFFFFFFFFFFFFFFFFFFFFFFFFFFFFFFFFFFFFFFFFFFFFFF NOT AND DUP2 MSTORE PUSH1 0x20 ADD SWAP1 DUP2 MSTORE PUSH1 0x20 ADD PUSH1 0x0 KECCAK256 PUSH1 0x0 SWAP1 SLOAD SWAP1 PUSH2 0x100 EXP SWAP1 DIV PUSH1 0xFF AND SWAP1 POP SWAP2 SWAP1 POP JUMP JUMPDEST PUSH4 0x1FFC9A7 PUSH29 0x100000000000000000000000000000000000000000000000000000000 MUL DUP2 JUMP STOP LOG1 PUSH6 0x627A7A723058 KECCAK256 RETURNDATASIZE SAR 0xba SMOD PUSH20 0x9DAEC4DF215E801820C76F637AC078452A0C2B71 PUSH9 0x2A0F71DF7FB4002900 "
				},
				"gasEstimates": {
					"creation": {
						"codeDepositCost": "94400",
						"executionCost": "infinite",
						"totalCost": "infinite"
					},
					"external": {
						"InterfaceId_ERC165()": "242",
						"supportsInterface(bytes4)": "616"
					},
					"internal": {
						"_registerInterface(bytes4)": "infinite"
					}
				},
				"methodIdentifiers": {
					"InterfaceId_ERC165()": "19fa8f50",
					"supportsInterface(bytes4)": "01ffc9a7"
				}
			},
			"userdoc": {
				"methods": {}
			}
		}
	}
}