{
	"contracts/Tocken721.sol": {
		"Token721": {
			"abi": [
				{
					"constant": true,
					"inputs": [
						{
							"name": "_interfaceId",
							"type": "bytes4"
						}
					],
					"name": "supportsInterface",
					"outputs": [
						{
							"name": "",
							"type": "bool"
						}
					],
					"payable": false,
					"stateMutability": "view",
					"type": "function"
				},
				{
					"constant": true,
					"inputs": [],
					"name": "name",
					"outputs": [
						{
							"name": "",
							"type": "string"
						}
					],
					"payable": false,
					"stateMutability": "view",
					"type": "function"
				},
				{
					"constant": true,
					"inputs": [
						{
							"name": "_tokenId",
							"type": "uint256"
						}
					],
					"name": "getApproved",
					"outputs": [
						{
							"name": "",
							"type": "address"
						}
					],
					"payable": false,
					"stateMutability": "view",
					"type": "function"
				},
				{
					"constant": false,
					"inputs": [
						{
							"name": "_to",
							"type": "address"
						},
						{
							"name": "_tokenId",
							"type": "uint256"
						}
					],
					"name": "approve",
					"outputs": [],
					"payable": false,
					"stateMutability": "nonpayable",
					"type": "function"
				},
				{
					"constant": false,
					"inputs": [
						{
							"name": "tokenId",
							"type": "uint256"
						},
						{
							"name": "uri",
							"type": "string"
						}
					],
					"name": "setTokenURI",
					"outputs": [],
					"payable": false,
					"stateMutability": "nonpayable",
					"type": "function"
				},
				{
					"constant": true,
					"inputs": [],
					"name": "totalSupply",
					"outputs": [
						{
							"name": "",
							"type": "uint256"
						}
					],
					"payable": false,
					"stateMutability": "view",
					"type": "function"
				},
				{
					"constant": true,
					"inputs": [],
					"name": "InterfaceId_ERC165",
					"outputs": [
						{
							"name": "",
							"type": "bytes4"
						}
					],
					"payable": false,
					"stateMutability": "view",
					"type": "function"
				},
				{
					"constant": false,
					"inputs": [
						{
							"name": "_from",
							"type": "address"
						},
						{
							"name": "_to",
							"type": "address"
						},
						{
							"name": "_tokenId",
							"type": "uint256"
						}
					],
					"name": "transferFrom",
					"outputs": [],
					"payable": false,
					"stateMutability": "nonpayable",
					"type": "function"
				},
				{
					"constant": true,
					"inputs": [
						{
							"name": "_owner",
							"type": "address"
						},
						{
							"name": "_index",
							"type": "uint256"
						}
					],
					"name": "tokenOfOwnerByIndex",
					"outputs": [
						{
							"name": "",
							"type": "uint256"
						}
					],
					"payable": false,
					"stateMutability": "view",
					"type": "function"
				},
				{
					"constant": false,
					"inputs": [
						{
							"name": "_from",
							"type": "address"
						},
						{
							"name": "_to",
							"type": "address"
						},
						{
							"name": "_tokenId",
							"type": "uint256"
						}
					],
					"name": "safeTransferFrom",
					"outputs": [],
					"payable": false,
					"stateMutability": "nonpayable",
					"type": "function"
				},
				{
					"constant": false,
					"inputs": [
						{
							"name": "tokenId",
							"type": "uint256"
						}
					],
					"name": "burn",
					"outputs": [],
					"payable": false,
					"stateMutability": "nonpayable",
					"type": "function"
				},
				{
					"constant": true,
					"inputs": [
						{
							"name": "_tokenId",
							"type": "uint256"
						}
					],
					"name": "exists",
					"outputs": [
						{
							"name": "",
							"type": "bool"
						}
					],
					"payable": false,
					"stateMutability": "view",
					"type": "function"
				},
				{
					"constant": true,
					"inputs": [
						{
							"name": "_index",
							"type": "uint256"
						}
					],
					"name": "tokenByIndex",
					"outputs": [
						{
							"name": "",
							"type": "uint256"
						}
					],
					"payable": false,
					"stateMutability": "view",
					"type": "function"
				},
				{
					"constant": true,
					"inputs": [
						{
							"name": "_tokenId",
							"type": "uint256"
						}
					],
					"name": "ownerOf",
					"outputs": [
						{
							"name": "",
							"type": "address"
						}
					],
					"payable": false,
					"stateMutability": "view",
					"type": "function"
				},
				{
					"constant": true,
					"inputs": [
						{
							"name": "_owner",
							"type": "address"
						}
					],
					"name": "balanceOf",
					"outputs": [
						{
							"name": "",
							"type": "uint256"
						}
					],
					"payable": false,
					"stateMutability": "view",
					"type": "function"
				},
				{
					"constant": false,
					"inputs": [],
					"name": "renounceOwnership",
					"outputs": [],
					"payable": false,
					"stateMutability": "nonpayable",
					"type": "function"
				},
				{
					"constant": true,
					"inputs": [],
					"name": "owner",
					"outputs": [
						{
							"name": "",
							"type": "address"
						}
					],
					"payable": false,
					"stateMutability": "view",
					"type": "function"
				},
				{
					"constant": true,
					"inputs": [],
					"name": "symbol",
					"outputs": [
						{
							"name": "",
							"type": "string"
						}
					],
					"payable": false,
					"stateMutability": "view",
					"type": "function"
				},
				{
					"constant": false,
					"inputs": [
						{
							"name": "tokenId",
							"type": "uint256"
						}
					],
					"name": "mint",
					"outputs": [],
					"payable": false,
					"stateMutability": "nonpayable",
					"type": "function"
				},
				{
					"constant": false,
					"inputs": [
						{
							"name": "_to",
							"type": "address"
						},
						{
							"name": "_approved",
							"type": "bool"
						}
					],
					"name": "setApprovalForAll",
					"outputs": [],
					"payable": false,
					"stateMutability": "nonpayable",
					"type": "function"
				},
				{
					"constant": false,
					"inputs": [
						{
							"name": "_from",
							"type": "address"
						},
						{
							"name": "_to",
							"type": "address"
						},
						{
							"name": "_tokenId",
							"type": "uint256"
						},
						{
							"name": "_data",
							"type": "bytes"
						}
					],
					"name": "safeTransferFrom",
					"outputs": [],
					"payable": false,
					"stateMutability": "nonpayable",
					"type": "function"
				},
				{
					"constant": true,
					"inputs": [
						{
							"name": "_tokenId",
							"type": "uint256"
						}
					],
					"name": "tokenURI",
					"outputs": [
						{
							"name": "",
							"type": "string"
						}
					],
					"payable": false,
					"stateMutability": "view",
					"type": "function"
				},
				{
					"constant": true,
					"inputs": [
						{
							"name": "_owner",
							"type": "address"
						},
						{
							"name": "_operator",
							"type": "address"
						}
					],
					"name": "isApprovedForAll",
					"outputs": [
						{
							"name": "",
							"type": "bool"
						}
					],
					"payable": false,
					"stateMutability": "view",
					"type": "function"
				},
				{
					"constant": false,
					"inputs": [
						{
							"name": "newOwner",
							"type": "address"
						}
					],
					"name": "transferOwnership",
					"outputs": [],
					"payable": false,
					"stateMutability": "nonpayable",
					"type": "function"
				},
				{
					"inputs": [],
					"payable": false,
					"stateMutability": "nonpayable",
					"type": "constructor"
				},
				{
					"anonymous": false,
					"inputs": [
						{
							"indexed": true,
							"name": "previousOwner",
							"type": "address"
						}
					],
					"name": "OwnershipRenounced",
					"type": "event"
				},
				{
					"anonymous": false,
					"inputs": [
						{
							"indexed": true,
							"name": "previousOwner",
							"type": "address"
						},
						{
							"indexed": true,
							"name": "newOwner",
							"type": "address"
						}
					],
					"name": "OwnershipTransferred",
					"type": "event"
				},
				{
					"anonymous": false,
					"inputs": [
						{
							"indexed": true,
							"name": "_from",
							"type": "address"
						},
						{
							"indexed": true,
							"name": "_to",
							"type": "address"
						},
						{
							"indexed": true,
							"name": "_tokenId",
							"type": "uint256"
						}
					],
					"name": "Transfer",
					"type": "event"
				},
				{
					"anonymous": false,
					"inputs": [
						{
							"indexed": true,
							"name": "_owner",
							"type": "address"
						},
						{
							"indexed": true,
							"name": "_approved",
							"type": "address"
						},
						{
							"indexed": true,
							"name": "_tokenId",
							"type": "uint256"
						}
					],
					"name": "Approval",
					"type": "event"
				},
				{
					"anonymous": false,
					"inputs": [
						{
							"indexed": true,
							"name": "_owner",
							"type": "address"
						},
						{
							"indexed": true,
							"name": "_operator",
							"type": "address"
						},
						{
							"indexed": false,
							"name": "_approved",
							"type": "bool"
						}
					],
					"name": "ApprovalForAll",
					"type": "event"
				}
			],
			"devdoc": {
				"methods": {
					"approve(address,uint256)": {
						"details": "Approves another address to transfer the given token ID\rThe zero address indicates there is no approved address.\rThere can only be one approved address per token at a given time.\rCan only be called by the token owner or an approved operator.\r",
						"params": {
							"_to": "address to be approved for the given token ID\r",
							"_tokenId": "uint256 ID of the token to be approved\r"
						}
					},
					"balanceOf(address)": {
						"details": "Gets the balance of the specified address\r",
						"params": {
							"_owner": "address to query the balance of\r"
						},
						"return": "uint256 representing the amount owned by the passed address\r"
					},
					"exists(uint256)": {
						"details": "Returns whether the specified token exists\r",
						"params": {
							"_tokenId": "uint256 ID of the token to query the existence of\r"
						},
						"return": "whether the token exists\r"
					},
					"getApproved(uint256)": {
						"details": "Gets the approved address for a token ID, or zero if no address set\r",
						"params": {
							"_tokenId": "uint256 ID of the token to query the approval of\r"
						},
						"return": "address currently approved for the given token ID\r"
					},
					"isApprovedForAll(address,address)": {
						"details": "Tells whether an operator is approved by a given owner\r",
						"params": {
							"_operator": "operator address which you want to query the approval of\r",
							"_owner": "owner address which you want to query the approval of\r"
						},
						"return": "bool whether the given operator is approved by the given owner\r"
					},
					"name()": {
						"details": "Gets the token name\r",
						"return": "string representing the token name\r"
					},
					"ownerOf(uint256)": {
						"details": "Gets the owner of the specified token ID\r",
						"params": {
							"_tokenId": "uint256 ID of the token to query the owner of\r"
						},
						"return": "owner address currently marked as the owner of the given token ID\r"
					},
					"renounceOwnership()": {
						"details": "Allows the current owner to relinquish control of the contract.\r"
					},
					"safeTransferFrom(address,address,uint256)": {
						"details": "Safely transfers the ownership of a given token ID to another address\rIf the target address is a contract, it must implement `onERC721Received`,\r which is called upon a safe transfer, and return the magic value\r `bytes4(keccak256(\"onERC721Received(address,uint256,bytes)\"))`; otherwise,\r the transfer is reverted.\rRequires the msg sender to be the owner, approved, or operator\r",
						"params": {
							"_from": "current owner of the token\r",
							"_to": "address to receive the ownership of the given token ID\r",
							"_tokenId": "uint256 ID of the token to be transferred\r"
						}
					},
					"safeTransferFrom(address,address,uint256,bytes)": {
						"details": "Safely transfers the ownership of a given token ID to another address\rIf the target address is a contract, it must implement `onERC721Received`,\r which is called upon a safe transfer, and return the magic value\r `bytes4(keccak256(\"onERC721Received(address,uint256,bytes)\"))`; otherwise,\r the transfer is reverted.\rRequires the msg sender to be the owner, approved, or operator\r",
						"params": {
							"_data": "bytes data to send along with a safe transfer check\r",
							"_from": "current owner of the token\r",
							"_to": "address to receive the ownership of the given token ID\r",
							"_tokenId": "uint256 ID of the token to be transferred\r"
						}
					},
					"setApprovalForAll(address,bool)": {
						"details": "Sets or unsets the approval of a given operator\rAn operator is allowed to transfer all tokens of the sender on their behalf\r",
						"params": {
							"_approved": "representing the status of the approval to be set\r",
							"_to": "operator address to set the approval\r"
						}
					},
					"supportsInterface(bytes4)": {
						"details": "implement supportsInterface(bytes4) using a lookup table\r30,000 gas 이하로 동작해야 함. 현재 이 함수의 gas estimated 는 616.\r"
					},
					"symbol()": {
						"details": "Gets the token symbol\r",
						"return": "string representing the token symbol\r"
					},
					"tokenByIndex(uint256)": {
						"details": "Gets the token ID at a given index of all the tokens in this contract\rReverts if the index is greater or equal to the total number of tokens\r",
						"params": {
							"_index": "uint256 representing the index to be accessed of the tokens list\r"
						},
						"return": "uint256 token ID at the given index of the tokens list\r"
					},
					"tokenOfOwnerByIndex(address,uint256)": {
						"details": "Gets the token ID at a given index of the tokens list of the requested owner\r",
						"params": {
							"_index": "uint256 representing the index to be accessed of the requested tokens list\r",
							"_owner": "address owning the tokens list to be accessed\r"
						},
						"return": "uint256 token ID at the given index of the tokens list owned by the requested address\r"
					},
					"tokenURI(uint256)": {
						"details": "Returns an URI for a given token ID\rThrows if the token ID does not exist. May return an empty string.\r",
						"params": {
							"_tokenId": "uint256 ID of the token to query\r"
						}
					},
					"totalSupply()": {
						"details": "Gets the total amount of tokens stored by the contract\r",
						"return": "uint256 representing the total amount of tokens\r"
					},
					"transferFrom(address,address,uint256)": {
						"details": "Transfers the ownership of a given token ID to another address\rUsage of this method is discouraged, use `safeTransferFrom` whenever possible\rRequires the msg sender to be the owner, approved, or operator\r",
						"params": {
							"_from": "current owner of the token\r",
							"_to": "address to receive the ownership of the given token ID\r",
							"_tokenId": "uint256 ID of the token to be transferred\r"
						}
					},
					"transferOwnership(address)": {
						"details": "Allows the current owner to transfer control of the contract to a newOwner.\r",
						"params": {
							"newOwner": "The address to transfer ownership to.\r"
						}
					}
				}
			},
			"evm": {
				"assembly": "    /* \"contracts/Tocken721.sol\":41965:42448  contract Token721 is ERC721Token, Ownable {\r... */\n  mstore(0x40, 0x80)\n    /* \"contracts/Tocken721.sol\":42014:42075  constructor() ERC721Token(\"721Token\", \"M721\") public {\r... */\n  callvalue\n    /* \"--CODEGEN--\":8:17   */\n  dup1\n    /* \"--CODEGEN--\":5:7   */\n  iszero\n  tag_1\n  jumpi\n    /* \"--CODEGEN--\":30:31   */\n  0x0\n    /* \"--CODEGEN--\":27:28   */\n  dup1\n    /* \"--CODEGEN--\":20:32   */\n  revert\n    /* \"--CODEGEN--\":5:7   */\ntag_1:\n    /* \"contracts/Tocken721.sol\":42014:42075  constructor() ERC721Token(\"721Token\", \"M721\") public {\r... */\n  pop\n    /* \"contracts/Tocken721.sol\":31950:32072  constructor(string _name, string _symbol) public { // 생성자\r... */\n  0x40\n  dup1\n  mload\n  swap1\n  dup2\n  add\n  0x40\n  mstore\n  dup1\n  0x8\n  dup2\n  mstore\n  0x20\n  add\n  0x373231546f6b656e000000000000000000000000000000000000000000000000\n  dup2\n  mstore\n  pop\n  0x40\n  dup1\n  mload\n  swap1\n  dup2\n  add\n  0x40\n  mstore\n  dup1\n  0x4\n  dup2\n  mstore\n  0x20\n  add\n  0x4d37323100000000000000000000000000000000000000000000000000000000\n  dup2\n  mstore\n  pop\n    /* \"contracts/Tocken721.sol\":1664:1702  _registerInterface(InterfaceId_ERC165) */\n  tag_10\n    /* \"contracts/Tocken721.sol\":1233:1243  0x01ffc9a7 */\n  0x1ffc9a7\n    /* \"contracts/Tocken721.sol\":1683:1701  InterfaceId_ERC165 */\n  0x100000000000000000000000000000000000000000000000000000000\n  mul\n    /* \"contracts/Tocken721.sol\":1664:1682  _registerInterface */\n  mul(0x100000000, tag_11)\n    /* \"contracts/Tocken721.sol\":1664:1702  _registerInterface(InterfaceId_ERC165) */\n  0x100000000\n  swap1\n  div\n  jump\t// in\ntag_10:\n    /* \"contracts/Tocken721.sol\":4401:4439  _registerInterface(InterfaceId_ERC721) */\n  tag_13\n    /* \"contracts/Tocken721.sol\":3288:3298  0x80ac58cd */\n  0x80ac58cd\n    /* \"contracts/Tocken721.sol\":4420:4438  InterfaceId_ERC721 */\n  0x100000000000000000000000000000000000000000000000000000000\n  mul\n    /* \"contracts/Tocken721.sol\":4401:4419  _registerInterface */\n  mul(0x100000000, tag_11)\n    /* \"contracts/Tocken721.sol\":4401:4439  _registerInterface(InterfaceId_ERC721) */\n  0x100000000\n  swap1\n  div\n  jump\t// in\ntag_13:\n    /* \"contracts/Tocken721.sol\":4450:4494  _registerInterface(InterfaceId_ERC721Exists) */\n  tag_14\n    /* \"contracts/Tocken721.sol\":4083:4093  0x4f558e79 */\n  0x4f558e79\n    /* \"contracts/Tocken721.sol\":4469:4493  InterfaceId_ERC721Exists */\n  0x100000000000000000000000000000000000000000000000000000000\n  mul\n    /* \"contracts/Tocken721.sol\":4450:4468  _registerInterface */\n  mul(0x100000000, tag_11)\n    /* \"contracts/Tocken721.sol\":4450:4494  _registerInterface(InterfaceId_ERC721Exists) */\n  0x100000000\n  swap1\n  div\n  jump\t// in\ntag_14:\n    /* \"contracts/Tocken721.sol\":27140:27188  _registerInterface(InterfaceId_ERC721Enumerable) */\n  tag_16\n    /* \"contracts/Tocken721.sol\":26868:26878  0x780e9d63 */\n  0x780e9d63\n    /* \"contracts/Tocken721.sol\":27159:27187  InterfaceId_ERC721Enumerable */\n  0x100000000000000000000000000000000000000000000000000000000\n  mul\n    /* \"contracts/Tocken721.sol\":27140:27158  _registerInterface */\n  mul(0x100000000, tag_11)\n    /* \"contracts/Tocken721.sol\":27140:27188  _registerInterface(InterfaceId_ERC721Enumerable) */\n  0x100000000\n  swap1\n  div\n  jump\t// in\ntag_16:\n    /* \"contracts/Tocken721.sol\":28273:28319  _registerInterface(InterfaceId_ERC721Metadata) */\n  tag_18\n    /* \"contracts/Tocken721.sol\":28040:28050  0x5b5e139f */\n  0x5b5e139f\n    /* \"contracts/Tocken721.sol\":28292:28318  InterfaceId_ERC721Metadata */\n  0x100000000000000000000000000000000000000000000000000000000\n  mul\n    /* \"contracts/Tocken721.sol\":28273:28291  _registerInterface */\n  mul(0x100000000, tag_11)\n    /* \"contracts/Tocken721.sol\":28273:28319  _registerInterface(InterfaceId_ERC721Metadata) */\n  0x100000000\n  swap1\n  div\n  jump\t// in\ntag_18:\n    /* \"contracts/Tocken721.sol\":32031:32036  _name */\n  dup2\n    /* \"contracts/Tocken721.sol\":32023:32028  name_ */\n  0x5\n    /* \"contracts/Tocken721.sol\":32023:32036  name_ = _name */\n  swap1\n  dup1\n  mload\n  swap1\n  0x20\n  add\n  swap1\n  tag_20\n  swap3\n  swap2\n  swap1\n  jump\t// in(tag_21)\ntag_20:\n  pop\n    /* \"contracts/Tocken721.sol\":32057:32064  _symbol */\n  dup1\n    /* \"contracts/Tocken721.sol\":32047:32054  symbol_ */\n  0x6\n    /* \"contracts/Tocken721.sol\":32047:32064  symbol_ = _symbol */\n  swap1\n  dup1\n  mload\n  swap1\n  0x20\n  add\n  swap1\n  tag_22\n  swap3\n  swap2\n  swap1\n  jump\t// in(tag_21)\ntag_22:\n  pop\n    /* \"contracts/Tocken721.sol\":31950:32072  constructor(string _name, string _symbol) public { // 생성자\r... */\n  pop\n  pop\n    /* \"contracts/Tocken721.sol\":41171:41181  msg.sender */\n  caller\n    /* \"contracts/Tocken721.sol\":41163:41168  owner */\n  0xc\n  0x0\n    /* \"contracts/Tocken721.sol\":41163:41181  owner = msg.sender */\n  0x100\n  exp\n  dup2\n  sload\n  dup2\n  0xffffffffffffffffffffffffffffffffffffffff\n  mul\n  not\n  and\n  swap1\n  dup4\n  0xffffffffffffffffffffffffffffffffffffffff\n  and\n  mul\n  or\n  swap1\n  sstore\n  pop\n    /* \"contracts/Tocken721.sol\":41965:42448  contract Token721 is ERC721Token, Ownable {\r... */\n  jump(tag_25)\n    /* \"contracts/Tocken721.sol\":2141:2385  function _registerInterface(bytes4 _interfaceId)\r... */\ntag_11:\n    /* \"contracts/Tocken721.sol\":2244:2254  0xffffffff */\n  0xffffffff\n    /* \"contracts/Tocken721.sol\":2228:2254  _interfaceId != 0xffffffff */\n  0x100000000000000000000000000000000000000000000000000000000\n  mul\n    /* \"contracts/Tocken721.sol\":2228:2240  _interfaceId */\n  dup2\n    /* \"contracts/Tocken721.sol\":2228:2254  _interfaceId != 0xffffffff */\n  not(0xffffffffffffffffffffffffffffffffffffffffffffffffffffffff)\n  and\n  eq\n  iszero\n    /* \"contracts/Tocken721.sol\":2220:2255  require(_interfaceId != 0xffffffff) */\n  iszero\n  iszero\n  tag_27\n  jumpi\n  0x0\n  dup1\n  revert\ntag_27:\n    /* \"contracts/Tocken721.sol\":2373:2377  true */\n  0x1\n    /* \"contracts/Tocken721.sol\":2337:2356  supportedInterfaces */\n  0x0\n    /* \"contracts/Tocken721.sol\":2337:2370  supportedInterfaces[_interfaceId] */\n  dup1\n    /* \"contracts/Tocken721.sol\":2357:2369  _interfaceId */\n  dup4\n    /* \"contracts/Tocken721.sol\":2337:2370  supportedInterfaces[_interfaceId] */\n  not(0xffffffffffffffffffffffffffffffffffffffffffffffffffffffff)\n  and\n  not(0xffffffffffffffffffffffffffffffffffffffffffffffffffffffff)\n  and\n  dup2\n  mstore\n  0x20\n  add\n  swap1\n  dup2\n  mstore\n  0x20\n  add\n  0x0\n  keccak256\n  0x0\n    /* \"contracts/Tocken721.sol\":2337:2377  supportedInterfaces[_interfaceId] = true */\n  0x100\n  exp\n  dup2\n  sload\n  dup2\n  0xff\n  mul\n  not\n  and\n  swap1\n  dup4\n  iszero\n  iszero\n  mul\n  or\n  swap1\n  sstore\n  pop\n    /* \"contracts/Tocken721.sol\":2141:2385  function _registerInterface(bytes4 _interfaceId)\r... */\n  pop\n  jump\t// out\n    /* \"contracts/Tocken721.sol\":41965:42448  contract Token721 is ERC721Token, Ownable {\r... */\ntag_21:\n  dup3\n  dup1\n  sload\n  0x1\n  dup2\n  0x1\n  and\n  iszero\n  0x100\n  mul\n  sub\n  and\n  0x2\n  swap1\n  div\n  swap1\n  0x0\n  mstore\n  keccak256(0x0, 0x20)\n  swap1\n  0x1f\n  add\n  0x20\n  swap1\n  div\n  dup2\n  add\n  swap3\n  dup3\n  0x1f\n  lt\n  tag_29\n  jumpi\n  dup1\n  mload\n  not(0xff)\n  and\n  dup4\n  dup1\n  add\n  or\n  dup6\n  sstore\n  jump(tag_28)\ntag_29:\n  dup3\n  dup1\n  add\n  0x1\n  add\n  dup6\n  sstore\n  dup3\n  iszero\n  tag_28\n  jumpi\n  swap2\n  dup3\n  add\ntag_30:\n  dup3\n  dup2\n  gt\n  iszero\n  tag_31\n  jumpi\n  dup3\n  mload\n  dup3\n  sstore\n  swap2\n  0x20\n  add\n  swap2\n  swap1\n  0x1\n  add\n  swap1\n  jump(tag_30)\ntag_31:\ntag_28:\n  pop\n  swap1\n  pop\n  tag_32\n  swap2\n  swap1\n  jump\t// in(tag_33)\ntag_32:\n  pop\n  swap1\n  jump\t// out\ntag_33:\n  tag_34\n  swap2\n  swap1\ntag_35:\n  dup1\n  dup3\n  gt\n  iszero\n  tag_36\n  jumpi\n  0x0\n  dup2\n  0x0\n  swap1\n  sstore\n  pop\n  0x1\n  add\n  jump(tag_35)\ntag_36:\n  pop\n  swap1\n  jump\ntag_34:\n  swap1\n  jump\t// out\ntag_25:\n  dataSize(sub_0)\n  dup1\n  dataOffset(sub_0)\n  0x0\n  codecopy\n  0x0\n  return\nstop\n\nsub_0: assembly {\n        /* \"contracts/Tocken721.sol\":41965:42448  contract Token721 is ERC721Token, Ownable {\r... */\n      mstore(0x40, 0x80)\n      jumpi(tag_1, lt(calldatasize, 0x4))\n      calldataload(0x0)\n      0x100000000000000000000000000000000000000000000000000000000\n      swap1\n      div\n      0xffffffff\n      and\n      dup1\n      0x1ffc9a7\n      eq\n      tag_2\n      jumpi\n      dup1\n      0x6fdde03\n      eq\n      tag_3\n      jumpi\n      dup1\n      0x81812fc\n      eq\n      tag_4\n      jumpi\n      dup1\n      0x95ea7b3\n      eq\n      tag_5\n      jumpi\n      dup1\n      0x162094c4\n      eq\n      tag_6\n      jumpi\n      dup1\n      0x18160ddd\n      eq\n      tag_7\n      jumpi\n      dup1\n      0x19fa8f50\n      eq\n      tag_8\n      jumpi\n      dup1\n      0x23b872dd\n      eq\n      tag_9\n      jumpi\n      dup1\n      0x2f745c59\n      eq\n      tag_10\n      jumpi\n      dup1\n      0x42842e0e\n      eq\n      tag_11\n      jumpi\n      dup1\n      0x42966c68\n      eq\n      tag_12\n      jumpi\n      dup1\n      0x4f558e79\n      eq\n      tag_13\n      jumpi\n      dup1\n      0x4f6ccce7\n      eq\n      tag_14\n      jumpi\n      dup1\n      0x6352211e\n      eq\n      tag_15\n      jumpi\n      dup1\n      0x70a08231\n      eq\n      tag_16\n      jumpi\n      dup1\n      0x715018a6\n      eq\n      tag_17\n      jumpi\n      dup1\n      0x8da5cb5b\n      eq\n      tag_18\n      jumpi\n      dup1\n      0x95d89b41\n      eq\n      tag_19\n      jumpi\n      dup1\n      0xa0712d68\n      eq\n      tag_20\n      jumpi\n      dup1\n      0xa22cb465\n      eq\n      tag_21\n      jumpi\n      dup1\n      0xb88d4fde\n      eq\n      tag_22\n      jumpi\n      dup1\n      0xc87b56dd\n      eq\n      tag_23\n      jumpi\n      dup1\n      0xe985e9c5\n      eq\n      tag_24\n      jumpi\n      dup1\n      0xf2fde38b\n      eq\n      tag_25\n      jumpi\n    tag_1:\n      0x0\n      dup1\n      revert\n        /* \"contracts/Tocken721.sol\":1902:2058  function supportsInterface(bytes4 _interfaceId)\r... */\n    tag_2:\n      callvalue\n        /* \"--CODEGEN--\":8:17   */\n      dup1\n        /* \"--CODEGEN--\":5:7   */\n      iszero\n      tag_26\n      jumpi\n        /* \"--CODEGEN--\":30:31   */\n      0x0\n        /* \"--CODEGEN--\":27:28   */\n      dup1\n        /* \"--CODEGEN--\":20:32   */\n      revert\n        /* \"--CODEGEN--\":5:7   */\n    tag_26:\n        /* \"contracts/Tocken721.sol\":1902:2058  function supportsInterface(bytes4 _interfaceId)\r... */\n      pop\n      tag_27\n      0x4\n      dup1\n      calldatasize\n      sub\n      dup2\n      add\n      swap1\n      dup1\n      dup1\n      calldataload\n      not(0xffffffffffffffffffffffffffffffffffffffffffffffffffffffff)\n      and\n      swap1\n      0x20\n      add\n      swap1\n      swap3\n      swap2\n      swap1\n      pop\n      pop\n      pop\n      jump(tag_28)\n    tag_27:\n      mload(0x40)\n      dup1\n      dup3\n      iszero\n      iszero\n      iszero\n      iszero\n      dup2\n      mstore\n      0x20\n      add\n      swap2\n      pop\n      pop\n      mload(0x40)\n      dup1\n      swap2\n      sub\n      swap1\n      return\n        /* \"contracts/Tocken721.sol\":32182:32275  function name() external view returns (string) { // name 함수\r... */\n    tag_3:\n      callvalue\n        /* \"--CODEGEN--\":8:17   */\n      dup1\n        /* \"--CODEGEN--\":5:7   */\n      iszero\n      tag_29\n      jumpi\n        /* \"--CODEGEN--\":30:31   */\n      0x0\n        /* \"--CODEGEN--\":27:28   */\n      dup1\n        /* \"--CODEGEN--\":20:32   */\n      revert\n        /* \"--CODEGEN--\":5:7   */\n    tag_29:\n        /* \"contracts/Tocken721.sol\":32182:32275  function name() external view returns (string) { // name 함수\r... */\n      pop\n      tag_30\n      jump(tag_31)\n    tag_30:\n      mload(0x40)\n      dup1\n      dup1\n      0x20\n      add\n      dup3\n      dup2\n      sub\n      dup3\n      mstore\n      dup4\n      dup2\n      dup2\n      mload\n      dup2\n      mstore\n      0x20\n      add\n      swap2\n      pop\n      dup1\n      mload\n      swap1\n      0x20\n      add\n      swap1\n      dup1\n      dup4\n      dup4\n        /* \"--CODEGEN--\":23:24   */\n      0x0\n        /* \"--CODEGEN--\":8:108   */\n    tag_32:\n        /* \"--CODEGEN--\":33:36   */\n      dup4\n        /* \"--CODEGEN--\":30:31   */\n      dup2\n        /* \"--CODEGEN--\":27:37   */\n      lt\n        /* \"--CODEGEN--\":8:108   */\n      iszero\n      tag_33\n      jumpi\n        /* \"--CODEGEN--\":99:100   */\n      dup1\n        /* \"--CODEGEN--\":94:97   */\n      dup3\n        /* \"--CODEGEN--\":90:101   */\n      add\n        /* \"--CODEGEN--\":84:102   */\n      mload\n        /* \"--CODEGEN--\":80:81   */\n      dup2\n        /* \"--CODEGEN--\":75:78   */\n      dup5\n        /* \"--CODEGEN--\":71:82   */\n      add\n        /* \"--CODEGEN--\":64:103   */\n      mstore\n        /* \"--CODEGEN--\":52:54   */\n      0x20\n        /* \"--CODEGEN--\":49:50   */\n      dup2\n        /* \"--CODEGEN--\":45:55   */\n      add\n        /* \"--CODEGEN--\":40:55   */\n      swap1\n      pop\n        /* \"--CODEGEN--\":8:108   */\n      jump(tag_32)\n    tag_33:\n        /* \"--CODEGEN--\":12:26   */\n      pop\n        /* \"contracts/Tocken721.sol\":32182:32275  function name() external view returns (string) { // name 함수\r... */\n      pop\n      pop\n      pop\n      swap1\n      pop\n      swap1\n      dup2\n      add\n      swap1\n      0x1f\n      and\n      dup1\n      iszero\n      tag_35\n      jumpi\n      dup1\n      dup3\n      sub\n      dup1\n      mload\n      0x1\n      dup4\n      0x20\n      sub\n      0x100\n      exp\n      sub\n      not\n      and\n      dup2\n      mstore\n      0x20\n      add\n      swap2\n      pop\n    tag_35:\n      pop\n      swap3\n      pop\n      pop\n      pop\n      mload(0x40)\n      dup1\n      swap2\n      sub\n      swap1\n      return\n        /* \"contracts/Tocken721.sol\":15696:15849  function getApproved(uint256 _tokenId) public view returns (address) {\r... */\n    tag_4:\n      callvalue\n        /* \"--CODEGEN--\":8:17   */\n      dup1\n        /* \"--CODEGEN--\":5:7   */\n      iszero\n      tag_36\n      jumpi\n        /* \"--CODEGEN--\":30:31   */\n      0x0\n        /* \"--CODEGEN--\":27:28   */\n      dup1\n        /* \"--CODEGEN--\":20:32   */\n      revert\n        /* \"--CODEGEN--\":5:7   */\n    tag_36:\n        /* \"contracts/Tocken721.sol\":15696:15849  function getApproved(uint256 _tokenId) public view returns (address) {\r... */\n      pop\n      tag_37\n      0x4\n      dup1\n      calldatasize\n      sub\n      dup2\n      add\n      swap1\n      dup1\n      dup1\n      calldataload\n      swap1\n      0x20\n      add\n      swap1\n      swap3\n      swap2\n      swap1\n      pop\n      pop\n      pop\n      jump(tag_38)\n    tag_37:\n      mload(0x40)\n      dup1\n      dup3\n      0xffffffffffffffffffffffffffffffffffffffff\n      and\n      0xffffffffffffffffffffffffffffffffffffffff\n      and\n      dup2\n      mstore\n      0x20\n      add\n      swap2\n      pop\n      pop\n      mload(0x40)\n      dup1\n      swap2\n      sub\n      swap1\n      return\n        /* \"contracts/Tocken721.sol\":14753:15450  function approve(address _to, uint256 _tokenId) public {\r... */\n    tag_5:\n      callvalue\n        /* \"--CODEGEN--\":8:17   */\n      dup1\n        /* \"--CODEGEN--\":5:7   */\n      iszero\n      tag_39\n      jumpi\n        /* \"--CODEGEN--\":30:31   */\n      0x0\n        /* \"--CODEGEN--\":27:28   */\n      dup1\n        /* \"--CODEGEN--\":20:32   */\n      revert\n        /* \"--CODEGEN--\":5:7   */\n    tag_39:\n        /* \"contracts/Tocken721.sol\":14753:15450  function approve(address _to, uint256 _tokenId) public {\r... */\n      pop\n      tag_40\n      0x4\n      dup1\n      calldatasize\n      sub\n      dup2\n      add\n      swap1\n      dup1\n      dup1\n      calldataload\n      0xffffffffffffffffffffffffffffffffffffffff\n      and\n      swap1\n      0x20\n      add\n      swap1\n      swap3\n      swap2\n      swap1\n      dup1\n      calldataload\n      swap1\n      0x20\n      add\n      swap1\n      swap3\n      swap2\n      swap1\n      pop\n      pop\n      pop\n      jump(tag_41)\n    tag_40:\n      stop\n        /* \"contracts/Tocken721.sol\":42333:42445  function setTokenURI(uint256 tokenId, string uri) onlyOwner public {\r... */\n    tag_6:\n      callvalue\n        /* \"--CODEGEN--\":8:17   */\n      dup1\n        /* \"--CODEGEN--\":5:7   */\n      iszero\n      tag_42\n      jumpi\n        /* \"--CODEGEN--\":30:31   */\n      0x0\n        /* \"--CODEGEN--\":27:28   */\n      dup1\n        /* \"--CODEGEN--\":20:32   */\n      revert\n        /* \"--CODEGEN--\":5:7   */\n    tag_42:\n        /* \"contracts/Tocken721.sol\":42333:42445  function setTokenURI(uint256 tokenId, string uri) onlyOwner public {\r... */\n      pop\n      tag_43\n      0x4\n      dup1\n      calldatasize\n      sub\n      dup2\n      add\n      swap1\n      dup1\n      dup1\n      calldataload\n      swap1\n      0x20\n      add\n      swap1\n      swap3\n      swap2\n      swap1\n      dup1\n      calldataload\n      swap1\n      0x20\n      add\n      swap1\n      dup3\n      add\n      dup1\n      calldataload\n      swap1\n      0x20\n      add\n      swap1\n      dup1\n      dup1\n      0x1f\n      add\n      0x20\n      dup1\n      swap2\n      div\n      mul\n      0x20\n      add\n      mload(0x40)\n      swap1\n      dup2\n      add\n      0x40\n      mstore\n      dup1\n      swap4\n      swap3\n      swap2\n      swap1\n      dup2\n      dup2\n      mstore\n      0x20\n      add\n      dup4\n      dup4\n      dup1\n      dup3\n      dup5\n      calldatacopy\n      dup3\n      add\n      swap2\n      pop\n      pop\n      pop\n      pop\n      pop\n      pop\n      swap2\n      swap3\n      swap2\n      swap3\n      swap1\n      pop\n      pop\n      pop\n      jump(tag_44)\n    tag_43:\n      stop\n        /* \"contracts/Tocken721.sol\":33795:33968  function totalSupply() public view returns (uint256) {\r... */\n    tag_7:\n      callvalue\n        /* \"--CODEGEN--\":8:17   */\n      dup1\n        /* \"--CODEGEN--\":5:7   */\n      iszero\n      tag_45\n      jumpi\n        /* \"--CODEGEN--\":30:31   */\n      0x0\n        /* \"--CODEGEN--\":27:28   */\n      dup1\n        /* \"--CODEGEN--\":20:32   */\n      revert\n        /* \"--CODEGEN--\":5:7   */\n    tag_45:\n        /* \"contracts/Tocken721.sol\":33795:33968  function totalSupply() public view returns (uint256) {\r... */\n      pop\n      tag_46\n      jump(tag_47)\n    tag_46:\n      mload(0x40)\n      dup1\n      dup3\n      dup2\n      mstore\n      0x20\n      add\n      swap2\n      pop\n      pop\n      mload(0x40)\n      dup1\n      swap2\n      sub\n      swap1\n      return\n        /* \"contracts/Tocken721.sol\":1189:1243  bytes4 public constant InterfaceId_ERC165 = 0x01ffc9a7 */\n    tag_8:\n      callvalue\n        /* \"--CODEGEN--\":8:17   */\n      dup1\n        /* \"--CODEGEN--\":5:7   */\n      iszero\n      tag_48\n      jumpi\n        /* \"--CODEGEN--\":30:31   */\n      0x0\n        /* \"--CODEGEN--\":27:28   */\n      dup1\n        /* \"--CODEGEN--\":20:32   */\n      revert\n        /* \"--CODEGEN--\":5:7   */\n    tag_48:\n        /* \"contracts/Tocken721.sol\":1189:1243  bytes4 public constant InterfaceId_ERC165 = 0x01ffc9a7 */\n      pop\n      tag_49\n      jump(tag_50)\n    tag_49:\n      mload(0x40)\n      dup1\n      dup3\n      not(0xffffffffffffffffffffffffffffffffffffffffffffffffffffffff)\n      and\n      not(0xffffffffffffffffffffffffffffffffffffffffffffffffffffffff)\n      and\n      dup2\n      mstore\n      0x20\n      add\n      swap2\n      pop\n      pop\n      mload(0x40)\n      dup1\n      swap2\n      sub\n      swap1\n      return\n        /* \"contracts/Tocken721.sol\":17542:18141  function transferFrom(\r... */\n    tag_9:\n      callvalue\n        /* \"--CODEGEN--\":8:17   */\n      dup1\n        /* \"--CODEGEN--\":5:7   */\n      iszero\n      tag_51\n      jumpi\n        /* \"--CODEGEN--\":30:31   */\n      0x0\n        /* \"--CODEGEN--\":27:28   */\n      dup1\n        /* \"--CODEGEN--\":20:32   */\n      revert\n        /* \"--CODEGEN--\":5:7   */\n    tag_51:\n        /* \"contracts/Tocken721.sol\":17542:18141  function transferFrom(\r... */\n      pop\n      tag_52\n      0x4\n      dup1\n      calldatasize\n      sub\n      dup2\n      add\n      swap1\n      dup1\n      dup1\n      calldataload\n      0xffffffffffffffffffffffffffffffffffffffff\n      and\n      swap1\n      0x20\n      add\n      swap1\n      swap3\n      swap2\n      swap1\n      dup1\n      calldataload\n      0xffffffffffffffffffffffffffffffffffffffff\n      and\n      swap1\n      0x20\n      add\n      swap1\n      swap3\n      swap2\n      swap1\n      dup1\n      calldataload\n      swap1\n      0x20\n      add\n      swap1\n      swap3\n      swap2\n      swap1\n      pop\n      pop\n      pop\n      jump(tag_53)\n    tag_52:\n      stop\n        /* \"contracts/Tocken721.sol\":33300:33631  function tokenOfOwnerByIndex(\r... */\n    tag_10:\n      callvalue\n        /* \"--CODEGEN--\":8:17   */\n      dup1\n        /* \"--CODEGEN--\":5:7   */\n      iszero\n      tag_54\n      jumpi\n        /* \"--CODEGEN--\":30:31   */\n      0x0\n        /* \"--CODEGEN--\":27:28   */\n      dup1\n        /* \"--CODEGEN--\":20:32   */\n      revert\n        /* \"--CODEGEN--\":5:7   */\n    tag_54:\n        /* \"contracts/Tocken721.sol\":33300:33631  function tokenOfOwnerByIndex(\r... */\n      pop\n      tag_55\n      0x4\n      dup1\n      calldatasize\n      sub\n      dup2\n      add\n      swap1\n      dup1\n      dup1\n      calldataload\n      0xffffffffffffffffffffffffffffffffffffffff\n      and\n      swap1\n      0x20\n      add\n      swap1\n      swap3\n      swap2\n      swap1\n      dup1\n      calldataload\n      swap1\n      0x20\n      add\n      swap1\n      swap3\n      swap2\n      swap1\n      pop\n      pop\n      pop\n      jump(tag_56)\n    tag_55:\n      mload(0x40)\n      dup1\n      dup3\n      dup2\n      mstore\n      0x20\n      add\n      swap2\n      pop\n      pop\n      mload(0x40)\n      dup1\n      swap2\n      sub\n      swap1\n      return\n        /* \"contracts/Tocken721.sol\":18798:19166  function safeTransferFrom(\r... */\n    tag_11:\n      callvalue\n        /* \"--CODEGEN--\":8:17   */\n      dup1\n        /* \"--CODEGEN--\":5:7   */\n      iszero\n      tag_57\n      jumpi\n        /* \"--CODEGEN--\":30:31   */\n      0x0\n        /* \"--CODEGEN--\":27:28   */\n      dup1\n        /* \"--CODEGEN--\":20:32   */\n      revert\n        /* \"--CODEGEN--\":5:7   */\n    tag_57:\n        /* \"contracts/Tocken721.sol\":18798:19166  function safeTransferFrom(\r... */\n      pop\n      tag_58\n      0x4\n      dup1\n      calldatasize\n      sub\n      dup2\n      add\n      swap1\n      dup1\n      dup1\n      calldataload\n      0xffffffffffffffffffffffffffffffffffffffff\n      and\n      swap1\n      0x20\n      add\n      swap1\n      swap3\n      swap2\n      swap1\n      dup1\n      calldataload\n      0xffffffffffffffffffffffffffffffffffffffff\n      and\n      swap1\n      0x20\n      add\n      swap1\n      swap3\n      swap2\n      swap1\n      dup1\n      calldataload\n      swap1\n      0x20\n      add\n      swap1\n      swap3\n      swap2\n      swap1\n      pop\n      pop\n      pop\n      jump(tag_59)\n    tag_58:\n      stop\n        /* \"contracts/Tocken721.sol\":42215:42325  function burn(uint256 tokenId) onlyOwnerOf(tokenId) public {\r... */\n    tag_12:\n      callvalue\n        /* \"--CODEGEN--\":8:17   */\n      dup1\n        /* \"--CODEGEN--\":5:7   */\n      iszero\n      tag_60\n      jumpi\n        /* \"--CODEGEN--\":30:31   */\n      0x0\n        /* \"--CODEGEN--\":27:28   */\n      dup1\n        /* \"--CODEGEN--\":20:32   */\n      revert\n        /* \"--CODEGEN--\":5:7   */\n    tag_60:\n        /* \"contracts/Tocken721.sol\":42215:42325  function burn(uint256 tokenId) onlyOwnerOf(tokenId) public {\r... */\n      pop\n      tag_61\n      0x4\n      dup1\n      calldatasize\n      sub\n      dup2\n      add\n      swap1\n      dup1\n      dup1\n      calldataload\n      swap1\n      0x20\n      add\n      swap1\n      swap3\n      swap2\n      swap1\n      pop\n      pop\n      pop\n      jump(tag_62)\n    tag_61:\n      stop\n        /* \"contracts/Tocken721.sol\":13998:14305  function exists(uint256 _tokenId) public view returns (bool) {\r... */\n    tag_13:\n      callvalue\n        /* \"--CODEGEN--\":8:17   */\n      dup1\n        /* \"--CODEGEN--\":5:7   */\n      iszero\n      tag_63\n      jumpi\n        /* \"--CODEGEN--\":30:31   */\n      0x0\n        /* \"--CODEGEN--\":27:28   */\n      dup1\n        /* \"--CODEGEN--\":20:32   */\n      revert\n        /* \"--CODEGEN--\":5:7   */\n    tag_63:\n        /* \"contracts/Tocken721.sol\":13998:14305  function exists(uint256 _tokenId) public view returns (bool) {\r... */\n      pop\n      tag_64\n      0x4\n      dup1\n      calldatasize\n      sub\n      dup2\n      add\n      swap1\n      dup1\n      dup1\n      calldataload\n      swap1\n      0x20\n      add\n      swap1\n      swap3\n      swap2\n      swap1\n      pop\n      pop\n      pop\n      jump(tag_65)\n    tag_64:\n      mload(0x40)\n      dup1\n      dup3\n      iszero\n      iszero\n      iszero\n      iszero\n      dup2\n      mstore\n      0x20\n      add\n      swap2\n      pop\n      pop\n      mload(0x40)\n      dup1\n      swap2\n      sub\n      swap1\n      return\n        /* \"contracts/Tocken721.sol\":34327:34570  function tokenByIndex(uint256 _index) public view returns (uint256) {\r... */\n    tag_14:\n      callvalue\n        /* \"--CODEGEN--\":8:17   */\n      dup1\n        /* \"--CODEGEN--\":5:7   */\n      iszero\n      tag_66\n      jumpi\n        /* \"--CODEGEN--\":30:31   */\n      0x0\n        /* \"--CODEGEN--\":27:28   */\n      dup1\n        /* \"--CODEGEN--\":20:32   */\n      revert\n        /* \"--CODEGEN--\":5:7   */\n    tag_66:\n        /* \"contracts/Tocken721.sol\":34327:34570  function tokenByIndex(uint256 _index) public view returns (uint256) {\r... */\n      pop\n      tag_67\n      0x4\n      dup1\n      calldatasize\n      sub\n      dup2\n      add\n      swap1\n      dup1\n      dup1\n      calldataload\n      swap1\n      0x20\n      add\n      swap1\n      swap3\n      swap2\n      swap1\n      pop\n      pop\n      pop\n      jump(tag_68)\n    tag_67:\n      mload(0x40)\n      dup1\n      dup3\n      dup2\n      mstore\n      0x20\n      add\n      swap2\n      pop\n      pop\n      mload(0x40)\n      dup1\n      swap2\n      sub\n      swap1\n      return\n        /* \"contracts/Tocken721.sol\":13508:13801  function ownerOf(uint256 _tokenId) public view returns (address) {\r... */\n    tag_15:\n      callvalue\n        /* \"--CODEGEN--\":8:17   */\n      dup1\n        /* \"--CODEGEN--\":5:7   */\n      iszero\n      tag_69\n      jumpi\n        /* \"--CODEGEN--\":30:31   */\n      0x0\n        /* \"--CODEGEN--\":27:28   */\n      dup1\n        /* \"--CODEGEN--\":20:32   */\n      revert\n        /* \"--CODEGEN--\":5:7   */\n    tag_69:\n        /* \"contracts/Tocken721.sol\":13508:13801  function ownerOf(uint256 _tokenId) public view returns (address) {\r... */\n      pop\n      tag_70\n      0x4\n      dup1\n      calldatasize\n      sub\n      dup2\n      add\n      swap1\n      dup1\n      dup1\n      calldataload\n      swap1\n      0x20\n      add\n      swap1\n      swap3\n      swap2\n      swap1\n      pop\n      pop\n      pop\n      jump(tag_71)\n    tag_70:\n      mload(0x40)\n      dup1\n      dup3\n      0xffffffffffffffffffffffffffffffffffffffff\n      and\n      0xffffffffffffffffffffffffffffffffffffffff\n      and\n      dup2\n      mstore\n      0x20\n      add\n      swap2\n      pop\n      pop\n      mload(0x40)\n      dup1\n      swap2\n      sub\n      swap1\n      return\n        /* \"contracts/Tocken721.sol\":13046:13276  function balanceOf(address _owner) public view returns (uint256) {\r... */\n    tag_16:\n      callvalue\n        /* \"--CODEGEN--\":8:17   */\n      dup1\n        /* \"--CODEGEN--\":5:7   */\n      iszero\n      tag_72\n      jumpi\n        /* \"--CODEGEN--\":30:31   */\n      0x0\n        /* \"--CODEGEN--\":27:28   */\n      dup1\n        /* \"--CODEGEN--\":20:32   */\n      revert\n        /* \"--CODEGEN--\":5:7   */\n    tag_72:\n        /* \"contracts/Tocken721.sol\":13046:13276  function balanceOf(address _owner) public view returns (uint256) {\r... */\n      pop\n      tag_73\n      0x4\n      dup1\n      calldatasize\n      sub\n      dup2\n      add\n      swap1\n      dup1\n      dup1\n      calldataload\n      0xffffffffffffffffffffffffffffffffffffffff\n      and\n      swap1\n      0x20\n      add\n      swap1\n      swap3\n      swap2\n      swap1\n      pop\n      pop\n      pop\n      jump(tag_74)\n    tag_73:\n      mload(0x40)\n      dup1\n      dup3\n      dup2\n      mstore\n      0x20\n      add\n      swap2\n      pop\n      pop\n      mload(0x40)\n      dup1\n      swap2\n      sub\n      swap1\n      return\n        /* \"contracts/Tocken721.sol\":41834:41958  function renounceOwnership() public onlyOwner {\r... */\n    tag_17:\n      callvalue\n        /* \"--CODEGEN--\":8:17   */\n      dup1\n        /* \"--CODEGEN--\":5:7   */\n      iszero\n      tag_75\n      jumpi\n        /* \"--CODEGEN--\":30:31   */\n      0x0\n        /* \"--CODEGEN--\":27:28   */\n      dup1\n        /* \"--CODEGEN--\":20:32   */\n      revert\n        /* \"--CODEGEN--\":5:7   */\n    tag_75:\n        /* \"contracts/Tocken721.sol\":41834:41958  function renounceOwnership() public onlyOwner {\r... */\n      pop\n      tag_76\n      jump(tag_77)\n    tag_76:\n      stop\n        /* \"contracts/Tocken721.sol\":40791:40811  address public owner */\n    tag_18:\n      callvalue\n        /* \"--CODEGEN--\":8:17   */\n      dup1\n        /* \"--CODEGEN--\":5:7   */\n      iszero\n      tag_78\n      jumpi\n        /* \"--CODEGEN--\":30:31   */\n      0x0\n        /* \"--CODEGEN--\":27:28   */\n      dup1\n        /* \"--CODEGEN--\":20:32   */\n      revert\n        /* \"--CODEGEN--\":5:7   */\n    tag_78:\n        /* \"contracts/Tocken721.sol\":40791:40811  address public owner */\n      pop\n      tag_79\n      jump(tag_80)\n    tag_79:\n      mload(0x40)\n      dup1\n      dup3\n      0xffffffffffffffffffffffffffffffffffffffff\n      and\n      0xffffffffffffffffffffffffffffffffffffffff\n      and\n      dup2\n      mstore\n      0x20\n      add\n      swap2\n      pop\n      pop\n      mload(0x40)\n      dup1\n      swap2\n      sub\n      swap1\n      return\n        /* \"contracts/Tocken721.sol\":32389:32488  function symbol() external view returns (string) { // 심볼 함수\r... */\n    tag_19:\n      callvalue\n        /* \"--CODEGEN--\":8:17   */\n      dup1\n        /* \"--CODEGEN--\":5:7   */\n      iszero\n      tag_81\n      jumpi\n        /* \"--CODEGEN--\":30:31   */\n      0x0\n        /* \"--CODEGEN--\":27:28   */\n      dup1\n        /* \"--CODEGEN--\":20:32   */\n      revert\n        /* \"--CODEGEN--\":5:7   */\n    tag_81:\n        /* \"contracts/Tocken721.sol\":32389:32488  function symbol() external view returns (string) { // 심볼 함수\r... */\n      pop\n      tag_82\n      jump(tag_83)\n    tag_82:\n      mload(0x40)\n      dup1\n      dup1\n      0x20\n      add\n      dup3\n      dup2\n      sub\n      dup3\n      mstore\n      dup4\n      dup2\n      dup2\n      mload\n      dup2\n      mstore\n      0x20\n      add\n      swap2\n      pop\n      dup1\n      mload\n      swap1\n      0x20\n      add\n      swap1\n      dup1\n      dup4\n      dup4\n        /* \"--CODEGEN--\":23:24   */\n      0x0\n        /* \"--CODEGEN--\":8:108   */\n    tag_84:\n        /* \"--CODEGEN--\":33:36   */\n      dup4\n        /* \"--CODEGEN--\":30:31   */\n      dup2\n        /* \"--CODEGEN--\":27:37   */\n      lt\n        /* \"--CODEGEN--\":8:108   */\n      iszero\n      tag_85\n      jumpi\n        /* \"--CODEGEN--\":99:100   */\n      dup1\n        /* \"--CODEGEN--\":94:97   */\n      dup3\n        /* \"--CODEGEN--\":90:101   */\n      add\n        /* \"--CODEGEN--\":84:102   */\n      mload\n        /* \"--CODEGEN--\":80:81   */\n      dup2\n        /* \"--CODEGEN--\":75:78   */\n      dup5\n        /* \"--CODEGEN--\":71:82   */\n      add\n        /* \"--CODEGEN--\":64:103   */\n      mstore\n        /* \"--CODEGEN--\":52:54   */\n      0x20\n        /* \"--CODEGEN--\":49:50   */\n      dup2\n        /* \"--CODEGEN--\":45:55   */\n      add\n        /* \"--CODEGEN--\":40:55   */\n      swap1\n      pop\n        /* \"--CODEGEN--\":8:108   */\n      jump(tag_84)\n    tag_85:\n        /* \"--CODEGEN--\":12:26   */\n      pop\n        /* \"contracts/Tocken721.sol\":32389:32488  function symbol() external view returns (string) { // 심볼 함수\r... */\n      pop\n      pop\n      pop\n      swap1\n      pop\n      swap1\n      dup2\n      add\n      swap1\n      0x1f\n      and\n      dup1\n      iszero\n      tag_87\n      jumpi\n      dup1\n      dup3\n      sub\n      dup1\n      mload\n      0x1\n      dup4\n      0x20\n      sub\n      0x100\n      exp\n      sub\n      not\n      and\n      dup2\n      mstore\n      0x20\n      add\n      swap2\n      pop\n    tag_87:\n      pop\n      swap3\n      pop\n      pop\n      pop\n      mload(0x40)\n      dup1\n      swap2\n      sub\n      swap1\n      return\n        /* \"contracts/Tocken721.sol\":42083:42207  function mint(uint256 tokenId) onlyOwner public {\r... */\n    tag_20:\n      callvalue\n        /* \"--CODEGEN--\":8:17   */\n      dup1\n        /* \"--CODEGEN--\":5:7   */\n      iszero\n      tag_88\n      jumpi\n        /* \"--CODEGEN--\":30:31   */\n      0x0\n        /* \"--CODEGEN--\":27:28   */\n      dup1\n        /* \"--CODEGEN--\":20:32   */\n      revert\n        /* \"--CODEGEN--\":5:7   */\n    tag_88:\n        /* \"contracts/Tocken721.sol\":42083:42207  function mint(uint256 tokenId) onlyOwner public {\r... */\n      pop\n      tag_89\n      0x4\n      dup1\n      calldatasize\n      sub\n      dup2\n      add\n      swap1\n      dup1\n      dup1\n      calldataload\n      swap1\n      0x20\n      add\n      swap1\n      swap3\n      swap2\n      swap1\n      pop\n      pop\n      pop\n      jump(tag_90)\n    tag_89:\n      stop\n        /* \"contracts/Tocken721.sol\":16156:16474  function setApprovalForAll(address _to, bool _approved) public {\r... */\n    tag_21:\n      callvalue\n        /* \"--CODEGEN--\":8:17   */\n      dup1\n        /* \"--CODEGEN--\":5:7   */\n      iszero\n      tag_91\n      jumpi\n        /* \"--CODEGEN--\":30:31   */\n      0x0\n        /* \"--CODEGEN--\":27:28   */\n      dup1\n        /* \"--CODEGEN--\":20:32   */\n      revert\n        /* \"--CODEGEN--\":5:7   */\n    tag_91:\n        /* \"contracts/Tocken721.sol\":16156:16474  function setApprovalForAll(address _to, bool _approved) public {\r... */\n      pop\n      tag_92\n      0x4\n      dup1\n      calldatasize\n      sub\n      dup2\n      add\n      swap1\n      dup1\n      dup1\n      calldataload\n      0xffffffffffffffffffffffffffffffffffffffff\n      and\n      swap1\n      0x20\n      add\n      swap1\n      swap3\n      swap2\n      swap1\n      dup1\n      calldataload\n      iszero\n      iszero\n      swap1\n      0x20\n      add\n      swap1\n      swap3\n      swap2\n      swap1\n      pop\n      pop\n      pop\n      jump(tag_93)\n    tag_92:\n      stop\n        /* \"contracts/Tocken721.sol\":19893:20394  function safeTransferFrom(\r... */\n    tag_22:\n      callvalue\n        /* \"--CODEGEN--\":8:17   */\n      dup1\n        /* \"--CODEGEN--\":5:7   */\n      iszero\n      tag_94\n      jumpi\n        /* \"--CODEGEN--\":30:31   */\n      0x0\n        /* \"--CODEGEN--\":27:28   */\n      dup1\n        /* \"--CODEGEN--\":20:32   */\n      revert\n        /* \"--CODEGEN--\":5:7   */\n    tag_94:\n        /* \"contracts/Tocken721.sol\":19893:20394  function safeTransferFrom(\r... */\n      pop\n      tag_95\n      0x4\n      dup1\n      calldatasize\n      sub\n      dup2\n      add\n      swap1\n      dup1\n      dup1\n      calldataload\n      0xffffffffffffffffffffffffffffffffffffffff\n      and\n      swap1\n      0x20\n      add\n      swap1\n      swap3\n      swap2\n      swap1\n      dup1\n      calldataload\n      0xffffffffffffffffffffffffffffffffffffffff\n      and\n      swap1\n      0x20\n      add\n      swap1\n      swap3\n      swap2\n      swap1\n      dup1\n      calldataload\n      swap1\n      0x20\n      add\n      swap1\n      swap3\n      swap2\n      swap1\n      dup1\n      calldataload\n      swap1\n      0x20\n      add\n      swap1\n      dup3\n      add\n      dup1\n      calldataload\n      swap1\n      0x20\n      add\n      swap1\n      dup1\n      dup1\n      0x1f\n      add\n      0x20\n      dup1\n      swap2\n      div\n      mul\n      0x20\n      add\n      mload(0x40)\n      swap1\n      dup2\n      add\n      0x40\n      mstore\n      dup1\n      swap4\n      swap3\n      swap2\n      swap1\n      dup2\n      dup2\n      mstore\n      0x20\n      add\n      dup4\n      dup4\n      dup1\n      dup3\n      dup5\n      calldatacopy\n      dup3\n      add\n      swap2\n      pop\n      pop\n      pop\n      pop\n      pop\n      pop\n      swap2\n      swap3\n      swap2\n      swap3\n      swap1\n      pop\n      pop\n      pop\n      jump(tag_96)\n    tag_95:\n      stop\n        /* \"contracts/Tocken721.sol\":32700:32911  function tokenURI(uint256 _tokenId) public view returns (string) {\r... */\n    tag_23:\n      callvalue\n        /* \"--CODEGEN--\":8:17   */\n      dup1\n        /* \"--CODEGEN--\":5:7   */\n      iszero\n      tag_97\n      jumpi\n        /* \"--CODEGEN--\":30:31   */\n      0x0\n        /* \"--CODEGEN--\":27:28   */\n      dup1\n        /* \"--CODEGEN--\":20:32   */\n      revert\n        /* \"--CODEGEN--\":5:7   */\n    tag_97:\n        /* \"contracts/Tocken721.sol\":32700:32911  function tokenURI(uint256 _tokenId) public view returns (string) {\r... */\n      pop\n      tag_98\n      0x4\n      dup1\n      calldatasize\n      sub\n      dup2\n      add\n      swap1\n      dup1\n      dup1\n      calldataload\n      swap1\n      0x20\n      add\n      swap1\n      swap3\n      swap2\n      swap1\n      pop\n      pop\n      pop\n      jump(tag_99)\n    tag_98:\n      mload(0x40)\n      dup1\n      dup1\n      0x20\n      add\n      dup3\n      dup2\n      sub\n      dup3\n      mstore\n      dup4\n      dup2\n      dup2\n      mload\n      dup2\n      mstore\n      0x20\n      add\n      swap2\n      pop\n      dup1\n      mload\n      swap1\n      0x20\n      add\n      swap1\n      dup1\n      dup4\n      dup4\n        /* \"--CODEGEN--\":23:24   */\n      0x0\n        /* \"--CODEGEN--\":8:108   */\n    tag_100:\n        /* \"--CODEGEN--\":33:36   */\n      dup4\n        /* \"--CODEGEN--\":30:31   */\n      dup2\n        /* \"--CODEGEN--\":27:37   */\n      lt\n        /* \"--CODEGEN--\":8:108   */\n      iszero\n      tag_101\n      jumpi\n        /* \"--CODEGEN--\":99:100   */\n      dup1\n        /* \"--CODEGEN--\":94:97   */\n      dup3\n        /* \"--CODEGEN--\":90:101   */\n      add\n        /* \"--CODEGEN--\":84:102   */\n      mload\n        /* \"--CODEGEN--\":80:81   */\n      dup2\n        /* \"--CODEGEN--\":75:78   */\n      dup5\n        /* \"--CODEGEN--\":71:82   */\n      add\n        /* \"--CODEGEN--\":64:103   */\n      mstore\n        /* \"--CODEGEN--\":52:54   */\n      0x20\n        /* \"--CODEGEN--\":49:50   */\n      dup2\n        /* \"--CODEGEN--\":45:55   */\n      add\n        /* \"--CODEGEN--\":40:55   */\n      swap1\n      pop\n        /* \"--CODEGEN--\":8:108   */\n      jump(tag_100)\n    tag_101:\n        /* \"--CODEGEN--\":12:26   */\n      pop\n        /* \"contracts/Tocken721.sol\":32700:32911  function tokenURI(uint256 _tokenId) public view returns (string) {\r... */\n      pop\n      pop\n      pop\n      swap1\n      pop\n      swap1\n      dup2\n      add\n      swap1\n      0x1f\n      and\n      dup1\n      iszero\n      tag_103\n      jumpi\n      dup1\n      dup3\n      sub\n      dup1\n      mload\n      0x1\n      dup4\n      0x20\n      sub\n      0x100\n      exp\n      sub\n      not\n      and\n      dup2\n      mstore\n      0x20\n      add\n      swap2\n      pop\n    tag_103:\n      pop\n      swap3\n      pop\n      pop\n      pop\n      mload(0x40)\n      dup1\n      swap2\n      sub\n      swap1\n      return\n        /* \"contracts/Tocken721.sol\":16805:17082  function isApprovedForAll(\r... */\n    tag_24:\n      callvalue\n        /* \"--CODEGEN--\":8:17   */\n      dup1\n        /* \"--CODEGEN--\":5:7   */\n      iszero\n      tag_104\n      jumpi\n        /* \"--CODEGEN--\":30:31   */\n      0x0\n        /* \"--CODEGEN--\":27:28   */\n      dup1\n        /* \"--CODEGEN--\":20:32   */\n      revert\n        /* \"--CODEGEN--\":5:7   */\n    tag_104:\n        /* \"contracts/Tocken721.sol\":16805:17082  function isApprovedForAll(\r... */\n      pop\n      tag_105\n      0x4\n      dup1\n      calldatasize\n      sub\n      dup2\n      add\n      swap1\n      dup1\n      dup1\n      calldataload\n      0xffffffffffffffffffffffffffffffffffffffff\n      and\n      swap1\n      0x20\n      add\n      swap1\n      swap3\n      swap2\n      swap1\n      dup1\n      calldataload\n      0xffffffffffffffffffffffffffffffffffffffff\n      and\n      swap1\n      0x20\n      add\n      swap1\n      swap3\n      swap2\n      swap1\n      pop\n      pop\n      pop\n      jump(tag_106)\n    tag_105:\n      mload(0x40)\n      dup1\n      dup3\n      iszero\n      iszero\n      iszero\n      iszero\n      dup2\n      mstore\n      0x20\n      add\n      swap2\n      pop\n      pop\n      mload(0x40)\n      dup1\n      swap2\n      sub\n      swap1\n      return\n        /* \"contracts/Tocken721.sol\":41539:41731  function transferOwnership(address newOwner) public onlyOwner {\r... */\n    tag_25:\n      callvalue\n        /* \"--CODEGEN--\":8:17   */\n      dup1\n        /* \"--CODEGEN--\":5:7   */\n      iszero\n      tag_107\n      jumpi\n        /* \"--CODEGEN--\":30:31   */\n      0x0\n        /* \"--CODEGEN--\":27:28   */\n      dup1\n        /* \"--CODEGEN--\":20:32   */\n      revert\n        /* \"--CODEGEN--\":5:7   */\n    tag_107:\n        /* \"contracts/Tocken721.sol\":41539:41731  function transferOwnership(address newOwner) public onlyOwner {\r... */\n      pop\n      tag_108\n      0x4\n      dup1\n      calldatasize\n      sub\n      dup2\n      add\n      swap1\n      dup1\n      dup1\n      calldataload\n      0xffffffffffffffffffffffffffffffffffffffff\n      and\n      swap1\n      0x20\n      add\n      swap1\n      swap3\n      swap2\n      swap1\n      pop\n      pop\n      pop\n      jump(tag_109)\n    tag_108:\n      stop\n        /* \"contracts/Tocken721.sol\":1902:2058  function supportsInterface(bytes4 _interfaceId)\r... */\n    tag_28:\n        /* \"contracts/Tocken721.sol\":1988:1992  bool */\n      0x0\n        /* \"contracts/Tocken721.sol\":2017:2036  supportedInterfaces */\n      dup1\n        /* \"contracts/Tocken721.sol\":2017:2050  supportedInterfaces[_interfaceId] */\n      0x0\n        /* \"contracts/Tocken721.sol\":2037:2049  _interfaceId */\n      dup4\n        /* \"contracts/Tocken721.sol\":2017:2050  supportedInterfaces[_interfaceId] */\n      not(0xffffffffffffffffffffffffffffffffffffffffffffffffffffffff)\n      and\n      not(0xffffffffffffffffffffffffffffffffffffffffffffffffffffffff)\n      and\n      dup2\n      mstore\n      0x20\n      add\n      swap1\n      dup2\n      mstore\n      0x20\n      add\n      0x0\n      keccak256\n      0x0\n      swap1\n      sload\n      swap1\n      0x100\n      exp\n      swap1\n      div\n      0xff\n      and\n        /* \"contracts/Tocken721.sol\":2010:2050  return supportedInterfaces[_interfaceId] */\n      swap1\n      pop\n        /* \"contracts/Tocken721.sol\":1902:2058  function supportsInterface(bytes4 _interfaceId)\r... */\n      swap2\n      swap1\n      pop\n      jump\t// out\n        /* \"contracts/Tocken721.sol\":32182:32275  function name() external view returns (string) { // name 함수\r... */\n    tag_31:\n        /* \"contracts/Tocken721.sol\":32221:32227  string */\n      0x60\n        /* \"contracts/Tocken721.sol\":32262:32267  name_ */\n      0x5\n        /* \"contracts/Tocken721.sol\":32255:32267  return name_ */\n      dup1\n      sload\n      0x1\n      dup2\n      0x1\n      and\n      iszero\n      0x100\n      mul\n      sub\n      and\n      0x2\n      swap1\n      div\n      dup1\n      0x1f\n      add\n      0x20\n      dup1\n      swap2\n      div\n      mul\n      0x20\n      add\n      mload(0x40)\n      swap1\n      dup2\n      add\n      0x40\n      mstore\n      dup1\n      swap3\n      swap2\n      swap1\n      dup2\n      dup2\n      mstore\n      0x20\n      add\n      dup3\n      dup1\n      sload\n      0x1\n      dup2\n      0x1\n      and\n      iszero\n      0x100\n      mul\n      sub\n      and\n      0x2\n      swap1\n      div\n      dup1\n      iszero\n      tag_112\n      jumpi\n      dup1\n      0x1f\n      lt\n      tag_113\n      jumpi\n      0x100\n      dup1\n      dup4\n      sload\n      div\n      mul\n      dup4\n      mstore\n      swap2\n      0x20\n      add\n      swap2\n      jump(tag_112)\n    tag_113:\n      dup3\n      add\n      swap2\n      swap1\n      0x0\n      mstore\n      keccak256(0x0, 0x20)\n      swap1\n    tag_114:\n      dup2\n      sload\n      dup2\n      mstore\n      swap1\n      0x1\n      add\n      swap1\n      0x20\n      add\n      dup1\n      dup4\n      gt\n      tag_114\n      jumpi\n      dup3\n      swap1\n      sub\n      0x1f\n      and\n      dup3\n      add\n      swap2\n    tag_112:\n      pop\n      pop\n      pop\n      pop\n      pop\n      swap1\n      pop\n        /* \"contracts/Tocken721.sol\":32182:32275  function name() external view returns (string) { // name 함수\r... */\n      swap1\n      jump\t// out\n        /* \"contracts/Tocken721.sol\":15696:15849  function getApproved(uint256 _tokenId) public view returns (address) {\r... */\n    tag_38:\n        /* \"contracts/Tocken721.sol\":15756:15763  address */\n      0x0\n        /* \"contracts/Tocken721.sol\":15783:15797  tokenApprovals */\n      0x2\n        /* \"contracts/Tocken721.sol\":15783:15807  tokenApprovals[_tokenId] */\n      0x0\n        /* \"contracts/Tocken721.sol\":15798:15806  _tokenId */\n      dup4\n        /* \"contracts/Tocken721.sol\":15783:15807  tokenApprovals[_tokenId] */\n      dup2\n      mstore\n      0x20\n      add\n      swap1\n      dup2\n      mstore\n      0x20\n      add\n      0x0\n      keccak256\n      0x0\n      swap1\n      sload\n      swap1\n      0x100\n      exp\n      swap1\n      div\n      0xffffffffffffffffffffffffffffffffffffffff\n      and\n        /* \"contracts/Tocken721.sol\":15776:15807  return tokenApprovals[_tokenId] */\n      swap1\n      pop\n        /* \"contracts/Tocken721.sol\":15696:15849  function getApproved(uint256 _tokenId) public view returns (address) {\r... */\n      swap2\n      swap1\n      pop\n      jump\t// out\n        /* \"contracts/Tocken721.sol\":14753:15450  function approve(address _to, uint256 _tokenId) public {\r... */\n    tag_41:\n        /* \"contracts/Tocken721.sol\":14819:14832  address owner */\n      0x0\n        /* \"contracts/Tocken721.sol\":14835:14852  ownerOf(_tokenId) */\n      tag_117\n        /* \"contracts/Tocken721.sol\":14843:14851  _tokenId */\n      dup3\n        /* \"contracts/Tocken721.sol\":14835:14842  ownerOf */\n      tag_71\n        /* \"contracts/Tocken721.sol\":14835:14852  ownerOf(_tokenId) */\n      jump\t// in\n    tag_117:\n        /* \"contracts/Tocken721.sol\":14819:14852  address owner = ownerOf(_tokenId) */\n      swap1\n      pop\n        /* \"contracts/Tocken721.sol\":14878:14883  owner */\n      dup1\n        /* \"contracts/Tocken721.sol\":14871:14883  _to != owner */\n      0xffffffffffffffffffffffffffffffffffffffff\n      and\n        /* \"contracts/Tocken721.sol\":14871:14874  _to */\n      dup4\n        /* \"contracts/Tocken721.sol\":14871:14883  _to != owner */\n      0xffffffffffffffffffffffffffffffffffffffff\n      and\n      eq\n      iszero\n        /* \"contracts/Tocken721.sol\":14863:14884  require(_to != owner) */\n      iszero\n      iszero\n      tag_118\n      jumpi\n      0x0\n      dup1\n      revert\n    tag_118:\n        /* \"contracts/Tocken721.sol\":14954:14959  owner */\n      dup1\n        /* \"contracts/Tocken721.sol\":14940:14959  msg.sender == owner */\n      0xffffffffffffffffffffffffffffffffffffffff\n      and\n        /* \"contracts/Tocken721.sol\":14940:14950  msg.sender */\n      caller\n        /* \"contracts/Tocken721.sol\":14940:14959  msg.sender == owner */\n      0xffffffffffffffffffffffffffffffffffffffff\n      and\n      eq\n        /* \"contracts/Tocken721.sol\":14940:14998  msg.sender == owner || isApprovedForAll(owner, msg.sender) */\n      dup1\n      tag_119\n      jumpi\n      pop\n        /* \"contracts/Tocken721.sol\":14963:14998  isApprovedForAll(owner, msg.sender) */\n      tag_120\n        /* \"contracts/Tocken721.sol\":14980:14985  owner */\n      dup2\n        /* \"contracts/Tocken721.sol\":14987:14997  msg.sender */\n      caller\n        /* \"contracts/Tocken721.sol\":14963:14979  isApprovedForAll */\n      tag_106\n        /* \"contracts/Tocken721.sol\":14963:14998  isApprovedForAll(owner, msg.sender) */\n      jump\t// in\n    tag_120:\n        /* \"contracts/Tocken721.sol\":14940:14998  msg.sender == owner || isApprovedForAll(owner, msg.sender) */\n    tag_119:\n        /* \"contracts/Tocken721.sol\":14932:14999  require(msg.sender == owner || isApprovedForAll(owner, msg.sender)) */\n      iszero\n      iszero\n      tag_121\n      jumpi\n      0x0\n      dup1\n      revert\n    tag_121:\n        /* \"contracts/Tocken721.sol\":15105:15106  0 */\n      0x0\n        /* \"contracts/Tocken721.sol\":15072:15107  getApproved(_tokenId) != address(0) */\n      0xffffffffffffffffffffffffffffffffffffffff\n      and\n        /* \"contracts/Tocken721.sol\":15072:15093  getApproved(_tokenId) */\n      tag_122\n        /* \"contracts/Tocken721.sol\":15084:15092  _tokenId */\n      dup4\n        /* \"contracts/Tocken721.sol\":15072:15083  getApproved */\n      tag_38\n        /* \"contracts/Tocken721.sol\":15072:15093  getApproved(_tokenId) */\n      jump\t// in\n    tag_122:\n        /* \"contracts/Tocken721.sol\":15072:15107  getApproved(_tokenId) != address(0) */\n      0xffffffffffffffffffffffffffffffffffffffff\n      and\n      eq\n      iszero\n        /* \"contracts/Tocken721.sol\":15072:15128  getApproved(_tokenId) != address(0) || _to != address(0) */\n      dup1\n      tag_123\n      jumpi\n      pop\n        /* \"contracts/Tocken721.sol\":15126:15127  0 */\n      0x0\n        /* \"contracts/Tocken721.sol\":15111:15128  _to != address(0) */\n      0xffffffffffffffffffffffffffffffffffffffff\n      and\n        /* \"contracts/Tocken721.sol\":15111:15114  _to */\n      dup4\n        /* \"contracts/Tocken721.sol\":15111:15128  _to != address(0) */\n      0xffffffffffffffffffffffffffffffffffffffff\n      and\n      eq\n      iszero\n        /* \"contracts/Tocken721.sol\":15072:15128  getApproved(_tokenId) != address(0) || _to != address(0) */\n    tag_123:\n        /* \"contracts/Tocken721.sol\":15068:15443  if (getApproved(_tokenId) != address(0) || _to != address(0)) { // _tokenId 가 0 이 아니거나 _to 가 0 이 아님을 체크 (_tokenId 가 0 인 경우에는 _to 에 0 을 입력하여 초기화할 수 있음)\r... */\n      iszero\n      tag_124\n      jumpi\n        /* \"contracts/Tocken721.sol\":15323:15326  _to */\n      dup3\n        /* \"contracts/Tocken721.sol\":15296:15310  tokenApprovals */\n      0x2\n        /* \"contracts/Tocken721.sol\":15296:15320  tokenApprovals[_tokenId] */\n      0x0\n        /* \"contracts/Tocken721.sol\":15311:15319  _tokenId */\n      dup5\n        /* \"contracts/Tocken721.sol\":15296:15320  tokenApprovals[_tokenId] */\n      dup2\n      mstore\n      0x20\n      add\n      swap1\n      dup2\n      mstore\n      0x20\n      add\n      0x0\n      keccak256\n      0x0\n        /* \"contracts/Tocken721.sol\":15296:15326  tokenApprovals[_tokenId] = _to */\n      0x100\n      exp\n      dup2\n      sload\n      dup2\n      0xffffffffffffffffffffffffffffffffffffffff\n      mul\n      not\n      and\n      swap1\n      dup4\n      0xffffffffffffffffffffffffffffffffffffffff\n      and\n      mul\n      or\n      swap1\n      sstore\n      pop\n        /* \"contracts/Tocken721.sol\":15402:15410  _tokenId */\n      dup2\n        /* \"contracts/Tocken721.sol\":15397:15400  _to */\n      dup4\n        /* \"contracts/Tocken721.sol\":15381:15411  Approval(owner, _to, _tokenId) */\n      0xffffffffffffffffffffffffffffffffffffffff\n      and\n        /* \"contracts/Tocken721.sol\":15390:15395  owner */\n      dup3\n        /* \"contracts/Tocken721.sol\":15381:15411  Approval(owner, _to, _tokenId) */\n      0xffffffffffffffffffffffffffffffffffffffff\n      and\n      0x8c5be1e5ebec7d5bd14f71427d1e84f3dd0314c0f7b2291e5b200ac8c7c3b925\n      mload(0x40)\n      mload(0x40)\n      dup1\n      swap2\n      sub\n      swap1\n      log4\n        /* \"contracts/Tocken721.sol\":15068:15443  if (getApproved(_tokenId) != address(0) || _to != address(0)) { // _tokenId 가 0 이 아니거나 _to 가 0 이 아님을 체크 (_tokenId 가 0 인 경우에는 _to 에 0 을 입력하여 초기화할 수 있음)\r... */\n    tag_124:\n        /* \"contracts/Tocken721.sol\":14753:15450  function approve(address _to, uint256 _tokenId) public {\r... */\n      pop\n      pop\n      pop\n      jump\t// out\n        /* \"contracts/Tocken721.sol\":42333:42445  function setTokenURI(uint256 tokenId, string uri) onlyOwner public {\r... */\n    tag_44:\n        /* \"contracts/Tocken721.sol\":41336:41341  owner */\n      0xc\n      0x0\n      swap1\n      sload\n      swap1\n      0x100\n      exp\n      swap1\n      div\n      0xffffffffffffffffffffffffffffffffffffffff\n      and\n        /* \"contracts/Tocken721.sol\":41322:41341  msg.sender == owner */\n      0xffffffffffffffffffffffffffffffffffffffff\n      and\n        /* \"contracts/Tocken721.sol\":41322:41332  msg.sender */\n      caller\n        /* \"contracts/Tocken721.sol\":41322:41341  msg.sender == owner */\n      0xffffffffffffffffffffffffffffffffffffffff\n      and\n      eq\n        /* \"contracts/Tocken721.sol\":41314:41342  require(msg.sender == owner) */\n      iszero\n      iszero\n      tag_126\n      jumpi\n      0x0\n      dup1\n      revert\n    tag_126:\n        /* \"contracts/Tocken721.sol\":42411:42437  _setTokenURI(tokenId, uri) */\n      tag_128\n        /* \"contracts/Tocken721.sol\":42424:42431  tokenId */\n      dup3\n        /* \"contracts/Tocken721.sol\":42433:42436  uri */\n      dup3\n        /* \"contracts/Tocken721.sol\":42411:42423  _setTokenURI */\n      tag_129\n        /* \"contracts/Tocken721.sol\":42411:42437  _setTokenURI(tokenId, uri) */\n      jump\t// in\n    tag_128:\n        /* \"contracts/Tocken721.sol\":42333:42445  function setTokenURI(uint256 tokenId, string uri) onlyOwner public {\r... */\n      pop\n      pop\n      jump\t// out\n        /* \"contracts/Tocken721.sol\":33795:33968  function totalSupply() public view returns (uint256) {\r... */\n    tag_47:\n        /* \"contracts/Tocken721.sol\":33839:33846  uint256 */\n      0x0\n        /* \"contracts/Tocken721.sol\":33866:33875  allTokens */\n      0x9\n        /* \"contracts/Tocken721.sol\":33866:33882  allTokens.length */\n      dup1\n      sload\n      swap1\n      pop\n        /* \"contracts/Tocken721.sol\":33859:33882  return allTokens.length */\n      swap1\n      pop\n        /* \"contracts/Tocken721.sol\":33795:33968  function totalSupply() public view returns (uint256) {\r... */\n      swap1\n      jump\t// out\n        /* \"contracts/Tocken721.sol\":1189:1243  bytes4 public constant InterfaceId_ERC165 = 0x01ffc9a7 */\n    tag_50:\n        /* \"contracts/Tocken721.sol\":1233:1243  0x01ffc9a7 */\n      0x1ffc9a7\n        /* \"contracts/Tocken721.sol\":1189:1243  bytes4 public constant InterfaceId_ERC165 = 0x01ffc9a7 */\n      0x100000000000000000000000000000000000000000000000000000000\n      mul\n      dup2\n      jump\t// out\n        /* \"contracts/Tocken721.sol\":17542:18141  function transferFrom(\r... */\n    tag_53:\n        /* \"contracts/Tocken721.sol\":17673:17681  _tokenId */\n      dup1\n        /* \"contracts/Tocken721.sol\":12725:12764  isApprovedOrOwner(msg.sender, _tokenId) */\n      tag_132\n        /* \"contracts/Tocken721.sol\":12743:12753  msg.sender */\n      caller\n        /* \"contracts/Tocken721.sol\":12755:12763  _tokenId */\n      dup3\n        /* \"contracts/Tocken721.sol\":12725:12742  isApprovedOrOwner */\n      tag_133\n        /* \"contracts/Tocken721.sol\":12725:12764  isApprovedOrOwner(msg.sender, _tokenId) */\n      jump\t// in\n    tag_132:\n        /* \"contracts/Tocken721.sol\":12717:12765  require(isApprovedOrOwner(msg.sender, _tokenId)) */\n      iszero\n      iszero\n      tag_134\n      jumpi\n      0x0\n      dup1\n      revert\n    tag_134:\n        /* \"contracts/Tocken721.sol\":17766:17767  0 */\n      0x0\n        /* \"contracts/Tocken721.sol\":17749:17768  _from != address(0) */\n      0xffffffffffffffffffffffffffffffffffffffff\n      and\n        /* \"contracts/Tocken721.sol\":17749:17754  _from */\n      dup5\n        /* \"contracts/Tocken721.sol\":17749:17768  _from != address(0) */\n      0xffffffffffffffffffffffffffffffffffffffff\n      and\n      eq\n      iszero\n        /* \"contracts/Tocken721.sol\":17741:17769  require(_from != address(0)) */\n      iszero\n      iszero\n      tag_136\n      jumpi\n      0x0\n      dup1\n      revert\n    tag_136:\n        /* \"contracts/Tocken721.sol\":17832:17833  0 */\n      0x0\n        /* \"contracts/Tocken721.sol\":17817:17834  _to != address(0) */\n      0xffffffffffffffffffffffffffffffffffffffff\n      and\n        /* \"contracts/Tocken721.sol\":17817:17820  _to */\n      dup4\n        /* \"contracts/Tocken721.sol\":17817:17834  _to != address(0) */\n      0xffffffffffffffffffffffffffffffffffffffff\n      and\n      eq\n      iszero\n        /* \"contracts/Tocken721.sol\":17809:17835  require(_to != address(0)) */\n      iszero\n      iszero\n      tag_137\n      jumpi\n      0x0\n      dup1\n      revert\n    tag_137:\n        /* \"contracts/Tocken721.sol\":17877:17907  clearApproval(_from, _tokenId) */\n      tag_138\n        /* \"contracts/Tocken721.sol\":17891:17896  _from */\n      dup5\n        /* \"contracts/Tocken721.sol\":17898:17906  _tokenId */\n      dup4\n        /* \"contracts/Tocken721.sol\":17877:17890  clearApproval */\n      tag_139\n        /* \"contracts/Tocken721.sol\":17877:17907  clearApproval(_from, _tokenId) */\n      jump\t// in\n    tag_138:\n        /* \"contracts/Tocken721.sol\":17944:17976  removeTokenFrom(_from, _tokenId) */\n      tag_140\n        /* \"contracts/Tocken721.sol\":17960:17965  _from */\n      dup5\n        /* \"contracts/Tocken721.sol\":17967:17975  _tokenId */\n      dup4\n        /* \"contracts/Tocken721.sol\":17944:17959  removeTokenFrom */\n      tag_141\n        /* \"contracts/Tocken721.sol\":17944:17976  removeTokenFrom(_from, _tokenId) */\n      jump\t// in\n    tag_140:\n        /* \"contracts/Tocken721.sol\":18014:18039  addTokenTo(_to, _tokenId) */\n      tag_142\n        /* \"contracts/Tocken721.sol\":18025:18028  _to */\n      dup4\n        /* \"contracts/Tocken721.sol\":18030:18038  _tokenId */\n      dup4\n        /* \"contracts/Tocken721.sol\":18014:18024  addTokenTo */\n      tag_143\n        /* \"contracts/Tocken721.sol\":18014:18039  addTokenTo(_to, _tokenId) */\n      jump\t// in\n    tag_142:\n        /* \"contracts/Tocken721.sol\":18104:18112  _tokenId */\n      dup2\n        /* \"contracts/Tocken721.sol\":18099:18102  _to */\n      dup4\n        /* \"contracts/Tocken721.sol\":18083:18113  Transfer(_from, _to, _tokenId) */\n      0xffffffffffffffffffffffffffffffffffffffff\n      and\n        /* \"contracts/Tocken721.sol\":18092:18097  _from */\n      dup6\n        /* \"contracts/Tocken721.sol\":18083:18113  Transfer(_from, _to, _tokenId) */\n      0xffffffffffffffffffffffffffffffffffffffff\n      and\n      0xddf252ad1be2c89b69c2b068fc378daa952ba7f163c4a11628f55a4df523b3ef\n      mload(0x40)\n      mload(0x40)\n      dup1\n      swap2\n      sub\n      swap1\n      log4\n        /* \"contracts/Tocken721.sol\":17542:18141  function transferFrom(\r... */\n      pop\n      pop\n      pop\n      pop\n      jump\t// out\n        /* \"contracts/Tocken721.sol\":33300:33631  function tokenOfOwnerByIndex(\r... */\n    tag_56:\n        /* \"contracts/Tocken721.sol\":33422:33429  uint256 */\n      0x0\n        /* \"contracts/Tocken721.sol\":33464:33481  balanceOf(_owner) */\n      tag_145\n        /* \"contracts/Tocken721.sol\":33474:33480  _owner */\n      dup4\n        /* \"contracts/Tocken721.sol\":33464:33473  balanceOf */\n      tag_74\n        /* \"contracts/Tocken721.sol\":33464:33481  balanceOf(_owner) */\n      jump\t// in\n    tag_145:\n        /* \"contracts/Tocken721.sol\":33455:33461  _index */\n      dup3\n        /* \"contracts/Tocken721.sol\":33455:33481  _index < balanceOf(_owner) */\n      lt\n        /* \"contracts/Tocken721.sol\":33447:33482  require(_index < balanceOf(_owner)) */\n      iszero\n      iszero\n      tag_146\n      jumpi\n      0x0\n      dup1\n      revert\n    tag_146:\n        /* \"contracts/Tocken721.sol\":33548:33559  ownedTokens */\n      0x7\n        /* \"contracts/Tocken721.sol\":33548:33567  ownedTokens[_owner] */\n      0x0\n        /* \"contracts/Tocken721.sol\":33560:33566  _owner */\n      dup5\n        /* \"contracts/Tocken721.sol\":33548:33567  ownedTokens[_owner] */\n      0xffffffffffffffffffffffffffffffffffffffff\n      and\n      0xffffffffffffffffffffffffffffffffffffffff\n      and\n      dup2\n      mstore\n      0x20\n      add\n      swap1\n      dup2\n      mstore\n      0x20\n      add\n      0x0\n      keccak256\n        /* \"contracts/Tocken721.sol\":33568:33574  _index */\n      dup3\n        /* \"contracts/Tocken721.sol\":33548:33575  ownedTokens[_owner][_index] */\n      dup2\n      sload\n      dup2\n      lt\n      iszero\n      iszero\n      tag_147\n      jumpi\n      invalid\n    tag_147:\n      swap1\n      0x0\n      mstore\n      keccak256(0x0, 0x20)\n      add\n      sload\n        /* \"contracts/Tocken721.sol\":33541:33575  return ownedTokens[_owner][_index] */\n      swap1\n      pop\n        /* \"contracts/Tocken721.sol\":33300:33631  function tokenOfOwnerByIndex(\r... */\n      swap3\n      swap2\n      pop\n      pop\n      jump\t// out\n        /* \"contracts/Tocken721.sol\":18798:19166  function safeTransferFrom(\r... */\n    tag_59:\n        /* \"contracts/Tocken721.sol\":18933:18941  _tokenId */\n      dup1\n        /* \"contracts/Tocken721.sol\":12725:12764  isApprovedOrOwner(msg.sender, _tokenId) */\n      tag_150\n        /* \"contracts/Tocken721.sol\":12743:12753  msg.sender */\n      caller\n        /* \"contracts/Tocken721.sol\":12755:12763  _tokenId */\n      dup3\n        /* \"contracts/Tocken721.sol\":12725:12742  isApprovedOrOwner */\n      tag_133\n        /* \"contracts/Tocken721.sol\":12725:12764  isApprovedOrOwner(msg.sender, _tokenId) */\n      jump\t// in\n    tag_150:\n        /* \"contracts/Tocken721.sol\":12717:12765  require(isApprovedOrOwner(msg.sender, _tokenId)) */\n      iszero\n      iszero\n      tag_151\n      jumpi\n      0x0\n      dup1\n      revert\n    tag_151:\n        /* \"contracts/Tocken721.sol\":19051:19093  safeTransferFrom(_from, _to, _tokenId, \"\") */\n      tag_153\n        /* \"contracts/Tocken721.sol\":19068:19073  _from */\n      dup5\n        /* \"contracts/Tocken721.sol\":19075:19078  _to */\n      dup5\n        /* \"contracts/Tocken721.sol\":19080:19088  _tokenId */\n      dup5\n        /* \"contracts/Tocken721.sol\":19051:19093  safeTransferFrom(_from, _to, _tokenId, \"\") */\n      0x20\n      mload(0x40)\n      swap1\n      dup2\n      add\n      0x40\n      mstore\n      dup1\n      0x0\n      dup2\n      mstore\n      pop\n        /* \"contracts/Tocken721.sol\":19051:19067  safeTransferFrom */\n      tag_96\n        /* \"contracts/Tocken721.sol\":19051:19093  safeTransferFrom(_from, _to, _tokenId, \"\") */\n      jump\t// in\n    tag_153:\n        /* \"contracts/Tocken721.sol\":18798:19166  function safeTransferFrom(\r... */\n      pop\n      pop\n      pop\n      pop\n      jump\t// out\n        /* \"contracts/Tocken721.sol\":42215:42325  function burn(uint256 tokenId) onlyOwnerOf(tokenId) public {\r... */\n    tag_62:\n        /* \"contracts/Tocken721.sol\":42258:42265  tokenId */\n      dup1\n        /* \"contracts/Tocken721.sol\":12436:12446  msg.sender */\n      caller\n        /* \"contracts/Tocken721.sol\":12415:12446  ownerOf(_tokenId) == msg.sender */\n      0xffffffffffffffffffffffffffffffffffffffff\n      and\n        /* \"contracts/Tocken721.sol\":12415:12432  ownerOf(_tokenId) */\n      tag_155\n        /* \"contracts/Tocken721.sol\":12423:12431  _tokenId */\n      dup3\n        /* \"contracts/Tocken721.sol\":12415:12422  ownerOf */\n      tag_71\n        /* \"contracts/Tocken721.sol\":12415:12432  ownerOf(_tokenId) */\n      jump\t// in\n    tag_155:\n        /* \"contracts/Tocken721.sol\":12415:12446  ownerOf(_tokenId) == msg.sender */\n      0xffffffffffffffffffffffffffffffffffffffff\n      and\n      eq\n        /* \"contracts/Tocken721.sol\":12407:12447  require(ownerOf(_tokenId) == msg.sender) */\n      iszero\n      iszero\n      tag_156\n      jumpi\n      0x0\n      dup1\n      revert\n    tag_156:\n        /* \"contracts/Tocken721.sol\":42285:42317  _burn(ownerOf(tokenId), tokenId) */\n      tag_158\n        /* \"contracts/Tocken721.sol\":42291:42307  ownerOf(tokenId) */\n      tag_159\n        /* \"contracts/Tocken721.sol\":42299:42306  tokenId */\n      dup4\n        /* \"contracts/Tocken721.sol\":42291:42298  ownerOf */\n      tag_71\n        /* \"contracts/Tocken721.sol\":42291:42307  ownerOf(tokenId) */\n      jump\t// in\n    tag_159:\n        /* \"contracts/Tocken721.sol\":42309:42316  tokenId */\n      dup4\n        /* \"contracts/Tocken721.sol\":42285:42290  _burn */\n      tag_160\n        /* \"contracts/Tocken721.sol\":42285:42317  _burn(ownerOf(tokenId), tokenId) */\n      jump\t// in\n    tag_158:\n        /* \"contracts/Tocken721.sol\":42215:42325  function burn(uint256 tokenId) onlyOwnerOf(tokenId) public {\r... */\n      pop\n      pop\n      jump\t// out\n        /* \"contracts/Tocken721.sol\":13998:14305  function exists(uint256 _tokenId) public view returns (bool) {\r... */\n    tag_65:\n        /* \"contracts/Tocken721.sol\":14053:14057  bool */\n      0x0\n        /* \"contracts/Tocken721.sol\":14070:14083  address owner */\n      dup1\n        /* \"contracts/Tocken721.sol\":14086:14096  tokenOwner */\n      0x1\n        /* \"contracts/Tocken721.sol\":14086:14106  tokenOwner[_tokenId] */\n      0x0\n        /* \"contracts/Tocken721.sol\":14097:14105  _tokenId */\n      dup5\n        /* \"contracts/Tocken721.sol\":14086:14106  tokenOwner[_tokenId] */\n      dup2\n      mstore\n      0x20\n      add\n      swap1\n      dup2\n      mstore\n      0x20\n      add\n      0x0\n      keccak256\n      0x0\n      swap1\n      sload\n      swap1\n      0x100\n      exp\n      swap1\n      div\n      0xffffffffffffffffffffffffffffffffffffffff\n      and\n        /* \"contracts/Tocken721.sol\":14070:14106  address owner = tokenOwner[_tokenId] */\n      swap1\n      pop\n        /* \"contracts/Tocken721.sol\":14141:14142  0 */\n      0x0\n        /* \"contracts/Tocken721.sol\":14124:14143  owner != address(0) */\n      0xffffffffffffffffffffffffffffffffffffffff\n      and\n        /* \"contracts/Tocken721.sol\":14124:14129  owner */\n      dup2\n        /* \"contracts/Tocken721.sol\":14124:14143  owner != address(0) */\n      0xffffffffffffffffffffffffffffffffffffffff\n      and\n      eq\n      iszero\n        /* \"contracts/Tocken721.sol\":14117:14143  return owner != address(0) */\n      swap2\n      pop\n        /* \"contracts/Tocken721.sol\":13998:14305  function exists(uint256 _tokenId) public view returns (bool) {\r... */\n      pop\n      swap2\n      swap1\n      pop\n      jump\t// out\n        /* \"contracts/Tocken721.sol\":34327:34570  function tokenByIndex(uint256 _index) public view returns (uint256) {\r... */\n    tag_68:\n        /* \"contracts/Tocken721.sol\":34386:34393  uint256 */\n      0x0\n        /* \"contracts/Tocken721.sol\":34423:34436  totalSupply() */\n      tag_163\n        /* \"contracts/Tocken721.sol\":34423:34434  totalSupply */\n      tag_47\n        /* \"contracts/Tocken721.sol\":34423:34436  totalSupply() */\n      jump\t// in\n    tag_163:\n        /* \"contracts/Tocken721.sol\":34414:34420  _index */\n      dup3\n        /* \"contracts/Tocken721.sol\":34414:34436  _index < totalSupply() */\n      lt\n        /* \"contracts/Tocken721.sol\":34406:34437  require(_index < totalSupply()) */\n      iszero\n      iszero\n      tag_164\n      jumpi\n      0x0\n      dup1\n      revert\n    tag_164:\n        /* \"contracts/Tocken721.sol\":34491:34500  allTokens */\n      0x9\n        /* \"contracts/Tocken721.sol\":34501:34507  _index */\n      dup3\n        /* \"contracts/Tocken721.sol\":34491:34508  allTokens[_index] */\n      dup2\n      sload\n      dup2\n      lt\n      iszero\n      iszero\n      tag_165\n      jumpi\n      invalid\n    tag_165:\n      swap1\n      0x0\n      mstore\n      keccak256(0x0, 0x20)\n      add\n      sload\n        /* \"contracts/Tocken721.sol\":34484:34508  return allTokens[_index] */\n      swap1\n      pop\n        /* \"contracts/Tocken721.sol\":34327:34570  function tokenByIndex(uint256 _index) public view returns (uint256) {\r... */\n      swap2\n      swap1\n      pop\n      jump\t// out\n        /* \"contracts/Tocken721.sol\":13508:13801  function ownerOf(uint256 _tokenId) public view returns (address) {\r... */\n    tag_71:\n        /* \"contracts/Tocken721.sol\":13564:13571  address */\n      0x0\n        /* \"contracts/Tocken721.sol\":13584:13597  address owner */\n      dup1\n        /* \"contracts/Tocken721.sol\":13600:13610  tokenOwner */\n      0x1\n        /* \"contracts/Tocken721.sol\":13600:13620  tokenOwner[_tokenId] */\n      0x0\n        /* \"contracts/Tocken721.sol\":13611:13619  _tokenId */\n      dup5\n        /* \"contracts/Tocken721.sol\":13600:13620  tokenOwner[_tokenId] */\n      dup2\n      mstore\n      0x20\n      add\n      swap1\n      dup2\n      mstore\n      0x20\n      add\n      0x0\n      keccak256\n      0x0\n      swap1\n      sload\n      swap1\n      0x100\n      exp\n      swap1\n      div\n      0xffffffffffffffffffffffffffffffffffffffff\n      and\n        /* \"contracts/Tocken721.sol\":13584:13620  address owner = tokenOwner[_tokenId] */\n      swap1\n      pop\n        /* \"contracts/Tocken721.sol\":13687:13688  0 */\n      0x0\n        /* \"contracts/Tocken721.sol\":13670:13689  owner != address(0) */\n      0xffffffffffffffffffffffffffffffffffffffff\n      and\n        /* \"contracts/Tocken721.sol\":13670:13675  owner */\n      dup2\n        /* \"contracts/Tocken721.sol\":13670:13689  owner != address(0) */\n      0xffffffffffffffffffffffffffffffffffffffff\n      and\n      eq\n      iszero\n        /* \"contracts/Tocken721.sol\":13662:13690  require(owner != address(0)) */\n      iszero\n      iszero\n      tag_168\n      jumpi\n      0x0\n      dup1\n      revert\n    tag_168:\n        /* \"contracts/Tocken721.sol\":13788:13793  owner */\n      dup1\n        /* \"contracts/Tocken721.sol\":13781:13793  return owner */\n      swap2\n      pop\n        /* \"contracts/Tocken721.sol\":13508:13801  function ownerOf(uint256 _tokenId) public view returns (address) {\r... */\n      pop\n      swap2\n      swap1\n      pop\n      jump\t// out\n        /* \"contracts/Tocken721.sol\":13046:13276  function balanceOf(address _owner) public view returns (uint256) {\r... */\n    tag_74:\n        /* \"contracts/Tocken721.sol\":13102:13109  uint256 */\n      0x0\n        /* \"contracts/Tocken721.sol\":13148:13149  0 */\n      dup1\n        /* \"contracts/Tocken721.sol\":13130:13150  _owner != address(0) */\n      0xffffffffffffffffffffffffffffffffffffffff\n      and\n        /* \"contracts/Tocken721.sol\":13130:13136  _owner */\n      dup3\n        /* \"contracts/Tocken721.sol\":13130:13150  _owner != address(0) */\n      0xffffffffffffffffffffffffffffffffffffffff\n      and\n      eq\n      iszero\n        /* \"contracts/Tocken721.sol\":13122:13151  require(_owner != address(0)) */\n      iszero\n      iszero\n      tag_170\n      jumpi\n      0x0\n      dup1\n      revert\n    tag_170:\n        /* \"contracts/Tocken721.sol\":13169:13185  ownedTokensCount */\n      0x3\n        /* \"contracts/Tocken721.sol\":13169:13193  ownedTokensCount[_owner] */\n      0x0\n        /* \"contracts/Tocken721.sol\":13186:13192  _owner */\n      dup4\n        /* \"contracts/Tocken721.sol\":13169:13193  ownedTokensCount[_owner] */\n      0xffffffffffffffffffffffffffffffffffffffff\n      and\n      0xffffffffffffffffffffffffffffffffffffffff\n      and\n      dup2\n      mstore\n      0x20\n      add\n      swap1\n      dup2\n      mstore\n      0x20\n      add\n      0x0\n      keccak256\n      sload\n        /* \"contracts/Tocken721.sol\":13162:13193  return ownedTokensCount[_owner] */\n      swap1\n      pop\n        /* \"contracts/Tocken721.sol\":13046:13276  function balanceOf(address _owner) public view returns (uint256) {\r... */\n      swap2\n      swap1\n      pop\n      jump\t// out\n        /* \"contracts/Tocken721.sol\":41834:41958  function renounceOwnership() public onlyOwner {\r... */\n    tag_77:\n        /* \"contracts/Tocken721.sol\":41336:41341  owner */\n      0xc\n      0x0\n      swap1\n      sload\n      swap1\n      0x100\n      exp\n      swap1\n      div\n      0xffffffffffffffffffffffffffffffffffffffff\n      and\n        /* \"contracts/Tocken721.sol\":41322:41341  msg.sender == owner */\n      0xffffffffffffffffffffffffffffffffffffffff\n      and\n        /* \"contracts/Tocken721.sol\":41322:41332  msg.sender */\n      caller\n        /* \"contracts/Tocken721.sol\":41322:41341  msg.sender == owner */\n      0xffffffffffffffffffffffffffffffffffffffff\n      and\n      eq\n        /* \"contracts/Tocken721.sol\":41314:41342  require(msg.sender == owner) */\n      iszero\n      iszero\n      tag_172\n      jumpi\n      0x0\n      dup1\n      revert\n    tag_172:\n        /* \"contracts/Tocken721.sol\":41915:41920  owner */\n      0xc\n      0x0\n      swap1\n      sload\n      swap1\n      0x100\n      exp\n      swap1\n      div\n      0xffffffffffffffffffffffffffffffffffffffff\n      and\n        /* \"contracts/Tocken721.sol\":41896:41921  OwnershipRenounced(owner) */\n      0xffffffffffffffffffffffffffffffffffffffff\n      and\n      0xf8df31144d9c2f0f6b59d69b8b98abd5459d07f2742c4df920b25aae33c64820\n      mload(0x40)\n      mload(0x40)\n      dup1\n      swap2\n      sub\n      swap1\n      log2\n        /* \"contracts/Tocken721.sol\":41948:41949  0 */\n      0x0\n        /* \"contracts/Tocken721.sol\":41932:41937  owner */\n      0xc\n      0x0\n        /* \"contracts/Tocken721.sol\":41932:41950  owner = address(0) */\n      0x100\n      exp\n      dup2\n      sload\n      dup2\n      0xffffffffffffffffffffffffffffffffffffffff\n      mul\n      not\n      and\n      swap1\n      dup4\n      0xffffffffffffffffffffffffffffffffffffffff\n      and\n      mul\n      or\n      swap1\n      sstore\n      pop\n        /* \"contracts/Tocken721.sol\":41834:41958  function renounceOwnership() public onlyOwner {\r... */\n      jump\t// out\n        /* \"contracts/Tocken721.sol\":40791:40811  address public owner */\n    tag_80:\n      0xc\n      0x0\n      swap1\n      sload\n      swap1\n      0x100\n      exp\n      swap1\n      div\n      0xffffffffffffffffffffffffffffffffffffffff\n      and\n      dup2\n      jump\t// out\n        /* \"contracts/Tocken721.sol\":32389:32488  function symbol() external view returns (string) { // 심볼 함수\r... */\n    tag_83:\n        /* \"contracts/Tocken721.sol\":32430:32436  string */\n      0x60\n        /* \"contracts/Tocken721.sol\":32473:32480  symbol_ */\n      0x6\n        /* \"contracts/Tocken721.sol\":32466:32480  return symbol_ */\n      dup1\n      sload\n      0x1\n      dup2\n      0x1\n      and\n      iszero\n      0x100\n      mul\n      sub\n      and\n      0x2\n      swap1\n      div\n      dup1\n      0x1f\n      add\n      0x20\n      dup1\n      swap2\n      div\n      mul\n      0x20\n      add\n      mload(0x40)\n      swap1\n      dup2\n      add\n      0x40\n      mstore\n      dup1\n      swap3\n      swap2\n      swap1\n      dup2\n      dup2\n      mstore\n      0x20\n      add\n      dup3\n      dup1\n      sload\n      0x1\n      dup2\n      0x1\n      and\n      iszero\n      0x100\n      mul\n      sub\n      and\n      0x2\n      swap1\n      div\n      dup1\n      iszero\n      tag_175\n      jumpi\n      dup1\n      0x1f\n      lt\n      tag_176\n      jumpi\n      0x100\n      dup1\n      dup4\n      sload\n      div\n      mul\n      dup4\n      mstore\n      swap2\n      0x20\n      add\n      swap2\n      jump(tag_175)\n    tag_176:\n      dup3\n      add\n      swap2\n      swap1\n      0x0\n      mstore\n      keccak256(0x0, 0x20)\n      swap1\n    tag_177:\n      dup2\n      sload\n      dup2\n      mstore\n      swap1\n      0x1\n      add\n      swap1\n      0x20\n      add\n      dup1\n      dup4\n      gt\n      tag_177\n      jumpi\n      dup3\n      swap1\n      sub\n      0x1f\n      and\n      dup3\n      add\n      swap2\n    tag_175:\n      pop\n      pop\n      pop\n      pop\n      pop\n      swap1\n      pop\n        /* \"contracts/Tocken721.sol\":32389:32488  function symbol() external view returns (string) { // 심볼 함수\r... */\n      swap1\n      jump\t// out\n        /* \"contracts/Tocken721.sol\":42083:42207  function mint(uint256 tokenId) onlyOwner public {\r... */\n    tag_90:\n        /* \"contracts/Tocken721.sol\":41336:41341  owner */\n      0xc\n      0x0\n      swap1\n      sload\n      swap1\n      0x100\n      exp\n      swap1\n      div\n      0xffffffffffffffffffffffffffffffffffffffff\n      and\n        /* \"contracts/Tocken721.sol\":41322:41341  msg.sender == owner */\n      0xffffffffffffffffffffffffffffffffffffffff\n      and\n        /* \"contracts/Tocken721.sol\":41322:41332  msg.sender */\n      caller\n        /* \"contracts/Tocken721.sol\":41322:41341  msg.sender == owner */\n      0xffffffffffffffffffffffffffffffffffffffff\n      and\n      eq\n        /* \"contracts/Tocken721.sol\":41314:41342  require(msg.sender == owner) */\n      iszero\n      iszero\n      tag_179\n      jumpi\n      0x0\n      dup1\n      revert\n    tag_179:\n        /* \"contracts/Tocken721.sol\":42151:42166  exists(tokenId) */\n      tag_181\n        /* \"contracts/Tocken721.sol\":42158:42165  tokenId */\n      dup2\n        /* \"contracts/Tocken721.sol\":42151:42157  exists */\n      tag_65\n        /* \"contracts/Tocken721.sol\":42151:42166  exists(tokenId) */\n      jump\t// in\n    tag_181:\n        /* \"contracts/Tocken721.sol\":42150:42166  !exists(tokenId) */\n      iszero\n        /* \"contracts/Tocken721.sol\":42142:42167  require(!exists(tokenId)) */\n      iszero\n      iszero\n      tag_182\n      jumpi\n      0x0\n      dup1\n      revert\n    tag_182:\n        /* \"contracts/Tocken721.sol\":42178:42199  _mint(owner, tokenId) */\n      tag_183\n        /* \"contracts/Tocken721.sol\":42184:42189  owner */\n      0xc\n      0x0\n      swap1\n      sload\n      swap1\n      0x100\n      exp\n      swap1\n      div\n      0xffffffffffffffffffffffffffffffffffffffff\n      and\n        /* \"contracts/Tocken721.sol\":42191:42198  tokenId */\n      dup3\n        /* \"contracts/Tocken721.sol\":42178:42183  _mint */\n      tag_184\n        /* \"contracts/Tocken721.sol\":42178:42199  _mint(owner, tokenId) */\n      jump\t// in\n    tag_183:\n        /* \"contracts/Tocken721.sol\":42083:42207  function mint(uint256 tokenId) onlyOwner public {\r... */\n      pop\n      jump\t// out\n        /* \"contracts/Tocken721.sol\":16156:16474  function setApprovalForAll(address _to, bool _approved) public {\r... */\n    tag_93:\n        /* \"contracts/Tocken721.sol\":16245:16255  msg.sender */\n      caller\n        /* \"contracts/Tocken721.sol\":16238:16255  _to != msg.sender */\n      0xffffffffffffffffffffffffffffffffffffffff\n      and\n        /* \"contracts/Tocken721.sol\":16238:16241  _to */\n      dup3\n        /* \"contracts/Tocken721.sol\":16238:16255  _to != msg.sender */\n      0xffffffffffffffffffffffffffffffffffffffff\n      and\n      eq\n      iszero\n        /* \"contracts/Tocken721.sol\":16230:16256  require(_to != msg.sender) */\n      iszero\n      iszero\n      tag_186\n      jumpi\n      0x0\n      dup1\n      revert\n    tag_186:\n        /* \"contracts/Tocken721.sol\":16341:16350  _approved */\n      dup1\n        /* \"contracts/Tocken721.sol\":16304:16321  operatorApprovals */\n      0x4\n        /* \"contracts/Tocken721.sol\":16304:16333  operatorApprovals[msg.sender] */\n      0x0\n        /* \"contracts/Tocken721.sol\":16322:16332  msg.sender */\n      caller\n        /* \"contracts/Tocken721.sol\":16304:16333  operatorApprovals[msg.sender] */\n      0xffffffffffffffffffffffffffffffffffffffff\n      and\n      0xffffffffffffffffffffffffffffffffffffffff\n      and\n      dup2\n      mstore\n      0x20\n      add\n      swap1\n      dup2\n      mstore\n      0x20\n      add\n      0x0\n      keccak256\n        /* \"contracts/Tocken721.sol\":16304:16338  operatorApprovals[msg.sender][_to] */\n      0x0\n        /* \"contracts/Tocken721.sol\":16334:16337  _to */\n      dup5\n        /* \"contracts/Tocken721.sol\":16304:16338  operatorApprovals[msg.sender][_to] */\n      0xffffffffffffffffffffffffffffffffffffffff\n      and\n      0xffffffffffffffffffffffffffffffffffffffff\n      and\n      dup2\n      mstore\n      0x20\n      add\n      swap1\n      dup2\n      mstore\n      0x20\n      add\n      0x0\n      keccak256\n      0x0\n        /* \"contracts/Tocken721.sol\":16304:16350  operatorApprovals[msg.sender][_to] = _approved */\n      0x100\n      exp\n      dup2\n      sload\n      dup2\n      0xff\n      mul\n      not\n      and\n      swap1\n      dup4\n      iszero\n      iszero\n      mul\n      or\n      swap1\n      sstore\n      pop\n        /* \"contracts/Tocken721.sol\":16431:16434  _to */\n      dup2\n        /* \"contracts/Tocken721.sol\":16404:16446  ApprovalForAll(msg.sender, _to, _approved) */\n      0xffffffffffffffffffffffffffffffffffffffff\n      and\n        /* \"contracts/Tocken721.sol\":16419:16429  msg.sender */\n      caller\n        /* \"contracts/Tocken721.sol\":16404:16446  ApprovalForAll(msg.sender, _to, _approved) */\n      0xffffffffffffffffffffffffffffffffffffffff\n      and\n      0x17307eab39ab6107e8899845ad3d59bd9653f200f220920489ca2b5937696c31\n        /* \"contracts/Tocken721.sol\":16436:16445  _approved */\n      dup4\n        /* \"contracts/Tocken721.sol\":16404:16446  ApprovalForAll(msg.sender, _to, _approved) */\n      mload(0x40)\n      dup1\n      dup3\n      iszero\n      iszero\n      iszero\n      iszero\n      dup2\n      mstore\n      0x20\n      add\n      swap2\n      pop\n      pop\n      mload(0x40)\n      dup1\n      swap2\n      sub\n      swap1\n      log3\n        /* \"contracts/Tocken721.sol\":16156:16474  function setApprovalForAll(address _to, bool _approved) public {\r... */\n      pop\n      pop\n      jump\t// out\n        /* \"contracts/Tocken721.sol\":19893:20394  function safeTransferFrom(\r... */\n    tag_96:\n        /* \"contracts/Tocken721.sol\":20050:20058  _tokenId */\n      dup2\n        /* \"contracts/Tocken721.sol\":12725:12764  isApprovedOrOwner(msg.sender, _tokenId) */\n      tag_188\n        /* \"contracts/Tocken721.sol\":12743:12753  msg.sender */\n      caller\n        /* \"contracts/Tocken721.sol\":12755:12763  _tokenId */\n      dup3\n        /* \"contracts/Tocken721.sol\":12725:12742  isApprovedOrOwner */\n      tag_133\n        /* \"contracts/Tocken721.sol\":12725:12764  isApprovedOrOwner(msg.sender, _tokenId) */\n      jump\t// in\n    tag_188:\n        /* \"contracts/Tocken721.sol\":12717:12765  require(isApprovedOrOwner(msg.sender, _tokenId)) */\n      iszero\n      iszero\n      tag_189\n      jumpi\n      0x0\n      dup1\n      revert\n    tag_189:\n        /* \"contracts/Tocken721.sol\":20076:20110  transferFrom(_from, _to, _tokenId) */\n      tag_191\n        /* \"contracts/Tocken721.sol\":20089:20094  _from */\n      dup6\n        /* \"contracts/Tocken721.sol\":20096:20099  _to */\n      dup6\n        /* \"contracts/Tocken721.sol\":20101:20109  _tokenId */\n      dup6\n        /* \"contracts/Tocken721.sol\":20076:20088  transferFrom */\n      tag_53\n        /* \"contracts/Tocken721.sol\":20076:20110  transferFrom(_from, _to, _tokenId) */\n      jump\t// in\n    tag_191:\n        /* \"contracts/Tocken721.sol\":20196:20249  checkAndCallSafeTransfer(_from, _to, _tokenId, _data) */\n      tag_192\n        /* \"contracts/Tocken721.sol\":20221:20226  _from */\n      dup6\n        /* \"contracts/Tocken721.sol\":20228:20231  _to */\n      dup6\n        /* \"contracts/Tocken721.sol\":20233:20241  _tokenId */\n      dup6\n        /* \"contracts/Tocken721.sol\":20243:20248  _data */\n      dup6\n        /* \"contracts/Tocken721.sol\":20196:20220  checkAndCallSafeTransfer */\n      tag_193\n        /* \"contracts/Tocken721.sol\":20196:20249  checkAndCallSafeTransfer(_from, _to, _tokenId, _data) */\n      jump\t// in\n    tag_192:\n        /* \"contracts/Tocken721.sol\":20188:20250  require(checkAndCallSafeTransfer(_from, _to, _tokenId, _data)) */\n      iszero\n      iszero\n      tag_194\n      jumpi\n      0x0\n      dup1\n      revert\n    tag_194:\n        /* \"contracts/Tocken721.sol\":19893:20394  function safeTransferFrom(\r... */\n      pop\n      pop\n      pop\n      pop\n      pop\n      jump\t// out\n        /* \"contracts/Tocken721.sol\":32700:32911  function tokenURI(uint256 _tokenId) public view returns (string) {\r... */\n    tag_99:\n        /* \"contracts/Tocken721.sol\":32757:32763  string */\n      0x60\n        /* \"contracts/Tocken721.sol\":32784:32800  exists(_tokenId) */\n      tag_196\n        /* \"contracts/Tocken721.sol\":32791:32799  _tokenId */\n      dup3\n        /* \"contracts/Tocken721.sol\":32784:32790  exists */\n      tag_65\n        /* \"contracts/Tocken721.sol\":32784:32800  exists(_tokenId) */\n      jump\t// in\n    tag_196:\n        /* \"contracts/Tocken721.sol\":32776:32801  require(exists(_tokenId)) */\n      iszero\n      iszero\n      tag_197\n      jumpi\n      0x0\n      dup1\n      revert\n    tag_197:\n        /* \"contracts/Tocken721.sol\":32865:32874  tokenURIs */\n      0xb\n        /* \"contracts/Tocken721.sol\":32865:32884  tokenURIs[_tokenId] */\n      0x0\n        /* \"contracts/Tocken721.sol\":32875:32883  _tokenId */\n      dup4\n        /* \"contracts/Tocken721.sol\":32865:32884  tokenURIs[_tokenId] */\n      dup2\n      mstore\n      0x20\n      add\n      swap1\n      dup2\n      mstore\n      0x20\n      add\n      0x0\n      keccak256\n        /* \"contracts/Tocken721.sol\":32858:32884  return tokenURIs[_tokenId] */\n      dup1\n      sload\n      0x1\n      dup2\n      0x1\n      and\n      iszero\n      0x100\n      mul\n      sub\n      and\n      0x2\n      swap1\n      div\n      dup1\n      0x1f\n      add\n      0x20\n      dup1\n      swap2\n      div\n      mul\n      0x20\n      add\n      mload(0x40)\n      swap1\n      dup2\n      add\n      0x40\n      mstore\n      dup1\n      swap3\n      swap2\n      swap1\n      dup2\n      dup2\n      mstore\n      0x20\n      add\n      dup3\n      dup1\n      sload\n      0x1\n      dup2\n      0x1\n      and\n      iszero\n      0x100\n      mul\n      sub\n      and\n      0x2\n      swap1\n      div\n      dup1\n      iszero\n      tag_198\n      jumpi\n      dup1\n      0x1f\n      lt\n      tag_199\n      jumpi\n      0x100\n      dup1\n      dup4\n      sload\n      div\n      mul\n      dup4\n      mstore\n      swap2\n      0x20\n      add\n      swap2\n      jump(tag_198)\n    tag_199:\n      dup3\n      add\n      swap2\n      swap1\n      0x0\n      mstore\n      keccak256(0x0, 0x20)\n      swap1\n    tag_200:\n      dup2\n      sload\n      dup2\n      mstore\n      swap1\n      0x1\n      add\n      swap1\n      0x20\n      add\n      dup1\n      dup4\n      gt\n      tag_200\n      jumpi\n      dup3\n      swap1\n      sub\n      0x1f\n      and\n      dup3\n      add\n      swap2\n    tag_198:\n      pop\n      pop\n      pop\n      pop\n      pop\n      swap1\n      pop\n        /* \"contracts/Tocken721.sol\":32700:32911  function tokenURI(uint256 _tokenId) public view returns (string) {\r... */\n      swap2\n      swap1\n      pop\n      jump\t// out\n        /* \"contracts/Tocken721.sol\":16805:17082  function isApprovedForAll(\r... */\n    tag_106:\n        /* \"contracts/Tocken721.sol\":16927:16931  bool */\n      0x0\n        /* \"contracts/Tocken721.sol\":16956:16973  operatorApprovals */\n      0x4\n        /* \"contracts/Tocken721.sol\":16956:16981  operatorApprovals[_owner] */\n      0x0\n        /* \"contracts/Tocken721.sol\":16974:16980  _owner */\n      dup5\n        /* \"contracts/Tocken721.sol\":16956:16981  operatorApprovals[_owner] */\n      0xffffffffffffffffffffffffffffffffffffffff\n      and\n      0xffffffffffffffffffffffffffffffffffffffff\n      and\n      dup2\n      mstore\n      0x20\n      add\n      swap1\n      dup2\n      mstore\n      0x20\n      add\n      0x0\n      keccak256\n        /* \"contracts/Tocken721.sol\":16956:16992  operatorApprovals[_owner][_operator] */\n      0x0\n        /* \"contracts/Tocken721.sol\":16982:16991  _operator */\n      dup4\n        /* \"contracts/Tocken721.sol\":16956:16992  operatorApprovals[_owner][_operator] */\n      0xffffffffffffffffffffffffffffffffffffffff\n      and\n      0xffffffffffffffffffffffffffffffffffffffff\n      and\n      dup2\n      mstore\n      0x20\n      add\n      swap1\n      dup2\n      mstore\n      0x20\n      add\n      0x0\n      keccak256\n      0x0\n      swap1\n      sload\n      swap1\n      0x100\n      exp\n      swap1\n      div\n      0xff\n      and\n        /* \"contracts/Tocken721.sol\":16949:16992  return operatorApprovals[_owner][_operator] */\n      swap1\n      pop\n        /* \"contracts/Tocken721.sol\":16805:17082  function isApprovedForAll(\r... */\n      swap3\n      swap2\n      pop\n      pop\n      jump\t// out\n        /* \"contracts/Tocken721.sol\":41539:41731  function transferOwnership(address newOwner) public onlyOwner {\r... */\n    tag_109:\n        /* \"contracts/Tocken721.sol\":41336:41341  owner */\n      0xc\n      0x0\n      swap1\n      sload\n      swap1\n      0x100\n      exp\n      swap1\n      div\n      0xffffffffffffffffffffffffffffffffffffffff\n      and\n        /* \"contracts/Tocken721.sol\":41322:41341  msg.sender == owner */\n      0xffffffffffffffffffffffffffffffffffffffff\n      and\n        /* \"contracts/Tocken721.sol\":41322:41332  msg.sender */\n      caller\n        /* \"contracts/Tocken721.sol\":41322:41341  msg.sender == owner */\n      0xffffffffffffffffffffffffffffffffffffffff\n      and\n      eq\n        /* \"contracts/Tocken721.sol\":41314:41342  require(msg.sender == owner) */\n      iszero\n      iszero\n      tag_203\n      jumpi\n      0x0\n      dup1\n      revert\n    tag_203:\n        /* \"contracts/Tocken721.sol\":41640:41641  0 */\n      0x0\n        /* \"contracts/Tocken721.sol\":41620:41642  newOwner != address(0) */\n      0xffffffffffffffffffffffffffffffffffffffff\n      and\n        /* \"contracts/Tocken721.sol\":41620:41628  newOwner */\n      dup2\n        /* \"contracts/Tocken721.sol\":41620:41642  newOwner != address(0) */\n      0xffffffffffffffffffffffffffffffffffffffff\n      and\n      eq\n      iszero\n        /* \"contracts/Tocken721.sol\":41612:41643  require(newOwner != address(0)) */\n      iszero\n      iszero\n      tag_205\n      jumpi\n      0x0\n      dup1\n      revert\n    tag_205:\n        /* \"contracts/Tocken721.sol\":41687:41695  newOwner */\n      dup1\n        /* \"contracts/Tocken721.sol\":41659:41696  OwnershipTransferred(owner, newOwner) */\n      0xffffffffffffffffffffffffffffffffffffffff\n      and\n        /* \"contracts/Tocken721.sol\":41680:41685  owner */\n      0xc\n      0x0\n      swap1\n      sload\n      swap1\n      0x100\n      exp\n      swap1\n      div\n      0xffffffffffffffffffffffffffffffffffffffff\n      and\n        /* \"contracts/Tocken721.sol\":41659:41696  OwnershipTransferred(owner, newOwner) */\n      0xffffffffffffffffffffffffffffffffffffffff\n      and\n      0x8be0079c531659141344cd1fd0a4f28419497f9722a3daafe3b4186f6b6457e0\n      mload(0x40)\n      mload(0x40)\n      dup1\n      swap2\n      sub\n      swap1\n      log3\n        /* \"contracts/Tocken721.sol\":41715:41723  newOwner */\n      dup1\n        /* \"contracts/Tocken721.sol\":41707:41712  owner */\n      0xc\n      0x0\n        /* \"contracts/Tocken721.sol\":41707:41723  owner = newOwner */\n      0x100\n      exp\n      dup2\n      sload\n      dup2\n      0xffffffffffffffffffffffffffffffffffffffff\n      mul\n      not\n      and\n      swap1\n      dup4\n      0xffffffffffffffffffffffffffffffffffffffff\n      and\n      mul\n      or\n      swap1\n      sstore\n      pop\n        /* \"contracts/Tocken721.sol\":41539:41731  function transferOwnership(address newOwner) public onlyOwner {\r... */\n      pop\n      jump\t// out\n        /* \"contracts/Tocken721.sol\":34830:35040  function _setTokenURI(uint256 _tokenId, string _uri) internal {\r... */\n    tag_129:\n        /* \"contracts/Tocken721.sol\":34911:34927  exists(_tokenId) */\n      tag_207\n        /* \"contracts/Tocken721.sol\":34918:34926  _tokenId */\n      dup3\n        /* \"contracts/Tocken721.sol\":34911:34917  exists */\n      tag_65\n        /* \"contracts/Tocken721.sol\":34911:34927  exists(_tokenId) */\n      jump\t// in\n    tag_207:\n        /* \"contracts/Tocken721.sol\":34903:34928  require(exists(_tokenId)) */\n      iszero\n      iszero\n      tag_208\n      jumpi\n      0x0\n      dup1\n      revert\n    tag_208:\n        /* \"contracts/Tocken721.sol\":34999:35003  _uri */\n      dup1\n        /* \"contracts/Tocken721.sol\":34977:34986  tokenURIs */\n      0xb\n        /* \"contracts/Tocken721.sol\":34977:34996  tokenURIs[_tokenId] */\n      0x0\n        /* \"contracts/Tocken721.sol\":34987:34995  _tokenId */\n      dup5\n        /* \"contracts/Tocken721.sol\":34977:34996  tokenURIs[_tokenId] */\n      dup2\n      mstore\n      0x20\n      add\n      swap1\n      dup2\n      mstore\n      0x20\n      add\n      0x0\n      keccak256\n        /* \"contracts/Tocken721.sol\":34977:35003  tokenURIs[_tokenId] = _uri */\n      swap1\n      dup1\n      mload\n      swap1\n      0x20\n      add\n      swap1\n      tag_209\n      swap3\n      swap2\n      swap1\n      jump\t// in(tag_210)\n    tag_209:\n      pop\n        /* \"contracts/Tocken721.sol\":34830:35040  function _setTokenURI(uint256 _tokenId, string _uri) internal {\r... */\n      pop\n      pop\n      jump\t// out\n        /* \"contracts/Tocken721.sol\":20766:21375  function isApprovedOrOwner(\r... */\n    tag_133:\n        /* \"contracts/Tocken721.sol\":20892:20896  bool */\n      0x0\n        /* \"contracts/Tocken721.sol\":20914:20927  address owner */\n      dup1\n        /* \"contracts/Tocken721.sol\":20930:20947  ownerOf(_tokenId) */\n      tag_212\n        /* \"contracts/Tocken721.sol\":20938:20946  _tokenId */\n      dup4\n        /* \"contracts/Tocken721.sol\":20930:20937  ownerOf */\n      tag_71\n        /* \"contracts/Tocken721.sol\":20930:20947  ownerOf(_tokenId) */\n      jump\t// in\n    tag_212:\n        /* \"contracts/Tocken721.sol\":20914:20947  address owner = ownerOf(_tokenId) */\n      swap1\n      pop\n        /* \"contracts/Tocken721.sol\":21149:21154  owner */\n      dup1\n        /* \"contracts/Tocken721.sol\":21137:21154  _spender == owner */\n      0xffffffffffffffffffffffffffffffffffffffff\n      and\n        /* \"contracts/Tocken721.sol\":21137:21145  _spender */\n      dup5\n        /* \"contracts/Tocken721.sol\":21137:21154  _spender == owner */\n      0xffffffffffffffffffffffffffffffffffffffff\n      and\n      eq\n        /* \"contracts/Tocken721.sol\":21137:21219  _spender == owner || // owner 이거나\r... */\n      dup1\n      tag_213\n      jumpi\n      pop\n        /* \"contracts/Tocken721.sol\":21211:21219  _spender */\n      dup4\n        /* \"contracts/Tocken721.sol\":21186:21219  getApproved(_tokenId) == _spender */\n      0xffffffffffffffffffffffffffffffffffffffff\n      and\n        /* \"contracts/Tocken721.sol\":21186:21207  getApproved(_tokenId) */\n      tag_214\n        /* \"contracts/Tocken721.sol\":21198:21206  _tokenId */\n      dup5\n        /* \"contracts/Tocken721.sol\":21186:21197  getApproved */\n      tag_38\n        /* \"contracts/Tocken721.sol\":21186:21207  getApproved(_tokenId) */\n      jump\t// in\n    tag_214:\n        /* \"contracts/Tocken721.sol\":21186:21219  getApproved(_tokenId) == _spender */\n      0xffffffffffffffffffffffffffffffffffffffff\n      and\n      eq\n        /* \"contracts/Tocken721.sol\":21137:21219  _spender == owner || // owner 이거나\r... */\n    tag_213:\n        /* \"contracts/Tocken721.sol\":21137:21299  _spender == owner || // owner 이거나\r... */\n      dup1\n      tag_215\n      jumpi\n      pop\n        /* \"contracts/Tocken721.sol\":21266:21299  isApprovedForAll(owner, _spender) */\n      tag_216\n        /* \"contracts/Tocken721.sol\":21283:21288  owner */\n      dup2\n        /* \"contracts/Tocken721.sol\":21290:21298  _spender */\n      dup6\n        /* \"contracts/Tocken721.sol\":21266:21282  isApprovedForAll */\n      tag_106\n        /* \"contracts/Tocken721.sol\":21266:21299  isApprovedForAll(owner, _spender) */\n      jump\t// in\n    tag_216:\n        /* \"contracts/Tocken721.sol\":21137:21299  _spender == owner || // owner 이거나\r... */\n    tag_215:\n        /* \"contracts/Tocken721.sol\":21119:21367  return (\r... */\n      swap2\n      pop\n        /* \"contracts/Tocken721.sol\":20766:21375  function isApprovedOrOwner(\r... */\n      pop\n      swap3\n      swap2\n      pop\n      pop\n      jump\t// out\n        /* \"contracts/Tocken721.sol\":23351:23831  function clearApproval(address _owner, uint256 _tokenId) internal { // 내부에서만 호출 가능\r... */\n    tag_139:\n        /* \"contracts/Tocken721.sol\":23490:23496  _owner */\n      dup2\n        /* \"contracts/Tocken721.sol\":23469:23496  ownerOf(_tokenId) == _owner */\n      0xffffffffffffffffffffffffffffffffffffffff\n      and\n        /* \"contracts/Tocken721.sol\":23469:23486  ownerOf(_tokenId) */\n      tag_218\n        /* \"contracts/Tocken721.sol\":23477:23485  _tokenId */\n      dup3\n        /* \"contracts/Tocken721.sol\":23469:23476  ownerOf */\n      tag_71\n        /* \"contracts/Tocken721.sol\":23469:23486  ownerOf(_tokenId) */\n      jump\t// in\n    tag_218:\n        /* \"contracts/Tocken721.sol\":23469:23496  ownerOf(_tokenId) == _owner */\n      0xffffffffffffffffffffffffffffffffffffffff\n      and\n      eq\n        /* \"contracts/Tocken721.sol\":23461:23497  require(ownerOf(_tokenId) == _owner) */\n      iszero\n      iszero\n      tag_219\n      jumpi\n      0x0\n      dup1\n      revert\n    tag_219:\n        /* \"contracts/Tocken721.sol\":23599:23600  0 */\n      0x0\n        /* \"contracts/Tocken721.sol\":23563:23601  tokenApprovals[_tokenId] != address(0) */\n      0xffffffffffffffffffffffffffffffffffffffff\n      and\n        /* \"contracts/Tocken721.sol\":23563:23577  tokenApprovals */\n      0x2\n        /* \"contracts/Tocken721.sol\":23563:23587  tokenApprovals[_tokenId] */\n      0x0\n        /* \"contracts/Tocken721.sol\":23578:23586  _tokenId */\n      dup4\n        /* \"contracts/Tocken721.sol\":23563:23587  tokenApprovals[_tokenId] */\n      dup2\n      mstore\n      0x20\n      add\n      swap1\n      dup2\n      mstore\n      0x20\n      add\n      0x0\n      keccak256\n      0x0\n      swap1\n      sload\n      swap1\n      0x100\n      exp\n      swap1\n      div\n      0xffffffffffffffffffffffffffffffffffffffff\n      and\n        /* \"contracts/Tocken721.sol\":23563:23601  tokenApprovals[_tokenId] != address(0) */\n      0xffffffffffffffffffffffffffffffffffffffff\n      and\n      eq\n      iszero\n        /* \"contracts/Tocken721.sol\":23559:23824  if (tokenApprovals[_tokenId] != address(0)) { // Approval 값이 이미 존재할 때만\r... */\n      iszero\n      tag_220\n      jumpi\n        /* \"contracts/Tocken721.sol\":23696:23697  0 */\n      0x0\n        /* \"contracts/Tocken721.sol\":23661:23675  tokenApprovals */\n      0x2\n        /* \"contracts/Tocken721.sol\":23661:23685  tokenApprovals[_tokenId] */\n      0x0\n        /* \"contracts/Tocken721.sol\":23676:23684  _tokenId */\n      dup4\n        /* \"contracts/Tocken721.sol\":23661:23685  tokenApprovals[_tokenId] */\n      dup2\n      mstore\n      0x20\n      add\n      swap1\n      dup2\n      mstore\n      0x20\n      add\n      0x0\n      keccak256\n      0x0\n        /* \"contracts/Tocken721.sol\":23661:23698  tokenApprovals[_tokenId] = address(0) */\n      0x100\n      exp\n      dup2\n      sload\n      dup2\n      0xffffffffffffffffffffffffffffffffffffffff\n      mul\n      not\n      and\n      swap1\n      dup4\n      0xffffffffffffffffffffffffffffffffffffffff\n      and\n      mul\n      or\n      swap1\n      sstore\n      pop\n        /* \"contracts/Tocken721.sol\":23760:23768  _tokenId */\n      dup1\n        /* \"contracts/Tocken721.sol\":23756:23757  0 */\n      0x0\n        /* \"contracts/Tocken721.sol\":23731:23769  Approval(_owner, address(0), _tokenId) */\n      0xffffffffffffffffffffffffffffffffffffffff\n      and\n        /* \"contracts/Tocken721.sol\":23740:23746  _owner */\n      dup4\n        /* \"contracts/Tocken721.sol\":23731:23769  Approval(_owner, address(0), _tokenId) */\n      0xffffffffffffffffffffffffffffffffffffffff\n      and\n      0x8c5be1e5ebec7d5bd14f71427d1e84f3dd0314c0f7b2291e5b200ac8c7c3b925\n      mload(0x40)\n      mload(0x40)\n      dup1\n      swap2\n      sub\n      swap1\n      log4\n        /* \"contracts/Tocken721.sol\":23559:23824  if (tokenApprovals[_tokenId] != address(0)) { // Approval 값이 이미 존재할 때만\r... */\n    tag_220:\n        /* \"contracts/Tocken721.sol\":23351:23831  function clearApproval(address _owner, uint256 _tokenId) internal { // 내부에서만 호출 가능\r... */\n      pop\n      pop\n      jump\t// out\n        /* \"contracts/Tocken721.sol\":36343:37674  function removeTokenFrom(address _from, uint256 _tokenId) internal {\r... */\n    tag_141:\n        /* \"contracts/Tocken721.sol\":36524:36542  uint256 tokenIndex */\n      0x0\n        /* \"contracts/Tocken721.sol\":36622:36644  uint256 lastTokenIndex */\n      dup1\n        /* \"contracts/Tocken721.sol\":36719:36736  uint256 lastToken */\n      0x0\n        /* \"contracts/Tocken721.sol\":36421:36459  super.removeTokenFrom(_from, _tokenId) */\n      tag_222\n        /* \"contracts/Tocken721.sol\":36443:36448  _from */\n      dup6\n        /* \"contracts/Tocken721.sol\":36450:36458  _tokenId */\n      dup6\n        /* \"contracts/Tocken721.sol\":36421:36442  super.removeTokenFrom */\n      tag_223\n        /* \"contracts/Tocken721.sol\":36421:36459  super.removeTokenFrom(_from, _tokenId) */\n      jump\t// in\n    tag_222:\n        /* \"contracts/Tocken721.sol\":36545:36561  ownedTokensIndex */\n      0x8\n        /* \"contracts/Tocken721.sol\":36545:36571  ownedTokensIndex[_tokenId] */\n      0x0\n        /* \"contracts/Tocken721.sol\":36562:36570  _tokenId */\n      dup6\n        /* \"contracts/Tocken721.sol\":36545:36571  ownedTokensIndex[_tokenId] */\n      dup2\n      mstore\n      0x20\n      add\n      swap1\n      dup2\n      mstore\n      0x20\n      add\n      0x0\n      keccak256\n      sload\n        /* \"contracts/Tocken721.sol\":36524:36571  uint256 tokenIndex = ownedTokensIndex[_tokenId] */\n      swap3\n      pop\n        /* \"contracts/Tocken721.sol\":36647:36679  ownedTokens[_from].length.sub(1) */\n      tag_224\n        /* \"contracts/Tocken721.sol\":36677:36678  1 */\n      0x1\n        /* \"contracts/Tocken721.sol\":36647:36658  ownedTokens */\n      0x7\n        /* \"contracts/Tocken721.sol\":36647:36665  ownedTokens[_from] */\n      0x0\n        /* \"contracts/Tocken721.sol\":36659:36664  _from */\n      dup9\n        /* \"contracts/Tocken721.sol\":36647:36665  ownedTokens[_from] */\n      0xffffffffffffffffffffffffffffffffffffffff\n      and\n      0xffffffffffffffffffffffffffffffffffffffff\n      and\n      dup2\n      mstore\n      0x20\n      add\n      swap1\n      dup2\n      mstore\n      0x20\n      add\n      0x0\n      keccak256\n        /* \"contracts/Tocken721.sol\":36647:36672  ownedTokens[_from].length */\n      dup1\n      sload\n      swap1\n      pop\n        /* \"contracts/Tocken721.sol\":36647:36676  ownedTokens[_from].length.sub */\n      tag_225\n      swap1\n        /* \"contracts/Tocken721.sol\":36647:36679  ownedTokens[_from].length.sub(1) */\n      swap2\n      swap1\n      0xffffffff\n      and\n      jump\t// in\n    tag_224:\n        /* \"contracts/Tocken721.sol\":36622:36679  uint256 lastTokenIndex = ownedTokens[_from].length.sub(1) */\n      swap2\n      pop\n        /* \"contracts/Tocken721.sol\":36739:36750  ownedTokens */\n      0x7\n        /* \"contracts/Tocken721.sol\":36739:36757  ownedTokens[_from] */\n      0x0\n        /* \"contracts/Tocken721.sol\":36751:36756  _from */\n      dup7\n        /* \"contracts/Tocken721.sol\":36739:36757  ownedTokens[_from] */\n      0xffffffffffffffffffffffffffffffffffffffff\n      and\n      0xffffffffffffffffffffffffffffffffffffffff\n      and\n      dup2\n      mstore\n      0x20\n      add\n      swap1\n      dup2\n      mstore\n      0x20\n      add\n      0x0\n      keccak256\n        /* \"contracts/Tocken721.sol\":36758:36772  lastTokenIndex */\n      dup3\n        /* \"contracts/Tocken721.sol\":36739:36773  ownedTokens[_from][lastTokenIndex] */\n      dup2\n      sload\n      dup2\n      lt\n      iszero\n      iszero\n      tag_226\n      jumpi\n      invalid\n    tag_226:\n      swap1\n      0x0\n      mstore\n      keccak256(0x0, 0x20)\n      add\n      sload\n        /* \"contracts/Tocken721.sol\":36719:36773  uint256 lastToken = ownedTokens[_from][lastTokenIndex] */\n      swap1\n      pop\n        /* \"contracts/Tocken721.sol\":36849:36858  lastToken */\n      dup1\n        /* \"contracts/Tocken721.sol\":36816:36827  ownedTokens */\n      0x7\n        /* \"contracts/Tocken721.sol\":36816:36834  ownedTokens[_from] */\n      0x0\n        /* \"contracts/Tocken721.sol\":36828:36833  _from */\n      dup8\n        /* \"contracts/Tocken721.sol\":36816:36834  ownedTokens[_from] */\n      0xffffffffffffffffffffffffffffffffffffffff\n      and\n      0xffffffffffffffffffffffffffffffffffffffff\n      and\n      dup2\n      mstore\n      0x20\n      add\n      swap1\n      dup2\n      mstore\n      0x20\n      add\n      0x0\n      keccak256\n        /* \"contracts/Tocken721.sol\":36835:36845  tokenIndex */\n      dup5\n        /* \"contracts/Tocken721.sol\":36816:36846  ownedTokens[_from][tokenIndex] */\n      dup2\n      sload\n      dup2\n      lt\n      iszero\n      iszero\n      tag_228\n      jumpi\n      invalid\n    tag_228:\n      swap1\n      0x0\n      mstore\n      keccak256(0x0, 0x20)\n      add\n        /* \"contracts/Tocken721.sol\":36816:36858  ownedTokens[_from][tokenIndex] = lastToken */\n      dup2\n      swap1\n      sstore\n      pop\n        /* \"contracts/Tocken721.sol\":36963:36964  0 */\n      0x0\n        /* \"contracts/Tocken721.sol\":36926:36937  ownedTokens */\n      0x7\n        /* \"contracts/Tocken721.sol\":36926:36944  ownedTokens[_from] */\n      0x0\n        /* \"contracts/Tocken721.sol\":36938:36943  _from */\n      dup8\n        /* \"contracts/Tocken721.sol\":36926:36944  ownedTokens[_from] */\n      0xffffffffffffffffffffffffffffffffffffffff\n      and\n      0xffffffffffffffffffffffffffffffffffffffff\n      and\n      dup2\n      mstore\n      0x20\n      add\n      swap1\n      dup2\n      mstore\n      0x20\n      add\n      0x0\n      keccak256\n        /* \"contracts/Tocken721.sol\":36945:36959  lastTokenIndex */\n      dup4\n        /* \"contracts/Tocken721.sol\":36926:36960  ownedTokens[_from][lastTokenIndex] */\n      dup2\n      sload\n      dup2\n      lt\n      iszero\n      iszero\n      tag_230\n      jumpi\n      invalid\n    tag_230:\n      swap1\n      0x0\n      mstore\n      keccak256(0x0, 0x20)\n      add\n        /* \"contracts/Tocken721.sol\":36926:36964  ownedTokens[_from][lastTokenIndex] = 0 */\n      dup2\n      swap1\n      sstore\n      pop\n        /* \"contracts/Tocken721.sol\":37394:37405  ownedTokens */\n      0x7\n        /* \"contracts/Tocken721.sol\":37394:37412  ownedTokens[_from] */\n      0x0\n        /* \"contracts/Tocken721.sol\":37406:37411  _from */\n      dup7\n        /* \"contracts/Tocken721.sol\":37394:37412  ownedTokens[_from] */\n      0xffffffffffffffffffffffffffffffffffffffff\n      and\n      0xffffffffffffffffffffffffffffffffffffffff\n      and\n      dup2\n      mstore\n      0x20\n      add\n      swap1\n      dup2\n      mstore\n      0x20\n      add\n      0x0\n      keccak256\n        /* \"contracts/Tocken721.sol\":37394:37421  ownedTokens[_from].length-- */\n      dup1\n      sload\n      dup1\n      swap2\n      swap1\n      0x1\n      swap1\n      sub\n      tag_232\n      swap2\n      swap1\n      jump\t// in(tag_233)\n    tag_232:\n      pop\n        /* \"contracts/Tocken721.sol\":37495:37496  0 */\n      0x0\n        /* \"contracts/Tocken721.sol\":37466:37482  ownedTokensIndex */\n      0x8\n        /* \"contracts/Tocken721.sol\":37466:37492  ownedTokensIndex[_tokenId] */\n      0x0\n        /* \"contracts/Tocken721.sol\":37483:37491  _tokenId */\n      dup7\n        /* \"contracts/Tocken721.sol\":37466:37492  ownedTokensIndex[_tokenId] */\n      dup2\n      mstore\n      0x20\n      add\n      swap1\n      dup2\n      mstore\n      0x20\n      add\n      0x0\n      keccak256\n        /* \"contracts/Tocken721.sol\":37466:37496  ownedTokensIndex[_tokenId] = 0 */\n      dup2\n      swap1\n      sstore\n      pop\n        /* \"contracts/Tocken721.sol\":37593:37603  tokenIndex */\n      dup3\n        /* \"contracts/Tocken721.sol\":37563:37579  ownedTokensIndex */\n      0x8\n        /* \"contracts/Tocken721.sol\":37563:37590  ownedTokensIndex[lastToken] */\n      0x0\n        /* \"contracts/Tocken721.sol\":37580:37589  lastToken */\n      dup4\n        /* \"contracts/Tocken721.sol\":37563:37590  ownedTokensIndex[lastToken] */\n      dup2\n      mstore\n      0x20\n      add\n      swap1\n      dup2\n      mstore\n      0x20\n      add\n      0x0\n      keccak256\n        /* \"contracts/Tocken721.sol\":37563:37603  ownedTokensIndex[lastToken] = tokenIndex */\n      dup2\n      swap1\n      sstore\n      pop\n        /* \"contracts/Tocken721.sol\":36343:37674  function removeTokenFrom(address _from, uint256 _tokenId) internal {\r... */\n      pop\n      pop\n      pop\n      pop\n      pop\n      jump\t// out\n        /* \"contracts/Tocken721.sol\":35330:36037  function addTokenTo(address _to, uint256 _tokenId) internal {\r... */\n    tag_143:\n        /* \"contracts/Tocken721.sol\":35525:35539  uint256 length */\n      0x0\n        /* \"contracts/Tocken721.sol\":35401:35432  super.addTokenTo(_to, _tokenId) */\n      tag_235\n        /* \"contracts/Tocken721.sol\":35418:35421  _to */\n      dup4\n        /* \"contracts/Tocken721.sol\":35423:35431  _tokenId */\n      dup4\n        /* \"contracts/Tocken721.sol\":35401:35417  super.addTokenTo */\n      tag_236\n        /* \"contracts/Tocken721.sol\":35401:35432  super.addTokenTo(_to, _tokenId) */\n      jump\t// in\n    tag_235:\n        /* \"contracts/Tocken721.sol\":35542:35553  ownedTokens */\n      0x7\n        /* \"contracts/Tocken721.sol\":35542:35558  ownedTokens[_to] */\n      0x0\n        /* \"contracts/Tocken721.sol\":35554:35557  _to */\n      dup5\n        /* \"contracts/Tocken721.sol\":35542:35558  ownedTokens[_to] */\n      0xffffffffffffffffffffffffffffffffffffffff\n      and\n      0xffffffffffffffffffffffffffffffffffffffff\n      and\n      dup2\n      mstore\n      0x20\n      add\n      swap1\n      dup2\n      mstore\n      0x20\n      add\n      0x0\n      keccak256\n        /* \"contracts/Tocken721.sol\":35542:35565  ownedTokens[_to].length */\n      dup1\n      sload\n      swap1\n      pop\n        /* \"contracts/Tocken721.sol\":35525:35565  uint256 length = ownedTokens[_to].length */\n      swap1\n      pop\n        /* \"contracts/Tocken721.sol\":35631:35642  ownedTokens */\n      0x7\n        /* \"contracts/Tocken721.sol\":35631:35647  ownedTokens[_to] */\n      0x0\n        /* \"contracts/Tocken721.sol\":35643:35646  _to */\n      dup5\n        /* \"contracts/Tocken721.sol\":35631:35647  ownedTokens[_to] */\n      0xffffffffffffffffffffffffffffffffffffffff\n      and\n      0xffffffffffffffffffffffffffffffffffffffff\n      and\n      dup2\n      mstore\n      0x20\n      add\n      swap1\n      dup2\n      mstore\n      0x20\n      add\n      0x0\n      keccak256\n        /* \"contracts/Tocken721.sol\":35653:35661  _tokenId */\n      dup3\n        /* \"contracts/Tocken721.sol\":35631:35662  ownedTokens[_to].push(_tokenId) */\n      swap1\n      dup1\n        /* \"--CODEGEN--\":39:40   */\n      0x1\n        /* \"--CODEGEN--\":33:36   */\n      dup2\n        /* \"--CODEGEN--\":27:37   */\n      sload\n        /* \"--CODEGEN--\":23:41   */\n      add\n        /* \"--CODEGEN--\":57:67   */\n      dup1\n        /* \"--CODEGEN--\":52:55   */\n      dup3\n        /* \"--CODEGEN--\":45:68   */\n      sstore\n        /* \"--CODEGEN--\":79:89   */\n      dup1\n        /* \"--CODEGEN--\":72:89   */\n      swap2\n      pop\n        /* \"--CODEGEN--\":0:93   */\n      pop\n        /* \"contracts/Tocken721.sol\":35631:35662  ownedTokens[_to].push(_tokenId) */\n      swap1\n      0x1\n      dup3\n      sub\n      swap1\n      0x0\n      mstore\n      keccak256(0x0, 0x20)\n      add\n      0x0\n      swap1\n      swap2\n      swap3\n      swap1\n      swap2\n      swap1\n      swap2\n      pop\n      sstore\n      pop\n        /* \"contracts/Tocken721.sol\":35746:35752  length */\n      dup1\n        /* \"contracts/Tocken721.sol\":35717:35733  ownedTokensIndex */\n      0x8\n        /* \"contracts/Tocken721.sol\":35717:35743  ownedTokensIndex[_tokenId] */\n      0x0\n        /* \"contracts/Tocken721.sol\":35734:35742  _tokenId */\n      dup5\n        /* \"contracts/Tocken721.sol\":35717:35743  ownedTokensIndex[_tokenId] */\n      dup2\n      mstore\n      0x20\n      add\n      swap1\n      dup2\n      mstore\n      0x20\n      add\n      0x0\n      keccak256\n        /* \"contracts/Tocken721.sol\":35717:35752  ownedTokensIndex[_tokenId] = length */\n      dup2\n      swap1\n      sstore\n      pop\n        /* \"contracts/Tocken721.sol\":35330:36037  function addTokenTo(address _to, uint256 _tokenId) internal {\r... */\n      pop\n      pop\n      pop\n      jump\t// out\n        /* \"contracts/Tocken721.sol\":38617:40154  function _burn(address _owner, uint256 _tokenId) internal {\r... */\n    tag_160:\n        /* \"contracts/Tocken721.sol\":39781:39799  uint256 tokenIndex */\n      0x0\n        /* \"contracts/Tocken721.sol\":39837:39859  uint256 lastTokenIndex */\n      dup1\n        /* \"contracts/Tocken721.sol\":39896:39913  uint256 lastToken */\n      0x0\n        /* \"contracts/Tocken721.sol\":38686:38715  super._burn(_owner, _tokenId) */\n      tag_239\n        /* \"contracts/Tocken721.sol\":38698:38704  _owner */\n      dup6\n        /* \"contracts/Tocken721.sol\":38706:38714  _tokenId */\n      dup6\n        /* \"contracts/Tocken721.sol\":38686:38697  super._burn */\n      tag_240\n        /* \"contracts/Tocken721.sol\":38686:38715  super._burn(_owner, _tokenId) */\n      jump\t// in\n    tag_239:\n        /* \"contracts/Tocken721.sol\":38902:38903  0 */\n      0x0\n        /* \"contracts/Tocken721.sol\":38871:38880  tokenURIs */\n      0xb\n        /* \"contracts/Tocken721.sol\":38871:38890  tokenURIs[_tokenId] */\n      0x0\n        /* \"contracts/Tocken721.sol\":38881:38889  _tokenId */\n      dup7\n        /* \"contracts/Tocken721.sol\":38871:38890  tokenURIs[_tokenId] */\n      dup2\n      mstore\n      0x20\n      add\n      swap1\n      dup2\n      mstore\n      0x20\n      add\n      0x0\n      keccak256\n        /* \"contracts/Tocken721.sol\":38865:38898  bytes(tokenURIs[_tokenId]).length */\n      dup1\n      sload\n      0x1\n      dup2\n      0x1\n      and\n      iszero\n      0x100\n      mul\n      sub\n      and\n      0x2\n      swap1\n      div\n      swap1\n      pop\n        /* \"contracts/Tocken721.sol\":38865:38903  bytes(tokenURIs[_tokenId]).length != 0 */\n      eq\n      iszero\n        /* \"contracts/Tocken721.sol\":38861:39069  if (bytes(tokenURIs[_tokenId]).length != 0) { // string 은 bytes 로 형변환하여 길이를 체크할 수 있음.\r... */\n      iszero\n      tag_241\n      jumpi\n        /* \"contracts/Tocken721.sol\":38999:39008  tokenURIs */\n      0xb\n        /* \"contracts/Tocken721.sol\":38999:39018  tokenURIs[_tokenId] */\n      0x0\n        /* \"contracts/Tocken721.sol\":39009:39017  _tokenId */\n      dup6\n        /* \"contracts/Tocken721.sol\":38999:39018  tokenURIs[_tokenId] */\n      dup2\n      mstore\n      0x20\n      add\n      swap1\n      dup2\n      mstore\n      0x20\n      add\n      0x0\n      keccak256\n      0x0\n        /* \"contracts/Tocken721.sol\":38992:39018  delete tokenURIs[_tokenId] */\n      tag_242\n      swap2\n      swap1\n      jump\t// in(tag_243)\n    tag_242:\n        /* \"contracts/Tocken721.sol\":38861:39069  if (bytes(tokenURIs[_tokenId]).length != 0) { // string 은 bytes 로 형변환하여 길이를 체크할 수 있음.\r... */\n    tag_241:\n        /* \"contracts/Tocken721.sol\":39802:39816  allTokensIndex */\n      0xa\n        /* \"contracts/Tocken721.sol\":39802:39826  allTokensIndex[_tokenId] */\n      0x0\n        /* \"contracts/Tocken721.sol\":39817:39825  _tokenId */\n      dup6\n        /* \"contracts/Tocken721.sol\":39802:39826  allTokensIndex[_tokenId] */\n      dup2\n      mstore\n      0x20\n      add\n      swap1\n      dup2\n      mstore\n      0x20\n      add\n      0x0\n      keccak256\n      sload\n        /* \"contracts/Tocken721.sol\":39781:39826  uint256 tokenIndex = allTokensIndex[_tokenId] */\n      swap3\n      pop\n        /* \"contracts/Tocken721.sol\":39862:39885  allTokens.length.sub(1) */\n      tag_244\n        /* \"contracts/Tocken721.sol\":39883:39884  1 */\n      0x1\n        /* \"contracts/Tocken721.sol\":39862:39871  allTokens */\n      0x9\n        /* \"contracts/Tocken721.sol\":39862:39878  allTokens.length */\n      dup1\n      sload\n      swap1\n      pop\n        /* \"contracts/Tocken721.sol\":39862:39882  allTokens.length.sub */\n      tag_225\n      swap1\n        /* \"contracts/Tocken721.sol\":39862:39885  allTokens.length.sub(1) */\n      swap2\n      swap1\n      0xffffffff\n      and\n      jump\t// in\n    tag_244:\n        /* \"contracts/Tocken721.sol\":39837:39885  uint256 lastTokenIndex = allTokens.length.sub(1) */\n      swap2\n      pop\n        /* \"contracts/Tocken721.sol\":39916:39925  allTokens */\n      0x9\n        /* \"contracts/Tocken721.sol\":39926:39940  lastTokenIndex */\n      dup3\n        /* \"contracts/Tocken721.sol\":39916:39941  allTokens[lastTokenIndex] */\n      dup2\n      sload\n      dup2\n      lt\n      iszero\n      iszero\n      tag_245\n      jumpi\n      invalid\n    tag_245:\n      swap1\n      0x0\n      mstore\n      keccak256(0x0, 0x20)\n      add\n      sload\n        /* \"contracts/Tocken721.sol\":39896:39941  uint256 lastToken = allTokens[lastTokenIndex] */\n      swap1\n      pop\n        /* \"contracts/Tocken721.sol\":39978:39987  lastToken */\n      dup1\n        /* \"contracts/Tocken721.sol\":39954:39963  allTokens */\n      0x9\n        /* \"contracts/Tocken721.sol\":39964:39974  tokenIndex */\n      dup5\n        /* \"contracts/Tocken721.sol\":39954:39975  allTokens[tokenIndex] */\n      dup2\n      sload\n      dup2\n      lt\n      iszero\n      iszero\n      tag_247\n      jumpi\n      invalid\n    tag_247:\n      swap1\n      0x0\n      mstore\n      keccak256(0x0, 0x20)\n      add\n        /* \"contracts/Tocken721.sol\":39954:39987  allTokens[tokenIndex] = lastToken */\n      dup2\n      swap1\n      sstore\n      pop\n        /* \"contracts/Tocken721.sol\":40026:40027  0 */\n      0x0\n        /* \"contracts/Tocken721.sol\":39998:40007  allTokens */\n      0x9\n        /* \"contracts/Tocken721.sol\":40008:40022  lastTokenIndex */\n      dup4\n        /* \"contracts/Tocken721.sol\":39998:40023  allTokens[lastTokenIndex] */\n      dup2\n      sload\n      dup2\n      lt\n      iszero\n      iszero\n      tag_249\n      jumpi\n      invalid\n    tag_249:\n      swap1\n      0x0\n      mstore\n      keccak256(0x0, 0x20)\n      add\n        /* \"contracts/Tocken721.sol\":39998:40027  allTokens[lastTokenIndex] = 0 */\n      dup2\n      swap1\n      sstore\n      pop\n        /* \"contracts/Tocken721.sol\":40040:40049  allTokens */\n      0x9\n        /* \"contracts/Tocken721.sol\":40040:40058  allTokens.length-- */\n      dup1\n      sload\n      dup1\n      swap2\n      swap1\n      0x1\n      swap1\n      sub\n      tag_251\n      swap2\n      swap1\n      jump\t// in(tag_233)\n    tag_251:\n      pop\n        /* \"contracts/Tocken721.sol\":40096:40097  0 */\n      0x0\n        /* \"contracts/Tocken721.sol\":40069:40083  allTokensIndex */\n      0xa\n        /* \"contracts/Tocken721.sol\":40069:40093  allTokensIndex[_tokenId] */\n      0x0\n        /* \"contracts/Tocken721.sol\":40084:40092  _tokenId */\n      dup7\n        /* \"contracts/Tocken721.sol\":40069:40093  allTokensIndex[_tokenId] */\n      dup2\n      mstore\n      0x20\n      add\n      swap1\n      dup2\n      mstore\n      0x20\n      add\n      0x0\n      keccak256\n        /* \"contracts/Tocken721.sol\":40069:40097  allTokensIndex[_tokenId] = 0 */\n      dup2\n      swap1\n      sstore\n      pop\n        /* \"contracts/Tocken721.sol\":40136:40146  tokenIndex */\n      dup3\n        /* \"contracts/Tocken721.sol\":40108:40122  allTokensIndex */\n      0xa\n        /* \"contracts/Tocken721.sol\":40108:40133  allTokensIndex[lastToken] */\n      0x0\n        /* \"contracts/Tocken721.sol\":40123:40132  lastToken */\n      dup4\n        /* \"contracts/Tocken721.sol\":40108:40133  allTokensIndex[lastToken] */\n      dup2\n      mstore\n      0x20\n      add\n      swap1\n      dup2\n      mstore\n      0x20\n      add\n      0x0\n      keccak256\n        /* \"contracts/Tocken721.sol\":40108:40146  allTokensIndex[lastToken] = tokenIndex */\n      dup2\n      swap1\n      sstore\n      pop\n        /* \"contracts/Tocken721.sol\":38617:40154  function _burn(address _owner, uint256 _tokenId) internal {\r... */\n      pop\n      pop\n      pop\n      pop\n      pop\n      jump\t// out\n        /* \"contracts/Tocken721.sol\":37968:38352  function _mint(address _to, uint256 _tokenId) internal {\r... */\n    tag_184:\n        /* \"contracts/Tocken721.sol\":38034:38060  super._mint(_to, _tokenId) */\n      tag_253\n        /* \"contracts/Tocken721.sol\":38046:38049  _to */\n      dup3\n        /* \"contracts/Tocken721.sol\":38051:38059  _tokenId */\n      dup3\n        /* \"contracts/Tocken721.sol\":38034:38045  super._mint */\n      tag_254\n        /* \"contracts/Tocken721.sol\":38034:38060  super._mint(_to, _tokenId) */\n      jump\t// in\n    tag_253:\n        /* \"contracts/Tocken721.sol\":38192:38201  allTokens */\n      0x9\n        /* \"contracts/Tocken721.sol\":38192:38208  allTokens.length */\n      dup1\n      sload\n      swap1\n      pop\n        /* \"contracts/Tocken721.sol\":38165:38179  allTokensIndex */\n      0xa\n        /* \"contracts/Tocken721.sol\":38165:38189  allTokensIndex[_tokenId] */\n      0x0\n        /* \"contracts/Tocken721.sol\":38180:38188  _tokenId */\n      dup4\n        /* \"contracts/Tocken721.sol\":38165:38189  allTokensIndex[_tokenId] */\n      dup2\n      mstore\n      0x20\n      add\n      swap1\n      dup2\n      mstore\n      0x20\n      add\n      0x0\n      keccak256\n        /* \"contracts/Tocken721.sol\":38165:38208  allTokensIndex[_tokenId] = allTokens.length */\n      dup2\n      swap1\n      sstore\n      pop\n        /* \"contracts/Tocken721.sol\":38287:38296  allTokens */\n      0x9\n        /* \"contracts/Tocken721.sol\":38302:38310  _tokenId */\n      dup2\n        /* \"contracts/Tocken721.sol\":38287:38311  allTokens.push(_tokenId) */\n      swap1\n      dup1\n        /* \"--CODEGEN--\":39:40   */\n      0x1\n        /* \"--CODEGEN--\":33:36   */\n      dup2\n        /* \"--CODEGEN--\":27:37   */\n      sload\n        /* \"--CODEGEN--\":23:41   */\n      add\n        /* \"--CODEGEN--\":57:67   */\n      dup1\n        /* \"--CODEGEN--\":52:55   */\n      dup3\n        /* \"--CODEGEN--\":45:68   */\n      sstore\n        /* \"--CODEGEN--\":79:89   */\n      dup1\n        /* \"--CODEGEN--\":72:89   */\n      swap2\n      pop\n        /* \"--CODEGEN--\":0:93   */\n      pop\n        /* \"contracts/Tocken721.sol\":38287:38311  allTokens.push(_tokenId) */\n      swap1\n      0x1\n      dup3\n      sub\n      swap1\n      0x0\n      mstore\n      keccak256(0x0, 0x20)\n      add\n      0x0\n      swap1\n      swap2\n      swap3\n      swap1\n      swap2\n      swap1\n      swap2\n      pop\n      sstore\n      pop\n        /* \"contracts/Tocken721.sol\":37968:38352  function _mint(address _to, uint256 _tokenId) internal {\r... */\n      pop\n      pop\n      jump\t// out\n        /* \"contracts/Tocken721.sol\":25765:26442  function checkAndCallSafeTransfer(\r... */\n    tag_193:\n        /* \"contracts/Tocken721.sol\":25962:25966  bool */\n      0x0\n        /* \"contracts/Tocken721.sol\":26103:26116  bytes4 retval */\n      dup1\n        /* \"contracts/Tocken721.sol\":25989:26005  _to.isContract() */\n      tag_257\n        /* \"contracts/Tocken721.sol\":25989:25992  _to */\n      dup6\n        /* \"contracts/Tocken721.sol\":25989:26003  _to.isContract */\n      0xffffffffffffffffffffffffffffffffffffffff\n      and\n      tag_258\n        /* \"contracts/Tocken721.sol\":25989:26005  _to.isContract() */\n      jump\t// in\n    tag_257:\n        /* \"contracts/Tocken721.sol\":25988:26005  !_to.isContract() */\n      iszero\n        /* \"contracts/Tocken721.sol\":25984:26093  if (!_to.isContract()) { // 콘트랙트가 아니면 그냥 return true\r... */\n      iszero\n      tag_259\n      jumpi\n        /* \"contracts/Tocken721.sol\":26077:26081  true */\n      0x1\n        /* \"contracts/Tocken721.sol\":26070:26081  return true */\n      swap2\n      pop\n      jump(tag_256)\n        /* \"contracts/Tocken721.sol\":25984:26093  if (!_to.isContract()) { // 콘트랙트가 아니면 그냥 return true\r... */\n    tag_259:\n        /* \"contracts/Tocken721.sol\":26134:26137  _to */\n      dup5\n        /* \"contracts/Tocken721.sol\":26119:26155  ERC721Receiver(_to).onERC721Received */\n      0xffffffffffffffffffffffffffffffffffffffff\n      and\n      0xf0b9e5ba\n        /* \"contracts/Tocken721.sol\":26170:26175  _from */\n      dup8\n        /* \"contracts/Tocken721.sol\":26177:26185  _tokenId */\n      dup7\n        /* \"contracts/Tocken721.sol\":26187:26192  _data */\n      dup7\n        /* \"contracts/Tocken721.sol\":26119:26193  ERC721Receiver(_to).onERC721Received(\r... */\n      mload(0x40)\n      dup5\n      0xffffffff\n      and\n      0x100000000000000000000000000000000000000000000000000000000\n      mul\n      dup2\n      mstore\n      0x4\n      add\n      dup1\n      dup5\n      0xffffffffffffffffffffffffffffffffffffffff\n      and\n      0xffffffffffffffffffffffffffffffffffffffff\n      and\n      dup2\n      mstore\n      0x20\n      add\n      dup4\n      dup2\n      mstore\n      0x20\n      add\n      dup1\n      0x20\n      add\n      dup3\n      dup2\n      sub\n      dup3\n      mstore\n      dup4\n      dup2\n      dup2\n      mload\n      dup2\n      mstore\n      0x20\n      add\n      swap2\n      pop\n      dup1\n      mload\n      swap1\n      0x20\n      add\n      swap1\n      dup1\n      dup4\n      dup4\n        /* \"--CODEGEN--\":23:24   */\n      0x0\n        /* \"--CODEGEN--\":8:108   */\n    tag_260:\n        /* \"--CODEGEN--\":33:36   */\n      dup4\n        /* \"--CODEGEN--\":30:31   */\n      dup2\n        /* \"--CODEGEN--\":27:37   */\n      lt\n        /* \"--CODEGEN--\":8:108   */\n      iszero\n      tag_261\n      jumpi\n        /* \"--CODEGEN--\":99:100   */\n      dup1\n        /* \"--CODEGEN--\":94:97   */\n      dup3\n        /* \"--CODEGEN--\":90:101   */\n      add\n        /* \"--CODEGEN--\":84:102   */\n      mload\n        /* \"--CODEGEN--\":80:81   */\n      dup2\n        /* \"--CODEGEN--\":75:78   */\n      dup5\n        /* \"--CODEGEN--\":71:82   */\n      add\n        /* \"--CODEGEN--\":64:103   */\n      mstore\n        /* \"--CODEGEN--\":52:54   */\n      0x20\n        /* \"--CODEGEN--\":49:50   */\n      dup2\n        /* \"--CODEGEN--\":45:55   */\n      add\n        /* \"--CODEGEN--\":40:55   */\n      swap1\n      pop\n        /* \"--CODEGEN--\":8:108   */\n      jump(tag_260)\n    tag_261:\n        /* \"--CODEGEN--\":12:26   */\n      pop\n        /* \"contracts/Tocken721.sol\":26119:26193  ERC721Receiver(_to).onERC721Received(\r... */\n      pop\n      pop\n      pop\n      swap1\n      pop\n      swap1\n      dup2\n      add\n      swap1\n      0x1f\n      and\n      dup1\n      iszero\n      tag_263\n      jumpi\n      dup1\n      dup3\n      sub\n      dup1\n      mload\n      0x1\n      dup4\n      0x20\n      sub\n      0x100\n      exp\n      sub\n      not\n      and\n      dup2\n      mstore\n      0x20\n      add\n      swap2\n      pop\n    tag_263:\n      pop\n      swap5\n      pop\n      pop\n      pop\n      pop\n      pop\n      0x20\n      mload(0x40)\n      dup1\n      dup4\n      sub\n      dup2\n      0x0\n      dup8\n      dup1\n      extcodesize\n      iszero\n        /* \"--CODEGEN--\":8:17   */\n      dup1\n        /* \"--CODEGEN--\":5:7   */\n      iszero\n      tag_264\n      jumpi\n        /* \"--CODEGEN--\":30:31   */\n      0x0\n        /* \"--CODEGEN--\":27:28   */\n      dup1\n        /* \"--CODEGEN--\":20:32   */\n      revert\n        /* \"--CODEGEN--\":5:7   */\n    tag_264:\n        /* \"contracts/Tocken721.sol\":26119:26193  ERC721Receiver(_to).onERC721Received(\r... */\n      pop\n      gas\n      call\n      iszero\n        /* \"--CODEGEN--\":8:17   */\n      dup1\n        /* \"--CODEGEN--\":5:7   */\n      iszero\n      tag_265\n      jumpi\n        /* \"--CODEGEN--\":45:61   */\n      returndatasize\n        /* \"--CODEGEN--\":42:43   */\n      0x0\n        /* \"--CODEGEN--\":39:40   */\n      dup1\n        /* \"--CODEGEN--\":24:62   */\n      returndatacopy\n        /* \"--CODEGEN--\":77:93   */\n      returndatasize\n        /* \"--CODEGEN--\":74:75   */\n      0x0\n        /* \"--CODEGEN--\":67:94   */\n      revert\n        /* \"--CODEGEN--\":5:7   */\n    tag_265:\n        /* \"contracts/Tocken721.sol\":26119:26193  ERC721Receiver(_to).onERC721Received(\r... */\n      pop\n      pop\n      pop\n      pop\n      mload(0x40)\n      returndatasize\n        /* \"--CODEGEN--\":13:15   */\n      0x20\n        /* \"--CODEGEN--\":8:11   */\n      dup2\n        /* \"--CODEGEN--\":5:16   */\n      lt\n        /* \"--CODEGEN--\":2:4   */\n      iszero\n      tag_266\n      jumpi\n        /* \"--CODEGEN--\":29:30   */\n      0x0\n        /* \"--CODEGEN--\":26:27   */\n      dup1\n        /* \"--CODEGEN--\":19:31   */\n      revert\n        /* \"--CODEGEN--\":2:4   */\n    tag_266:\n        /* \"contracts/Tocken721.sol\":26119:26193  ERC721Receiver(_to).onERC721Received(\r... */\n      dup2\n      add\n      swap1\n      dup1\n      dup1\n      mload\n      swap1\n      0x20\n      add\n      swap1\n      swap3\n      swap2\n      swap1\n      pop\n      pop\n      pop\n        /* \"contracts/Tocken721.sol\":26103:26193  bytes4 retval = ERC721Receiver(_to).onERC721Received(\r... */\n      swap1\n      pop\n        /* \"contracts/Tocken721.sol\":11349:11359  0xf0b9e5ba */\n      0xf0b9e5ba\n        /* \"contracts/Tocken721.sol\":26335:26350  ERC721_RECEIVED */\n      0x100000000000000000000000000000000000000000000000000000000\n      mul\n        /* \"contracts/Tocken721.sol\":26325:26350  retval == ERC721_RECEIVED */\n      not(0xffffffffffffffffffffffffffffffffffffffffffffffffffffffff)\n      and\n        /* \"contracts/Tocken721.sol\":26325:26331  retval */\n      dup2\n        /* \"contracts/Tocken721.sol\":26325:26350  retval == ERC721_RECEIVED */\n      not(0xffffffffffffffffffffffffffffffffffffffffffffffffffffffff)\n      and\n      eq\n        /* \"contracts/Tocken721.sol\":26317:26351  return (retval == ERC721_RECEIVED) */\n      swap2\n      pop\n        /* \"contracts/Tocken721.sol\":25765:26442  function checkAndCallSafeTransfer(\r... */\n    tag_256:\n      pop\n      swap5\n      swap4\n      pop\n      pop\n      pop\n      pop\n      jump\t// out\n        /* \"contracts/Tocken721.sol\":24848:25219  function removeTokenFrom(address _from, uint256 _tokenId) internal { // 내부에서만 호출 가능\r... */\n    tag_223:\n        /* \"contracts/Tocken721.sol\":24988:24993  _from */\n      dup2\n        /* \"contracts/Tocken721.sol\":24967:24993  ownerOf(_tokenId) == _from */\n      0xffffffffffffffffffffffffffffffffffffffff\n      and\n        /* \"contracts/Tocken721.sol\":24967:24984  ownerOf(_tokenId) */\n      tag_268\n        /* \"contracts/Tocken721.sol\":24975:24983  _tokenId */\n      dup3\n        /* \"contracts/Tocken721.sol\":24967:24974  ownerOf */\n      tag_71\n        /* \"contracts/Tocken721.sol\":24967:24984  ownerOf(_tokenId) */\n      jump\t// in\n    tag_268:\n        /* \"contracts/Tocken721.sol\":24967:24993  ownerOf(_tokenId) == _from */\n      0xffffffffffffffffffffffffffffffffffffffff\n      and\n      eq\n        /* \"contracts/Tocken721.sol\":24959:24994  require(ownerOf(_tokenId) == _from) */\n      iszero\n      iszero\n      tag_269\n      jumpi\n      0x0\n      dup1\n      revert\n    tag_269:\n        /* \"contracts/Tocken721.sol\":25077:25107  ownedTokensCount[_from].sub(1) */\n      tag_270\n        /* \"contracts/Tocken721.sol\":25105:25106  1 */\n      0x1\n        /* \"contracts/Tocken721.sol\":25077:25093  ownedTokensCount */\n      0x3\n        /* \"contracts/Tocken721.sol\":25077:25100  ownedTokensCount[_from] */\n      0x0\n        /* \"contracts/Tocken721.sol\":25094:25099  _from */\n      dup6\n        /* \"contracts/Tocken721.sol\":25077:25100  ownedTokensCount[_from] */\n      0xffffffffffffffffffffffffffffffffffffffff\n      and\n      0xffffffffffffffffffffffffffffffffffffffff\n      and\n      dup2\n      mstore\n      0x20\n      add\n      swap1\n      dup2\n      mstore\n      0x20\n      add\n      0x0\n      keccak256\n      sload\n        /* \"contracts/Tocken721.sol\":25077:25104  ownedTokensCount[_from].sub */\n      tag_225\n      swap1\n        /* \"contracts/Tocken721.sol\":25077:25107  ownedTokensCount[_from].sub(1) */\n      swap2\n      swap1\n      0xffffffff\n      and\n      jump\t// in\n    tag_270:\n        /* \"contracts/Tocken721.sol\":25051:25067  ownedTokensCount */\n      0x3\n        /* \"contracts/Tocken721.sol\":25051:25074  ownedTokensCount[_from] */\n      0x0\n        /* \"contracts/Tocken721.sol\":25068:25073  _from */\n      dup5\n        /* \"contracts/Tocken721.sol\":25051:25074  ownedTokensCount[_from] */\n      0xffffffffffffffffffffffffffffffffffffffff\n      and\n      0xffffffffffffffffffffffffffffffffffffffff\n      and\n      dup2\n      mstore\n      0x20\n      add\n      swap1\n      dup2\n      mstore\n      0x20\n      add\n      0x0\n      keccak256\n        /* \"contracts/Tocken721.sol\":25051:25107  ownedTokensCount[_from] = ownedTokensCount[_from].sub(1) */\n      dup2\n      swap1\n      sstore\n      pop\n        /* \"contracts/Tocken721.sol\":25192:25193  0 */\n      0x0\n        /* \"contracts/Tocken721.sol\":25161:25171  tokenOwner */\n      0x1\n        /* \"contracts/Tocken721.sol\":25161:25181  tokenOwner[_tokenId] */\n      0x0\n        /* \"contracts/Tocken721.sol\":25172:25180  _tokenId */\n      dup4\n        /* \"contracts/Tocken721.sol\":25161:25181  tokenOwner[_tokenId] */\n      dup2\n      mstore\n      0x20\n      add\n      swap1\n      dup2\n      mstore\n      0x20\n      add\n      0x0\n      keccak256\n      0x0\n        /* \"contracts/Tocken721.sol\":25161:25194  tokenOwner[_tokenId] = address(0) */\n      0x100\n      exp\n      dup2\n      sload\n      dup2\n      0xffffffffffffffffffffffffffffffffffffffff\n      mul\n      not\n      and\n      swap1\n      dup4\n      0xffffffffffffffffffffffffffffffffffffffff\n      and\n      mul\n      or\n      swap1\n      sstore\n      pop\n        /* \"contracts/Tocken721.sol\":24848:25219  function removeTokenFrom(address _from, uint256 _tokenId) internal { // 내부에서만 호출 가능\r... */\n      pop\n      pop\n      jump\t// out\n        /* \"contracts/Tocken721.sol\":9197:9320  function sub(uint256 a, uint256 b) internal pure returns (uint256) {\r... */\n    tag_225:\n        /* \"contracts/Tocken721.sol\":9255:9262  uint256 */\n      0x0\n        /* \"contracts/Tocken721.sol\":9287:9288  a */\n      dup3\n        /* \"contracts/Tocken721.sol\":9282:9283  b */\n      dup3\n        /* \"contracts/Tocken721.sol\":9282:9288  b <= a */\n      gt\n      iszero\n        /* \"contracts/Tocken721.sol\":9275:9289  assert(b <= a) */\n      iszero\n      iszero\n      tag_272\n      jumpi\n      invalid\n    tag_272:\n        /* \"contracts/Tocken721.sol\":9311:9312  b */\n      dup2\n        /* \"contracts/Tocken721.sol\":9307:9308  a */\n      dup4\n        /* \"contracts/Tocken721.sol\":9307:9312  a - b */\n      sub\n        /* \"contracts/Tocken721.sol\":9300:9312  return a - b */\n      swap1\n      pop\n        /* \"contracts/Tocken721.sol\":9197:9320  function sub(uint256 a, uint256 b) internal pure returns (uint256) {\r... */\n      swap3\n      swap2\n      pop\n      pop\n      jump\t// out\n        /* \"contracts/Tocken721.sol\":24113:24550  function addTokenTo(address _to, uint256 _tokenId) internal { // 내부에서만 호출 가능\r... */\n    tag_236:\n        /* \"contracts/Tocken721.sol\":24257:24258  0 */\n      0x0\n        /* \"contracts/Tocken721.sol\":24225:24259  tokenOwner[_tokenId] == address(0) */\n      0xffffffffffffffffffffffffffffffffffffffff\n      and\n        /* \"contracts/Tocken721.sol\":24225:24235  tokenOwner */\n      0x1\n        /* \"contracts/Tocken721.sol\":24225:24245  tokenOwner[_tokenId] */\n      0x0\n        /* \"contracts/Tocken721.sol\":24236:24244  _tokenId */\n      dup4\n        /* \"contracts/Tocken721.sol\":24225:24245  tokenOwner[_tokenId] */\n      dup2\n      mstore\n      0x20\n      add\n      swap1\n      dup2\n      mstore\n      0x20\n      add\n      0x0\n      keccak256\n      0x0\n      swap1\n      sload\n      swap1\n      0x100\n      exp\n      swap1\n      div\n      0xffffffffffffffffffffffffffffffffffffffff\n      and\n        /* \"contracts/Tocken721.sol\":24225:24259  tokenOwner[_tokenId] == address(0) */\n      0xffffffffffffffffffffffffffffffffffffffff\n      and\n      eq\n        /* \"contracts/Tocken721.sol\":24217:24260  require(tokenOwner[_tokenId] == address(0)) */\n      iszero\n      iszero\n      tag_274\n      jumpi\n      0x0\n      dup1\n      revert\n    tag_274:\n        /* \"contracts/Tocken721.sol\":24383:24386  _to */\n      dup2\n        /* \"contracts/Tocken721.sol\":24360:24370  tokenOwner */\n      0x1\n        /* \"contracts/Tocken721.sol\":24360:24380  tokenOwner[_tokenId] */\n      0x0\n        /* \"contracts/Tocken721.sol\":24371:24379  _tokenId */\n      dup4\n        /* \"contracts/Tocken721.sol\":24360:24380  tokenOwner[_tokenId] */\n      dup2\n      mstore\n      0x20\n      add\n      swap1\n      dup2\n      mstore\n      0x20\n      add\n      0x0\n      keccak256\n      0x0\n        /* \"contracts/Tocken721.sol\":24360:24386  tokenOwner[_tokenId] = _to */\n      0x100\n      exp\n      dup2\n      sload\n      dup2\n      0xffffffffffffffffffffffffffffffffffffffff\n      mul\n      not\n      and\n      swap1\n      dup4\n      0xffffffffffffffffffffffffffffffffffffffff\n      and\n      mul\n      or\n      swap1\n      sstore\n      pop\n        /* \"contracts/Tocken721.sol\":24473:24501  ownedTokensCount[_to].add(1) */\n      tag_275\n        /* \"contracts/Tocken721.sol\":24499:24500  1 */\n      0x1\n        /* \"contracts/Tocken721.sol\":24473:24489  ownedTokensCount */\n      0x3\n        /* \"contracts/Tocken721.sol\":24473:24494  ownedTokensCount[_to] */\n      0x0\n        /* \"contracts/Tocken721.sol\":24490:24493  _to */\n      dup6\n        /* \"contracts/Tocken721.sol\":24473:24494  ownedTokensCount[_to] */\n      0xffffffffffffffffffffffffffffffffffffffff\n      and\n      0xffffffffffffffffffffffffffffffffffffffff\n      and\n      dup2\n      mstore\n      0x20\n      add\n      swap1\n      dup2\n      mstore\n      0x20\n      add\n      0x0\n      keccak256\n      sload\n        /* \"contracts/Tocken721.sol\":24473:24498  ownedTokensCount[_to].add */\n      tag_276\n      swap1\n        /* \"contracts/Tocken721.sol\":24473:24501  ownedTokensCount[_to].add(1) */\n      swap2\n      swap1\n      0xffffffff\n      and\n      jump\t// in\n    tag_275:\n        /* \"contracts/Tocken721.sol\":24449:24465  ownedTokensCount */\n      0x3\n        /* \"contracts/Tocken721.sol\":24449:24470  ownedTokensCount[_to] */\n      0x0\n        /* \"contracts/Tocken721.sol\":24466:24469  _to */\n      dup5\n        /* \"contracts/Tocken721.sol\":24449:24470  ownedTokensCount[_to] */\n      0xffffffffffffffffffffffffffffffffffffffff\n      and\n      0xffffffffffffffffffffffffffffffffffffffff\n      and\n      dup2\n      mstore\n      0x20\n      add\n      swap1\n      dup2\n      mstore\n      0x20\n      add\n      0x0\n      keccak256\n        /* \"contracts/Tocken721.sol\":24449:24501  ownedTokensCount[_to] = ownedTokensCount[_to].add(1) */\n      dup2\n      swap1\n      sstore\n      pop\n        /* \"contracts/Tocken721.sol\":24113:24550  function addTokenTo(address _to, uint256 _tokenId) internal { // 내부에서만 호출 가능\r... */\n      pop\n      pop\n      jump\t// out\n        /* \"contracts/Tocken721.sol\":22677:23062  function _burn(address _owner, uint256 _tokenId) internal {\r... */\n    tag_240:\n        /* \"contracts/Tocken721.sol\":22746:22777  clearApproval(_owner, _tokenId) */\n      tag_278\n        /* \"contracts/Tocken721.sol\":22760:22766  _owner */\n      dup3\n        /* \"contracts/Tocken721.sol\":22768:22776  _tokenId */\n      dup3\n        /* \"contracts/Tocken721.sol\":22746:22759  clearApproval */\n      tag_139\n        /* \"contracts/Tocken721.sol\":22746:22777  clearApproval(_owner, _tokenId) */\n      jump\t// in\n    tag_278:\n        /* \"contracts/Tocken721.sol\":22814:22847  removeTokenFrom(_owner, _tokenId) */\n      tag_279\n        /* \"contracts/Tocken721.sol\":22830:22836  _owner */\n      dup3\n        /* \"contracts/Tocken721.sol\":22838:22846  _tokenId */\n      dup3\n        /* \"contracts/Tocken721.sol\":22814:22829  removeTokenFrom */\n      tag_141\n        /* \"contracts/Tocken721.sol\":22814:22847  removeTokenFrom(_owner, _tokenId) */\n      jump\t// in\n    tag_279:\n        /* \"contracts/Tocken721.sol\":22909:22917  _tokenId */\n      dup1\n        /* \"contracts/Tocken721.sol\":22905:22906  0 */\n      0x0\n        /* \"contracts/Tocken721.sol\":22880:22918  Transfer(_owner, address(0), _tokenId) */\n      0xffffffffffffffffffffffffffffffffffffffff\n      and\n        /* \"contracts/Tocken721.sol\":22889:22895  _owner */\n      dup4\n        /* \"contracts/Tocken721.sol\":22880:22918  Transfer(_owner, address(0), _tokenId) */\n      0xffffffffffffffffffffffffffffffffffffffff\n      and\n      0xddf252ad1be2c89b69c2b068fc378daa952ba7f163c4a11628f55a4df523b3ef\n      mload(0x40)\n      mload(0x40)\n      dup1\n      swap2\n      sub\n      swap1\n      log4\n        /* \"contracts/Tocken721.sol\":22677:23062  function _burn(address _owner, uint256 _tokenId) internal {\r... */\n      pop\n      pop\n      jump\t// out\n        /* \"contracts/Tocken721.sol\":21874:22245  function _mint(address _to, uint256 _tokenId) internal {\r... */\n    tag_254:\n        /* \"contracts/Tocken721.sol\":21963:21964  0 */\n      0x0\n        /* \"contracts/Tocken721.sol\":21948:21965  _to != address(0) */\n      0xffffffffffffffffffffffffffffffffffffffff\n      and\n        /* \"contracts/Tocken721.sol\":21948:21951  _to */\n      dup3\n        /* \"contracts/Tocken721.sol\":21948:21965  _to != address(0) */\n      0xffffffffffffffffffffffffffffffffffffffff\n      and\n      eq\n      iszero\n        /* \"contracts/Tocken721.sol\":21940:21966  require(_to != address(0)) */\n      iszero\n      iszero\n      tag_281\n      jumpi\n      0x0\n      dup1\n      revert\n    tag_281:\n        /* \"contracts/Tocken721.sol\":22006:22031  addTokenTo(_to, _tokenId) */\n      tag_282\n        /* \"contracts/Tocken721.sol\":22017:22020  _to */\n      dup3\n        /* \"contracts/Tocken721.sol\":22022:22030  _tokenId */\n      dup3\n        /* \"contracts/Tocken721.sol\":22006:22016  addTokenTo */\n      tag_143\n        /* \"contracts/Tocken721.sol\":22006:22031  addTokenTo(_to, _tokenId) */\n      jump\t// in\n    tag_282:\n        /* \"contracts/Tocken721.sol\":22090:22098  _tokenId */\n      dup1\n        /* \"contracts/Tocken721.sol\":22085:22088  _to */\n      dup3\n        /* \"contracts/Tocken721.sol\":22064:22099  Transfer(address(0), _to, _tokenId) */\n      0xffffffffffffffffffffffffffffffffffffffff\n      and\n        /* \"contracts/Tocken721.sol\":22081:22082  0 */\n      0x0\n        /* \"contracts/Tocken721.sol\":22064:22099  Transfer(address(0), _to, _tokenId) */\n      0xffffffffffffffffffffffffffffffffffffffff\n      and\n      0xddf252ad1be2c89b69c2b068fc378daa952ba7f163c4a11628f55a4df523b3ef\n      mload(0x40)\n      mload(0x40)\n      dup1\n      swap2\n      sub\n      swap1\n      log4\n        /* \"contracts/Tocken721.sol\":21874:22245  function _mint(address _to, uint256 _tokenId) internal {\r... */\n      pop\n      pop\n      jump\t// out\n        /* \"contracts/Tocken721.sol\":10060:10689  function isContract(address addr) internal view returns (bool) {\r... */\n    tag_258:\n        /* \"contracts/Tocken721.sol\":10117:10121  bool */\n      0x0\n        /* \"contracts/Tocken721.sol\":10134:10146  uint256 size */\n      dup1\n        /* \"contracts/Tocken721.sol\":10649:10653  addr */\n      dup3\n        /* \"contracts/Tocken721.sol\":10637:10654  extcodesize(addr) */\n      extcodesize\n        /* \"contracts/Tocken721.sol\":10629:10654  size := extcodesize(addr) */\n      swap1\n      pop\n        /* \"contracts/Tocken721.sol\":10680:10681  0 */\n      0x0\n        /* \"contracts/Tocken721.sol\":10673:10677  size */\n      dup2\n        /* \"contracts/Tocken721.sol\":10673:10681  size > 0 */\n      gt\n        /* \"contracts/Tocken721.sol\":10666:10681  return size > 0 */\n      swap2\n      pop\n        /* \"contracts/Tocken721.sol\":10060:10689  function isContract(address addr) internal view returns (bool) {\r... */\n      pop\n      swap2\n      swap1\n      pop\n      jump\t// out\n        /* \"contracts/Tocken721.sol\":9395:9536  function add(uint256 a, uint256 b) internal pure returns (uint256 c) {\r... */\n    tag_276:\n        /* \"contracts/Tocken721.sol\":9453:9462  uint256 c */\n      0x0\n        /* \"contracts/Tocken721.sol\":9483:9484  b */\n      dup2\n        /* \"contracts/Tocken721.sol\":9479:9480  a */\n      dup4\n        /* \"contracts/Tocken721.sol\":9479:9484  a + b */\n      add\n        /* \"contracts/Tocken721.sol\":9475:9484  c = a + b */\n      swap1\n      pop\n        /* \"contracts/Tocken721.sol\":9507:9508  a */\n      dup3\n        /* \"contracts/Tocken721.sol\":9502:9503  c */\n      dup2\n        /* \"contracts/Tocken721.sol\":9502:9508  c >= a */\n      lt\n      iszero\n        /* \"contracts/Tocken721.sol\":9495:9509  assert(c >= a) */\n      iszero\n      iszero\n      tag_285\n      jumpi\n      invalid\n    tag_285:\n        /* \"contracts/Tocken721.sol\":9527:9528  c */\n      dup1\n        /* \"contracts/Tocken721.sol\":9520:9528  return c */\n      swap1\n      pop\n        /* \"contracts/Tocken721.sol\":9395:9536  function add(uint256 a, uint256 b) internal pure returns (uint256 c) {\r... */\n      swap3\n      swap2\n      pop\n      pop\n      jump\t// out\n        /* \"contracts/Tocken721.sol\":41965:42448  contract Token721 is ERC721Token, Ownable {\r... */\n    tag_210:\n      dup3\n      dup1\n      sload\n      0x1\n      dup2\n      0x1\n      and\n      iszero\n      0x100\n      mul\n      sub\n      and\n      0x2\n      swap1\n      div\n      swap1\n      0x0\n      mstore\n      keccak256(0x0, 0x20)\n      swap1\n      0x1f\n      add\n      0x20\n      swap1\n      div\n      dup2\n      add\n      swap3\n      dup3\n      0x1f\n      lt\n      tag_287\n      jumpi\n      dup1\n      mload\n      not(0xff)\n      and\n      dup4\n      dup1\n      add\n      or\n      dup6\n      sstore\n      jump(tag_286)\n    tag_287:\n      dup3\n      dup1\n      add\n      0x1\n      add\n      dup6\n      sstore\n      dup3\n      iszero\n      tag_286\n      jumpi\n      swap2\n      dup3\n      add\n    tag_288:\n      dup3\n      dup2\n      gt\n      iszero\n      tag_289\n      jumpi\n      dup3\n      mload\n      dup3\n      sstore\n      swap2\n      0x20\n      add\n      swap2\n      swap1\n      0x1\n      add\n      swap1\n      jump(tag_288)\n    tag_289:\n    tag_286:\n      pop\n      swap1\n      pop\n      tag_290\n      swap2\n      swap1\n      jump\t// in(tag_291)\n    tag_290:\n      pop\n      swap1\n      jump\t// out\n    tag_233:\n      dup2\n      sload\n      dup2\n      dup4\n      sstore\n      dup2\n      dup2\n      gt\n      iszero\n      tag_292\n      jumpi\n      dup2\n      dup4\n      0x0\n      mstore\n      keccak256(0x0, 0x20)\n      swap2\n      dup3\n      add\n      swap2\n      add\n      tag_293\n      swap2\n      swap1\n      jump\t// in(tag_291)\n    tag_293:\n    tag_292:\n      pop\n      pop\n      pop\n      jump\t// out\n    tag_243:\n      pop\n      dup1\n      sload\n      0x1\n      dup2\n      0x1\n      and\n      iszero\n      0x100\n      mul\n      sub\n      and\n      0x2\n      swap1\n      div\n      0x0\n      dup3\n      sstore\n      dup1\n      0x1f\n      lt\n      tag_295\n      jumpi\n      pop\n      jump(tag_294)\n    tag_295:\n      0x1f\n      add\n      0x20\n      swap1\n      div\n      swap1\n      0x0\n      mstore\n      keccak256(0x0, 0x20)\n      swap1\n      dup2\n      add\n      swap1\n      tag_296\n      swap2\n      swap1\n      jump\t// in(tag_291)\n    tag_296:\n    tag_294:\n      pop\n      jump\t// out\n    tag_291:\n      tag_297\n      swap2\n      swap1\n    tag_298:\n      dup1\n      dup3\n      gt\n      iszero\n      tag_299\n      jumpi\n      0x0\n      dup2\n      0x0\n      swap1\n      sstore\n      pop\n      0x1\n      add\n      jump(tag_298)\n    tag_299:\n      pop\n      swap1\n      jump\n    tag_297:\n      swap1\n      jump\t// out\n\n    auxdata: 0xa165627a7a7230582067645a63f02e4d0b59fb03d292048235a9fa5bd5ca3c04295da061a1a91bae6d0029\n}\n",
				"bytecode": {
					"linkReferences": {},
					"object": "60806040523480156200001157600080fd5b506040805190810160405280600881526020017f373231546f6b656e0000000000000000000000000000000000000000000000008152506040805190810160405280600481526020017f4d37323100000000000000000000000000000000000000000000000000000000815250620000bb6301ffc9a77c0100000000000000000000000000000000000000000000000000000000026200022a640100000000026401000000009004565b620000f86380ac58cd7c0100000000000000000000000000000000000000000000000000000000026200022a640100000000026401000000009004565b62000135634f558e797c0100000000000000000000000000000000000000000000000000000000026200022a640100000000026401000000009004565b6200017263780e9d637c0100000000000000000000000000000000000000000000000000000000026200022a640100000000026401000000009004565b620001af635b5e139f7c0100000000000000000000000000000000000000000000000000000000026200022a640100000000026401000000009004565b8160059080519060200190620001c7929190620002e8565b508060069080519060200190620001e0929190620002e8565b50505033600c60006101000a81548173ffffffffffffffffffffffffffffffffffffffff021916908373ffffffffffffffffffffffffffffffffffffffff16021790555062000397565b63ffffffff7c010000000000000000000000000000000000000000000000000000000002817bffffffffffffffffffffffffffffffffffffffffffffffffffffffff1916141515156200027c57600080fd5b6001600080837bffffffffffffffffffffffffffffffffffffffffffffffffffffffff19167bffffffffffffffffffffffffffffffffffffffffffffffffffffffff1916815260200190815260200160002060006101000a81548160ff02191690831515021790555050565b828054600181600116156101000203166002900490600052602060002090601f016020900481019282601f106200032b57805160ff19168380011785556200035c565b828001600101855582156200035c579182015b828111156200035b5782518255916020019190600101906200033e565b5b5090506200036b91906200036f565b5090565b6200039491905b808211156200039057600081600090555060010162000376565b5090565b90565b61260980620003a76000396000f30060806040526004361061013e576000357c0100000000000000000000000000000000000000000000000000000000900463ffffffff16806301ffc9a71461014357806306fdde03146101a7578063081812fc14610237578063095ea7b3146102a4578063162094c4146102f157806318160ddd1461036457806319fa8f501461038f57806323b872dd146103f85780632f745c591461046557806342842e0e146104c657806342966c68146105335780634f558e79146105605780634f6ccce7146105a55780636352211e146105e657806370a0823114610653578063715018a6146106aa5780638da5cb5b146106c157806395d89b4114610718578063a0712d68146107a8578063a22cb465146107d5578063b88d4fde14610824578063c87b56dd146108d7578063e985e9c51461097d578063f2fde38b146109f8575b600080fd5b34801561014f57600080fd5b5061018d60048036038101908080357bffffffffffffffffffffffffffffffffffffffffffffffffffffffff19169060200190929190505050610a3b565b604051808215151515815260200191505060405180910390f35b3480156101b357600080fd5b506101bc610aa2565b6040518080602001828103825283818151815260200191508051906020019080838360005b838110156101fc5780820151818401526020810190506101e1565b50505050905090810190601f1680156102295780820380516001836020036101000a031916815260200191505b509250505060405180910390f35b34801561024357600080fd5b5061026260048036038101908080359060200190929190505050610b44565b604051808273ffffffffffffffffffffffffffffffffffffffff1673ffffffffffffffffffffffffffffffffffffffff16815260200191505060405180910390f35b3480156102b057600080fd5b506102ef600480360381019080803573ffffffffffffffffffffffffffffffffffffffff16906020019092919080359060200190929190505050610b81565b005b3480156102fd57600080fd5b5061036260048036038101908080359060200190929190803590602001908201803590602001908080601f0160208091040260200160405190810160405280939291908181526020018383808284378201915050505050509192919290505050610d3d565b005b34801561037057600080fd5b50610379610da7565b6040518082815260200191505060405180910390f35b34801561039b57600080fd5b506103a4610db4565b60405180827bffffffffffffffffffffffffffffffffffffffffffffffffffffffff19167bffffffffffffffffffffffffffffffffffffffffffffffffffffffff1916815260200191505060405180910390f35b34801561040457600080fd5b50610463600480360381019080803573ffffffffffffffffffffffffffffffffffffffff169060200190929190803573ffffffffffffffffffffffffffffffffffffffff16906020019092919080359060200190929190505050610ddb565b005b34801561047157600080fd5b506104b0600480360381019080803573ffffffffffffffffffffffffffffffffffffffff16906020019092919080359060200190929190505050610ee8565b6040518082815260200191505060405180910390f35b3480156104d257600080fd5b50610531600480360381019080803573ffffffffffffffffffffffffffffffffffffffff169060200190929190803573ffffffffffffffffffffffffffffffffffffffff16906020019092919080359060200190929190505050610f5f565b005b34801561053f57600080fd5b5061055e60048036038101908080359060200190929190505050610f97565b005b34801561056c57600080fd5b5061058b60048036038101908080359060200190929190505050610ff0565b604051808215151515815260200191505060405180910390f35b3480156105b157600080fd5b506105d060048036038101908080359060200190929190505050611062565b6040518082815260200191505060405180910390f35b3480156105f257600080fd5b506106116004803603810190808035906020019092919050505061109a565b604051808273ffffffffffffffffffffffffffffffffffffffff1673ffffffffffffffffffffffffffffffffffffffff16815260200191505060405180910390f35b34801561065f57600080fd5b50610694600480360381019080803573ffffffffffffffffffffffffffffffffffffffff169060200190929190505050611118565b6040518082815260200191505060405180910390f35b3480156106b657600080fd5b506106bf61119c565b005b3480156106cd57600080fd5b506106d66112a1565b604051808273ffffffffffffffffffffffffffffffffffffffff1673ffffffffffffffffffffffffffffffffffffffff16815260200191505060405180910390f35b34801561072457600080fd5b5061072d6112c7565b6040518080602001828103825283818151815260200191508051906020019080838360005b8381101561076d578082015181840152602081019050610752565b50505050905090810190601f16801561079a5780820380516001836020036101000a031916815260200191505b509250505060405180910390f35b3480156107b457600080fd5b506107d360048036038101908080359060200190929190505050611369565b005b3480156107e157600080fd5b50610822600480360381019080803573ffffffffffffffffffffffffffffffffffffffff169060200190929190803515159060200190929190505050611409565b005b34801561083057600080fd5b506108d5600480360381019080803573ffffffffffffffffffffffffffffffffffffffff169060200190929190803573ffffffffffffffffffffffffffffffffffffffff16906020019092919080359060200190929190803590602001908201803590602001908080601f0160208091040260200160405190810160405280939291908181526020018383808284378201915050505050509192919290505050611545565b005b3480156108e357600080fd5b5061090260048036038101908080359060200190929190505050611584565b6040518080602001828103825283818151815260200191508051906020019080838360005b83811015610942578082015181840152602081019050610927565b50505050905090810190601f16801561096f5780820380516001836020036101000a031916815260200191505b509250505060405180910390f35b34801561098957600080fd5b506109de600480360381019080803573ffffffffffffffffffffffffffffffffffffffff169060200190929190803573ffffffffffffffffffffffffffffffffffffffff16906020019092919050505061164d565b604051808215151515815260200191505060405180910390f35b348015610a0457600080fd5b50610a39600480360381019080803573ffffffffffffffffffffffffffffffffffffffff1690602001909291905050506116e1565b005b6000806000837bffffffffffffffffffffffffffffffffffffffffffffffffffffffff19167bffffffffffffffffffffffffffffffffffffffffffffffffffffffff1916815260200190815260200160002060009054906101000a900460ff169050919050565b606060058054600181600116156101000203166002900480601f016020809104026020016040519081016040528092919081815260200182805460018160011615610100020316600290048015610b3a5780601f10610b0f57610100808354040283529160200191610b3a565b820191906000526020600020905b815481529060010190602001808311610b1d57829003601f168201915b5050505050905090565b60006002600083815260200190815260200160002060009054906101000a900473ffffffffffffffffffffffffffffffffffffffff169050919050565b6000610b8c8261109a565b90508073ffffffffffffffffffffffffffffffffffffffff168373ffffffffffffffffffffffffffffffffffffffff1614151515610bc957600080fd5b8073ffffffffffffffffffffffffffffffffffffffff163373ffffffffffffffffffffffffffffffffffffffff161480610c095750610c08813361164d565b5b1515610c1457600080fd5b600073ffffffffffffffffffffffffffffffffffffffff16610c3583610b44565b73ffffffffffffffffffffffffffffffffffffffff16141580610c855750600073ffffffffffffffffffffffffffffffffffffffff168373ffffffffffffffffffffffffffffffffffffffff1614155b15610d3857826002600084815260200190815260200160002060006101000a81548173ffffffffffffffffffffffffffffffffffffffff021916908373ffffffffffffffffffffffffffffffffffffffff160217905550818373ffffffffffffffffffffffffffffffffffffffff168273ffffffffffffffffffffffffffffffffffffffff167f8c5be1e5ebec7d5bd14f71427d1e84f3dd0314c0f7b2291e5b200ac8c7c3b92560405160405180910390a45b505050565b600c60009054906101000a900473ffffffffffffffffffffffffffffffffffffffff1673ffffffffffffffffffffffffffffffffffffffff163373ffffffffffffffffffffffffffffffffffffffff16141515610d9957600080fd5b610da38282611839565b5050565b6000600980549050905090565b6301ffc9a77c01000000000000000000000000000000000000000000000000000000000281565b80610de63382611879565b1515610df157600080fd5b600073ffffffffffffffffffffffffffffffffffffffff168473ffffffffffffffffffffffffffffffffffffffff1614151515610e2d57600080fd5b600073ffffffffffffffffffffffffffffffffffffffff168373ffffffffffffffffffffffffffffffffffffffff1614151515610e6957600080fd5b610e73848361190e565b610e7d8483611a6d565b610e878383611c85565b818373ffffffffffffffffffffffffffffffffffffffff168573ffffffffffffffffffffffffffffffffffffffff167fddf252ad1be2c89b69c2b068fc378daa952ba7f163c4a11628f55a4df523b3ef60405160405180910390a450505050565b6000610ef383611118565b82101515610f0057600080fd5b600760008473ffffffffffffffffffffffffffffffffffffffff1673ffffffffffffffffffffffffffffffffffffffff16815260200190815260200160002082815481101515610f4c57fe5b9060005260206000200154905092915050565b80610f6a3382611879565b1515610f7557600080fd5b610f918484846020604051908101604052806000815250611545565b50505050565b803373ffffffffffffffffffffffffffffffffffffffff16610fb88261109a565b73ffffffffffffffffffffffffffffffffffffffff16141515610fda57600080fd5b610fec610fe68361109a565b83611d5c565b5050565b6000806001600084815260200190815260200160002060009054906101000a900473ffffffffffffffffffffffffffffffffffffffff169050600073ffffffffffffffffffffffffffffffffffffffff168173ffffffffffffffffffffffffffffffffffffffff161415915050919050565b600061106c610da7565b8210151561107957600080fd5b60098281548110151561108857fe5b90600052602060002001549050919050565b6000806001600084815260200190815260200160002060009054906101000a900473ffffffffffffffffffffffffffffffffffffffff169050600073ffffffffffffffffffffffffffffffffffffffff168173ffffffffffffffffffffffffffffffffffffffff161415151561110f57600080fd5b80915050919050565b60008073ffffffffffffffffffffffffffffffffffffffff168273ffffffffffffffffffffffffffffffffffffffff161415151561115557600080fd5b600360008373ffffffffffffffffffffffffffffffffffffffff1673ffffffffffffffffffffffffffffffffffffffff168152602001908152602001600020549050919050565b600c60009054906101000a900473ffffffffffffffffffffffffffffffffffffffff1673ffffffffffffffffffffffffffffffffffffffff163373ffffffffffffffffffffffffffffffffffffffff161415156111f857600080fd5b600c60009054906101000a900473ffffffffffffffffffffffffffffffffffffffff1673ffffffffffffffffffffffffffffffffffffffff167ff8df31144d9c2f0f6b59d69b8b98abd5459d07f2742c4df920b25aae33c6482060405160405180910390a26000600c60006101000a81548173ffffffffffffffffffffffffffffffffffffffff021916908373ffffffffffffffffffffffffffffffffffffffff160217905550565b600c60009054906101000a900473ffffffffffffffffffffffffffffffffffffffff1681565b606060068054600181600116156101000203166002900480601f01602080910402602001604051908101604052809291908181526020018280546001816001161561010002031660029004801561135f5780601f106113345761010080835404028352916020019161135f565b820191906000526020600020905b81548152906001019060200180831161134257829003601f168201915b5050505050905090565b600c60009054906101000a900473ffffffffffffffffffffffffffffffffffffffff1673ffffffffffffffffffffffffffffffffffffffff163373ffffffffffffffffffffffffffffffffffffffff161415156113c557600080fd5b6113ce81610ff0565b1515156113da57600080fd5b611406600c60009054906101000a900473ffffffffffffffffffffffffffffffffffffffff1682611e94565b50565b3373ffffffffffffffffffffffffffffffffffffffff168273ffffffffffffffffffffffffffffffffffffffff161415151561144457600080fd5b80600460003373ffffffffffffffffffffffffffffffffffffffff1673ffffffffffffffffffffffffffffffffffffffff16815260200190815260200160002060008473ffffffffffffffffffffffffffffffffffffffff1673ffffffffffffffffffffffffffffffffffffffff16815260200190815260200160002060006101000a81548160ff0219169083151502179055508173ffffffffffffffffffffffffffffffffffffffff163373ffffffffffffffffffffffffffffffffffffffff167f17307eab39ab6107e8899845ad3d59bd9653f200f220920489ca2b5937696c3183604051808215151515815260200191505060405180910390a35050565b816115503382611879565b151561155b57600080fd5b611566858585610ddb565b61157285858585611eeb565b151561157d57600080fd5b5050505050565b606061158f82610ff0565b151561159a57600080fd5b600b60008381526020019081526020016000208054600181600116156101000203166002900480601f0160208091040260200160405190810160405280929190818152602001828054600181600116156101000203166002900480156116415780601f1061161657610100808354040283529160200191611641565b820191906000526020600020905b81548152906001019060200180831161162457829003601f168201915b50505050509050919050565b6000600460008473ffffffffffffffffffffffffffffffffffffffff1673ffffffffffffffffffffffffffffffffffffffff16815260200190815260200160002060008373ffffffffffffffffffffffffffffffffffffffff1673ffffffffffffffffffffffffffffffffffffffff16815260200190815260200160002060009054906101000a900460ff16905092915050565b600c60009054906101000a900473ffffffffffffffffffffffffffffffffffffffff1673ffffffffffffffffffffffffffffffffffffffff163373ffffffffffffffffffffffffffffffffffffffff1614151561173d57600080fd5b600073ffffffffffffffffffffffffffffffffffffffff168173ffffffffffffffffffffffffffffffffffffffff161415151561177957600080fd5b8073ffffffffffffffffffffffffffffffffffffffff16600c60009054906101000a900473ffffffffffffffffffffffffffffffffffffffff1673ffffffffffffffffffffffffffffffffffffffff167f8be0079c531659141344cd1fd0a4f28419497f9722a3daafe3b4186f6b6457e060405160405180910390a380600c60006101000a81548173ffffffffffffffffffffffffffffffffffffffff021916908373ffffffffffffffffffffffffffffffffffffffff16021790555050565b61184282610ff0565b151561184d57600080fd5b80600b600084815260200190815260200160002090805190602001906118749291906124c4565b505050565b6000806118858361109a565b90508073ffffffffffffffffffffffffffffffffffffffff168473ffffffffffffffffffffffffffffffffffffffff1614806118f457508373ffffffffffffffffffffffffffffffffffffffff166118dc84610b44565b73ffffffffffffffffffffffffffffffffffffffff16145b806119055750611904818561164d565b5b91505092915050565b8173ffffffffffffffffffffffffffffffffffffffff1661192e8261109a565b73ffffffffffffffffffffffffffffffffffffffff1614151561195057600080fd5b600073ffffffffffffffffffffffffffffffffffffffff166002600083815260200190815260200160002060009054906101000a900473ffffffffffffffffffffffffffffffffffffffff1673ffffffffffffffffffffffffffffffffffffffff16141515611a695760006002600083815260200190815260200160002060006101000a81548173ffffffffffffffffffffffffffffffffffffffff021916908373ffffffffffffffffffffffffffffffffffffffff16021790555080600073ffffffffffffffffffffffffffffffffffffffff168373ffffffffffffffffffffffffffffffffffffffff167f8c5be1e5ebec7d5bd14f71427d1e84f3dd0314c0f7b2291e5b200ac8c7c3b92560405160405180910390a45b5050565b6000806000611a7c85856120d9565b60086000858152602001908152602001600020549250611ae86001600760008873ffffffffffffffffffffffffffffffffffffffff1673ffffffffffffffffffffffffffffffffffffffff1681526020019081526020016000208054905061220890919063ffffffff16565b9150600760008673ffffffffffffffffffffffffffffffffffffffff1673ffffffffffffffffffffffffffffffffffffffff16815260200190815260200160002082815481101515611b3657fe5b9060005260206000200154905080600760008773ffffffffffffffffffffffffffffffffffffffff1673ffffffffffffffffffffffffffffffffffffffff16815260200190815260200160002084815481101515611b9057fe5b90600052602060002001819055506000600760008773ffffffffffffffffffffffffffffffffffffffff1673ffffffffffffffffffffffffffffffffffffffff16815260200190815260200160002083815481101515611bec57fe5b9060005260206000200181905550600760008673ffffffffffffffffffffffffffffffffffffffff1673ffffffffffffffffffffffffffffffffffffffff168152602001908152602001600020805480919060019003611c4c9190612544565b50600060086000868152602001908152602001600020819055508260086000838152602001908152602001600020819055505050505050565b6000611c918383612221565b600760008473ffffffffffffffffffffffffffffffffffffffff1673ffffffffffffffffffffffffffffffffffffffff168152602001908152602001600020805490509050600760008473ffffffffffffffffffffffffffffffffffffffff1673ffffffffffffffffffffffffffffffffffffffff168152602001908152602001600020829080600181540180825580915050906001820390600052602060002001600090919290919091505550806008600084815260200190815260200160002081905550505050565b6000806000611d6b858561237b565b6000600b6000868152602001908152602001600020805460018160011615610100020316600290049050141515611dbc57600b60008581526020019081526020016000206000611dbb9190612570565b5b600a6000858152602001908152602001600020549250611deb600160098054905061220890919063ffffffff16565b9150600982815481101515611dfc57fe5b9060005260206000200154905080600984815481101515611e1957fe5b90600052602060002001819055506000600983815481101515611e3857fe5b90600052602060002001819055506009805480919060019003611e5b9190612544565b506000600a60008681526020019081526020016000208190555082600a6000838152602001908152602001600020819055505050505050565b611e9e82826123ef565b600980549050600a60008381526020019081526020016000208190555060098190806001815401808255809150509060018203906000526020600020016000909192909190915055505050565b600080611f0d8573ffffffffffffffffffffffffffffffffffffffff16612495565b1515611f1c57600191506120d0565b8473ffffffffffffffffffffffffffffffffffffffff1663f0b9e5ba8786866040518463ffffffff167c0100000000000000000000000000000000000000000000000000000000028152600401808473ffffffffffffffffffffffffffffffffffffffff1673ffffffffffffffffffffffffffffffffffffffff16815260200183815260200180602001828103825283818151815260200191508051906020019080838360005b83811015611fde578082015181840152602081019050611fc3565b50505050905090810190601f16801561200b5780820380516001836020036101000a031916815260200191505b50945050505050602060405180830381600087803b15801561202c57600080fd5b505af1158015612040573d6000803e3d6000fd5b505050506040513d602081101561205657600080fd5b8101908080519060200190929190505050905063f0b9e5ba7c0100000000000000000000000000000000000000000000000000000000027bffffffffffffffffffffffffffffffffffffffffffffffffffffffff1916817bffffffffffffffffffffffffffffffffffffffffffffffffffffffff19161491505b50949350505050565b8173ffffffffffffffffffffffffffffffffffffffff166120f98261109a565b73ffffffffffffffffffffffffffffffffffffffff1614151561211b57600080fd5b61216e6001600360008573ffffffffffffffffffffffffffffffffffffffff1673ffffffffffffffffffffffffffffffffffffffff1681526020019081526020016000205461220890919063ffffffff16565b600360008473ffffffffffffffffffffffffffffffffffffffff1673ffffffffffffffffffffffffffffffffffffffff1681526020019081526020016000208190555060006001600083815260200190815260200160002060006101000a81548173ffffffffffffffffffffffffffffffffffffffff021916908373ffffffffffffffffffffffffffffffffffffffff1602179055505050565b600082821115151561221657fe5b818303905092915050565b600073ffffffffffffffffffffffffffffffffffffffff166001600083815260200190815260200160002060009054906101000a900473ffffffffffffffffffffffffffffffffffffffff1673ffffffffffffffffffffffffffffffffffffffff1614151561228f57600080fd5b816001600083815260200190815260200160002060006101000a81548173ffffffffffffffffffffffffffffffffffffffff021916908373ffffffffffffffffffffffffffffffffffffffff1602179055506123346001600360008573ffffffffffffffffffffffffffffffffffffffff1673ffffffffffffffffffffffffffffffffffffffff168152602001908152602001600020546124a890919063ffffffff16565b600360008473ffffffffffffffffffffffffffffffffffffffff1673ffffffffffffffffffffffffffffffffffffffff168152602001908152602001600020819055505050565b612385828261190e565b61238f8282611a6d565b80600073ffffffffffffffffffffffffffffffffffffffff168373ffffffffffffffffffffffffffffffffffffffff167fddf252ad1be2c89b69c2b068fc378daa952ba7f163c4a11628f55a4df523b3ef60405160405180910390a45050565b600073ffffffffffffffffffffffffffffffffffffffff168273ffffffffffffffffffffffffffffffffffffffff161415151561242b57600080fd5b6124358282611c85565b808273ffffffffffffffffffffffffffffffffffffffff16600073ffffffffffffffffffffffffffffffffffffffff167fddf252ad1be2c89b69c2b068fc378daa952ba7f163c4a11628f55a4df523b3ef60405160405180910390a45050565b600080823b905060008111915050919050565b600081830190508281101515156124bb57fe5b80905092915050565b828054600181600116156101000203166002900490600052602060002090601f016020900481019282601f1061250557805160ff1916838001178555612533565b82800160010185558215612533579182015b82811115612532578251825591602001919060010190612517565b5b50905061254091906125b8565b5090565b81548183558181111561256b5781836000526020600020918201910161256a91906125b8565b5b505050565b50805460018160011615610100020316600290046000825580601f1061259657506125b5565b601f0160209004906000526020600020908101906125b491906125b8565b5b50565b6125da91905b808211156125d65760008160009055506001016125be565b5090565b905600a165627a7a7230582067645a63f02e4d0b59fb03d292048235a9fa5bd5ca3c04295da061a1a91bae6d0029",
					"opcodes": "PUSH1 0x80 PUSH1 0x40 MSTORE CALLVALUE DUP1 ISZERO PUSH3 0x11 JUMPI PUSH1 0x0 DUP1 REVERT JUMPDEST POP PUSH1 0x40 DUP1 MLOAD SWAP1 DUP2 ADD PUSH1 0x40 MSTORE DUP1 PUSH1 0x8 DUP2 MSTORE PUSH1 0x20 ADD PUSH32 0x373231546F6B656E000000000000000000000000000000000000000000000000 DUP2 MSTORE POP PUSH1 0x40 DUP1 MLOAD SWAP1 DUP2 ADD PUSH1 0x40 MSTORE DUP1 PUSH1 0x4 DUP2 MSTORE PUSH1 0x20 ADD PUSH32 0x4D37323100000000000000000000000000000000000000000000000000000000 DUP2 MSTORE POP PUSH3 0xBB PUSH4 0x1FFC9A7 PUSH29 0x100000000000000000000000000000000000000000000000000000000 MUL PUSH3 0x22A PUSH5 0x100000000 MUL PUSH5 0x100000000 SWAP1 DIV JUMP JUMPDEST PUSH3 0xF8 PUSH4 0x80AC58CD PUSH29 0x100000000000000000000000000000000000000000000000000000000 MUL PUSH3 0x22A PUSH5 0x100000000 MUL PUSH5 0x100000000 SWAP1 DIV JUMP JUMPDEST PUSH3 0x135 PUSH4 0x4F558E79 PUSH29 0x100000000000000000000000000000000000000000000000000000000 MUL PUSH3 0x22A PUSH5 0x100000000 MUL PUSH5 0x100000000 SWAP1 DIV JUMP JUMPDEST PUSH3 0x172 PUSH4 0x780E9D63 PUSH29 0x100000000000000000000000000000000000000000000000000000000 MUL PUSH3 0x22A PUSH5 0x100000000 MUL PUSH5 0x100000000 SWAP1 DIV JUMP JUMPDEST PUSH3 0x1AF PUSH4 0x5B5E139F PUSH29 0x100000000000000000000000000000000000000000000000000000000 MUL PUSH3 0x22A PUSH5 0x100000000 MUL PUSH5 0x100000000 SWAP1 DIV JUMP JUMPDEST DUP2 PUSH1 0x5 SWAP1 DUP1 MLOAD SWAP1 PUSH1 0x20 ADD SWAP1 PUSH3 0x1C7 SWAP3 SWAP2 SWAP1 PUSH3 0x2E8 JUMP JUMPDEST POP DUP1 PUSH1 0x6 SWAP1 DUP1 MLOAD SWAP1 PUSH1 0x20 ADD SWAP1 PUSH3 0x1E0 SWAP3 SWAP2 SWAP1 PUSH3 0x2E8 JUMP JUMPDEST POP POP POP CALLER PUSH1 0xC PUSH1 0x0 PUSH2 0x100 EXP DUP2 SLOAD DUP2 PUSH20 0xFFFFFFFFFFFFFFFFFFFFFFFFFFFFFFFFFFFFFFFF MUL NOT AND SWAP1 DUP4 PUSH20 0xFFFFFFFFFFFFFFFFFFFFFFFFFFFFFFFFFFFFFFFF AND MUL OR SWAP1 SSTORE POP PUSH3 0x397 JUMP JUMPDEST PUSH4 0xFFFFFFFF PUSH29 0x100000000000000000000000000000000000000000000000000000000 MUL DUP2 PUSH28 0xFFFFFFFFFFFFFFFFFFFFFFFFFFFFFFFFFFFFFFFFFFFFFFFFFFFFFFFF NOT AND EQ ISZERO ISZERO ISZERO PUSH3 0x27C JUMPI PUSH1 0x0 DUP1 REVERT JUMPDEST PUSH1 0x1 PUSH1 0x0 DUP1 DUP4 PUSH28 0xFFFFFFFFFFFFFFFFFFFFFFFFFFFFFFFFFFFFFFFFFFFFFFFFFFFFFFFF NOT AND PUSH28 0xFFFFFFFFFFFFFFFFFFFFFFFFFFFFFFFFFFFFFFFFFFFFFFFFFFFFFFFF NOT AND DUP2 MSTORE PUSH1 0x20 ADD SWAP1 DUP2 MSTORE PUSH1 0x20 ADD PUSH1 0x0 KECCAK256 PUSH1 0x0 PUSH2 0x100 EXP DUP2 SLOAD DUP2 PUSH1 0xFF MUL NOT AND SWAP1 DUP4 ISZERO ISZERO MUL OR SWAP1 SSTORE POP POP JUMP JUMPDEST DUP3 DUP1 SLOAD PUSH1 0x1 DUP2 PUSH1 0x1 AND ISZERO PUSH2 0x100 MUL SUB AND PUSH1 0x2 SWAP1 DIV SWAP1 PUSH1 0x0 MSTORE PUSH1 0x20 PUSH1 0x0 KECCAK256 SWAP1 PUSH1 0x1F ADD PUSH1 0x20 SWAP1 DIV DUP2 ADD SWAP3 DUP3 PUSH1 0x1F LT PUSH3 0x32B JUMPI DUP1 MLOAD PUSH1 0xFF NOT AND DUP4 DUP1 ADD OR DUP6 SSTORE PUSH3 0x35C JUMP JUMPDEST DUP3 DUP1 ADD PUSH1 0x1 ADD DUP6 SSTORE DUP3 ISZERO PUSH3 0x35C JUMPI SWAP2 DUP3 ADD JUMPDEST DUP3 DUP2 GT ISZERO PUSH3 0x35B JUMPI DUP3 MLOAD DUP3 SSTORE SWAP2 PUSH1 0x20 ADD SWAP2 SWAP1 PUSH1 0x1 ADD SWAP1 PUSH3 0x33E JUMP JUMPDEST JUMPDEST POP SWAP1 POP PUSH3 0x36B SWAP2 SWAP1 PUSH3 0x36F JUMP JUMPDEST POP SWAP1 JUMP JUMPDEST PUSH3 0x394 SWAP2 SWAP1 JUMPDEST DUP1 DUP3 GT ISZERO PUSH3 0x390 JUMPI PUSH1 0x0 DUP2 PUSH1 0x0 SWAP1 SSTORE POP PUSH1 0x1 ADD PUSH3 0x376 JUMP JUMPDEST POP SWAP1 JUMP JUMPDEST SWAP1 JUMP JUMPDEST PUSH2 0x2609 DUP1 PUSH3 0x3A7 PUSH1 0x0 CODECOPY PUSH1 0x0 RETURN STOP PUSH1 0x80 PUSH1 0x40 MSTORE PUSH1 0x4 CALLDATASIZE LT PUSH2 0x13E JUMPI PUSH1 0x0 CALLDATALOAD PUSH29 0x100000000000000000000000000000000000000000000000000000000 SWAP1 DIV PUSH4 0xFFFFFFFF AND DUP1 PUSH4 0x1FFC9A7 EQ PUSH2 0x143 JUMPI DUP1 PUSH4 0x6FDDE03 EQ PUSH2 0x1A7 JUMPI DUP1 PUSH4 0x81812FC EQ PUSH2 0x237 JUMPI DUP1 PUSH4 0x95EA7B3 EQ PUSH2 0x2A4 JUMPI DUP1 PUSH4 0x162094C4 EQ PUSH2 0x2F1 JUMPI DUP1 PUSH4 0x18160DDD EQ PUSH2 0x364 JUMPI DUP1 PUSH4 0x19FA8F50 EQ PUSH2 0x38F JUMPI DUP1 PUSH4 0x23B872DD EQ PUSH2 0x3F8 JUMPI DUP1 PUSH4 0x2F745C59 EQ PUSH2 0x465 JUMPI DUP1 PUSH4 0x42842E0E EQ PUSH2 0x4C6 JUMPI DUP1 PUSH4 0x42966C68 EQ PUSH2 0x533 JUMPI DUP1 PUSH4 0x4F558E79 EQ PUSH2 0x560 JUMPI DUP1 PUSH4 0x4F6CCCE7 EQ PUSH2 0x5A5 JUMPI DUP1 PUSH4 0x6352211E EQ PUSH2 0x5E6 JUMPI DUP1 PUSH4 0x70A08231 EQ PUSH2 0x653 JUMPI DUP1 PUSH4 0x715018A6 EQ PUSH2 0x6AA JUMPI DUP1 PUSH4 0x8DA5CB5B EQ PUSH2 0x6C1 JUMPI DUP1 PUSH4 0x95D89B41 EQ PUSH2 0x718 JUMPI DUP1 PUSH4 0xA0712D68 EQ PUSH2 0x7A8 JUMPI DUP1 PUSH4 0xA22CB465 EQ PUSH2 0x7D5 JUMPI DUP1 PUSH4 0xB88D4FDE EQ PUSH2 0x824 JUMPI DUP1 PUSH4 0xC87B56DD EQ PUSH2 0x8D7 JUMPI DUP1 PUSH4 0xE985E9C5 EQ PUSH2 0x97D JUMPI DUP1 PUSH4 0xF2FDE38B EQ PUSH2 0x9F8 JUMPI JUMPDEST PUSH1 0x0 DUP1 REVERT JUMPDEST CALLVALUE DUP1 ISZERO PUSH2 0x14F JUMPI PUSH1 0x0 DUP1 REVERT JUMPDEST POP PUSH2 0x18D PUSH1 0x4 DUP1 CALLDATASIZE SUB DUP2 ADD SWAP1 DUP1 DUP1 CALLDATALOAD PUSH28 0xFFFFFFFFFFFFFFFFFFFFFFFFFFFFFFFFFFFFFFFFFFFFFFFFFFFFFFFF NOT AND SWAP1 PUSH1 0x20 ADD SWAP1 SWAP3 SWAP2 SWAP1 POP POP POP PUSH2 0xA3B JUMP JUMPDEST PUSH1 0x40 MLOAD DUP1 DUP3 ISZERO ISZERO ISZERO ISZERO DUP2 MSTORE PUSH1 0x20 ADD SWAP2 POP POP PUSH1 0x40 MLOAD DUP1 SWAP2 SUB SWAP1 RETURN JUMPDEST CALLVALUE DUP1 ISZERO PUSH2 0x1B3 JUMPI PUSH1 0x0 DUP1 REVERT JUMPDEST POP PUSH2 0x1BC PUSH2 0xAA2 JUMP JUMPDEST PUSH1 0x40 MLOAD DUP1 DUP1 PUSH1 0x20 ADD DUP3 DUP2 SUB DUP3 MSTORE DUP4 DUP2 DUP2 MLOAD DUP2 MSTORE PUSH1 0x20 ADD SWAP2 POP DUP1 MLOAD SWAP1 PUSH1 0x20 ADD SWAP1 DUP1 DUP4 DUP4 PUSH1 0x0 JUMPDEST DUP4 DUP2 LT ISZERO PUSH2 0x1FC JUMPI DUP1 DUP3 ADD MLOAD DUP2 DUP5 ADD MSTORE PUSH1 0x20 DUP2 ADD SWAP1 POP PUSH2 0x1E1 JUMP JUMPDEST POP POP POP POP SWAP1 POP SWAP1 DUP2 ADD SWAP1 PUSH1 0x1F AND DUP1 ISZERO PUSH2 0x229 JUMPI DUP1 DUP3 SUB DUP1 MLOAD PUSH1 0x1 DUP4 PUSH1 0x20 SUB PUSH2 0x100 EXP SUB NOT AND DUP2 MSTORE PUSH1 0x20 ADD SWAP2 POP JUMPDEST POP SWAP3 POP POP POP PUSH1 0x40 MLOAD DUP1 SWAP2 SUB SWAP1 RETURN JUMPDEST CALLVALUE DUP1 ISZERO PUSH2 0x243 JUMPI PUSH1 0x0 DUP1 REVERT JUMPDEST POP PUSH2 0x262 PUSH1 0x4 DUP1 CALLDATASIZE SUB DUP2 ADD SWAP1 DUP1 DUP1 CALLDATALOAD SWAP1 PUSH1 0x20 ADD SWAP1 SWAP3 SWAP2 SWAP1 POP POP POP PUSH2 0xB44 JUMP JUMPDEST PUSH1 0x40 MLOAD DUP1 DUP3 PUSH20 0xFFFFFFFFFFFFFFFFFFFFFFFFFFFFFFFFFFFFFFFF AND PUSH20 0xFFFFFFFFFFFFFFFFFFFFFFFFFFFFFFFFFFFFFFFF AND DUP2 MSTORE PUSH1 0x20 ADD SWAP2 POP POP PUSH1 0x40 MLOAD DUP1 SWAP2 SUB SWAP1 RETURN JUMPDEST CALLVALUE DUP1 ISZERO PUSH2 0x2B0 JUMPI PUSH1 0x0 DUP1 REVERT JUMPDEST POP PUSH2 0x2EF PUSH1 0x4 DUP1 CALLDATASIZE SUB DUP2 ADD SWAP1 DUP1 DUP1 CALLDATALOAD PUSH20 0xFFFFFFFFFFFFFFFFFFFFFFFFFFFFFFFFFFFFFFFF AND SWAP1 PUSH1 0x20 ADD SWAP1 SWAP3 SWAP2 SWAP1 DUP1 CALLDATALOAD SWAP1 PUSH1 0x20 ADD SWAP1 SWAP3 SWAP2 SWAP1 POP POP POP PUSH2 0xB81 JUMP JUMPDEST STOP JUMPDEST CALLVALUE DUP1 ISZERO PUSH2 0x2FD JUMPI PUSH1 0x0 DUP1 REVERT JUMPDEST POP PUSH2 0x362 PUSH1 0x4 DUP1 CALLDATASIZE SUB DUP2 ADD SWAP1 DUP1 DUP1 CALLDATALOAD SWAP1 PUSH1 0x20 ADD SWAP1 SWAP3 SWAP2 SWAP1 DUP1 CALLDATALOAD SWAP1 PUSH1 0x20 ADD SWAP1 DUP3 ADD DUP1 CALLDATALOAD SWAP1 PUSH1 0x20 ADD SWAP1 DUP1 DUP1 PUSH1 0x1F ADD PUSH1 0x20 DUP1 SWAP2 DIV MUL PUSH1 0x20 ADD PUSH1 0x40 MLOAD SWAP1 DUP2 ADD PUSH1 0x40 MSTORE DUP1 SWAP4 SWAP3 SWAP2 SWAP1 DUP2 DUP2 MSTORE PUSH1 0x20 ADD DUP4 DUP4 DUP1 DUP3 DUP5 CALLDATACOPY DUP3 ADD SWAP2 POP POP POP POP POP POP SWAP2 SWAP3 SWAP2 SWAP3 SWAP1 POP POP POP PUSH2 0xD3D JUMP JUMPDEST STOP JUMPDEST CALLVALUE DUP1 ISZERO PUSH2 0x370 JUMPI PUSH1 0x0 DUP1 REVERT JUMPDEST POP PUSH2 0x379 PUSH2 0xDA7 JUMP JUMPDEST PUSH1 0x40 MLOAD DUP1 DUP3 DUP2 MSTORE PUSH1 0x20 ADD SWAP2 POP POP PUSH1 0x40 MLOAD DUP1 SWAP2 SUB SWAP1 RETURN JUMPDEST CALLVALUE DUP1 ISZERO PUSH2 0x39B JUMPI PUSH1 0x0 DUP1 REVERT JUMPDEST POP PUSH2 0x3A4 PUSH2 0xDB4 JUMP JUMPDEST PUSH1 0x40 MLOAD DUP1 DUP3 PUSH28 0xFFFFFFFFFFFFFFFFFFFFFFFFFFFFFFFFFFFFFFFFFFFFFFFFFFFFFFFF NOT AND PUSH28 0xFFFFFFFFFFFFFFFFFFFFFFFFFFFFFFFFFFFFFFFFFFFFFFFFFFFFFFFF NOT AND DUP2 MSTORE PUSH1 0x20 ADD SWAP2 POP POP PUSH1 0x40 MLOAD DUP1 SWAP2 SUB SWAP1 RETURN JUMPDEST CALLVALUE DUP1 ISZERO PUSH2 0x404 JUMPI PUSH1 0x0 DUP1 REVERT JUMPDEST POP PUSH2 0x463 PUSH1 0x4 DUP1 CALLDATASIZE SUB DUP2 ADD SWAP1 DUP1 DUP1 CALLDATALOAD PUSH20 0xFFFFFFFFFFFFFFFFFFFFFFFFFFFFFFFFFFFFFFFF AND SWAP1 PUSH1 0x20 ADD SWAP1 SWAP3 SWAP2 SWAP1 DUP1 CALLDATALOAD PUSH20 0xFFFFFFFFFFFFFFFFFFFFFFFFFFFFFFFFFFFFFFFF AND SWAP1 PUSH1 0x20 ADD SWAP1 SWAP3 SWAP2 SWAP1 DUP1 CALLDATALOAD SWAP1 PUSH1 0x20 ADD SWAP1 SWAP3 SWAP2 SWAP1 POP POP POP PUSH2 0xDDB JUMP JUMPDEST STOP JUMPDEST CALLVALUE DUP1 ISZERO PUSH2 0x471 JUMPI PUSH1 0x0 DUP1 REVERT JUMPDEST POP PUSH2 0x4B0 PUSH1 0x4 DUP1 CALLDATASIZE SUB DUP2 ADD SWAP1 DUP1 DUP1 CALLDATALOAD PUSH20 0xFFFFFFFFFFFFFFFFFFFFFFFFFFFFFFFFFFFFFFFF AND SWAP1 PUSH1 0x20 ADD SWAP1 SWAP3 SWAP2 SWAP1 DUP1 CALLDATALOAD SWAP1 PUSH1 0x20 ADD SWAP1 SWAP3 SWAP2 SWAP1 POP POP POP PUSH2 0xEE8 JUMP JUMPDEST PUSH1 0x40 MLOAD DUP1 DUP3 DUP2 MSTORE PUSH1 0x20 ADD SWAP2 POP POP PUSH1 0x40 MLOAD DUP1 SWAP2 SUB SWAP1 RETURN JUMPDEST CALLVALUE DUP1 ISZERO PUSH2 0x4D2 JUMPI PUSH1 0x0 DUP1 REVERT JUMPDEST POP PUSH2 0x531 PUSH1 0x4 DUP1 CALLDATASIZE SUB DUP2 ADD SWAP1 DUP1 DUP1 CALLDATALOAD PUSH20 0xFFFFFFFFFFFFFFFFFFFFFFFFFFFFFFFFFFFFFFFF AND SWAP1 PUSH1 0x20 ADD SWAP1 SWAP3 SWAP2 SWAP1 DUP1 CALLDATALOAD PUSH20 0xFFFFFFFFFFFFFFFFFFFFFFFFFFFFFFFFFFFFFFFF AND SWAP1 PUSH1 0x20 ADD SWAP1 SWAP3 SWAP2 SWAP1 DUP1 CALLDATALOAD SWAP1 PUSH1 0x20 ADD SWAP1 SWAP3 SWAP2 SWAP1 POP POP POP PUSH2 0xF5F JUMP JUMPDEST STOP JUMPDEST CALLVALUE DUP1 ISZERO PUSH2 0x53F JUMPI PUSH1 0x0 DUP1 REVERT JUMPDEST POP PUSH2 0x55E PUSH1 0x4 DUP1 CALLDATASIZE SUB DUP2 ADD SWAP1 DUP1 DUP1 CALLDATALOAD SWAP1 PUSH1 0x20 ADD SWAP1 SWAP3 SWAP2 SWAP1 POP POP POP PUSH2 0xF97 JUMP JUMPDEST STOP JUMPDEST CALLVALUE DUP1 ISZERO PUSH2 0x56C JUMPI PUSH1 0x0 DUP1 REVERT JUMPDEST POP PUSH2 0x58B PUSH1 0x4 DUP1 CALLDATASIZE SUB DUP2 ADD SWAP1 DUP1 DUP1 CALLDATALOAD SWAP1 PUSH1 0x20 ADD SWAP1 SWAP3 SWAP2 SWAP1 POP POP POP PUSH2 0xFF0 JUMP JUMPDEST PUSH1 0x40 MLOAD DUP1 DUP3 ISZERO ISZERO ISZERO ISZERO DUP2 MSTORE PUSH1 0x20 ADD SWAP2 POP POP PUSH1 0x40 MLOAD DUP1 SWAP2 SUB SWAP1 RETURN JUMPDEST CALLVALUE DUP1 ISZERO PUSH2 0x5B1 JUMPI PUSH1 0x0 DUP1 REVERT JUMPDEST POP PUSH2 0x5D0 PUSH1 0x4 DUP1 CALLDATASIZE SUB DUP2 ADD SWAP1 DUP1 DUP1 CALLDATALOAD SWAP1 PUSH1 0x20 ADD SWAP1 SWAP3 SWAP2 SWAP1 POP POP POP PUSH2 0x1062 JUMP JUMPDEST PUSH1 0x40 MLOAD DUP1 DUP3 DUP2 MSTORE PUSH1 0x20 ADD SWAP2 POP POP PUSH1 0x40 MLOAD DUP1 SWAP2 SUB SWAP1 RETURN JUMPDEST CALLVALUE DUP1 ISZERO PUSH2 0x5F2 JUMPI PUSH1 0x0 DUP1 REVERT JUMPDEST POP PUSH2 0x611 PUSH1 0x4 DUP1 CALLDATASIZE SUB DUP2 ADD SWAP1 DUP1 DUP1 CALLDATALOAD SWAP1 PUSH1 0x20 ADD SWAP1 SWAP3 SWAP2 SWAP1 POP POP POP PUSH2 0x109A JUMP JUMPDEST PUSH1 0x40 MLOAD DUP1 DUP3 PUSH20 0xFFFFFFFFFFFFFFFFFFFFFFFFFFFFFFFFFFFFFFFF AND PUSH20 0xFFFFFFFFFFFFFFFFFFFFFFFFFFFFFFFFFFFFFFFF AND DUP2 MSTORE PUSH1 0x20 ADD SWAP2 POP POP PUSH1 0x40 MLOAD DUP1 SWAP2 SUB SWAP1 RETURN JUMPDEST CALLVALUE DUP1 ISZERO PUSH2 0x65F JUMPI PUSH1 0x0 DUP1 REVERT JUMPDEST POP PUSH2 0x694 PUSH1 0x4 DUP1 CALLDATASIZE SUB DUP2 ADD SWAP1 DUP1 DUP1 CALLDATALOAD PUSH20 0xFFFFFFFFFFFFFFFFFFFFFFFFFFFFFFFFFFFFFFFF AND SWAP1 PUSH1 0x20 ADD SWAP1 SWAP3 SWAP2 SWAP1 POP POP POP PUSH2 0x1118 JUMP JUMPDEST PUSH1 0x40 MLOAD DUP1 DUP3 DUP2 MSTORE PUSH1 0x20 ADD SWAP2 POP POP PUSH1 0x40 MLOAD DUP1 SWAP2 SUB SWAP1 RETURN JUMPDEST CALLVALUE DUP1 ISZERO PUSH2 0x6B6 JUMPI PUSH1 0x0 DUP1 REVERT JUMPDEST POP PUSH2 0x6BF PUSH2 0x119C JUMP JUMPDEST STOP JUMPDEST CALLVALUE DUP1 ISZERO PUSH2 0x6CD JUMPI PUSH1 0x0 DUP1 REVERT JUMPDEST POP PUSH2 0x6D6 PUSH2 0x12A1 JUMP JUMPDEST PUSH1 0x40 MLOAD DUP1 DUP3 PUSH20 0xFFFFFFFFFFFFFFFFFFFFFFFFFFFFFFFFFFFFFFFF AND PUSH20 0xFFFFFFFFFFFFFFFFFFFFFFFFFFFFFFFFFFFFFFFF AND DUP2 MSTORE PUSH1 0x20 ADD SWAP2 POP POP PUSH1 0x40 MLOAD DUP1 SWAP2 SUB SWAP1 RETURN JUMPDEST CALLVALUE DUP1 ISZERO PUSH2 0x724 JUMPI PUSH1 0x0 DUP1 REVERT JUMPDEST POP PUSH2 0x72D PUSH2 0x12C7 JUMP JUMPDEST PUSH1 0x40 MLOAD DUP1 DUP1 PUSH1 0x20 ADD DUP3 DUP2 SUB DUP3 MSTORE DUP4 DUP2 DUP2 MLOAD DUP2 MSTORE PUSH1 0x20 ADD SWAP2 POP DUP1 MLOAD SWAP1 PUSH1 0x20 ADD SWAP1 DUP1 DUP4 DUP4 PUSH1 0x0 JUMPDEST DUP4 DUP2 LT ISZERO PUSH2 0x76D JUMPI DUP1 DUP3 ADD MLOAD DUP2 DUP5 ADD MSTORE PUSH1 0x20 DUP2 ADD SWAP1 POP PUSH2 0x752 JUMP JUMPDEST POP POP POP POP SWAP1 POP SWAP1 DUP2 ADD SWAP1 PUSH1 0x1F AND DUP1 ISZERO PUSH2 0x79A JUMPI DUP1 DUP3 SUB DUP1 MLOAD PUSH1 0x1 DUP4 PUSH1 0x20 SUB PUSH2 0x100 EXP SUB NOT AND DUP2 MSTORE PUSH1 0x20 ADD SWAP2 POP JUMPDEST POP SWAP3 POP POP POP PUSH1 0x40 MLOAD DUP1 SWAP2 SUB SWAP1 RETURN JUMPDEST CALLVALUE DUP1 ISZERO PUSH2 0x7B4 JUMPI PUSH1 0x0 DUP1 REVERT JUMPDEST POP PUSH2 0x7D3 PUSH1 0x4 DUP1 CALLDATASIZE SUB DUP2 ADD SWAP1 DUP1 DUP1 CALLDATALOAD SWAP1 PUSH1 0x20 ADD SWAP1 SWAP3 SWAP2 SWAP1 POP POP POP PUSH2 0x1369 JUMP JUMPDEST STOP JUMPDEST CALLVALUE DUP1 ISZERO PUSH2 0x7E1 JUMPI PUSH1 0x0 DUP1 REVERT JUMPDEST POP PUSH2 0x822 PUSH1 0x4 DUP1 CALLDATASIZE SUB DUP2 ADD SWAP1 DUP1 DUP1 CALLDATALOAD PUSH20 0xFFFFFFFFFFFFFFFFFFFFFFFFFFFFFFFFFFFFFFFF AND SWAP1 PUSH1 0x20 ADD SWAP1 SWAP3 SWAP2 SWAP1 DUP1 CALLDATALOAD ISZERO ISZERO SWAP1 PUSH1 0x20 ADD SWAP1 SWAP3 SWAP2 SWAP1 POP POP POP PUSH2 0x1409 JUMP JUMPDEST STOP JUMPDEST CALLVALUE DUP1 ISZERO PUSH2 0x830 JUMPI PUSH1 0x0 DUP1 REVERT JUMPDEST POP PUSH2 0x8D5 PUSH1 0x4 DUP1 CALLDATASIZE SUB DUP2 ADD SWAP1 DUP1 DUP1 CALLDATALOAD PUSH20 0xFFFFFFFFFFFFFFFFFFFFFFFFFFFFFFFFFFFFFFFF AND SWAP1 PUSH1 0x20 ADD SWAP1 SWAP3 SWAP2 SWAP1 DUP1 CALLDATALOAD PUSH20 0xFFFFFFFFFFFFFFFFFFFFFFFFFFFFFFFFFFFFFFFF AND SWAP1 PUSH1 0x20 ADD SWAP1 SWAP3 SWAP2 SWAP1 DUP1 CALLDATALOAD SWAP1 PUSH1 0x20 ADD SWAP1 SWAP3 SWAP2 SWAP1 DUP1 CALLDATALOAD SWAP1 PUSH1 0x20 ADD SWAP1 DUP3 ADD DUP1 CALLDATALOAD SWAP1 PUSH1 0x20 ADD SWAP1 DUP1 DUP1 PUSH1 0x1F ADD PUSH1 0x20 DUP1 SWAP2 DIV MUL PUSH1 0x20 ADD PUSH1 0x40 MLOAD SWAP1 DUP2 ADD PUSH1 0x40 MSTORE DUP1 SWAP4 SWAP3 SWAP2 SWAP1 DUP2 DUP2 MSTORE PUSH1 0x20 ADD DUP4 DUP4 DUP1 DUP3 DUP5 CALLDATACOPY DUP3 ADD SWAP2 POP POP POP POP POP POP SWAP2 SWAP3 SWAP2 SWAP3 SWAP1 POP POP POP PUSH2 0x1545 JUMP JUMPDEST STOP JUMPDEST CALLVALUE DUP1 ISZERO PUSH2 0x8E3 JUMPI PUSH1 0x0 DUP1 REVERT JUMPDEST POP PUSH2 0x902 PUSH1 0x4 DUP1 CALLDATASIZE SUB DUP2 ADD SWAP1 DUP1 DUP1 CALLDATALOAD SWAP1 PUSH1 0x20 ADD SWAP1 SWAP3 SWAP2 SWAP1 POP POP POP PUSH2 0x1584 JUMP JUMPDEST PUSH1 0x40 MLOAD DUP1 DUP1 PUSH1 0x20 ADD DUP3 DUP2 SUB DUP3 MSTORE DUP4 DUP2 DUP2 MLOAD DUP2 MSTORE PUSH1 0x20 ADD SWAP2 POP DUP1 MLOAD SWAP1 PUSH1 0x20 ADD SWAP1 DUP1 DUP4 DUP4 PUSH1 0x0 JUMPDEST DUP4 DUP2 LT ISZERO PUSH2 0x942 JUMPI DUP1 DUP3 ADD MLOAD DUP2 DUP5 ADD MSTORE PUSH1 0x20 DUP2 ADD SWAP1 POP PUSH2 0x927 JUMP JUMPDEST POP POP POP POP SWAP1 POP SWAP1 DUP2 ADD SWAP1 PUSH1 0x1F AND DUP1 ISZERO PUSH2 0x96F JUMPI DUP1 DUP3 SUB DUP1 MLOAD PUSH1 0x1 DUP4 PUSH1 0x20 SUB PUSH2 0x100 EXP SUB NOT AND DUP2 MSTORE PUSH1 0x20 ADD SWAP2 POP JUMPDEST POP SWAP3 POP POP POP PUSH1 0x40 MLOAD DUP1 SWAP2 SUB SWAP1 RETURN JUMPDEST CALLVALUE DUP1 ISZERO PUSH2 0x989 JUMPI PUSH1 0x0 DUP1 REVERT JUMPDEST POP PUSH2 0x9DE PUSH1 0x4 DUP1 CALLDATASIZE SUB DUP2 ADD SWAP1 DUP1 DUP1 CALLDATALOAD PUSH20 0xFFFFFFFFFFFFFFFFFFFFFFFFFFFFFFFFFFFFFFFF AND SWAP1 PUSH1 0x20 ADD SWAP1 SWAP3 SWAP2 SWAP1 DUP1 CALLDATALOAD PUSH20 0xFFFFFFFFFFFFFFFFFFFFFFFFFFFFFFFFFFFFFFFF AND SWAP1 PUSH1 0x20 ADD SWAP1 SWAP3 SWAP2 SWAP1 POP POP POP PUSH2 0x164D JUMP JUMPDEST PUSH1 0x40 MLOAD DUP1 DUP3 ISZERO ISZERO ISZERO ISZERO DUP2 MSTORE PUSH1 0x20 ADD SWAP2 POP POP PUSH1 0x40 MLOAD DUP1 SWAP2 SUB SWAP1 RETURN JUMPDEST CALLVALUE DUP1 ISZERO PUSH2 0xA04 JUMPI PUSH1 0x0 DUP1 REVERT JUMPDEST POP PUSH2 0xA39 PUSH1 0x4 DUP1 CALLDATASIZE SUB DUP2 ADD SWAP1 DUP1 DUP1 CALLDATALOAD PUSH20 0xFFFFFFFFFFFFFFFFFFFFFFFFFFFFFFFFFFFFFFFF AND SWAP1 PUSH1 0x20 ADD SWAP1 SWAP3 SWAP2 SWAP1 POP POP POP PUSH2 0x16E1 JUMP JUMPDEST STOP JUMPDEST PUSH1 0x0 DUP1 PUSH1 0x0 DUP4 PUSH28 0xFFFFFFFFFFFFFFFFFFFFFFFFFFFFFFFFFFFFFFFFFFFFFFFFFFFFFFFF NOT AND PUSH28 0xFFFFFFFFFFFFFFFFFFFFFFFFFFFFFFFFFFFFFFFFFFFFFFFFFFFFFFFF NOT AND DUP2 MSTORE PUSH1 0x20 ADD SWAP1 DUP2 MSTORE PUSH1 0x20 ADD PUSH1 0x0 KECCAK256 PUSH1 0x0 SWAP1 SLOAD SWAP1 PUSH2 0x100 EXP SWAP1 DIV PUSH1 0xFF AND SWAP1 POP SWAP2 SWAP1 POP JUMP JUMPDEST PUSH1 0x60 PUSH1 0x5 DUP1 SLOAD PUSH1 0x1 DUP2 PUSH1 0x1 AND ISZERO PUSH2 0x100 MUL SUB AND PUSH1 0x2 SWAP1 DIV DUP1 PUSH1 0x1F ADD PUSH1 0x20 DUP1 SWAP2 DIV MUL PUSH1 0x20 ADD PUSH1 0x40 MLOAD SWAP1 DUP2 ADD PUSH1 0x40 MSTORE DUP1 SWAP3 SWAP2 SWAP1 DUP2 DUP2 MSTORE PUSH1 0x20 ADD DUP3 DUP1 SLOAD PUSH1 0x1 DUP2 PUSH1 0x1 AND ISZERO PUSH2 0x100 MUL SUB AND PUSH1 0x2 SWAP1 DIV DUP1 ISZERO PUSH2 0xB3A JUMPI DUP1 PUSH1 0x1F LT PUSH2 0xB0F JUMPI PUSH2 0x100 DUP1 DUP4 SLOAD DIV MUL DUP4 MSTORE SWAP2 PUSH1 0x20 ADD SWAP2 PUSH2 0xB3A JUMP JUMPDEST DUP3 ADD SWAP2 SWAP1 PUSH1 0x0 MSTORE PUSH1 0x20 PUSH1 0x0 KECCAK256 SWAP1 JUMPDEST DUP2 SLOAD DUP2 MSTORE SWAP1 PUSH1 0x1 ADD SWAP1 PUSH1 0x20 ADD DUP1 DUP4 GT PUSH2 0xB1D JUMPI DUP3 SWAP1 SUB PUSH1 0x1F AND DUP3 ADD SWAP2 JUMPDEST POP POP POP POP POP SWAP1 POP SWAP1 JUMP JUMPDEST PUSH1 0x0 PUSH1 0x2 PUSH1 0x0 DUP4 DUP2 MSTORE PUSH1 0x20 ADD SWAP1 DUP2 MSTORE PUSH1 0x20 ADD PUSH1 0x0 KECCAK256 PUSH1 0x0 SWAP1 SLOAD SWAP1 PUSH2 0x100 EXP SWAP1 DIV PUSH20 0xFFFFFFFFFFFFFFFFFFFFFFFFFFFFFFFFFFFFFFFF AND SWAP1 POP SWAP2 SWAP1 POP JUMP JUMPDEST PUSH1 0x0 PUSH2 0xB8C DUP3 PUSH2 0x109A JUMP JUMPDEST SWAP1 POP DUP1 PUSH20 0xFFFFFFFFFFFFFFFFFFFFFFFFFFFFFFFFFFFFFFFF AND DUP4 PUSH20 0xFFFFFFFFFFFFFFFFFFFFFFFFFFFFFFFFFFFFFFFF AND EQ ISZERO ISZERO ISZERO PUSH2 0xBC9 JUMPI PUSH1 0x0 DUP1 REVERT JUMPDEST DUP1 PUSH20 0xFFFFFFFFFFFFFFFFFFFFFFFFFFFFFFFFFFFFFFFF AND CALLER PUSH20 0xFFFFFFFFFFFFFFFFFFFFFFFFFFFFFFFFFFFFFFFF AND EQ DUP1 PUSH2 0xC09 JUMPI POP PUSH2 0xC08 DUP2 CALLER PUSH2 0x164D JUMP JUMPDEST JUMPDEST ISZERO ISZERO PUSH2 0xC14 JUMPI PUSH1 0x0 DUP1 REVERT JUMPDEST PUSH1 0x0 PUSH20 0xFFFFFFFFFFFFFFFFFFFFFFFFFFFFFFFFFFFFFFFF AND PUSH2 0xC35 DUP4 PUSH2 0xB44 JUMP JUMPDEST PUSH20 0xFFFFFFFFFFFFFFFFFFFFFFFFFFFFFFFFFFFFFFFF AND EQ ISZERO DUP1 PUSH2 0xC85 JUMPI POP PUSH1 0x0 PUSH20 0xFFFFFFFFFFFFFFFFFFFFFFFFFFFFFFFFFFFFFFFF AND DUP4 PUSH20 0xFFFFFFFFFFFFFFFFFFFFFFFFFFFFFFFFFFFFFFFF AND EQ ISZERO JUMPDEST ISZERO PUSH2 0xD38 JUMPI DUP3 PUSH1 0x2 PUSH1 0x0 DUP5 DUP2 MSTORE PUSH1 0x20 ADD SWAP1 DUP2 MSTORE PUSH1 0x20 ADD PUSH1 0x0 KECCAK256 PUSH1 0x0 PUSH2 0x100 EXP DUP2 SLOAD DUP2 PUSH20 0xFFFFFFFFFFFFFFFFFFFFFFFFFFFFFFFFFFFFFFFF MUL NOT AND SWAP1 DUP4 PUSH20 0xFFFFFFFFFFFFFFFFFFFFFFFFFFFFFFFFFFFFFFFF AND MUL OR SWAP1 SSTORE POP DUP2 DUP4 PUSH20 0xFFFFFFFFFFFFFFFFFFFFFFFFFFFFFFFFFFFFFFFF AND DUP3 PUSH20 0xFFFFFFFFFFFFFFFFFFFFFFFFFFFFFFFFFFFFFFFF AND PUSH32 0x8C5BE1E5EBEC7D5BD14F71427D1E84F3DD0314C0F7B2291E5B200AC8C7C3B925 PUSH1 0x40 MLOAD PUSH1 0x40 MLOAD DUP1 SWAP2 SUB SWAP1 LOG4 JUMPDEST POP POP POP JUMP JUMPDEST PUSH1 0xC PUSH1 0x0 SWAP1 SLOAD SWAP1 PUSH2 0x100 EXP SWAP1 DIV PUSH20 0xFFFFFFFFFFFFFFFFFFFFFFFFFFFFFFFFFFFFFFFF AND PUSH20 0xFFFFFFFFFFFFFFFFFFFFFFFFFFFFFFFFFFFFFFFF AND CALLER PUSH20 0xFFFFFFFFFFFFFFFFFFFFFFFFFFFFFFFFFFFFFFFF AND EQ ISZERO ISZERO PUSH2 0xD99 JUMPI PUSH1 0x0 DUP1 REVERT JUMPDEST PUSH2 0xDA3 DUP3 DUP3 PUSH2 0x1839 JUMP JUMPDEST POP POP JUMP JUMPDEST PUSH1 0x0 PUSH1 0x9 DUP1 SLOAD SWAP1 POP SWAP1 POP SWAP1 JUMP JUMPDEST PUSH4 0x1FFC9A7 PUSH29 0x100000000000000000000000000000000000000000000000000000000 MUL DUP2 JUMP JUMPDEST DUP1 PUSH2 0xDE6 CALLER DUP3 PUSH2 0x1879 JUMP JUMPDEST ISZERO ISZERO PUSH2 0xDF1 JUMPI PUSH1 0x0 DUP1 REVERT JUMPDEST PUSH1 0x0 PUSH20 0xFFFFFFFFFFFFFFFFFFFFFFFFFFFFFFFFFFFFFFFF AND DUP5 PUSH20 0xFFFFFFFFFFFFFFFFFFFFFFFFFFFFFFFFFFFFFFFF AND EQ ISZERO ISZERO ISZERO PUSH2 0xE2D JUMPI PUSH1 0x0 DUP1 REVERT JUMPDEST PUSH1 0x0 PUSH20 0xFFFFFFFFFFFFFFFFFFFFFFFFFFFFFFFFFFFFFFFF AND DUP4 PUSH20 0xFFFFFFFFFFFFFFFFFFFFFFFFFFFFFFFFFFFFFFFF AND EQ ISZERO ISZERO ISZERO PUSH2 0xE69 JUMPI PUSH1 0x0 DUP1 REVERT JUMPDEST PUSH2 0xE73 DUP5 DUP4 PUSH2 0x190E JUMP JUMPDEST PUSH2 0xE7D DUP5 DUP4 PUSH2 0x1A6D JUMP JUMPDEST PUSH2 0xE87 DUP4 DUP4 PUSH2 0x1C85 JUMP JUMPDEST DUP2 DUP4 PUSH20 0xFFFFFFFFFFFFFFFFFFFFFFFFFFFFFFFFFFFFFFFF AND DUP6 PUSH20 0xFFFFFFFFFFFFFFFFFFFFFFFFFFFFFFFFFFFFFFFF AND PUSH32 0xDDF252AD1BE2C89B69C2B068FC378DAA952BA7F163C4A11628F55A4DF523B3EF PUSH1 0x40 MLOAD PUSH1 0x40 MLOAD DUP1 SWAP2 SUB SWAP1 LOG4 POP POP POP POP JUMP JUMPDEST PUSH1 0x0 PUSH2 0xEF3 DUP4 PUSH2 0x1118 JUMP JUMPDEST DUP3 LT ISZERO ISZERO PUSH2 0xF00 JUMPI PUSH1 0x0 DUP1 REVERT JUMPDEST PUSH1 0x7 PUSH1 0x0 DUP5 PUSH20 0xFFFFFFFFFFFFFFFFFFFFFFFFFFFFFFFFFFFFFFFF AND PUSH20 0xFFFFFFFFFFFFFFFFFFFFFFFFFFFFFFFFFFFFFFFF AND DUP2 MSTORE PUSH1 0x20 ADD SWAP1 DUP2 MSTORE PUSH1 0x20 ADD PUSH1 0x0 KECCAK256 DUP3 DUP2 SLOAD DUP2 LT ISZERO ISZERO PUSH2 0xF4C JUMPI INVALID JUMPDEST SWAP1 PUSH1 0x0 MSTORE PUSH1 0x20 PUSH1 0x0 KECCAK256 ADD SLOAD SWAP1 POP SWAP3 SWAP2 POP POP JUMP JUMPDEST DUP1 PUSH2 0xF6A CALLER DUP3 PUSH2 0x1879 JUMP JUMPDEST ISZERO ISZERO PUSH2 0xF75 JUMPI PUSH1 0x0 DUP1 REVERT JUMPDEST PUSH2 0xF91 DUP5 DUP5 DUP5 PUSH1 0x20 PUSH1 0x40 MLOAD SWAP1 DUP2 ADD PUSH1 0x40 MSTORE DUP1 PUSH1 0x0 DUP2 MSTORE POP PUSH2 0x1545 JUMP JUMPDEST POP POP POP POP JUMP JUMPDEST DUP1 CALLER PUSH20 0xFFFFFFFFFFFFFFFFFFFFFFFFFFFFFFFFFFFFFFFF AND PUSH2 0xFB8 DUP3 PUSH2 0x109A JUMP JUMPDEST PUSH20 0xFFFFFFFFFFFFFFFFFFFFFFFFFFFFFFFFFFFFFFFF AND EQ ISZERO ISZERO PUSH2 0xFDA JUMPI PUSH1 0x0 DUP1 REVERT JUMPDEST PUSH2 0xFEC PUSH2 0xFE6 DUP4 PUSH2 0x109A JUMP JUMPDEST DUP4 PUSH2 0x1D5C JUMP JUMPDEST POP POP JUMP JUMPDEST PUSH1 0x0 DUP1 PUSH1 0x1 PUSH1 0x0 DUP5 DUP2 MSTORE PUSH1 0x20 ADD SWAP1 DUP2 MSTORE PUSH1 0x20 ADD PUSH1 0x0 KECCAK256 PUSH1 0x0 SWAP1 SLOAD SWAP1 PUSH2 0x100 EXP SWAP1 DIV PUSH20 0xFFFFFFFFFFFFFFFFFFFFFFFFFFFFFFFFFFFFFFFF AND SWAP1 POP PUSH1 0x0 PUSH20 0xFFFFFFFFFFFFFFFFFFFFFFFFFFFFFFFFFFFFFFFF AND DUP2 PUSH20 0xFFFFFFFFFFFFFFFFFFFFFFFFFFFFFFFFFFFFFFFF AND EQ ISZERO SWAP2 POP POP SWAP2 SWAP1 POP JUMP JUMPDEST PUSH1 0x0 PUSH2 0x106C PUSH2 0xDA7 JUMP JUMPDEST DUP3 LT ISZERO ISZERO PUSH2 0x1079 JUMPI PUSH1 0x0 DUP1 REVERT JUMPDEST PUSH1 0x9 DUP3 DUP2 SLOAD DUP2 LT ISZERO ISZERO PUSH2 0x1088 JUMPI INVALID JUMPDEST SWAP1 PUSH1 0x0 MSTORE PUSH1 0x20 PUSH1 0x0 KECCAK256 ADD SLOAD SWAP1 POP SWAP2 SWAP1 POP JUMP JUMPDEST PUSH1 0x0 DUP1 PUSH1 0x1 PUSH1 0x0 DUP5 DUP2 MSTORE PUSH1 0x20 ADD SWAP1 DUP2 MSTORE PUSH1 0x20 ADD PUSH1 0x0 KECCAK256 PUSH1 0x0 SWAP1 SLOAD SWAP1 PUSH2 0x100 EXP SWAP1 DIV PUSH20 0xFFFFFFFFFFFFFFFFFFFFFFFFFFFFFFFFFFFFFFFF AND SWAP1 POP PUSH1 0x0 PUSH20 0xFFFFFFFFFFFFFFFFFFFFFFFFFFFFFFFFFFFFFFFF AND DUP2 PUSH20 0xFFFFFFFFFFFFFFFFFFFFFFFFFFFFFFFFFFFFFFFF AND EQ ISZERO ISZERO ISZERO PUSH2 0x110F JUMPI PUSH1 0x0 DUP1 REVERT JUMPDEST DUP1 SWAP2 POP POP SWAP2 SWAP1 POP JUMP JUMPDEST PUSH1 0x0 DUP1 PUSH20 0xFFFFFFFFFFFFFFFFFFFFFFFFFFFFFFFFFFFFFFFF AND DUP3 PUSH20 0xFFFFFFFFFFFFFFFFFFFFFFFFFFFFFFFFFFFFFFFF AND EQ ISZERO ISZERO ISZERO PUSH2 0x1155 JUMPI PUSH1 0x0 DUP1 REVERT JUMPDEST PUSH1 0x3 PUSH1 0x0 DUP4 PUSH20 0xFFFFFFFFFFFFFFFFFFFFFFFFFFFFFFFFFFFFFFFF AND PUSH20 0xFFFFFFFFFFFFFFFFFFFFFFFFFFFFFFFFFFFFFFFF AND DUP2 MSTORE PUSH1 0x20 ADD SWAP1 DUP2 MSTORE PUSH1 0x20 ADD PUSH1 0x0 KECCAK256 SLOAD SWAP1 POP SWAP2 SWAP1 POP JUMP JUMPDEST PUSH1 0xC PUSH1 0x0 SWAP1 SLOAD SWAP1 PUSH2 0x100 EXP SWAP1 DIV PUSH20 0xFFFFFFFFFFFFFFFFFFFFFFFFFFFFFFFFFFFFFFFF AND PUSH20 0xFFFFFFFFFFFFFFFFFFFFFFFFFFFFFFFFFFFFFFFF AND CALLER PUSH20 0xFFFFFFFFFFFFFFFFFFFFFFFFFFFFFFFFFFFFFFFF AND EQ ISZERO ISZERO PUSH2 0x11F8 JUMPI PUSH1 0x0 DUP1 REVERT JUMPDEST PUSH1 0xC PUSH1 0x0 SWAP1 SLOAD SWAP1 PUSH2 0x100 EXP SWAP1 DIV PUSH20 0xFFFFFFFFFFFFFFFFFFFFFFFFFFFFFFFFFFFFFFFF AND PUSH20 0xFFFFFFFFFFFFFFFFFFFFFFFFFFFFFFFFFFFFFFFF AND PUSH32 0xF8DF31144D9C2F0F6B59D69B8B98ABD5459D07F2742C4DF920B25AAE33C64820 PUSH1 0x40 MLOAD PUSH1 0x40 MLOAD DUP1 SWAP2 SUB SWAP1 LOG2 PUSH1 0x0 PUSH1 0xC PUSH1 0x0 PUSH2 0x100 EXP DUP2 SLOAD DUP2 PUSH20 0xFFFFFFFFFFFFFFFFFFFFFFFFFFFFFFFFFFFFFFFF MUL NOT AND SWAP1 DUP4 PUSH20 0xFFFFFFFFFFFFFFFFFFFFFFFFFFFFFFFFFFFFFFFF AND MUL OR SWAP1 SSTORE POP JUMP JUMPDEST PUSH1 0xC PUSH1 0x0 SWAP1 SLOAD SWAP1 PUSH2 0x100 EXP SWAP1 DIV PUSH20 0xFFFFFFFFFFFFFFFFFFFFFFFFFFFFFFFFFFFFFFFF AND DUP2 JUMP JUMPDEST PUSH1 0x60 PUSH1 0x6 DUP1 SLOAD PUSH1 0x1 DUP2 PUSH1 0x1 AND ISZERO PUSH2 0x100 MUL SUB AND PUSH1 0x2 SWAP1 DIV DUP1 PUSH1 0x1F ADD PUSH1 0x20 DUP1 SWAP2 DIV MUL PUSH1 0x20 ADD PUSH1 0x40 MLOAD SWAP1 DUP2 ADD PUSH1 0x40 MSTORE DUP1 SWAP3 SWAP2 SWAP1 DUP2 DUP2 MSTORE PUSH1 0x20 ADD DUP3 DUP1 SLOAD PUSH1 0x1 DUP2 PUSH1 0x1 AND ISZERO PUSH2 0x100 MUL SUB AND PUSH1 0x2 SWAP1 DIV DUP1 ISZERO PUSH2 0x135F JUMPI DUP1 PUSH1 0x1F LT PUSH2 0x1334 JUMPI PUSH2 0x100 DUP1 DUP4 SLOAD DIV MUL DUP4 MSTORE SWAP2 PUSH1 0x20 ADD SWAP2 PUSH2 0x135F JUMP JUMPDEST DUP3 ADD SWAP2 SWAP1 PUSH1 0x0 MSTORE PUSH1 0x20 PUSH1 0x0 KECCAK256 SWAP1 JUMPDEST DUP2 SLOAD DUP2 MSTORE SWAP1 PUSH1 0x1 ADD SWAP1 PUSH1 0x20 ADD DUP1 DUP4 GT PUSH2 0x1342 JUMPI DUP3 SWAP1 SUB PUSH1 0x1F AND DUP3 ADD SWAP2 JUMPDEST POP POP POP POP POP SWAP1 POP SWAP1 JUMP JUMPDEST PUSH1 0xC PUSH1 0x0 SWAP1 SLOAD SWAP1 PUSH2 0x100 EXP SWAP1 DIV PUSH20 0xFFFFFFFFFFFFFFFFFFFFFFFFFFFFFFFFFFFFFFFF AND PUSH20 0xFFFFFFFFFFFFFFFFFFFFFFFFFFFFFFFFFFFFFFFF AND CALLER PUSH20 0xFFFFFFFFFFFFFFFFFFFFFFFFFFFFFFFFFFFFFFFF AND EQ ISZERO ISZERO PUSH2 0x13C5 JUMPI PUSH1 0x0 DUP1 REVERT JUMPDEST PUSH2 0x13CE DUP2 PUSH2 0xFF0 JUMP JUMPDEST ISZERO ISZERO ISZERO PUSH2 0x13DA JUMPI PUSH1 0x0 DUP1 REVERT JUMPDEST PUSH2 0x1406 PUSH1 0xC PUSH1 0x0 SWAP1 SLOAD SWAP1 PUSH2 0x100 EXP SWAP1 DIV PUSH20 0xFFFFFFFFFFFFFFFFFFFFFFFFFFFFFFFFFFFFFFFF AND DUP3 PUSH2 0x1E94 JUMP JUMPDEST POP JUMP JUMPDEST CALLER PUSH20 0xFFFFFFFFFFFFFFFFFFFFFFFFFFFFFFFFFFFFFFFF AND DUP3 PUSH20 0xFFFFFFFFFFFFFFFFFFFFFFFFFFFFFFFFFFFFFFFF AND EQ ISZERO ISZERO ISZERO PUSH2 0x1444 JUMPI PUSH1 0x0 DUP1 REVERT JUMPDEST DUP1 PUSH1 0x4 PUSH1 0x0 CALLER PUSH20 0xFFFFFFFFFFFFFFFFFFFFFFFFFFFFFFFFFFFFFFFF AND PUSH20 0xFFFFFFFFFFFFFFFFFFFFFFFFFFFFFFFFFFFFFFFF AND DUP2 MSTORE PUSH1 0x20 ADD SWAP1 DUP2 MSTORE PUSH1 0x20 ADD PUSH1 0x0 KECCAK256 PUSH1 0x0 DUP5 PUSH20 0xFFFFFFFFFFFFFFFFFFFFFFFFFFFFFFFFFFFFFFFF AND PUSH20 0xFFFFFFFFFFFFFFFFFFFFFFFFFFFFFFFFFFFFFFFF AND DUP2 MSTORE PUSH1 0x20 ADD SWAP1 DUP2 MSTORE PUSH1 0x20 ADD PUSH1 0x0 KECCAK256 PUSH1 0x0 PUSH2 0x100 EXP DUP2 SLOAD DUP2 PUSH1 0xFF MUL NOT AND SWAP1 DUP4 ISZERO ISZERO MUL OR SWAP1 SSTORE POP DUP2 PUSH20 0xFFFFFFFFFFFFFFFFFFFFFFFFFFFFFFFFFFFFFFFF AND CALLER PUSH20 0xFFFFFFFFFFFFFFFFFFFFFFFFFFFFFFFFFFFFFFFF AND PUSH32 0x17307EAB39AB6107E8899845AD3D59BD9653F200F220920489CA2B5937696C31 DUP4 PUSH1 0x40 MLOAD DUP1 DUP3 ISZERO ISZERO ISZERO ISZERO DUP2 MSTORE PUSH1 0x20 ADD SWAP2 POP POP PUSH1 0x40 MLOAD DUP1 SWAP2 SUB SWAP1 LOG3 POP POP JUMP JUMPDEST DUP2 PUSH2 0x1550 CALLER DUP3 PUSH2 0x1879 JUMP JUMPDEST ISZERO ISZERO PUSH2 0x155B JUMPI PUSH1 0x0 DUP1 REVERT JUMPDEST PUSH2 0x1566 DUP6 DUP6 DUP6 PUSH2 0xDDB JUMP JUMPDEST PUSH2 0x1572 DUP6 DUP6 DUP6 DUP6 PUSH2 0x1EEB JUMP JUMPDEST ISZERO ISZERO PUSH2 0x157D JUMPI PUSH1 0x0 DUP1 REVERT JUMPDEST POP POP POP POP POP JUMP JUMPDEST PUSH1 0x60 PUSH2 0x158F DUP3 PUSH2 0xFF0 JUMP JUMPDEST ISZERO ISZERO PUSH2 0x159A JUMPI PUSH1 0x0 DUP1 REVERT JUMPDEST PUSH1 0xB PUSH1 0x0 DUP4 DUP2 MSTORE PUSH1 0x20 ADD SWAP1 DUP2 MSTORE PUSH1 0x20 ADD PUSH1 0x0 KECCAK256 DUP1 SLOAD PUSH1 0x1 DUP2 PUSH1 0x1 AND ISZERO PUSH2 0x100 MUL SUB AND PUSH1 0x2 SWAP1 DIV DUP1 PUSH1 0x1F ADD PUSH1 0x20 DUP1 SWAP2 DIV MUL PUSH1 0x20 ADD PUSH1 0x40 MLOAD SWAP1 DUP2 ADD PUSH1 0x40 MSTORE DUP1 SWAP3 SWAP2 SWAP1 DUP2 DUP2 MSTORE PUSH1 0x20 ADD DUP3 DUP1 SLOAD PUSH1 0x1 DUP2 PUSH1 0x1 AND ISZERO PUSH2 0x100 MUL SUB AND PUSH1 0x2 SWAP1 DIV DUP1 ISZERO PUSH2 0x1641 JUMPI DUP1 PUSH1 0x1F LT PUSH2 0x1616 JUMPI PUSH2 0x100 DUP1 DUP4 SLOAD DIV MUL DUP4 MSTORE SWAP2 PUSH1 0x20 ADD SWAP2 PUSH2 0x1641 JUMP JUMPDEST DUP3 ADD SWAP2 SWAP1 PUSH1 0x0 MSTORE PUSH1 0x20 PUSH1 0x0 KECCAK256 SWAP1 JUMPDEST DUP2 SLOAD DUP2 MSTORE SWAP1 PUSH1 0x1 ADD SWAP1 PUSH1 0x20 ADD DUP1 DUP4 GT PUSH2 0x1624 JUMPI DUP3 SWAP1 SUB PUSH1 0x1F AND DUP3 ADD SWAP2 JUMPDEST POP POP POP POP POP SWAP1 POP SWAP2 SWAP1 POP JUMP JUMPDEST PUSH1 0x0 PUSH1 0x4 PUSH1 0x0 DUP5 PUSH20 0xFFFFFFFFFFFFFFFFFFFFFFFFFFFFFFFFFFFFFFFF AND PUSH20 0xFFFFFFFFFFFFFFFFFFFFFFFFFFFFFFFFFFFFFFFF AND DUP2 MSTORE PUSH1 0x20 ADD SWAP1 DUP2 MSTORE PUSH1 0x20 ADD PUSH1 0x0 KECCAK256 PUSH1 0x0 DUP4 PUSH20 0xFFFFFFFFFFFFFFFFFFFFFFFFFFFFFFFFFFFFFFFF AND PUSH20 0xFFFFFFFFFFFFFFFFFFFFFFFFFFFFFFFFFFFFFFFF AND DUP2 MSTORE PUSH1 0x20 ADD SWAP1 DUP2 MSTORE PUSH1 0x20 ADD PUSH1 0x0 KECCAK256 PUSH1 0x0 SWAP1 SLOAD SWAP1 PUSH2 0x100 EXP SWAP1 DIV PUSH1 0xFF AND SWAP1 POP SWAP3 SWAP2 POP POP JUMP JUMPDEST PUSH1 0xC PUSH1 0x0 SWAP1 SLOAD SWAP1 PUSH2 0x100 EXP SWAP1 DIV PUSH20 0xFFFFFFFFFFFFFFFFFFFFFFFFFFFFFFFFFFFFFFFF AND PUSH20 0xFFFFFFFFFFFFFFFFFFFFFFFFFFFFFFFFFFFFFFFF AND CALLER PUSH20 0xFFFFFFFFFFFFFFFFFFFFFFFFFFFFFFFFFFFFFFFF AND EQ ISZERO ISZERO PUSH2 0x173D JUMPI PUSH1 0x0 DUP1 REVERT JUMPDEST PUSH1 0x0 PUSH20 0xFFFFFFFFFFFFFFFFFFFFFFFFFFFFFFFFFFFFFFFF AND DUP2 PUSH20 0xFFFFFFFFFFFFFFFFFFFFFFFFFFFFFFFFFFFFFFFF AND EQ ISZERO ISZERO ISZERO PUSH2 0x1779 JUMPI PUSH1 0x0 DUP1 REVERT JUMPDEST DUP1 PUSH20 0xFFFFFFFFFFFFFFFFFFFFFFFFFFFFFFFFFFFFFFFF AND PUSH1 0xC PUSH1 0x0 SWAP1 SLOAD SWAP1 PUSH2 0x100 EXP SWAP1 DIV PUSH20 0xFFFFFFFFFFFFFFFFFFFFFFFFFFFFFFFFFFFFFFFF AND PUSH20 0xFFFFFFFFFFFFFFFFFFFFFFFFFFFFFFFFFFFFFFFF AND PUSH32 0x8BE0079C531659141344CD1FD0A4F28419497F9722A3DAAFE3B4186F6B6457E0 PUSH1 0x40 MLOAD PUSH1 0x40 MLOAD DUP1 SWAP2 SUB SWAP1 LOG3 DUP1 PUSH1 0xC PUSH1 0x0 PUSH2 0x100 EXP DUP2 SLOAD DUP2 PUSH20 0xFFFFFFFFFFFFFFFFFFFFFFFFFFFFFFFFFFFFFFFF MUL NOT AND SWAP1 DUP4 PUSH20 0xFFFFFFFFFFFFFFFFFFFFFFFFFFFFFFFFFFFFFFFF AND MUL OR SWAP1 SSTORE POP POP JUMP JUMPDEST PUSH2 0x1842 DUP3 PUSH2 0xFF0 JUMP JUMPDEST ISZERO ISZERO PUSH2 0x184D JUMPI PUSH1 0x0 DUP1 REVERT JUMPDEST DUP1 PUSH1 0xB PUSH1 0x0 DUP5 DUP2 MSTORE PUSH1 0x20 ADD SWAP1 DUP2 MSTORE PUSH1 0x20 ADD PUSH1 0x0 KECCAK256 SWAP1 DUP1 MLOAD SWAP1 PUSH1 0x20 ADD SWAP1 PUSH2 0x1874 SWAP3 SWAP2 SWAP1 PUSH2 0x24C4 JUMP JUMPDEST POP POP POP JUMP JUMPDEST PUSH1 0x0 DUP1 PUSH2 0x1885 DUP4 PUSH2 0x109A JUMP JUMPDEST SWAP1 POP DUP1 PUSH20 0xFFFFFFFFFFFFFFFFFFFFFFFFFFFFFFFFFFFFFFFF AND DUP5 PUSH20 0xFFFFFFFFFFFFFFFFFFFFFFFFFFFFFFFFFFFFFFFF AND EQ DUP1 PUSH2 0x18F4 JUMPI POP DUP4 PUSH20 0xFFFFFFFFFFFFFFFFFFFFFFFFFFFFFFFFFFFFFFFF AND PUSH2 0x18DC DUP5 PUSH2 0xB44 JUMP JUMPDEST PUSH20 0xFFFFFFFFFFFFFFFFFFFFFFFFFFFFFFFFFFFFFFFF AND EQ JUMPDEST DUP1 PUSH2 0x1905 JUMPI POP PUSH2 0x1904 DUP2 DUP6 PUSH2 0x164D JUMP JUMPDEST JUMPDEST SWAP2 POP POP SWAP3 SWAP2 POP POP JUMP JUMPDEST DUP2 PUSH20 0xFFFFFFFFFFFFFFFFFFFFFFFFFFFFFFFFFFFFFFFF AND PUSH2 0x192E DUP3 PUSH2 0x109A JUMP JUMPDEST PUSH20 0xFFFFFFFFFFFFFFFFFFFFFFFFFFFFFFFFFFFFFFFF AND EQ ISZERO ISZERO PUSH2 0x1950 JUMPI PUSH1 0x0 DUP1 REVERT JUMPDEST PUSH1 0x0 PUSH20 0xFFFFFFFFFFFFFFFFFFFFFFFFFFFFFFFFFFFFFFFF AND PUSH1 0x2 PUSH1 0x0 DUP4 DUP2 MSTORE PUSH1 0x20 ADD SWAP1 DUP2 MSTORE PUSH1 0x20 ADD PUSH1 0x0 KECCAK256 PUSH1 0x0 SWAP1 SLOAD SWAP1 PUSH2 0x100 EXP SWAP1 DIV PUSH20 0xFFFFFFFFFFFFFFFFFFFFFFFFFFFFFFFFFFFFFFFF AND PUSH20 0xFFFFFFFFFFFFFFFFFFFFFFFFFFFFFFFFFFFFFFFF AND EQ ISZERO ISZERO PUSH2 0x1A69 JUMPI PUSH1 0x0 PUSH1 0x2 PUSH1 0x0 DUP4 DUP2 MSTORE PUSH1 0x20 ADD SWAP1 DUP2 MSTORE PUSH1 0x20 ADD PUSH1 0x0 KECCAK256 PUSH1 0x0 PUSH2 0x100 EXP DUP2 SLOAD DUP2 PUSH20 0xFFFFFFFFFFFFFFFFFFFFFFFFFFFFFFFFFFFFFFFF MUL NOT AND SWAP1 DUP4 PUSH20 0xFFFFFFFFFFFFFFFFFFFFFFFFFFFFFFFFFFFFFFFF AND MUL OR SWAP1 SSTORE POP DUP1 PUSH1 0x0 PUSH20 0xFFFFFFFFFFFFFFFFFFFFFFFFFFFFFFFFFFFFFFFF AND DUP4 PUSH20 0xFFFFFFFFFFFFFFFFFFFFFFFFFFFFFFFFFFFFFFFF AND PUSH32 0x8C5BE1E5EBEC7D5BD14F71427D1E84F3DD0314C0F7B2291E5B200AC8C7C3B925 PUSH1 0x40 MLOAD PUSH1 0x40 MLOAD DUP1 SWAP2 SUB SWAP1 LOG4 JUMPDEST POP POP JUMP JUMPDEST PUSH1 0x0 DUP1 PUSH1 0x0 PUSH2 0x1A7C DUP6 DUP6 PUSH2 0x20D9 JUMP JUMPDEST PUSH1 0x8 PUSH1 0x0 DUP6 DUP2 MSTORE PUSH1 0x20 ADD SWAP1 DUP2 MSTORE PUSH1 0x20 ADD PUSH1 0x0 KECCAK256 SLOAD SWAP3 POP PUSH2 0x1AE8 PUSH1 0x1 PUSH1 0x7 PUSH1 0x0 DUP9 PUSH20 0xFFFFFFFFFFFFFFFFFFFFFFFFFFFFFFFFFFFFFFFF AND PUSH20 0xFFFFFFFFFFFFFFFFFFFFFFFFFFFFFFFFFFFFFFFF AND DUP2 MSTORE PUSH1 0x20 ADD SWAP1 DUP2 MSTORE PUSH1 0x20 ADD PUSH1 0x0 KECCAK256 DUP1 SLOAD SWAP1 POP PUSH2 0x2208 SWAP1 SWAP2 SWAP1 PUSH4 0xFFFFFFFF AND JUMP JUMPDEST SWAP2 POP PUSH1 0x7 PUSH1 0x0 DUP7 PUSH20 0xFFFFFFFFFFFFFFFFFFFFFFFFFFFFFFFFFFFFFFFF AND PUSH20 0xFFFFFFFFFFFFFFFFFFFFFFFFFFFFFFFFFFFFFFFF AND DUP2 MSTORE PUSH1 0x20 ADD SWAP1 DUP2 MSTORE PUSH1 0x20 ADD PUSH1 0x0 KECCAK256 DUP3 DUP2 SLOAD DUP2 LT ISZERO ISZERO PUSH2 0x1B36 JUMPI INVALID JUMPDEST SWAP1 PUSH1 0x0 MSTORE PUSH1 0x20 PUSH1 0x0 KECCAK256 ADD SLOAD SWAP1 POP DUP1 PUSH1 0x7 PUSH1 0x0 DUP8 PUSH20 0xFFFFFFFFFFFFFFFFFFFFFFFFFFFFFFFFFFFFFFFF AND PUSH20 0xFFFFFFFFFFFFFFFFFFFFFFFFFFFFFFFFFFFFFFFF AND DUP2 MSTORE PUSH1 0x20 ADD SWAP1 DUP2 MSTORE PUSH1 0x20 ADD PUSH1 0x0 KECCAK256 DUP5 DUP2 SLOAD DUP2 LT ISZERO ISZERO PUSH2 0x1B90 JUMPI INVALID JUMPDEST SWAP1 PUSH1 0x0 MSTORE PUSH1 0x20 PUSH1 0x0 KECCAK256 ADD DUP2 SWAP1 SSTORE POP PUSH1 0x0 PUSH1 0x7 PUSH1 0x0 DUP8 PUSH20 0xFFFFFFFFFFFFFFFFFFFFFFFFFFFFFFFFFFFFFFFF AND PUSH20 0xFFFFFFFFFFFFFFFFFFFFFFFFFFFFFFFFFFFFFFFF AND DUP2 MSTORE PUSH1 0x20 ADD SWAP1 DUP2 MSTORE PUSH1 0x20 ADD PUSH1 0x0 KECCAK256 DUP4 DUP2 SLOAD DUP2 LT ISZERO ISZERO PUSH2 0x1BEC JUMPI INVALID JUMPDEST SWAP1 PUSH1 0x0 MSTORE PUSH1 0x20 PUSH1 0x0 KECCAK256 ADD DUP2 SWAP1 SSTORE POP PUSH1 0x7 PUSH1 0x0 DUP7 PUSH20 0xFFFFFFFFFFFFFFFFFFFFFFFFFFFFFFFFFFFFFFFF AND PUSH20 0xFFFFFFFFFFFFFFFFFFFFFFFFFFFFFFFFFFFFFFFF AND DUP2 MSTORE PUSH1 0x20 ADD SWAP1 DUP2 MSTORE PUSH1 0x20 ADD PUSH1 0x0 KECCAK256 DUP1 SLOAD DUP1 SWAP2 SWAP1 PUSH1 0x1 SWAP1 SUB PUSH2 0x1C4C SWAP2 SWAP1 PUSH2 0x2544 JUMP JUMPDEST POP PUSH1 0x0 PUSH1 0x8 PUSH1 0x0 DUP7 DUP2 MSTORE PUSH1 0x20 ADD SWAP1 DUP2 MSTORE PUSH1 0x20 ADD PUSH1 0x0 KECCAK256 DUP2 SWAP1 SSTORE POP DUP3 PUSH1 0x8 PUSH1 0x0 DUP4 DUP2 MSTORE PUSH1 0x20 ADD SWAP1 DUP2 MSTORE PUSH1 0x20 ADD PUSH1 0x0 KECCAK256 DUP2 SWAP1 SSTORE POP POP POP POP POP POP JUMP JUMPDEST PUSH1 0x0 PUSH2 0x1C91 DUP4 DUP4 PUSH2 0x2221 JUMP JUMPDEST PUSH1 0x7 PUSH1 0x0 DUP5 PUSH20 0xFFFFFFFFFFFFFFFFFFFFFFFFFFFFFFFFFFFFFFFF AND PUSH20 0xFFFFFFFFFFFFFFFFFFFFFFFFFFFFFFFFFFFFFFFF AND DUP2 MSTORE PUSH1 0x20 ADD SWAP1 DUP2 MSTORE PUSH1 0x20 ADD PUSH1 0x0 KECCAK256 DUP1 SLOAD SWAP1 POP SWAP1 POP PUSH1 0x7 PUSH1 0x0 DUP5 PUSH20 0xFFFFFFFFFFFFFFFFFFFFFFFFFFFFFFFFFFFFFFFF AND PUSH20 0xFFFFFFFFFFFFFFFFFFFFFFFFFFFFFFFFFFFFFFFF AND DUP2 MSTORE PUSH1 0x20 ADD SWAP1 DUP2 MSTORE PUSH1 0x20 ADD PUSH1 0x0 KECCAK256 DUP3 SWAP1 DUP1 PUSH1 0x1 DUP2 SLOAD ADD DUP1 DUP3 SSTORE DUP1 SWAP2 POP POP SWAP1 PUSH1 0x1 DUP3 SUB SWAP1 PUSH1 0x0 MSTORE PUSH1 0x20 PUSH1 0x0 KECCAK256 ADD PUSH1 0x0 SWAP1 SWAP2 SWAP3 SWAP1 SWAP2 SWAP1 SWAP2 POP SSTORE POP DUP1 PUSH1 0x8 PUSH1 0x0 DUP5 DUP2 MSTORE PUSH1 0x20 ADD SWAP1 DUP2 MSTORE PUSH1 0x20 ADD PUSH1 0x0 KECCAK256 DUP2 SWAP1 SSTORE POP POP POP POP JUMP JUMPDEST PUSH1 0x0 DUP1 PUSH1 0x0 PUSH2 0x1D6B DUP6 DUP6 PUSH2 0x237B JUMP JUMPDEST PUSH1 0x0 PUSH1 0xB PUSH1 0x0 DUP7 DUP2 MSTORE PUSH1 0x20 ADD SWAP1 DUP2 MSTORE PUSH1 0x20 ADD PUSH1 0x0 KECCAK256 DUP1 SLOAD PUSH1 0x1 DUP2 PUSH1 0x1 AND ISZERO PUSH2 0x100 MUL SUB AND PUSH1 0x2 SWAP1 DIV SWAP1 POP EQ ISZERO ISZERO PUSH2 0x1DBC JUMPI PUSH1 0xB PUSH1 0x0 DUP6 DUP2 MSTORE PUSH1 0x20 ADD SWAP1 DUP2 MSTORE PUSH1 0x20 ADD PUSH1 0x0 KECCAK256 PUSH1 0x0 PUSH2 0x1DBB SWAP2 SWAP1 PUSH2 0x2570 JUMP JUMPDEST JUMPDEST PUSH1 0xA PUSH1 0x0 DUP6 DUP2 MSTORE PUSH1 0x20 ADD SWAP1 DUP2 MSTORE PUSH1 0x20 ADD PUSH1 0x0 KECCAK256 SLOAD SWAP3 POP PUSH2 0x1DEB PUSH1 0x1 PUSH1 0x9 DUP1 SLOAD SWAP1 POP PUSH2 0x2208 SWAP1 SWAP2 SWAP1 PUSH4 0xFFFFFFFF AND JUMP JUMPDEST SWAP2 POP PUSH1 0x9 DUP3 DUP2 SLOAD DUP2 LT ISZERO ISZERO PUSH2 0x1DFC JUMPI INVALID JUMPDEST SWAP1 PUSH1 0x0 MSTORE PUSH1 0x20 PUSH1 0x0 KECCAK256 ADD SLOAD SWAP1 POP DUP1 PUSH1 0x9 DUP5 DUP2 SLOAD DUP2 LT ISZERO ISZERO PUSH2 0x1E19 JUMPI INVALID JUMPDEST SWAP1 PUSH1 0x0 MSTORE PUSH1 0x20 PUSH1 0x0 KECCAK256 ADD DUP2 SWAP1 SSTORE POP PUSH1 0x0 PUSH1 0x9 DUP4 DUP2 SLOAD DUP2 LT ISZERO ISZERO PUSH2 0x1E38 JUMPI INVALID JUMPDEST SWAP1 PUSH1 0x0 MSTORE PUSH1 0x20 PUSH1 0x0 KECCAK256 ADD DUP2 SWAP1 SSTORE POP PUSH1 0x9 DUP1 SLOAD DUP1 SWAP2 SWAP1 PUSH1 0x1 SWAP1 SUB PUSH2 0x1E5B SWAP2 SWAP1 PUSH2 0x2544 JUMP JUMPDEST POP PUSH1 0x0 PUSH1 0xA PUSH1 0x0 DUP7 DUP2 MSTORE PUSH1 0x20 ADD SWAP1 DUP2 MSTORE PUSH1 0x20 ADD PUSH1 0x0 KECCAK256 DUP2 SWAP1 SSTORE POP DUP3 PUSH1 0xA PUSH1 0x0 DUP4 DUP2 MSTORE PUSH1 0x20 ADD SWAP1 DUP2 MSTORE PUSH1 0x20 ADD PUSH1 0x0 KECCAK256 DUP2 SWAP1 SSTORE POP POP POP POP POP POP JUMP JUMPDEST PUSH2 0x1E9E DUP3 DUP3 PUSH2 0x23EF JUMP JUMPDEST PUSH1 0x9 DUP1 SLOAD SWAP1 POP PUSH1 0xA PUSH1 0x0 DUP4 DUP2 MSTORE PUSH1 0x20 ADD SWAP1 DUP2 MSTORE PUSH1 0x20 ADD PUSH1 0x0 KECCAK256 DUP2 SWAP1 SSTORE POP PUSH1 0x9 DUP2 SWAP1 DUP1 PUSH1 0x1 DUP2 SLOAD ADD DUP1 DUP3 SSTORE DUP1 SWAP2 POP POP SWAP1 PUSH1 0x1 DUP3 SUB SWAP1 PUSH1 0x0 MSTORE PUSH1 0x20 PUSH1 0x0 KECCAK256 ADD PUSH1 0x0 SWAP1 SWAP2 SWAP3 SWAP1 SWAP2 SWAP1 SWAP2 POP SSTORE POP POP POP JUMP JUMPDEST PUSH1 0x0 DUP1 PUSH2 0x1F0D DUP6 PUSH20 0xFFFFFFFFFFFFFFFFFFFFFFFFFFFFFFFFFFFFFFFF AND PUSH2 0x2495 JUMP JUMPDEST ISZERO ISZERO PUSH2 0x1F1C JUMPI PUSH1 0x1 SWAP2 POP PUSH2 0x20D0 JUMP JUMPDEST DUP5 PUSH20 0xFFFFFFFFFFFFFFFFFFFFFFFFFFFFFFFFFFFFFFFF AND PUSH4 0xF0B9E5BA DUP8 DUP7 DUP7 PUSH1 0x40 MLOAD DUP5 PUSH4 0xFFFFFFFF AND PUSH29 0x100000000000000000000000000000000000000000000000000000000 MUL DUP2 MSTORE PUSH1 0x4 ADD DUP1 DUP5 PUSH20 0xFFFFFFFFFFFFFFFFFFFFFFFFFFFFFFFFFFFFFFFF AND PUSH20 0xFFFFFFFFFFFFFFFFFFFFFFFFFFFFFFFFFFFFFFFF AND DUP2 MSTORE PUSH1 0x20 ADD DUP4 DUP2 MSTORE PUSH1 0x20 ADD DUP1 PUSH1 0x20 ADD DUP3 DUP2 SUB DUP3 MSTORE DUP4 DUP2 DUP2 MLOAD DUP2 MSTORE PUSH1 0x20 ADD SWAP2 POP DUP1 MLOAD SWAP1 PUSH1 0x20 ADD SWAP1 DUP1 DUP4 DUP4 PUSH1 0x0 JUMPDEST DUP4 DUP2 LT ISZERO PUSH2 0x1FDE JUMPI DUP1 DUP3 ADD MLOAD DUP2 DUP5 ADD MSTORE PUSH1 0x20 DUP2 ADD SWAP1 POP PUSH2 0x1FC3 JUMP JUMPDEST POP POP POP POP SWAP1 POP SWAP1 DUP2 ADD SWAP1 PUSH1 0x1F AND DUP1 ISZERO PUSH2 0x200B JUMPI DUP1 DUP3 SUB DUP1 MLOAD PUSH1 0x1 DUP4 PUSH1 0x20 SUB PUSH2 0x100 EXP SUB NOT AND DUP2 MSTORE PUSH1 0x20 ADD SWAP2 POP JUMPDEST POP SWAP5 POP POP POP POP POP PUSH1 0x20 PUSH1 0x40 MLOAD DUP1 DUP4 SUB DUP2 PUSH1 0x0 DUP8 DUP1 EXTCODESIZE ISZERO DUP1 ISZERO PUSH2 0x202C JUMPI PUSH1 0x0 DUP1 REVERT JUMPDEST POP GAS CALL ISZERO DUP1 ISZERO PUSH2 0x2040 JUMPI RETURNDATASIZE PUSH1 0x0 DUP1 RETURNDATACOPY RETURNDATASIZE PUSH1 0x0 REVERT JUMPDEST POP POP POP POP PUSH1 0x40 MLOAD RETURNDATASIZE PUSH1 0x20 DUP2 LT ISZERO PUSH2 0x2056 JUMPI PUSH1 0x0 DUP1 REVERT JUMPDEST DUP2 ADD SWAP1 DUP1 DUP1 MLOAD SWAP1 PUSH1 0x20 ADD SWAP1 SWAP3 SWAP2 SWAP1 POP POP POP SWAP1 POP PUSH4 0xF0B9E5BA PUSH29 0x100000000000000000000000000000000000000000000000000000000 MUL PUSH28 0xFFFFFFFFFFFFFFFFFFFFFFFFFFFFFFFFFFFFFFFFFFFFFFFFFFFFFFFF NOT AND DUP2 PUSH28 0xFFFFFFFFFFFFFFFFFFFFFFFFFFFFFFFFFFFFFFFFFFFFFFFFFFFFFFFF NOT AND EQ SWAP2 POP JUMPDEST POP SWAP5 SWAP4 POP POP POP POP JUMP JUMPDEST DUP2 PUSH20 0xFFFFFFFFFFFFFFFFFFFFFFFFFFFFFFFFFFFFFFFF AND PUSH2 0x20F9 DUP3 PUSH2 0x109A JUMP JUMPDEST PUSH20 0xFFFFFFFFFFFFFFFFFFFFFFFFFFFFFFFFFFFFFFFF AND EQ ISZERO ISZERO PUSH2 0x211B JUMPI PUSH1 0x0 DUP1 REVERT JUMPDEST PUSH2 0x216E PUSH1 0x1 PUSH1 0x3 PUSH1 0x0 DUP6 PUSH20 0xFFFFFFFFFFFFFFFFFFFFFFFFFFFFFFFFFFFFFFFF AND PUSH20 0xFFFFFFFFFFFFFFFFFFFFFFFFFFFFFFFFFFFFFFFF AND DUP2 MSTORE PUSH1 0x20 ADD SWAP1 DUP2 MSTORE PUSH1 0x20 ADD PUSH1 0x0 KECCAK256 SLOAD PUSH2 0x2208 SWAP1 SWAP2 SWAP1 PUSH4 0xFFFFFFFF AND JUMP JUMPDEST PUSH1 0x3 PUSH1 0x0 DUP5 PUSH20 0xFFFFFFFFFFFFFFFFFFFFFFFFFFFFFFFFFFFFFFFF AND PUSH20 0xFFFFFFFFFFFFFFFFFFFFFFFFFFFFFFFFFFFFFFFF AND DUP2 MSTORE PUSH1 0x20 ADD SWAP1 DUP2 MSTORE PUSH1 0x20 ADD PUSH1 0x0 KECCAK256 DUP2 SWAP1 SSTORE POP PUSH1 0x0 PUSH1 0x1 PUSH1 0x0 DUP4 DUP2 MSTORE PUSH1 0x20 ADD SWAP1 DUP2 MSTORE PUSH1 0x20 ADD PUSH1 0x0 KECCAK256 PUSH1 0x0 PUSH2 0x100 EXP DUP2 SLOAD DUP2 PUSH20 0xFFFFFFFFFFFFFFFFFFFFFFFFFFFFFFFFFFFFFFFF MUL NOT AND SWAP1 DUP4 PUSH20 0xFFFFFFFFFFFFFFFFFFFFFFFFFFFFFFFFFFFFFFFF AND MUL OR SWAP1 SSTORE POP POP POP JUMP JUMPDEST PUSH1 0x0 DUP3 DUP3 GT ISZERO ISZERO ISZERO PUSH2 0x2216 JUMPI INVALID JUMPDEST DUP2 DUP4 SUB SWAP1 POP SWAP3 SWAP2 POP POP JUMP JUMPDEST PUSH1 0x0 PUSH20 0xFFFFFFFFFFFFFFFFFFFFFFFFFFFFFFFFFFFFFFFF AND PUSH1 0x1 PUSH1 0x0 DUP4 DUP2 MSTORE PUSH1 0x20 ADD SWAP1 DUP2 MSTORE PUSH1 0x20 ADD PUSH1 0x0 KECCAK256 PUSH1 0x0 SWAP1 SLOAD SWAP1 PUSH2 0x100 EXP SWAP1 DIV PUSH20 0xFFFFFFFFFFFFFFFFFFFFFFFFFFFFFFFFFFFFFFFF AND PUSH20 0xFFFFFFFFFFFFFFFFFFFFFFFFFFFFFFFFFFFFFFFF AND EQ ISZERO ISZERO PUSH2 0x228F JUMPI PUSH1 0x0 DUP1 REVERT JUMPDEST DUP2 PUSH1 0x1 PUSH1 0x0 DUP4 DUP2 MSTORE PUSH1 0x20 ADD SWAP1 DUP2 MSTORE PUSH1 0x20 ADD PUSH1 0x0 KECCAK256 PUSH1 0x0 PUSH2 0x100 EXP DUP2 SLOAD DUP2 PUSH20 0xFFFFFFFFFFFFFFFFFFFFFFFFFFFFFFFFFFFFFFFF MUL NOT AND SWAP1 DUP4 PUSH20 0xFFFFFFFFFFFFFFFFFFFFFFFFFFFFFFFFFFFFFFFF AND MUL OR SWAP1 SSTORE POP PUSH2 0x2334 PUSH1 0x1 PUSH1 0x3 PUSH1 0x0 DUP6 PUSH20 0xFFFFFFFFFFFFFFFFFFFFFFFFFFFFFFFFFFFFFFFF AND PUSH20 0xFFFFFFFFFFFFFFFFFFFFFFFFFFFFFFFFFFFFFFFF AND DUP2 MSTORE PUSH1 0x20 ADD SWAP1 DUP2 MSTORE PUSH1 0x20 ADD PUSH1 0x0 KECCAK256 SLOAD PUSH2 0x24A8 SWAP1 SWAP2 SWAP1 PUSH4 0xFFFFFFFF AND JUMP JUMPDEST PUSH1 0x3 PUSH1 0x0 DUP5 PUSH20 0xFFFFFFFFFFFFFFFFFFFFFFFFFFFFFFFFFFFFFFFF AND PUSH20 0xFFFFFFFFFFFFFFFFFFFFFFFFFFFFFFFFFFFFFFFF AND DUP2 MSTORE PUSH1 0x20 ADD SWAP1 DUP2 MSTORE PUSH1 0x20 ADD PUSH1 0x0 KECCAK256 DUP2 SWAP1 SSTORE POP POP POP JUMP JUMPDEST PUSH2 0x2385 DUP3 DUP3 PUSH2 0x190E JUMP JUMPDEST PUSH2 0x238F DUP3 DUP3 PUSH2 0x1A6D JUMP JUMPDEST DUP1 PUSH1 0x0 PUSH20 0xFFFFFFFFFFFFFFFFFFFFFFFFFFFFFFFFFFFFFFFF AND DUP4 PUSH20 0xFFFFFFFFFFFFFFFFFFFFFFFFFFFFFFFFFFFFFFFF AND PUSH32 0xDDF252AD1BE2C89B69C2B068FC378DAA952BA7F163C4A11628F55A4DF523B3EF PUSH1 0x40 MLOAD PUSH1 0x40 MLOAD DUP1 SWAP2 SUB SWAP1 LOG4 POP POP JUMP JUMPDEST PUSH1 0x0 PUSH20 0xFFFFFFFFFFFFFFFFFFFFFFFFFFFFFFFFFFFFFFFF AND DUP3 PUSH20 0xFFFFFFFFFFFFFFFFFFFFFFFFFFFFFFFFFFFFFFFF AND EQ ISZERO ISZERO ISZERO PUSH2 0x242B JUMPI PUSH1 0x0 DUP1 REVERT JUMPDEST PUSH2 0x2435 DUP3 DUP3 PUSH2 0x1C85 JUMP JUMPDEST DUP1 DUP3 PUSH20 0xFFFFFFFFFFFFFFFFFFFFFFFFFFFFFFFFFFFFFFFF AND PUSH1 0x0 PUSH20 0xFFFFFFFFFFFFFFFFFFFFFFFFFFFFFFFFFFFFFFFF AND PUSH32 0xDDF252AD1BE2C89B69C2B068FC378DAA952BA7F163C4A11628F55A4DF523B3EF PUSH1 0x40 MLOAD PUSH1 0x40 MLOAD DUP1 SWAP2 SUB SWAP1 LOG4 POP POP JUMP JUMPDEST PUSH1 0x0 DUP1 DUP3 EXTCODESIZE SWAP1 POP PUSH1 0x0 DUP2 GT SWAP2 POP POP SWAP2 SWAP1 POP JUMP JUMPDEST PUSH1 0x0 DUP2 DUP4 ADD SWAP1 POP DUP3 DUP2 LT ISZERO ISZERO ISZERO PUSH2 0x24BB JUMPI INVALID JUMPDEST DUP1 SWAP1 POP SWAP3 SWAP2 POP POP JUMP JUMPDEST DUP3 DUP1 SLOAD PUSH1 0x1 DUP2 PUSH1 0x1 AND ISZERO PUSH2 0x100 MUL SUB AND PUSH1 0x2 SWAP1 DIV SWAP1 PUSH1 0x0 MSTORE PUSH1 0x20 PUSH1 0x0 KECCAK256 SWAP1 PUSH1 0x1F ADD PUSH1 0x20 SWAP1 DIV DUP2 ADD SWAP3 DUP3 PUSH1 0x1F LT PUSH2 0x2505 JUMPI DUP1 MLOAD PUSH1 0xFF NOT AND DUP4 DUP1 ADD OR DUP6 SSTORE PUSH2 0x2533 JUMP JUMPDEST DUP3 DUP1 ADD PUSH1 0x1 ADD DUP6 SSTORE DUP3 ISZERO PUSH2 0x2533 JUMPI SWAP2 DUP3 ADD JUMPDEST DUP3 DUP2 GT ISZERO PUSH2 0x2532 JUMPI DUP3 MLOAD DUP3 SSTORE SWAP2 PUSH1 0x20 ADD SWAP2 SWAP1 PUSH1 0x1 ADD SWAP1 PUSH2 0x2517 JUMP JUMPDEST JUMPDEST POP SWAP1 POP PUSH2 0x2540 SWAP2 SWAP1 PUSH2 0x25B8 JUMP JUMPDEST POP SWAP1 JUMP JUMPDEST DUP2 SLOAD DUP2 DUP4 SSTORE DUP2 DUP2 GT ISZERO PUSH2 0x256B JUMPI DUP2 DUP4 PUSH1 0x0 MSTORE PUSH1 0x20 PUSH1 0x0 KECCAK256 SWAP2 DUP3 ADD SWAP2 ADD PUSH2 0x256A SWAP2 SWAP1 PUSH2 0x25B8 JUMP JUMPDEST JUMPDEST POP POP POP JUMP JUMPDEST POP DUP1 SLOAD PUSH1 0x1 DUP2 PUSH1 0x1 AND ISZERO PUSH2 0x100 MUL SUB AND PUSH1 0x2 SWAP1 DIV PUSH1 0x0 DUP3 SSTORE DUP1 PUSH1 0x1F LT PUSH2 0x2596 JUMPI POP PUSH2 0x25B5 JUMP JUMPDEST PUSH1 0x1F ADD PUSH1 0x20 SWAP1 DIV SWAP1 PUSH1 0x0 MSTORE PUSH1 0x20 PUSH1 0x0 KECCAK256 SWAP1 DUP2 ADD SWAP1 PUSH2 0x25B4 SWAP2 SWAP1 PUSH2 0x25B8 JUMP JUMPDEST JUMPDEST POP JUMP JUMPDEST PUSH2 0x25DA SWAP2 SWAP1 JUMPDEST DUP1 DUP3 GT ISZERO PUSH2 0x25D6 JUMPI PUSH1 0x0 DUP2 PUSH1 0x0 SWAP1 SSTORE POP PUSH1 0x1 ADD PUSH2 0x25BE JUMP JUMPDEST POP SWAP1 JUMP JUMPDEST SWAP1 JUMP STOP LOG1 PUSH6 0x627A7A723058 KECCAK256 PUSH8 0x645A63F02E4D0B59 CREATE2 SUB 0xd2 SWAP3 DIV DUP3 CALLDATALOAD 0xa9 STATICCALL JUMPDEST 0xd5 0xca EXTCODECOPY DIV 0x29 0x5d LOG0 PUSH2 0xA1A9 SHL 0xae PUSH14 0x29000000000000000000000000 "
				},
				"gasEstimates": {
					"creation": {
						"codeDepositCost": "1947400",
						"executionCost": "infinite",
						"totalCost": "infinite"
					},
					"external": {
						"InterfaceId_ERC165()": "352",
						"approve(address,uint256)": "23997",
						"balanceOf(address)": "911",
						"burn(uint256)": "infinite",
						"exists(uint256)": "865",
						"getApproved(uint256)": "633",
						"isApprovedForAll(address,address)": "1216",
						"mint(uint256)": "infinite",
						"name()": "infinite",
						"owner()": "794",
						"ownerOf(uint256)": "932",
						"renounceOwnership()": "22403",
						"safeTransferFrom(address,address,uint256)": "infinite",
						"safeTransferFrom(address,address,uint256,bytes)": "infinite",
						"setApprovalForAll(address,bool)": "22985",
						"setTokenURI(uint256,string)": "infinite",
						"supportsInterface(bytes4)": "616",
						"symbol()": "infinite",
						"tokenByIndex(uint256)": "1285",
						"tokenOfOwnerByIndex(address,uint256)": "1456",
						"tokenURI(uint256)": "infinite",
						"totalSupply()": "520",
						"transferFrom(address,address,uint256)": "infinite",
						"transferOwnership(address)": "23071"
					}
				},
				"methodIdentifiers": {
					"InterfaceId_ERC165()": "19fa8f50",
					"approve(address,uint256)": "095ea7b3",
					"balanceOf(address)": "70a08231",
					"burn(uint256)": "42966c68",
					"exists(uint256)": "4f558e79",
					"getApproved(uint256)": "081812fc",
					"isApprovedForAll(address,address)": "e985e9c5",
					"mint(uint256)": "a0712d68",
					"name()": "06fdde03",
					"owner()": "8da5cb5b",
					"ownerOf(uint256)": "6352211e",
					"renounceOwnership()": "715018a6",
					"safeTransferFrom(address,address,uint256)": "42842e0e",
					"safeTransferFrom(address,address,uint256,bytes)": "b88d4fde",
					"setApprovalForAll(address,bool)": "a22cb465",
					"setTokenURI(uint256,string)": "162094c4",
					"supportsInterface(bytes4)": "01ffc9a7",
					"symbol()": "95d89b41",
					"tokenByIndex(uint256)": "4f6ccce7",
					"tokenOfOwnerByIndex(address,uint256)": "2f745c59",
					"tokenURI(uint256)": "c87b56dd",
					"totalSupply()": "18160ddd",
					"transferFrom(address,address,uint256)": "23b872dd",
					"transferOwnership(address)": "f2fde38b"
				}
			},
			"userdoc": {
				"methods": {}
			}
		}
	}
}