{
	"contracts/Battle.sol": {
		"Battle": {
			"abi": [
				{
					"constant": false,
					"inputs": [
						{
							"name": "_dragonId",
							"type": "uint256"
						},
						{
							"name": "_attacker",
							"type": "address"
						}
					],
					"name": "resetCoolTime",
					"outputs": [],
					"payable": false,
					"stateMutability": "nonpayable",
					"type": "function"
				},
				{
					"constant": true,
					"inputs": [
						{
							"name": "",
							"type": "address"
						},
						{
							"name": "",
							"type": "uint256"
						}
					],
					"name": "dragonsOfAttacker",
					"outputs": [
						{
							"name": "",
							"type": "uint256"
						}
					],
					"payable": false,
					"stateMutability": "view",
					"type": "function"
				},
				{
					"constant": true,
					"inputs": [
						{
							"name": "",
							"type": "uint256"
						},
						{
							"name": "",
							"type": "address"
						}
					],
					"name": "dragonAttacker",
					"outputs": [
						{
							"name": "attackDamage",
							"type": "uint256"
						},
						{
							"name": "readyTime",
							"type": "uint256"
						}
					],
					"payable": false,
					"stateMutability": "view",
					"type": "function"
				},
				{
					"constant": true,
					"inputs": [
						{
							"name": "_dragonId",
							"type": "uint256"
						},
						{
							"name": "_attacker",
							"type": "address"
						}
					],
					"name": "remainNextAttackTime",
					"outputs": [
						{
							"name": "",
							"type": "int256"
						}
					],
					"payable": false,
					"stateMutability": "view",
					"type": "function"
				},
				{
					"constant": false,
					"inputs": [],
					"name": "renounceOwnership",
					"outputs": [],
					"payable": false,
					"stateMutability": "nonpayable",
					"type": "function"
				},
				{
					"constant": true,
					"inputs": [],
					"name": "getBornedDragons",
					"outputs": [
						{
							"name": "",
							"type": "uint256"
						}
					],
					"payable": false,
					"stateMutability": "view",
					"type": "function"
				},
				{
					"constant": true,
					"inputs": [
						{
							"name": "_attacker",
							"type": "address"
						}
					],
					"name": "getDragonsOfAttackerSize",
					"outputs": [
						{
							"name": "",
							"type": "uint256"
						}
					],
					"payable": false,
					"stateMutability": "view",
					"type": "function"
				},
				{
					"constant": true,
					"inputs": [],
					"name": "owner",
					"outputs": [
						{
							"name": "",
							"type": "address"
						}
					],
					"payable": false,
					"stateMutability": "view",
					"type": "function"
				},
				{
					"constant": true,
					"inputs": [],
					"name": "dragonAlive",
					"outputs": [
						{
							"name": "",
							"type": "uint256"
						}
					],
					"payable": false,
					"stateMutability": "view",
					"type": "function"
				},
				{
					"constant": true,
					"inputs": [],
					"name": "cooldownTime",
					"outputs": [
						{
							"name": "",
							"type": "uint256"
						}
					],
					"payable": false,
					"stateMutability": "view",
					"type": "function"
				},
				{
					"constant": true,
					"inputs": [
						{
							"name": "",
							"type": "uint256"
						}
					],
					"name": "dragonAttackerCount",
					"outputs": [
						{
							"name": "",
							"type": "uint256"
						}
					],
					"payable": false,
					"stateMutability": "view",
					"type": "function"
				},
				{
					"constant": true,
					"inputs": [
						{
							"name": "",
							"type": "uint256"
						}
					],
					"name": "dragons",
					"outputs": [
						{
							"name": "name",
							"type": "string"
						},
						{
							"name": "img",
							"type": "uint256"
						},
						{
							"name": "attack",
							"type": "uint256"
						},
						{
							"name": "life",
							"type": "uint256"
						},
						{
							"name": "remainLife",
							"type": "uint256"
						},
						{
							"name": "status",
							"type": "uint8"
						}
					],
					"payable": false,
					"stateMutability": "view",
					"type": "function"
				},
				{
					"constant": false,
					"inputs": [
						{
							"name": "newOwner",
							"type": "address"
						}
					],
					"name": "transferOwnership",
					"outputs": [],
					"payable": false,
					"stateMutability": "nonpayable",
					"type": "function"
				},
				{
					"constant": false,
					"inputs": [
						{
							"name": "_dragonId",
							"type": "uint256"
						},
						{
							"name": "_attDamage",
							"type": "uint256"
						}
					],
					"name": "damage",
					"outputs": [
						{
							"name": "",
							"type": "bool"
						}
					],
					"payable": false,
					"stateMutability": "nonpayable",
					"type": "function"
				},
				{
					"constant": true,
					"inputs": [
						{
							"name": "_dragonId",
							"type": "uint256"
						},
						{
							"name": "_attacker",
							"type": "address"
						}
					],
					"name": "isReady",
					"outputs": [
						{
							"name": "",
							"type": "bool"
						}
					],
					"payable": false,
					"stateMutability": "view",
					"type": "function"
				},
				{
					"constant": false,
					"inputs": [
						{
							"name": "_name",
							"type": "string"
						}
					],
					"name": "createRandomDragon",
					"outputs": [],
					"payable": false,
					"stateMutability": "nonpayable",
					"type": "function"
				},
				{
					"anonymous": false,
					"inputs": [
						{
							"indexed": true,
							"name": "id",
							"type": "uint256"
						},
						{
							"indexed": false,
							"name": "name",
							"type": "string"
						},
						{
							"indexed": false,
							"name": "img",
							"type": "uint256"
						},
						{
							"indexed": false,
							"name": "attack",
							"type": "uint256"
						},
						{
							"indexed": false,
							"name": "defence",
							"type": "uint256"
						}
					],
					"name": "NewDragon",
					"type": "event"
				},
				{
					"anonymous": false,
					"inputs": [
						{
							"indexed": true,
							"name": "previousOwner",
							"type": "address"
						}
					],
					"name": "OwnershipRenounced",
					"type": "event"
				},
				{
					"anonymous": false,
					"inputs": [
						{
							"indexed": true,
							"name": "previousOwner",
							"type": "address"
						},
						{
							"indexed": true,
							"name": "newOwner",
							"type": "address"
						}
					],
					"name": "OwnershipTransferred",
					"type": "event"
				}
			],
			"devdoc": {
				"methods": {}
			},
			"evm": {
				"assembly": "    /* \"contracts/Battle.sol\":112:2532  contract Battle is Ownable, DragonFactory {\r... */\n  mstore(0x40, 0x80)\n    /* \"contracts/Battle.sol\":220:230  30 minutes */\n  0x708\n    /* \"contracts/Battle.sol\":193:230  uint public cooldownTime = 30 minutes */\n  0x3\n  sstore\n    /* \"contracts/Ownable.sol\":300:310  msg.sender */\n  caller\n    /* \"contracts/Ownable.sol\":292:297  owner */\n  0x0\n  dup1\n    /* \"contracts/Ownable.sol\":292:310  owner = msg.sender */\n  0x100\n  exp\n  dup2\n  sload\n  dup2\n  0xffffffffffffffffffffffffffffffffffffffff\n  mul\n  not\n  and\n  swap1\n  dup4\n  0xffffffffffffffffffffffffffffffffffffffff\n  and\n  mul\n  or\n  swap1\n  sstore\n  pop\n    /* \"contracts/Battle.sol\":112:2532  contract Battle is Ownable, DragonFactory {\r... */\n  dataSize(sub_0)\n  dup1\n  dataOffset(sub_0)\n  0x0\n  codecopy\n  0x0\n  return\nstop\n\nsub_0: assembly {\n        /* \"contracts/Battle.sol\":112:2532  contract Battle is Ownable, DragonFactory {\r... */\n      mstore(0x40, 0x80)\n      jumpi(tag_1, lt(calldatasize, 0x4))\n      calldataload(0x0)\n      0x100000000000000000000000000000000000000000000000000000000\n      swap1\n      div\n      0xffffffff\n      and\n      dup1\n      0x17db085f\n      eq\n      tag_2\n      jumpi\n      dup1\n      0x38ced053\n      eq\n      tag_3\n      jumpi\n      dup1\n      0x393e6f35\n      eq\n      tag_4\n      jumpi\n      dup1\n      0x6ad0f3dc\n      eq\n      tag_5\n      jumpi\n      dup1\n      0x715018a6\n      eq\n      tag_6\n      jumpi\n      dup1\n      0x76a0ab15\n      eq\n      tag_7\n      jumpi\n      dup1\n      0x85c9bed8\n      eq\n      tag_8\n      jumpi\n      dup1\n      0x8da5cb5b\n      eq\n      tag_9\n      jumpi\n      dup1\n      0x9c7a709a\n      eq\n      tag_10\n      jumpi\n      dup1\n      0xb319c6b7\n      eq\n      tag_11\n      jumpi\n      dup1\n      0xd0a9c498\n      eq\n      tag_12\n      jumpi\n      dup1\n      0xd2a59d69\n      eq\n      tag_13\n      jumpi\n      dup1\n      0xf2fde38b\n      eq\n      tag_14\n      jumpi\n      dup1\n      0xf3fc7b24\n      eq\n      tag_15\n      jumpi\n      dup1\n      0xf82e6e62\n      eq\n      tag_16\n      jumpi\n      dup1\n      0xfdccc83e\n      eq\n      tag_17\n      jumpi\n    tag_1:\n      0x0\n      dup1\n      revert\n        /* \"contracts/Battle.sol\":2246:2380  function resetCoolTime(uint _dragonId, address _attacker) public {\r... */\n    tag_2:\n      callvalue\n        /* \"--CODEGEN--\":8:17   */\n      dup1\n        /* \"--CODEGEN--\":5:7   */\n      iszero\n      tag_18\n      jumpi\n        /* \"--CODEGEN--\":30:31   */\n      0x0\n        /* \"--CODEGEN--\":27:28   */\n      dup1\n        /* \"--CODEGEN--\":20:32   */\n      revert\n        /* \"--CODEGEN--\":5:7   */\n    tag_18:\n        /* \"contracts/Battle.sol\":2246:2380  function resetCoolTime(uint _dragonId, address _attacker) public {\r... */\n      pop\n      tag_19\n      0x4\n      dup1\n      calldatasize\n      sub\n      dup2\n      add\n      swap1\n      dup1\n      dup1\n      calldataload\n      swap1\n      0x20\n      add\n      swap1\n      swap3\n      swap2\n      swap1\n      dup1\n      calldataload\n      0xffffffffffffffffffffffffffffffffffffffff\n      and\n      swap1\n      0x20\n      add\n      swap1\n      swap3\n      swap2\n      swap1\n      pop\n      pop\n      pop\n      jump(tag_20)\n    tag_19:\n      stop\n        /* \"contracts/Battle.sol\":328:379  mapping(address => uint[]) public dragonsOfAttacker */\n    tag_3:\n      callvalue\n        /* \"--CODEGEN--\":8:17   */\n      dup1\n        /* \"--CODEGEN--\":5:7   */\n      iszero\n      tag_21\n      jumpi\n        /* \"--CODEGEN--\":30:31   */\n      0x0\n        /* \"--CODEGEN--\":27:28   */\n      dup1\n        /* \"--CODEGEN--\":20:32   */\n      revert\n        /* \"--CODEGEN--\":5:7   */\n    tag_21:\n        /* \"contracts/Battle.sol\":328:379  mapping(address => uint[]) public dragonsOfAttacker */\n      pop\n      tag_22\n      0x4\n      dup1\n      calldatasize\n      sub\n      dup2\n      add\n      swap1\n      dup1\n      dup1\n      calldataload\n      0xffffffffffffffffffffffffffffffffffffffff\n      and\n      swap1\n      0x20\n      add\n      swap1\n      swap3\n      swap2\n      swap1\n      dup1\n      calldataload\n      swap1\n      0x20\n      add\n      swap1\n      swap3\n      swap2\n      swap1\n      pop\n      pop\n      pop\n      jump(tag_23)\n    tag_22:\n      mload(0x40)\n      dup1\n      dup3\n      dup2\n      mstore\n      0x20\n      add\n      swap2\n      pop\n      pop\n      mload(0x40)\n      dup1\n      swap2\n      sub\n      swap1\n      return\n        /* \"contracts/Battle.sol\":386:459  mapping(uint => mapping(address => DragonAttacker)) public dragonAttacker */\n    tag_4:\n      callvalue\n        /* \"--CODEGEN--\":8:17   */\n      dup1\n        /* \"--CODEGEN--\":5:7   */\n      iszero\n      tag_24\n      jumpi\n        /* \"--CODEGEN--\":30:31   */\n      0x0\n        /* \"--CODEGEN--\":27:28   */\n      dup1\n        /* \"--CODEGEN--\":20:32   */\n      revert\n        /* \"--CODEGEN--\":5:7   */\n    tag_24:\n        /* \"contracts/Battle.sol\":386:459  mapping(uint => mapping(address => DragonAttacker)) public dragonAttacker */\n      pop\n      tag_25\n      0x4\n      dup1\n      calldatasize\n      sub\n      dup2\n      add\n      swap1\n      dup1\n      dup1\n      calldataload\n      swap1\n      0x20\n      add\n      swap1\n      swap3\n      swap2\n      swap1\n      dup1\n      calldataload\n      0xffffffffffffffffffffffffffffffffffffffff\n      and\n      swap1\n      0x20\n      add\n      swap1\n      swap3\n      swap2\n      swap1\n      pop\n      pop\n      pop\n      jump(tag_26)\n    tag_25:\n      mload(0x40)\n      dup1\n      dup4\n      dup2\n      mstore\n      0x20\n      add\n      dup3\n      dup2\n      mstore\n      0x20\n      add\n      swap3\n      pop\n      pop\n      pop\n      mload(0x40)\n      dup1\n      swap2\n      sub\n      swap1\n      return\n        /* \"contracts/Battle.sol\":1997:2171  function remainNextAttackTime(uint _dragonId, address _attacker) public view returns (int) {\r... */\n    tag_5:\n      callvalue\n        /* \"--CODEGEN--\":8:17   */\n      dup1\n        /* \"--CODEGEN--\":5:7   */\n      iszero\n      tag_27\n      jumpi\n        /* \"--CODEGEN--\":30:31   */\n      0x0\n        /* \"--CODEGEN--\":27:28   */\n      dup1\n        /* \"--CODEGEN--\":20:32   */\n      revert\n        /* \"--CODEGEN--\":5:7   */\n    tag_27:\n        /* \"contracts/Battle.sol\":1997:2171  function remainNextAttackTime(uint _dragonId, address _attacker) public view returns (int) {\r... */\n      pop\n      tag_28\n      0x4\n      dup1\n      calldatasize\n      sub\n      dup2\n      add\n      swap1\n      dup1\n      dup1\n      calldataload\n      swap1\n      0x20\n      add\n      swap1\n      swap3\n      swap2\n      swap1\n      dup1\n      calldataload\n      0xffffffffffffffffffffffffffffffffffffffff\n      and\n      swap1\n      0x20\n      add\n      swap1\n      swap3\n      swap2\n      swap1\n      pop\n      pop\n      pop\n      jump(tag_29)\n    tag_28:\n      mload(0x40)\n      dup1\n      dup3\n      dup2\n      mstore\n      0x20\n      add\n      swap2\n      pop\n      pop\n      mload(0x40)\n      dup1\n      swap2\n      sub\n      swap1\n      return\n        /* \"contracts/Ownable.sol\":614:738  function renounceOwnership() public onlyOwner {\r... */\n    tag_6:\n      callvalue\n        /* \"--CODEGEN--\":8:17   */\n      dup1\n        /* \"--CODEGEN--\":5:7   */\n      iszero\n      tag_30\n      jumpi\n        /* \"--CODEGEN--\":30:31   */\n      0x0\n        /* \"--CODEGEN--\":27:28   */\n      dup1\n        /* \"--CODEGEN--\":20:32   */\n      revert\n        /* \"--CODEGEN--\":5:7   */\n    tag_30:\n        /* \"contracts/Ownable.sol\":614:738  function renounceOwnership() public onlyOwner {\r... */\n      pop\n      tag_31\n      jump(tag_32)\n    tag_31:\n      stop\n        /* \"contracts/DragonFactory.sol\":1184:1279  function getBornedDragons() public view returns (uint) {\r... */\n    tag_7:\n      callvalue\n        /* \"--CODEGEN--\":8:17   */\n      dup1\n        /* \"--CODEGEN--\":5:7   */\n      iszero\n      tag_33\n      jumpi\n        /* \"--CODEGEN--\":30:31   */\n      0x0\n        /* \"--CODEGEN--\":27:28   */\n      dup1\n        /* \"--CODEGEN--\":20:32   */\n      revert\n        /* \"--CODEGEN--\":5:7   */\n    tag_33:\n        /* \"contracts/DragonFactory.sol\":1184:1279  function getBornedDragons() public view returns (uint) {\r... */\n      pop\n      tag_34\n      jump(tag_35)\n    tag_34:\n      mload(0x40)\n      dup1\n      dup3\n      dup2\n      mstore\n      0x20\n      add\n      swap2\n      pop\n      pop\n      mload(0x40)\n      dup1\n      swap2\n      sub\n      swap1\n      return\n        /* \"contracts/Battle.sol\":2388:2529  function getDragonsOfAttackerSize(address _attacker) public view returns (uint) {\r... */\n    tag_8:\n      callvalue\n        /* \"--CODEGEN--\":8:17   */\n      dup1\n        /* \"--CODEGEN--\":5:7   */\n      iszero\n      tag_36\n      jumpi\n        /* \"--CODEGEN--\":30:31   */\n      0x0\n        /* \"--CODEGEN--\":27:28   */\n      dup1\n        /* \"--CODEGEN--\":20:32   */\n      revert\n        /* \"--CODEGEN--\":5:7   */\n    tag_36:\n        /* \"contracts/Battle.sol\":2388:2529  function getDragonsOfAttackerSize(address _attacker) public view returns (uint) {\r... */\n      pop\n      tag_37\n      0x4\n      dup1\n      calldatasize\n      sub\n      dup2\n      add\n      swap1\n      dup1\n      dup1\n      calldataload\n      0xffffffffffffffffffffffffffffffffffffffff\n      and\n      swap1\n      0x20\n      add\n      swap1\n      swap3\n      swap2\n      swap1\n      pop\n      pop\n      pop\n      jump(tag_38)\n    tag_37:\n      mload(0x40)\n      dup1\n      dup3\n      dup2\n      mstore\n      0x20\n      add\n      swap2\n      pop\n      pop\n      mload(0x40)\n      dup1\n      swap2\n      sub\n      swap1\n      return\n        /* \"contracts/Ownable.sol\":52:72  address public owner */\n    tag_9:\n      callvalue\n        /* \"--CODEGEN--\":8:17   */\n      dup1\n        /* \"--CODEGEN--\":5:7   */\n      iszero\n      tag_39\n      jumpi\n        /* \"--CODEGEN--\":30:31   */\n      0x0\n        /* \"--CODEGEN--\":27:28   */\n      dup1\n        /* \"--CODEGEN--\":20:32   */\n      revert\n        /* \"--CODEGEN--\":5:7   */\n    tag_39:\n        /* \"contracts/Ownable.sol\":52:72  address public owner */\n      pop\n      tag_40\n      jump(tag_41)\n    tag_40:\n      mload(0x40)\n      dup1\n      dup3\n      0xffffffffffffffffffffffffffffffffffffffff\n      and\n      0xffffffffffffffffffffffffffffffffffffffff\n      and\n      dup2\n      mstore\n      0x20\n      add\n      swap2\n      pop\n      pop\n      mload(0x40)\n      dup1\n      swap2\n      sub\n      swap1\n      return\n        /* \"contracts/DragonFactory.sol\":393:416  uint public dragonAlive */\n    tag_10:\n      callvalue\n        /* \"--CODEGEN--\":8:17   */\n      dup1\n        /* \"--CODEGEN--\":5:7   */\n      iszero\n      tag_42\n      jumpi\n        /* \"--CODEGEN--\":30:31   */\n      0x0\n        /* \"--CODEGEN--\":27:28   */\n      dup1\n        /* \"--CODEGEN--\":20:32   */\n      revert\n        /* \"--CODEGEN--\":5:7   */\n    tag_42:\n        /* \"contracts/DragonFactory.sol\":393:416  uint public dragonAlive */\n      pop\n      tag_43\n      jump(tag_44)\n    tag_43:\n      mload(0x40)\n      dup1\n      dup3\n      dup2\n      mstore\n      0x20\n      add\n      swap2\n      pop\n      pop\n      mload(0x40)\n      dup1\n      swap2\n      sub\n      swap1\n      return\n        /* \"contracts/Battle.sol\":193:230  uint public cooldownTime = 30 minutes */\n    tag_11:\n      callvalue\n        /* \"--CODEGEN--\":8:17   */\n      dup1\n        /* \"--CODEGEN--\":5:7   */\n      iszero\n      tag_45\n      jumpi\n        /* \"--CODEGEN--\":30:31   */\n      0x0\n        /* \"--CODEGEN--\":27:28   */\n      dup1\n        /* \"--CODEGEN--\":20:32   */\n      revert\n        /* \"--CODEGEN--\":5:7   */\n    tag_45:\n        /* \"contracts/Battle.sol\":193:230  uint public cooldownTime = 30 minutes */\n      pop\n      tag_46\n      jump(tag_47)\n    tag_46:\n      mload(0x40)\n      dup1\n      dup3\n      dup2\n      mstore\n      0x20\n      add\n      swap2\n      pop\n      pop\n      mload(0x40)\n      dup1\n      swap2\n      sub\n      swap1\n      return\n        /* \"contracts/Battle.sol\":466:514  mapping(uint => uint) public dragonAttackerCount */\n    tag_12:\n      callvalue\n        /* \"--CODEGEN--\":8:17   */\n      dup1\n        /* \"--CODEGEN--\":5:7   */\n      iszero\n      tag_48\n      jumpi\n        /* \"--CODEGEN--\":30:31   */\n      0x0\n        /* \"--CODEGEN--\":27:28   */\n      dup1\n        /* \"--CODEGEN--\":20:32   */\n      revert\n        /* \"--CODEGEN--\":5:7   */\n    tag_48:\n        /* \"contracts/Battle.sol\":466:514  mapping(uint => uint) public dragonAttackerCount */\n      pop\n      tag_49\n      0x4\n      dup1\n      calldatasize\n      sub\n      dup2\n      add\n      swap1\n      dup1\n      dup1\n      calldataload\n      swap1\n      0x20\n      add\n      swap1\n      swap3\n      swap2\n      swap1\n      pop\n      pop\n      pop\n      jump(tag_50)\n    tag_49:\n      mload(0x40)\n      dup1\n      dup3\n      dup2\n      mstore\n      0x20\n      add\n      swap2\n      pop\n      pop\n      mload(0x40)\n      dup1\n      swap2\n      sub\n      swap1\n      return\n        /* \"contracts/DragonFactory.sol\":423:446  Dragon[] public dragons */\n    tag_13:\n      callvalue\n        /* \"--CODEGEN--\":8:17   */\n      dup1\n        /* \"--CODEGEN--\":5:7   */\n      iszero\n      tag_51\n      jumpi\n        /* \"--CODEGEN--\":30:31   */\n      0x0\n        /* \"--CODEGEN--\":27:28   */\n      dup1\n        /* \"--CODEGEN--\":20:32   */\n      revert\n        /* \"--CODEGEN--\":5:7   */\n    tag_51:\n        /* \"contracts/DragonFactory.sol\":423:446  Dragon[] public dragons */\n      pop\n      tag_52\n      0x4\n      dup1\n      calldatasize\n      sub\n      dup2\n      add\n      swap1\n      dup1\n      dup1\n      calldataload\n      swap1\n      0x20\n      add\n      swap1\n      swap3\n      swap2\n      swap1\n      pop\n      pop\n      pop\n      jump(tag_53)\n    tag_52:\n      mload(0x40)\n      dup1\n      dup1\n      0x20\n      add\n      dup8\n      dup2\n      mstore\n      0x20\n      add\n      dup7\n      dup2\n      mstore\n      0x20\n      add\n      dup6\n      dup2\n      mstore\n      0x20\n      add\n      dup5\n      dup2\n      mstore\n      0x20\n      add\n      dup4\n      0x1\n      dup2\n      gt\n      iszero\n      tag_54\n      jumpi\n      invalid\n    tag_54:\n      0xff\n      and\n      dup2\n      mstore\n      0x20\n      add\n      dup3\n      dup2\n      sub\n      dup3\n      mstore\n      dup9\n      dup2\n      dup2\n      mload\n      dup2\n      mstore\n      0x20\n      add\n      swap2\n      pop\n      dup1\n      mload\n      swap1\n      0x20\n      add\n      swap1\n      dup1\n      dup4\n      dup4\n        /* \"--CODEGEN--\":23:24   */\n      0x0\n        /* \"--CODEGEN--\":8:108   */\n    tag_55:\n        /* \"--CODEGEN--\":33:36   */\n      dup4\n        /* \"--CODEGEN--\":30:31   */\n      dup2\n        /* \"--CODEGEN--\":27:37   */\n      lt\n        /* \"--CODEGEN--\":8:108   */\n      iszero\n      tag_56\n      jumpi\n        /* \"--CODEGEN--\":99:100   */\n      dup1\n        /* \"--CODEGEN--\":94:97   */\n      dup3\n        /* \"--CODEGEN--\":90:101   */\n      add\n        /* \"--CODEGEN--\":84:102   */\n      mload\n        /* \"--CODEGEN--\":80:81   */\n      dup2\n        /* \"--CODEGEN--\":75:78   */\n      dup5\n        /* \"--CODEGEN--\":71:82   */\n      add\n        /* \"--CODEGEN--\":64:103   */\n      mstore\n        /* \"--CODEGEN--\":52:54   */\n      0x20\n        /* \"--CODEGEN--\":49:50   */\n      dup2\n        /* \"--CODEGEN--\":45:55   */\n      add\n        /* \"--CODEGEN--\":40:55   */\n      swap1\n      pop\n        /* \"--CODEGEN--\":8:108   */\n      jump(tag_55)\n    tag_56:\n        /* \"--CODEGEN--\":12:26   */\n      pop\n        /* \"contracts/DragonFactory.sol\":423:446  Dragon[] public dragons */\n      pop\n      pop\n      pop\n      swap1\n      pop\n      swap1\n      dup2\n      add\n      swap1\n      0x1f\n      and\n      dup1\n      iszero\n      tag_58\n      jumpi\n      dup1\n      dup3\n      sub\n      dup1\n      mload\n      0x1\n      dup4\n      0x20\n      sub\n      0x100\n      exp\n      sub\n      not\n      and\n      dup2\n      mstore\n      0x20\n      add\n      swap2\n      pop\n    tag_58:\n      pop\n      swap8\n      pop\n      pop\n      pop\n      pop\n      pop\n      pop\n      pop\n      pop\n      mload(0x40)\n      dup1\n      swap2\n      sub\n      swap1\n      return\n        /* \"contracts/Ownable.sol\":414:606  function transferOwnership(address newOwner) public onlyOwner {\r... */\n    tag_14:\n      callvalue\n        /* \"--CODEGEN--\":8:17   */\n      dup1\n        /* \"--CODEGEN--\":5:7   */\n      iszero\n      tag_59\n      jumpi\n        /* \"--CODEGEN--\":30:31   */\n      0x0\n        /* \"--CODEGEN--\":27:28   */\n      dup1\n        /* \"--CODEGEN--\":20:32   */\n      revert\n        /* \"--CODEGEN--\":5:7   */\n    tag_59:\n        /* \"contracts/Ownable.sol\":414:606  function transferOwnership(address newOwner) public onlyOwner {\r... */\n      pop\n      tag_60\n      0x4\n      dup1\n      calldatasize\n      sub\n      dup2\n      add\n      swap1\n      dup1\n      dup1\n      calldataload\n      0xffffffffffffffffffffffffffffffffffffffff\n      and\n      swap1\n      0x20\n      add\n      swap1\n      swap3\n      swap2\n      swap1\n      pop\n      pop\n      pop\n      jump(tag_61)\n    tag_60:\n      stop\n        /* \"contracts/Battle.sol\":523:1620  function damage(uint _dragonId, uint _attDamage) public returns (bool) {\r... */\n    tag_15:\n      callvalue\n        /* \"--CODEGEN--\":8:17   */\n      dup1\n        /* \"--CODEGEN--\":5:7   */\n      iszero\n      tag_62\n      jumpi\n        /* \"--CODEGEN--\":30:31   */\n      0x0\n        /* \"--CODEGEN--\":27:28   */\n      dup1\n        /* \"--CODEGEN--\":20:32   */\n      revert\n        /* \"--CODEGEN--\":5:7   */\n    tag_62:\n        /* \"contracts/Battle.sol\":523:1620  function damage(uint _dragonId, uint _attDamage) public returns (bool) {\r... */\n      pop\n      tag_63\n      0x4\n      dup1\n      calldatasize\n      sub\n      dup2\n      add\n      swap1\n      dup1\n      dup1\n      calldataload\n      swap1\n      0x20\n      add\n      swap1\n      swap3\n      swap2\n      swap1\n      dup1\n      calldataload\n      swap1\n      0x20\n      add\n      swap1\n      swap3\n      swap2\n      swap1\n      pop\n      pop\n      pop\n      jump(tag_64)\n    tag_63:\n      mload(0x40)\n      dup1\n      dup3\n      iszero\n      iszero\n      iszero\n      iszero\n      dup2\n      mstore\n      0x20\n      add\n      swap2\n      pop\n      pop\n      mload(0x40)\n      dup1\n      swap2\n      sub\n      swap1\n      return\n        /* \"contracts/Battle.sol\":1829:1989  function isReady(uint _dragonId, address _attacker) public view returns (bool) {\r... */\n    tag_16:\n      callvalue\n        /* \"--CODEGEN--\":8:17   */\n      dup1\n        /* \"--CODEGEN--\":5:7   */\n      iszero\n      tag_65\n      jumpi\n        /* \"--CODEGEN--\":30:31   */\n      0x0\n        /* \"--CODEGEN--\":27:28   */\n      dup1\n        /* \"--CODEGEN--\":20:32   */\n      revert\n        /* \"--CODEGEN--\":5:7   */\n    tag_65:\n        /* \"contracts/Battle.sol\":1829:1989  function isReady(uint _dragonId, address _attacker) public view returns (bool) {\r... */\n      pop\n      tag_66\n      0x4\n      dup1\n      calldatasize\n      sub\n      dup2\n      add\n      swap1\n      dup1\n      dup1\n      calldataload\n      swap1\n      0x20\n      add\n      swap1\n      swap3\n      swap2\n      swap1\n      dup1\n      calldataload\n      0xffffffffffffffffffffffffffffffffffffffff\n      and\n      swap1\n      0x20\n      add\n      swap1\n      swap3\n      swap2\n      swap1\n      pop\n      pop\n      pop\n      jump(tag_67)\n    tag_66:\n      mload(0x40)\n      dup1\n      dup3\n      iszero\n      iszero\n      iszero\n      iszero\n      dup2\n      mstore\n      0x20\n      add\n      swap2\n      pop\n      pop\n      mload(0x40)\n      dup1\n      swap2\n      sub\n      swap1\n      return\n        /* \"contracts/DragonFactory.sol\":1072:1176  function createRandomDragon(string _name) onlyOwner public {\r... */\n    tag_17:\n      callvalue\n        /* \"--CODEGEN--\":8:17   */\n      dup1\n        /* \"--CODEGEN--\":5:7   */\n      iszero\n      tag_68\n      jumpi\n        /* \"--CODEGEN--\":30:31   */\n      0x0\n        /* \"--CODEGEN--\":27:28   */\n      dup1\n        /* \"--CODEGEN--\":20:32   */\n      revert\n        /* \"--CODEGEN--\":5:7   */\n    tag_68:\n        /* \"contracts/DragonFactory.sol\":1072:1176  function createRandomDragon(string _name) onlyOwner public {\r... */\n      pop\n      tag_69\n      0x4\n      dup1\n      calldatasize\n      sub\n      dup2\n      add\n      swap1\n      dup1\n      dup1\n      calldataload\n      swap1\n      0x20\n      add\n      swap1\n      dup3\n      add\n      dup1\n      calldataload\n      swap1\n      0x20\n      add\n      swap1\n      dup1\n      dup1\n      0x1f\n      add\n      0x20\n      dup1\n      swap2\n      div\n      mul\n      0x20\n      add\n      mload(0x40)\n      swap1\n      dup2\n      add\n      0x40\n      mstore\n      dup1\n      swap4\n      swap3\n      swap2\n      swap1\n      dup2\n      dup2\n      mstore\n      0x20\n      add\n      dup4\n      dup4\n      dup1\n      dup3\n      dup5\n      calldatacopy\n      dup3\n      add\n      swap2\n      pop\n      pop\n      pop\n      pop\n      pop\n      pop\n      swap2\n      swap3\n      swap2\n      swap3\n      swap1\n      pop\n      pop\n      pop\n      jump(tag_70)\n    tag_69:\n      stop\n        /* \"contracts/Battle.sol\":2246:2380  function resetCoolTime(uint _dragonId, address _attacker) public {\r... */\n    tag_20:\n        /* \"contracts/Battle.sol\":2371:2372  0 */\n      0x0\n        /* \"contracts/Battle.sol\":2322:2336  dragonAttacker */\n      0x5\n        /* \"contracts/Battle.sol\":2322:2347  dragonAttacker[_dragonId] */\n      0x0\n        /* \"contracts/Battle.sol\":2337:2346  _dragonId */\n      dup5\n        /* \"contracts/Battle.sol\":2322:2347  dragonAttacker[_dragonId] */\n      dup2\n      mstore\n      0x20\n      add\n      swap1\n      dup2\n      mstore\n      0x20\n      add\n      0x0\n      keccak256\n        /* \"contracts/Battle.sol\":2322:2358  dragonAttacker[_dragonId][_attacker] */\n      0x0\n        /* \"contracts/Battle.sol\":2348:2357  _attacker */\n      dup4\n        /* \"contracts/Battle.sol\":2322:2358  dragonAttacker[_dragonId][_attacker] */\n      0xffffffffffffffffffffffffffffffffffffffff\n      and\n      0xffffffffffffffffffffffffffffffffffffffff\n      and\n      dup2\n      mstore\n      0x20\n      add\n      swap1\n      dup2\n      mstore\n      0x20\n      add\n      0x0\n      keccak256\n        /* \"contracts/Battle.sol\":2322:2368  dragonAttacker[_dragonId][_attacker].readyTime */\n      0x1\n      add\n        /* \"contracts/Battle.sol\":2322:2372  dragonAttacker[_dragonId][_attacker].readyTime = 0 */\n      dup2\n      swap1\n      sstore\n      pop\n        /* \"contracts/Battle.sol\":2246:2380  function resetCoolTime(uint _dragonId, address _attacker) public {\r... */\n      pop\n      pop\n      jump\t// out\n        /* \"contracts/Battle.sol\":328:379  mapping(address => uint[]) public dragonsOfAttacker */\n    tag_23:\n      mstore(0x20, 0x4)\n      dup2\n      0x0\n      mstore\n      keccak256(0x0, 0x40)\n      dup2\n      dup2\n      sload\n      dup2\n      lt\n      iszero\n      iszero\n      tag_72\n      jumpi\n      invalid\n    tag_72:\n      swap1\n      0x0\n      mstore\n      keccak256(0x0, 0x20)\n      add\n      0x0\n      swap2\n      pop\n      swap2\n      pop\n      pop\n      sload\n      dup2\n      jump\t// out\n        /* \"contracts/Battle.sol\":386:459  mapping(uint => mapping(address => DragonAttacker)) public dragonAttacker */\n    tag_26:\n      mstore(0x20, 0x5)\n      dup2\n      0x0\n      mstore\n      mstore(0x20, keccak256(0x0, 0x40))\n      dup1\n      0x0\n      mstore\n      keccak256(0x0, 0x40)\n      0x0\n      swap2\n      pop\n      swap2\n      pop\n      pop\n      dup1\n      0x0\n      add\n      sload\n      swap1\n      dup1\n      0x1\n      add\n      sload\n      swap1\n      pop\n      dup3\n      jump\t// out\n        /* \"contracts/Battle.sol\":1997:2171  function remainNextAttackTime(uint _dragonId, address _attacker) public view returns (int) {\r... */\n    tag_29:\n        /* \"contracts/Battle.sol\":2083:2086  int */\n      0x0\n        /* \"contracts/Battle.sol\":2159:2162  now */\n      timestamp\n        /* \"contracts/Battle.sol\":2110:2124  dragonAttacker */\n      0x5\n        /* \"contracts/Battle.sol\":2110:2135  dragonAttacker[_dragonId] */\n      0x0\n        /* \"contracts/Battle.sol\":2125:2134  _dragonId */\n      dup6\n        /* \"contracts/Battle.sol\":2110:2135  dragonAttacker[_dragonId] */\n      dup2\n      mstore\n      0x20\n      add\n      swap1\n      dup2\n      mstore\n      0x20\n      add\n      0x0\n      keccak256\n        /* \"contracts/Battle.sol\":2110:2146  dragonAttacker[_dragonId][_attacker] */\n      0x0\n        /* \"contracts/Battle.sol\":2136:2145  _attacker */\n      dup5\n        /* \"contracts/Battle.sol\":2110:2146  dragonAttacker[_dragonId][_attacker] */\n      0xffffffffffffffffffffffffffffffffffffffff\n      and\n      0xffffffffffffffffffffffffffffffffffffffff\n      and\n      dup2\n      mstore\n      0x20\n      add\n      swap1\n      dup2\n      mstore\n      0x20\n      add\n      0x0\n      keccak256\n        /* \"contracts/Battle.sol\":2110:2156  dragonAttacker[_dragonId][_attacker].readyTime */\n      0x1\n      add\n      sload\n        /* \"contracts/Battle.sol\":2110:2162  dragonAttacker[_dragonId][_attacker].readyTime - now */\n      sub\n        /* \"contracts/Battle.sol\":2099:2163  return int(dragonAttacker[_dragonId][_attacker].readyTime - now) */\n      swap1\n      pop\n        /* \"contracts/Battle.sol\":1997:2171  function remainNextAttackTime(uint _dragonId, address _attacker) public view returns (int) {\r... */\n      swap3\n      swap2\n      pop\n      pop\n      jump\t// out\n        /* \"contracts/Ownable.sol\":614:738  function renounceOwnership() public onlyOwner {\r... */\n    tag_32:\n        /* \"contracts/Ownable.sol\":380:385  owner */\n      0x0\n      dup1\n      swap1\n      sload\n      swap1\n      0x100\n      exp\n      swap1\n      div\n      0xffffffffffffffffffffffffffffffffffffffff\n      and\n        /* \"contracts/Ownable.sol\":366:385  msg.sender == owner */\n      0xffffffffffffffffffffffffffffffffffffffff\n      and\n        /* \"contracts/Ownable.sol\":366:376  msg.sender */\n      caller\n        /* \"contracts/Ownable.sol\":366:385  msg.sender == owner */\n      0xffffffffffffffffffffffffffffffffffffffff\n      and\n      eq\n        /* \"contracts/Ownable.sol\":358:386  require(msg.sender == owner) */\n      iszero\n      iszero\n      tag_76\n      jumpi\n      0x0\n      dup1\n      revert\n    tag_76:\n        /* \"contracts/Ownable.sol\":695:700  owner */\n      0x0\n      dup1\n      swap1\n      sload\n      swap1\n      0x100\n      exp\n      swap1\n      div\n      0xffffffffffffffffffffffffffffffffffffffff\n      and\n        /* \"contracts/Ownable.sol\":676:701  OwnershipRenounced(owner) */\n      0xffffffffffffffffffffffffffffffffffffffff\n      and\n      0xf8df31144d9c2f0f6b59d69b8b98abd5459d07f2742c4df920b25aae33c64820\n      mload(0x40)\n      mload(0x40)\n      dup1\n      swap2\n      sub\n      swap1\n      log2\n        /* \"contracts/Ownable.sol\":728:729  0 */\n      0x0\n        /* \"contracts/Ownable.sol\":712:717  owner */\n      dup1\n      0x0\n        /* \"contracts/Ownable.sol\":712:730  owner = address(0) */\n      0x100\n      exp\n      dup2\n      sload\n      dup2\n      0xffffffffffffffffffffffffffffffffffffffff\n      mul\n      not\n      and\n      swap1\n      dup4\n      0xffffffffffffffffffffffffffffffffffffffff\n      and\n      mul\n      or\n      swap1\n      sstore\n      pop\n        /* \"contracts/Ownable.sol\":614:738  function renounceOwnership() public onlyOwner {\r... */\n      jump\t// out\n        /* \"contracts/DragonFactory.sol\":1184:1279  function getBornedDragons() public view returns (uint) {\r... */\n    tag_35:\n        /* \"contracts/DragonFactory.sol\":1233:1237  uint */\n      0x0\n        /* \"contracts/DragonFactory.sol\":1257:1264  dragons */\n      0x2\n        /* \"contracts/DragonFactory.sol\":1257:1271  dragons.length */\n      dup1\n      sload\n      swap1\n      pop\n        /* \"contracts/DragonFactory.sol\":1250:1271  return dragons.length */\n      swap1\n      pop\n        /* \"contracts/DragonFactory.sol\":1184:1279  function getBornedDragons() public view returns (uint) {\r... */\n      swap1\n      jump\t// out\n        /* \"contracts/Battle.sol\":2388:2529  function getDragonsOfAttackerSize(address _attacker) public view returns (uint) {\r... */\n    tag_38:\n        /* \"contracts/Battle.sol\":2462:2466  uint */\n      0x0\n        /* \"contracts/Battle.sol\":2486:2503  dragonsOfAttacker */\n      0x4\n        /* \"contracts/Battle.sol\":2486:2514  dragonsOfAttacker[_attacker] */\n      0x0\n        /* \"contracts/Battle.sol\":2504:2513  _attacker */\n      dup4\n        /* \"contracts/Battle.sol\":2486:2514  dragonsOfAttacker[_attacker] */\n      0xffffffffffffffffffffffffffffffffffffffff\n      and\n      0xffffffffffffffffffffffffffffffffffffffff\n      and\n      dup2\n      mstore\n      0x20\n      add\n      swap1\n      dup2\n      mstore\n      0x20\n      add\n      0x0\n      keccak256\n        /* \"contracts/Battle.sol\":2486:2521  dragonsOfAttacker[_attacker].length */\n      dup1\n      sload\n      swap1\n      pop\n        /* \"contracts/Battle.sol\":2479:2521  return dragonsOfAttacker[_attacker].length */\n      swap1\n      pop\n        /* \"contracts/Battle.sol\":2388:2529  function getDragonsOfAttackerSize(address _attacker) public view returns (uint) {\r... */\n      swap2\n      swap1\n      pop\n      jump\t// out\n        /* \"contracts/Ownable.sol\":52:72  address public owner */\n    tag_41:\n      0x0\n      dup1\n      swap1\n      sload\n      swap1\n      0x100\n      exp\n      swap1\n      div\n      0xffffffffffffffffffffffffffffffffffffffff\n      and\n      dup2\n      jump\t// out\n        /* \"contracts/DragonFactory.sol\":393:416  uint public dragonAlive */\n    tag_44:\n      sload(0x1)\n      dup2\n      jump\t// out\n        /* \"contracts/Battle.sol\":193:230  uint public cooldownTime = 30 minutes */\n    tag_47:\n      sload(0x3)\n      dup2\n      jump\t// out\n        /* \"contracts/Battle.sol\":466:514  mapping(uint => uint) public dragonAttackerCount */\n    tag_50:\n      mstore(0x20, 0x6)\n      dup1\n      0x0\n      mstore\n      keccak256(0x0, 0x40)\n      0x0\n      swap2\n      pop\n      swap1\n      pop\n      sload\n      dup2\n      jump\t// out\n        /* \"contracts/DragonFactory.sol\":423:446  Dragon[] public dragons */\n    tag_53:\n      0x2\n      dup2\n      dup2\n      sload\n      dup2\n      lt\n      iszero\n      iszero\n      tag_80\n      jumpi\n      invalid\n    tag_80:\n      swap1\n      0x0\n      mstore\n      keccak256(0x0, 0x20)\n      swap1\n      0x6\n      mul\n      add\n      0x0\n      swap2\n      pop\n      swap1\n      pop\n      dup1\n      0x0\n      add\n      dup1\n      sload\n      0x1\n      dup2\n      0x1\n      and\n      iszero\n      0x100\n      mul\n      sub\n      and\n      0x2\n      swap1\n      div\n      dup1\n      0x1f\n      add\n      0x20\n      dup1\n      swap2\n      div\n      mul\n      0x20\n      add\n      mload(0x40)\n      swap1\n      dup2\n      add\n      0x40\n      mstore\n      dup1\n      swap3\n      swap2\n      swap1\n      dup2\n      dup2\n      mstore\n      0x20\n      add\n      dup3\n      dup1\n      sload\n      0x1\n      dup2\n      0x1\n      and\n      iszero\n      0x100\n      mul\n      sub\n      and\n      0x2\n      swap1\n      div\n      dup1\n      iszero\n      tag_82\n      jumpi\n      dup1\n      0x1f\n      lt\n      tag_83\n      jumpi\n      0x100\n      dup1\n      dup4\n      sload\n      div\n      mul\n      dup4\n      mstore\n      swap2\n      0x20\n      add\n      swap2\n      jump(tag_82)\n    tag_83:\n      dup3\n      add\n      swap2\n      swap1\n      0x0\n      mstore\n      keccak256(0x0, 0x20)\n      swap1\n    tag_84:\n      dup2\n      sload\n      dup2\n      mstore\n      swap1\n      0x1\n      add\n      swap1\n      0x20\n      add\n      dup1\n      dup4\n      gt\n      tag_84\n      jumpi\n      dup3\n      swap1\n      sub\n      0x1f\n      and\n      dup3\n      add\n      swap2\n    tag_82:\n      pop\n      pop\n      pop\n      pop\n      pop\n      swap1\n      dup1\n      0x1\n      add\n      sload\n      swap1\n      dup1\n      0x2\n      add\n      sload\n      swap1\n      dup1\n      0x3\n      add\n      sload\n      swap1\n      dup1\n      0x4\n      add\n      sload\n      swap1\n      dup1\n      0x5\n      add\n      0x0\n      swap1\n      sload\n      swap1\n      0x100\n      exp\n      swap1\n      div\n      0xff\n      and\n      swap1\n      pop\n      dup7\n      jump\t// out\n        /* \"contracts/Ownable.sol\":414:606  function transferOwnership(address newOwner) public onlyOwner {\r... */\n    tag_61:\n        /* \"contracts/Ownable.sol\":380:385  owner */\n      0x0\n      dup1\n      swap1\n      sload\n      swap1\n      0x100\n      exp\n      swap1\n      div\n      0xffffffffffffffffffffffffffffffffffffffff\n      and\n        /* \"contracts/Ownable.sol\":366:385  msg.sender == owner */\n      0xffffffffffffffffffffffffffffffffffffffff\n      and\n        /* \"contracts/Ownable.sol\":366:376  msg.sender */\n      caller\n        /* \"contracts/Ownable.sol\":366:385  msg.sender == owner */\n      0xffffffffffffffffffffffffffffffffffffffff\n      and\n      eq\n        /* \"contracts/Ownable.sol\":358:386  require(msg.sender == owner) */\n      iszero\n      iszero\n      tag_86\n      jumpi\n      0x0\n      dup1\n      revert\n    tag_86:\n        /* \"contracts/Ownable.sol\":515:516  0 */\n      0x0\n        /* \"contracts/Ownable.sol\":495:517  newOwner != address(0) */\n      0xffffffffffffffffffffffffffffffffffffffff\n      and\n        /* \"contracts/Ownable.sol\":495:503  newOwner */\n      dup2\n        /* \"contracts/Ownable.sol\":495:517  newOwner != address(0) */\n      0xffffffffffffffffffffffffffffffffffffffff\n      and\n      eq\n      iszero\n        /* \"contracts/Ownable.sol\":487:518  require(newOwner != address(0)) */\n      iszero\n      iszero\n      tag_88\n      jumpi\n      0x0\n      dup1\n      revert\n    tag_88:\n        /* \"contracts/Ownable.sol\":562:570  newOwner */\n      dup1\n        /* \"contracts/Ownable.sol\":534:571  OwnershipTransferred(owner, newOwner) */\n      0xffffffffffffffffffffffffffffffffffffffff\n      and\n        /* \"contracts/Ownable.sol\":555:560  owner */\n      0x0\n      dup1\n      swap1\n      sload\n      swap1\n      0x100\n      exp\n      swap1\n      div\n      0xffffffffffffffffffffffffffffffffffffffff\n      and\n        /* \"contracts/Ownable.sol\":534:571  OwnershipTransferred(owner, newOwner) */\n      0xffffffffffffffffffffffffffffffffffffffff\n      and\n      0x8be0079c531659141344cd1fd0a4f28419497f9722a3daafe3b4186f6b6457e0\n      mload(0x40)\n      mload(0x40)\n      dup1\n      swap2\n      sub\n      swap1\n      log3\n        /* \"contracts/Ownable.sol\":590:598  newOwner */\n      dup1\n        /* \"contracts/Ownable.sol\":582:587  owner */\n      0x0\n      dup1\n        /* \"contracts/Ownable.sol\":582:598  owner = newOwner */\n      0x100\n      exp\n      dup2\n      sload\n      dup2\n      0xffffffffffffffffffffffffffffffffffffffff\n      mul\n      not\n      and\n      swap1\n      dup4\n      0xffffffffffffffffffffffffffffffffffffffff\n      and\n      mul\n      or\n      swap1\n      sstore\n      pop\n        /* \"contracts/Ownable.sol\":414:606  function transferOwnership(address newOwner) public onlyOwner {\r... */\n      pop\n      jump\t// out\n        /* \"contracts/Battle.sol\":523:1620  function damage(uint _dragonId, uint _attDamage) public returns (bool) {\r... */\n    tag_64:\n        /* \"contracts/Battle.sol\":588:592  bool */\n      0x0\n        /* \"contracts/Battle.sol\":607:618  bool killed */\n      dup1\n        /* \"contracts/Battle.sol\":621:626  false */\n      0x0\n        /* \"contracts/Battle.sol\":607:626  bool killed = false */\n      swap1\n      pop\n        /* \"contracts/Battle.sol\":676:695  DragonStatus.Killed */\n      0x1\n        /* \"contracts/Battle.sol\":647:695  dragons[_dragonId].status != DragonStatus.Killed */\n      dup1\n      dup2\n      gt\n      iszero\n      tag_90\n      jumpi\n      invalid\n    tag_90:\n        /* \"contracts/Battle.sol\":647:654  dragons */\n      0x2\n        /* \"contracts/Battle.sol\":655:664  _dragonId */\n      dup6\n        /* \"contracts/Battle.sol\":647:665  dragons[_dragonId] */\n      dup2\n      sload\n      dup2\n      lt\n      iszero\n      iszero\n      tag_91\n      jumpi\n      invalid\n    tag_91:\n      swap1\n      0x0\n      mstore\n      keccak256(0x0, 0x20)\n      swap1\n      0x6\n      mul\n      add\n        /* \"contracts/Battle.sol\":647:672  dragons[_dragonId].status */\n      0x5\n      add\n      0x0\n      swap1\n      sload\n      swap1\n      0x100\n      exp\n      swap1\n      div\n      0xff\n      and\n        /* \"contracts/Battle.sol\":647:695  dragons[_dragonId].status != DragonStatus.Killed */\n      0x1\n      dup2\n      gt\n      iszero\n      tag_93\n      jumpi\n      invalid\n    tag_93:\n      eq\n      iszero\n        /* \"contracts/Battle.sol\":639:724  require(dragons[_dragonId].status != DragonStatus.Killed, \"Dragon is aleady dead...\") */\n      iszero\n      iszero\n      tag_94\n      jumpi\n      mload(0x40)\n      0x8c379a000000000000000000000000000000000000000000000000000000000\n      dup2\n      mstore\n      0x4\n      add\n      dup1\n      dup1\n      0x20\n      add\n      dup3\n      dup2\n      sub\n      dup3\n      mstore\n      0x18\n      dup2\n      mstore\n      0x20\n      add\n      dup1\n      0x447261676f6e20697320616c6561647920646561642e2e2e0000000000000000\n      dup2\n      mstore\n      pop\n      0x20\n      add\n      swap2\n      pop\n      pop\n      mload(0x40)\n      dup1\n      swap2\n      sub\n      swap1\n      revert\n    tag_94:\n        /* \"contracts/Battle.sol\":743:773  isReady(_dragonId, msg.sender) */\n      tag_95\n        /* \"contracts/Battle.sol\":751:760  _dragonId */\n      dup5\n        /* \"contracts/Battle.sol\":762:772  msg.sender */\n      caller\n        /* \"contracts/Battle.sol\":743:750  isReady */\n      tag_67\n        /* \"contracts/Battle.sol\":743:773  isReady(_dragonId, msg.sender) */\n      jump\t// in\n    tag_95:\n        /* \"contracts/Battle.sol\":735:774  require(isReady(_dragonId, msg.sender)) */\n      iszero\n      iszero\n      tag_96\n      jumpi\n      0x0\n      dup1\n      revert\n    tag_96:\n        /* \"contracts/Battle.sol\":807:808  0 */\n      0x0\n        /* \"contracts/Battle.sol\":793:803  _attDamage */\n      dup4\n        /* \"contracts/Battle.sol\":793:808  _attDamage != 0 */\n      eq\n      iszero\n        /* \"contracts/Battle.sol\":785:809  require(_attDamage != 0) */\n      iszero\n      iszero\n      tag_97\n      jumpi\n      0x0\n      dup1\n      revert\n    tag_97:\n        /* \"contracts/Battle.sol\":879:880  0 */\n      0x0\n        /* \"contracts/Battle.sol\":825:839  dragonAttacker */\n      0x5\n        /* \"contracts/Battle.sol\":825:850  dragonAttacker[_dragonId] */\n      0x0\n        /* \"contracts/Battle.sol\":840:849  _dragonId */\n      dup7\n        /* \"contracts/Battle.sol\":825:850  dragonAttacker[_dragonId] */\n      dup2\n      mstore\n      0x20\n      add\n      swap1\n      dup2\n      mstore\n      0x20\n      add\n      0x0\n      keccak256\n        /* \"contracts/Battle.sol\":825:862  dragonAttacker[_dragonId][msg.sender] */\n      0x0\n        /* \"contracts/Battle.sol\":851:861  msg.sender */\n      caller\n        /* \"contracts/Battle.sol\":825:862  dragonAttacker[_dragonId][msg.sender] */\n      0xffffffffffffffffffffffffffffffffffffffff\n      and\n      0xffffffffffffffffffffffffffffffffffffffff\n      and\n      dup2\n      mstore\n      0x20\n      add\n      swap1\n      dup2\n      mstore\n      0x20\n      add\n      0x0\n      keccak256\n        /* \"contracts/Battle.sol\":825:875  dragonAttacker[_dragonId][msg.sender].attackDamage */\n      0x0\n      add\n      sload\n        /* \"contracts/Battle.sol\":825:880  dragonAttacker[_dragonId][msg.sender].attackDamage == 0 */\n      eq\n        /* \"contracts/Battle.sol\":822:1039  if(dragonAttacker[_dragonId][msg.sender].attackDamage == 0) {\r... */\n      iszero\n      tag_98\n      jumpi\n        /* \"contracts/Battle.sol\":930:967  dragonAttackerCount[_dragonId].add(1) */\n      tag_99\n        /* \"contracts/Battle.sol\":965:966  1 */\n      0x1\n        /* \"contracts/Battle.sol\":930:949  dragonAttackerCount */\n      0x6\n        /* \"contracts/Battle.sol\":930:960  dragonAttackerCount[_dragonId] */\n      0x0\n        /* \"contracts/Battle.sol\":950:959  _dragonId */\n      dup8\n        /* \"contracts/Battle.sol\":930:960  dragonAttackerCount[_dragonId] */\n      dup2\n      mstore\n      0x20\n      add\n      swap1\n      dup2\n      mstore\n      0x20\n      add\n      0x0\n      keccak256\n      sload\n        /* \"contracts/Battle.sol\":930:964  dragonAttackerCount[_dragonId].add */\n      tag_100\n      swap1\n        /* \"contracts/Battle.sol\":930:967  dragonAttackerCount[_dragonId].add(1) */\n      swap2\n      swap1\n      0xffffffff\n      and\n      jump\t// in\n    tag_99:\n        /* \"contracts/Battle.sol\":897:916  dragonAttackerCount */\n      0x6\n        /* \"contracts/Battle.sol\":897:927  dragonAttackerCount[_dragonId] */\n      0x0\n        /* \"contracts/Battle.sol\":917:926  _dragonId */\n      dup7\n        /* \"contracts/Battle.sol\":897:927  dragonAttackerCount[_dragonId] */\n      dup2\n      mstore\n      0x20\n      add\n      swap1\n      dup2\n      mstore\n      0x20\n      add\n      0x0\n      keccak256\n        /* \"contracts/Battle.sol\":897:967  dragonAttackerCount[_dragonId] = dragonAttackerCount[_dragonId].add(1) */\n      dup2\n      swap1\n      sstore\n      pop\n        /* \"contracts/Battle.sol\":982:999  dragonsOfAttacker */\n      0x4\n        /* \"contracts/Battle.sol\":982:1011  dragonsOfAttacker[msg.sender] */\n      0x0\n        /* \"contracts/Battle.sol\":1000:1010  msg.sender */\n      caller\n        /* \"contracts/Battle.sol\":982:1011  dragonsOfAttacker[msg.sender] */\n      0xffffffffffffffffffffffffffffffffffffffff\n      and\n      0xffffffffffffffffffffffffffffffffffffffff\n      and\n      dup2\n      mstore\n      0x20\n      add\n      swap1\n      dup2\n      mstore\n      0x20\n      add\n      0x0\n      keccak256\n        /* \"contracts/Battle.sol\":1017:1026  _dragonId */\n      dup5\n        /* \"contracts/Battle.sol\":982:1027  dragonsOfAttacker[msg.sender].push(_dragonId) */\n      swap1\n      dup1\n        /* \"--CODEGEN--\":39:40   */\n      0x1\n        /* \"--CODEGEN--\":33:36   */\n      dup2\n        /* \"--CODEGEN--\":27:37   */\n      sload\n        /* \"--CODEGEN--\":23:41   */\n      add\n        /* \"--CODEGEN--\":57:67   */\n      dup1\n        /* \"--CODEGEN--\":52:55   */\n      dup3\n        /* \"--CODEGEN--\":45:68   */\n      sstore\n        /* \"--CODEGEN--\":79:89   */\n      dup1\n        /* \"--CODEGEN--\":72:89   */\n      swap2\n      pop\n        /* \"--CODEGEN--\":0:93   */\n      pop\n        /* \"contracts/Battle.sol\":982:1027  dragonsOfAttacker[msg.sender].push(_dragonId) */\n      swap1\n      0x1\n      dup3\n      sub\n      swap1\n      0x0\n      mstore\n      keccak256(0x0, 0x20)\n      add\n      0x0\n      swap1\n      swap2\n      swap3\n      swap1\n      swap2\n      swap1\n      swap2\n      pop\n      sstore\n      pop\n        /* \"contracts/Battle.sol\":822:1039  if(dragonAttacker[_dragonId][msg.sender].attackDamage == 0) {\r... */\n    tag_98:\n        /* \"contracts/Battle.sol\":1087:1097  _attDamage */\n      dup3\n        /* \"contracts/Battle.sol\":1054:1061  dragons */\n      0x2\n        /* \"contracts/Battle.sol\":1062:1071  _dragonId */\n      dup6\n        /* \"contracts/Battle.sol\":1054:1072  dragons[_dragonId] */\n      dup2\n      sload\n      dup2\n      lt\n      iszero\n      iszero\n      tag_102\n      jumpi\n      invalid\n    tag_102:\n      swap1\n      0x0\n      mstore\n      keccak256(0x0, 0x20)\n      swap1\n      0x6\n      mul\n      add\n        /* \"contracts/Battle.sol\":1054:1083  dragons[_dragonId].remainLife */\n      0x4\n      add\n      sload\n        /* \"contracts/Battle.sol\":1054:1097  dragons[_dragonId].remainLife <= _attDamage */\n      gt\n      iszero\n        /* \"contracts/Battle.sol\":1051:1372  if(dragons[_dragonId].remainLife <= _attDamage) {\r... */\n      iszero\n      tag_104\n      jumpi\n        /* \"contracts/Battle.sol\":1127:1134  dragons */\n      0x2\n        /* \"contracts/Battle.sol\":1135:1144  _dragonId */\n      dup5\n        /* \"contracts/Battle.sol\":1127:1145  dragons[_dragonId] */\n      dup2\n      sload\n      dup2\n      lt\n      iszero\n      iszero\n      tag_105\n      jumpi\n      invalid\n    tag_105:\n      swap1\n      0x0\n      mstore\n      keccak256(0x0, 0x20)\n      swap1\n      0x6\n      mul\n      add\n        /* \"contracts/Battle.sol\":1127:1156  dragons[_dragonId].remainLife */\n      0x4\n      add\n      sload\n        /* \"contracts/Battle.sol\":1114:1156  _attDamage = dragons[_dragonId].remainLife */\n      swap3\n      pop\n        /* \"contracts/Battle.sol\":1203:1204  0 */\n      0x0\n        /* \"contracts/Battle.sol\":1171:1178  dragons */\n      0x2\n        /* \"contracts/Battle.sol\":1179:1188  _dragonId */\n      dup6\n        /* \"contracts/Battle.sol\":1171:1189  dragons[_dragonId] */\n      dup2\n      sload\n      dup2\n      lt\n      iszero\n      iszero\n      tag_107\n      jumpi\n      invalid\n    tag_107:\n      swap1\n      0x0\n      mstore\n      keccak256(0x0, 0x20)\n      swap1\n      0x6\n      mul\n      add\n        /* \"contracts/Battle.sol\":1171:1200  dragons[_dragonId].remainLife */\n      0x4\n      add\n        /* \"contracts/Battle.sol\":1171:1204  dragons[_dragonId].remainLife = 0 */\n      dup2\n      swap1\n      sstore\n      pop\n        /* \"contracts/Battle.sol\":1228:1252  _killedDragon(_dragonId) */\n      tag_109\n        /* \"contracts/Battle.sol\":1242:1251  _dragonId */\n      dup5\n        /* \"contracts/Battle.sol\":1228:1241  _killedDragon */\n      tag_110\n        /* \"contracts/Battle.sol\":1228:1252  _killedDragon(_dragonId) */\n      jump\t// in\n    tag_109:\n        /* \"contracts/Battle.sol\":1219:1252  killed = _killedDragon(_dragonId) */\n      swap1\n      pop\n        /* \"contracts/Battle.sol\":1051:1372  if(dragons[_dragonId].remainLife <= _attDamage) {\r... */\n      jump(tag_111)\n    tag_104:\n        /* \"contracts/Battle.sol\":1315:1360  dragons[_dragonId].remainLife.sub(_attDamage) */\n      tag_112\n        /* \"contracts/Battle.sol\":1349:1359  _attDamage */\n      dup4\n        /* \"contracts/Battle.sol\":1315:1322  dragons */\n      0x2\n        /* \"contracts/Battle.sol\":1323:1332  _dragonId */\n      dup7\n        /* \"contracts/Battle.sol\":1315:1333  dragons[_dragonId] */\n      dup2\n      sload\n      dup2\n      lt\n      iszero\n      iszero\n      tag_113\n      jumpi\n      invalid\n    tag_113:\n      swap1\n      0x0\n      mstore\n      keccak256(0x0, 0x20)\n      swap1\n      0x6\n      mul\n      add\n        /* \"contracts/Battle.sol\":1315:1344  dragons[_dragonId].remainLife */\n      0x4\n      add\n      sload\n        /* \"contracts/Battle.sol\":1315:1348  dragons[_dragonId].remainLife.sub */\n      tag_115\n      swap1\n        /* \"contracts/Battle.sol\":1315:1360  dragons[_dragonId].remainLife.sub(_attDamage) */\n      swap2\n      swap1\n      0xffffffff\n      and\n      jump\t// in\n    tag_112:\n        /* \"contracts/Battle.sol\":1283:1290  dragons */\n      0x2\n        /* \"contracts/Battle.sol\":1291:1300  _dragonId */\n      dup6\n        /* \"contracts/Battle.sol\":1283:1301  dragons[_dragonId] */\n      dup2\n      sload\n      dup2\n      lt\n      iszero\n      iszero\n      tag_116\n      jumpi\n      invalid\n    tag_116:\n      swap1\n      0x0\n      mstore\n      keccak256(0x0, 0x20)\n      swap1\n      0x6\n      mul\n      add\n        /* \"contracts/Battle.sol\":1283:1312  dragons[_dragonId].remainLife */\n      0x4\n      add\n        /* \"contracts/Battle.sol\":1283:1360  dragons[_dragonId].remainLife = dragons[_dragonId].remainLife.sub(_attDamage) */\n      dup2\n      swap1\n      sstore\n      pop\n        /* \"contracts/Battle.sol\":1051:1372  if(dragons[_dragonId].remainLife <= _attDamage) {\r... */\n    tag_111:\n        /* \"contracts/Battle.sol\":1435:1501  dragonAttacker[_dragonId][msg.sender].attackDamage.add(_attDamage) */\n      tag_118\n        /* \"contracts/Battle.sol\":1490:1500  _attDamage */\n      dup4\n        /* \"contracts/Battle.sol\":1435:1449  dragonAttacker */\n      0x5\n        /* \"contracts/Battle.sol\":1435:1460  dragonAttacker[_dragonId] */\n      0x0\n        /* \"contracts/Battle.sol\":1450:1459  _dragonId */\n      dup8\n        /* \"contracts/Battle.sol\":1435:1460  dragonAttacker[_dragonId] */\n      dup2\n      mstore\n      0x20\n      add\n      swap1\n      dup2\n      mstore\n      0x20\n      add\n      0x0\n      keccak256\n        /* \"contracts/Battle.sol\":1435:1472  dragonAttacker[_dragonId][msg.sender] */\n      0x0\n        /* \"contracts/Battle.sol\":1461:1471  msg.sender */\n      caller\n        /* \"contracts/Battle.sol\":1435:1472  dragonAttacker[_dragonId][msg.sender] */\n      0xffffffffffffffffffffffffffffffffffffffff\n      and\n      0xffffffffffffffffffffffffffffffffffffffff\n      and\n      dup2\n      mstore\n      0x20\n      add\n      swap1\n      dup2\n      mstore\n      0x20\n      add\n      0x0\n      keccak256\n        /* \"contracts/Battle.sol\":1435:1485  dragonAttacker[_dragonId][msg.sender].attackDamage */\n      0x0\n      add\n      sload\n        /* \"contracts/Battle.sol\":1435:1489  dragonAttacker[_dragonId][msg.sender].attackDamage.add */\n      tag_100\n      swap1\n        /* \"contracts/Battle.sol\":1435:1501  dragonAttacker[_dragonId][msg.sender].attackDamage.add(_attDamage) */\n      swap2\n      swap1\n      0xffffffff\n      and\n      jump\t// in\n    tag_118:\n        /* \"contracts/Battle.sol\":1382:1396  dragonAttacker */\n      0x5\n        /* \"contracts/Battle.sol\":1382:1407  dragonAttacker[_dragonId] */\n      0x0\n        /* \"contracts/Battle.sol\":1397:1406  _dragonId */\n      dup7\n        /* \"contracts/Battle.sol\":1382:1407  dragonAttacker[_dragonId] */\n      dup2\n      mstore\n      0x20\n      add\n      swap1\n      dup2\n      mstore\n      0x20\n      add\n      0x0\n      keccak256\n        /* \"contracts/Battle.sol\":1382:1419  dragonAttacker[_dragonId][msg.sender] */\n      0x0\n        /* \"contracts/Battle.sol\":1408:1418  msg.sender */\n      caller\n        /* \"contracts/Battle.sol\":1382:1419  dragonAttacker[_dragonId][msg.sender] */\n      0xffffffffffffffffffffffffffffffffffffffff\n      and\n      0xffffffffffffffffffffffffffffffffffffffff\n      and\n      dup2\n      mstore\n      0x20\n      add\n      swap1\n      dup2\n      mstore\n      0x20\n      add\n      0x0\n      keccak256\n        /* \"contracts/Battle.sol\":1382:1432  dragonAttacker[_dragonId][msg.sender].attackDamage */\n      0x0\n      add\n        /* \"contracts/Battle.sol\":1382:1501  dragonAttacker[_dragonId][msg.sender].attackDamage = dragonAttacker[_dragonId][msg.sender].attackDamage.add(_attDamage) */\n      dup2\n      swap1\n      sstore\n      pop\n        /* \"contracts/Battle.sol\":1582:1585  now */\n      timestamp\n        /* \"contracts/Battle.sol\":1567:1579  cooldownTime */\n      sload(0x3)\n        /* \"contracts/Battle.sol\":1567:1585  cooldownTime + now */\n      add\n        /* \"contracts/Battle.sol\":1512:1526  dragonAttacker */\n      0x5\n        /* \"contracts/Battle.sol\":1512:1537  dragonAttacker[_dragonId] */\n      0x0\n        /* \"contracts/Battle.sol\":1527:1536  _dragonId */\n      dup7\n        /* \"contracts/Battle.sol\":1512:1537  dragonAttacker[_dragonId] */\n      dup2\n      mstore\n      0x20\n      add\n      swap1\n      dup2\n      mstore\n      0x20\n      add\n      0x0\n      keccak256\n        /* \"contracts/Battle.sol\":1512:1549  dragonAttacker[_dragonId][msg.sender] */\n      0x0\n        /* \"contracts/Battle.sol\":1538:1548  msg.sender */\n      caller\n        /* \"contracts/Battle.sol\":1512:1549  dragonAttacker[_dragonId][msg.sender] */\n      0xffffffffffffffffffffffffffffffffffffffff\n      and\n      0xffffffffffffffffffffffffffffffffffffffff\n      and\n      dup2\n      mstore\n      0x20\n      add\n      swap1\n      dup2\n      mstore\n      0x20\n      add\n      0x0\n      keccak256\n        /* \"contracts/Battle.sol\":1512:1559  dragonAttacker[_dragonId][msg.sender].readyTime */\n      0x1\n      add\n        /* \"contracts/Battle.sol\":1512:1586  dragonAttacker[_dragonId][msg.sender].readyTime = uint(cooldownTime + now) */\n      dup2\n      swap1\n      sstore\n      pop\n        /* \"contracts/Battle.sol\":1606:1612  killed */\n      dup1\n        /* \"contracts/Battle.sol\":1599:1612  return killed */\n      swap2\n      pop\n        /* \"contracts/Battle.sol\":523:1620  function damage(uint _dragonId, uint _attDamage) public returns (bool) {\r... */\n      pop\n      swap3\n      swap2\n      pop\n      pop\n      jump\t// out\n        /* \"contracts/Battle.sol\":1829:1989  function isReady(uint _dragonId, address _attacker) public view returns (bool) {\r... */\n    tag_67:\n        /* \"contracts/Battle.sol\":1902:1906  bool */\n      0x0\n        /* \"contracts/Battle.sol\":1977:1980  now */\n      timestamp\n        /* \"contracts/Battle.sol\":1927:1941  dragonAttacker */\n      0x5\n        /* \"contracts/Battle.sol\":1927:1952  dragonAttacker[_dragonId] */\n      0x0\n        /* \"contracts/Battle.sol\":1942:1951  _dragonId */\n      dup6\n        /* \"contracts/Battle.sol\":1927:1952  dragonAttacker[_dragonId] */\n      dup2\n      mstore\n      0x20\n      add\n      swap1\n      dup2\n      mstore\n      0x20\n      add\n      0x0\n      keccak256\n        /* \"contracts/Battle.sol\":1927:1963  dragonAttacker[_dragonId][_attacker] */\n      0x0\n        /* \"contracts/Battle.sol\":1953:1962  _attacker */\n      dup5\n        /* \"contracts/Battle.sol\":1927:1963  dragonAttacker[_dragonId][_attacker] */\n      0xffffffffffffffffffffffffffffffffffffffff\n      and\n      0xffffffffffffffffffffffffffffffffffffffff\n      and\n      dup2\n      mstore\n      0x20\n      add\n      swap1\n      dup2\n      mstore\n      0x20\n      add\n      0x0\n      keccak256\n        /* \"contracts/Battle.sol\":1927:1973  dragonAttacker[_dragonId][_attacker].readyTime */\n      0x1\n      add\n      sload\n        /* \"contracts/Battle.sol\":1927:1980  dragonAttacker[_dragonId][_attacker].readyTime <= now */\n      gt\n      iszero\n        /* \"contracts/Battle.sol\":1919:1981  return (dragonAttacker[_dragonId][_attacker].readyTime <= now) */\n      swap1\n      pop\n        /* \"contracts/Battle.sol\":1829:1989  function isReady(uint _dragonId, address _attacker) public view returns (bool) {\r... */\n      swap3\n      swap2\n      pop\n      pop\n      jump\t// out\n        /* \"contracts/DragonFactory.sol\":1072:1176  function createRandomDragon(string _name) onlyOwner public {\r... */\n    tag_70:\n        /* \"contracts/Ownable.sol\":380:385  owner */\n      0x0\n      dup1\n      swap1\n      sload\n      swap1\n      0x100\n      exp\n      swap1\n      div\n      0xffffffffffffffffffffffffffffffffffffffff\n      and\n        /* \"contracts/Ownable.sol\":366:385  msg.sender == owner */\n      0xffffffffffffffffffffffffffffffffffffffff\n      and\n        /* \"contracts/Ownable.sol\":366:376  msg.sender */\n      caller\n        /* \"contracts/Ownable.sol\":366:385  msg.sender == owner */\n      0xffffffffffffffffffffffffffffffffffffffff\n      and\n      eq\n        /* \"contracts/Ownable.sol\":358:386  require(msg.sender == owner) */\n      iszero\n      iszero\n      tag_121\n      jumpi\n      0x0\n      dup1\n      revert\n    tag_121:\n        /* \"contracts/DragonFactory.sol\":1142:1168  _createRandomDragon(_name) */\n      tag_123\n        /* \"contracts/DragonFactory.sol\":1162:1167  _name */\n      dup2\n        /* \"contracts/DragonFactory.sol\":1142:1161  _createRandomDragon */\n      tag_124\n        /* \"contracts/DragonFactory.sol\":1142:1168  _createRandomDragon(_name) */\n      jump\t// in\n    tag_123:\n        /* \"contracts/DragonFactory.sol\":1072:1176  function createRandomDragon(string _name) onlyOwner public {\r... */\n      pop\n      jump\t// out\n        /* \"contracts/SafeMath.sol\":695:842  function add(uint256 a, uint256 b) internal pure returns (uint256) {\r... */\n    tag_100:\n        /* \"contracts/SafeMath.sol\":753:760  uint256 */\n      0x0\n        /* \"contracts/SafeMath.sol\":773:782  uint256 c */\n      dup1\n        /* \"contracts/SafeMath.sol\":789:790  b */\n      dup3\n        /* \"contracts/SafeMath.sol\":785:786  a */\n      dup5\n        /* \"contracts/SafeMath.sol\":785:790  a + b */\n      add\n        /* \"contracts/SafeMath.sol\":773:790  uint256 c = a + b */\n      swap1\n      pop\n        /* \"contracts/SafeMath.sol\":813:814  a */\n      dup4\n        /* \"contracts/SafeMath.sol\":808:809  c */\n      dup2\n        /* \"contracts/SafeMath.sol\":808:814  c >= a */\n      lt\n      iszero\n        /* \"contracts/SafeMath.sol\":801:815  assert(c >= a) */\n      iszero\n      iszero\n      tag_126\n      jumpi\n      invalid\n    tag_126:\n        /* \"contracts/SafeMath.sol\":833:834  c */\n      dup1\n        /* \"contracts/SafeMath.sol\":826:834  return c */\n      swap2\n      pop\n        /* \"contracts/SafeMath.sol\":695:842  function add(uint256 a, uint256 b) internal pure returns (uint256) {\r... */\n      pop\n      swap3\n      swap2\n      pop\n      pop\n      jump\t// out\n        /* \"contracts/Battle.sol\":1628:1821  function _killedDragon(uint _dragonId) private returns (bool) {\r... */\n    tag_110:\n        /* \"contracts/Battle.sol\":1684:1688  bool */\n      0x0\n        /* \"contracts/Battle.sol\":1729:1748  DragonStatus.Killed */\n      0x1\n        /* \"contracts/Battle.sol\":1701:1708  dragons */\n      0x2\n        /* \"contracts/Battle.sol\":1709:1718  _dragonId */\n      dup4\n        /* \"contracts/Battle.sol\":1701:1719  dragons[_dragonId] */\n      dup2\n      sload\n      dup2\n      lt\n      iszero\n      iszero\n      tag_128\n      jumpi\n      invalid\n    tag_128:\n      swap1\n      0x0\n      mstore\n      keccak256(0x0, 0x20)\n      swap1\n      0x6\n      mul\n      add\n        /* \"contracts/Battle.sol\":1701:1726  dragons[_dragonId].status */\n      0x5\n      add\n      0x0\n        /* \"contracts/Battle.sol\":1701:1748  dragons[_dragonId].status = DragonStatus.Killed */\n      0x100\n      exp\n      dup2\n      sload\n      dup2\n      0xff\n      mul\n      not\n      and\n      swap1\n      dup4\n      0x1\n      dup2\n      gt\n      iszero\n      tag_130\n      jumpi\n      invalid\n    tag_130:\n      mul\n      or\n      swap1\n      sstore\n      pop\n        /* \"contracts/Battle.sol\":1773:1791  dragonAlive.sub(1) */\n      tag_131\n        /* \"contracts/Battle.sol\":1789:1790  1 */\n      0x1\n        /* \"contracts/Battle.sol\":1773:1784  dragonAlive */\n      dup1\n      sload\n        /* \"contracts/Battle.sol\":1773:1788  dragonAlive.sub */\n      tag_115\n      swap1\n        /* \"contracts/Battle.sol\":1773:1791  dragonAlive.sub(1) */\n      swap2\n      swap1\n      0xffffffff\n      and\n      jump\t// in\n    tag_131:\n        /* \"contracts/Battle.sol\":1759:1770  dragonAlive */\n      0x1\n        /* \"contracts/Battle.sol\":1759:1791  dragonAlive = dragonAlive.sub(1) */\n      dup2\n      swap1\n      sstore\n      pop\n        /* \"contracts/Battle.sol\":1809:1813  true */\n      0x1\n        /* \"contracts/Battle.sol\":1802:1813  return true */\n      swap1\n      pop\n        /* \"contracts/Battle.sol\":1628:1821  function _killedDragon(uint _dragonId) private returns (bool) {\r... */\n      swap2\n      swap1\n      pop\n      jump\t// out\n        /* \"contracts/SafeMath.sol\":564:687  function sub(uint256 a, uint256 b) internal pure returns (uint256) {\r... */\n    tag_115:\n        /* \"contracts/SafeMath.sol\":622:629  uint256 */\n      0x0\n        /* \"contracts/SafeMath.sol\":654:655  a */\n      dup3\n        /* \"contracts/SafeMath.sol\":649:650  b */\n      dup3\n        /* \"contracts/SafeMath.sol\":649:655  b <= a */\n      gt\n      iszero\n        /* \"contracts/SafeMath.sol\":642:656  assert(b <= a) */\n      iszero\n      iszero\n      tag_133\n      jumpi\n      invalid\n    tag_133:\n        /* \"contracts/SafeMath.sol\":678:679  b */\n      dup2\n        /* \"contracts/SafeMath.sol\":674:675  a */\n      dup4\n        /* \"contracts/SafeMath.sol\":674:679  a - b */\n      sub\n        /* \"contracts/SafeMath.sol\":667:679  return a - b */\n      swap1\n      pop\n        /* \"contracts/SafeMath.sol\":564:687  function sub(uint256 a, uint256 b) internal pure returns (uint256) {\r... */\n      swap3\n      swap2\n      pop\n      pop\n      jump\t// out\n        /* \"contracts/DragonFactory.sol\":546:1064  function _createRandomDragon(string _name) private {\r... */\n    tag_124:\n        /* \"contracts/DragonFactory.sol\":646:658  uint randImg */\n      0x0\n        /* \"contracts/DragonFactory.sol\":706:718  uint randAtt */\n      dup1\n        /* \"contracts/DragonFactory.sol\":776:789  uint randLife */\n      0x0\n        /* \"contracts/DragonFactory.sol\":850:857  uint id */\n      dup1\n        /* \"contracts/DragonFactory.sol\":631:632  0 */\n      0x0\n        /* \"contracts/DragonFactory.sol\":616:627  dragonAlive */\n      sload(0x1)\n        /* \"contracts/DragonFactory.sol\":616:632  dragonAlive == 0 */\n      eq\n        /* \"contracts/DragonFactory.sol\":608:633  require(dragonAlive == 0) */\n      iszero\n      iszero\n      tag_135\n      jumpi\n      0x0\n      dup1\n      revert\n    tag_135:\n        /* \"contracts/DragonFactory.sol\":687:694  10 ** 1 */\n      0xa\n        /* \"contracts/DragonFactory.sol\":676:681  _name */\n      dup6\n        /* \"contracts/DragonFactory.sol\":666:682  keccak256(_name) */\n      mload(0x40)\n      dup1\n      dup3\n      dup1\n      mload\n      swap1\n      0x20\n      add\n      swap1\n      dup1\n      dup4\n      dup4\n        /* \"--CODEGEN--\":36:189   */\n    tag_136:\n        /* \"--CODEGEN--\":66:68   */\n      0x20\n        /* \"--CODEGEN--\":61:64   */\n      dup4\n        /* \"--CODEGEN--\":58:69   */\n      lt\n        /* \"--CODEGEN--\":51:70   */\n      iszero\n        /* \"--CODEGEN--\":36:189   */\n      iszero\n      tag_137\n      jumpi\n        /* \"--CODEGEN--\":182:185   */\n      dup1\n        /* \"--CODEGEN--\":176:186   */\n      mload\n        /* \"--CODEGEN--\":171:174   */\n      dup3\n        /* \"--CODEGEN--\":164:187   */\n      mstore\n        /* \"--CODEGEN--\":98:100   */\n      0x20\n        /* \"--CODEGEN--\":93:96   */\n      dup3\n        /* \"--CODEGEN--\":89:101   */\n      add\n        /* \"--CODEGEN--\":82:101   */\n      swap2\n      pop\n        /* \"--CODEGEN--\":123:125   */\n      0x20\n        /* \"--CODEGEN--\":118:121   */\n      dup2\n        /* \"--CODEGEN--\":114:126   */\n      add\n        /* \"--CODEGEN--\":107:126   */\n      swap1\n      pop\n        /* \"--CODEGEN--\":148:150   */\n      0x20\n        /* \"--CODEGEN--\":143:146   */\n      dup4\n        /* \"--CODEGEN--\":139:151   */\n      sub\n        /* \"--CODEGEN--\":132:151   */\n      swap3\n      pop\n        /* \"--CODEGEN--\":36:189   */\n      jump(tag_136)\n    tag_137:\n        /* \"--CODEGEN--\":274:275   */\n      0x1\n        /* \"--CODEGEN--\":267:270   */\n      dup4\n        /* \"--CODEGEN--\":263:265   */\n      0x20\n        /* \"--CODEGEN--\":259:271   */\n      sub\n        /* \"--CODEGEN--\":254:257   */\n      0x100\n        /* \"--CODEGEN--\":250:272   */\n      exp\n        /* \"--CODEGEN--\":246:276   */\n      sub\n        /* \"--CODEGEN--\":315:319   */\n      dup1\n        /* \"--CODEGEN--\":311:320   */\n      not\n        /* \"--CODEGEN--\":305:308   */\n      dup3\n        /* \"--CODEGEN--\":299:309   */\n      mload\n        /* \"--CODEGEN--\":295:321   */\n      and\n        /* \"--CODEGEN--\":356:360   */\n      dup2\n        /* \"--CODEGEN--\":350:353   */\n      dup5\n        /* \"--CODEGEN--\":344:354   */\n      mload\n        /* \"--CODEGEN--\":340:361   */\n      and\n        /* \"--CODEGEN--\":389:396   */\n      dup1\n        /* \"--CODEGEN--\":380:387   */\n      dup3\n        /* \"--CODEGEN--\":377:397   */\n      or\n        /* \"--CODEGEN--\":372:375   */\n      dup6\n        /* \"--CODEGEN--\":365:398   */\n      mstore\n        /* \"--CODEGEN--\":3:402   */\n      pop\n      pop\n      pop\n        /* \"contracts/DragonFactory.sol\":666:682  keccak256(_name) */\n      pop\n      pop\n      pop\n      swap1\n      pop\n      add\n      swap2\n      pop\n      pop\n      mload(0x40)\n      dup1\n      swap2\n      sub\n      swap1\n      keccak256\n        /* \"contracts/DragonFactory.sol\":661:683  uint(keccak256(_name)) */\n      0x1\n      swap1\n      div\n        /* \"contracts/DragonFactory.sol\":661:695  uint(keccak256(_name)) % (10 ** 1) */\n      dup2\n      iszero\n      iszero\n      tag_139\n      jumpi\n      invalid\n    tag_139:\n      mod\n        /* \"contracts/DragonFactory.sol\":646:695  uint randImg = uint(keccak256(_name)) % (10 ** 1) */\n      swap4\n      pop\n        /* \"contracts/DragonFactory.sol\":757:764  10 ** 3 */\n      0x3e8\n        /* \"contracts/DragonFactory.sol\":748:751  100 */\n      0x64\n        /* \"contracts/DragonFactory.sol\":738:743  _name */\n      dup7\n        /* \"contracts/DragonFactory.sol\":728:744  keccak256(_name) */\n      mload(0x40)\n      dup1\n      dup3\n      dup1\n      mload\n      swap1\n      0x20\n      add\n      swap1\n      dup1\n      dup4\n      dup4\n        /* \"--CODEGEN--\":36:189   */\n    tag_140:\n        /* \"--CODEGEN--\":66:68   */\n      0x20\n        /* \"--CODEGEN--\":61:64   */\n      dup4\n        /* \"--CODEGEN--\":58:69   */\n      lt\n        /* \"--CODEGEN--\":51:70   */\n      iszero\n        /* \"--CODEGEN--\":36:189   */\n      iszero\n      tag_141\n      jumpi\n        /* \"--CODEGEN--\":182:185   */\n      dup1\n        /* \"--CODEGEN--\":176:186   */\n      mload\n        /* \"--CODEGEN--\":171:174   */\n      dup3\n        /* \"--CODEGEN--\":164:187   */\n      mstore\n        /* \"--CODEGEN--\":98:100   */\n      0x20\n        /* \"--CODEGEN--\":93:96   */\n      dup3\n        /* \"--CODEGEN--\":89:101   */\n      add\n        /* \"--CODEGEN--\":82:101   */\n      swap2\n      pop\n        /* \"--CODEGEN--\":123:125   */\n      0x20\n        /* \"--CODEGEN--\":118:121   */\n      dup2\n        /* \"--CODEGEN--\":114:126   */\n      add\n        /* \"--CODEGEN--\":107:126   */\n      swap1\n      pop\n        /* \"--CODEGEN--\":148:150   */\n      0x20\n        /* \"--CODEGEN--\":143:146   */\n      dup4\n        /* \"--CODEGEN--\":139:151   */\n      sub\n        /* \"--CODEGEN--\":132:151   */\n      swap3\n      pop\n        /* \"--CODEGEN--\":36:189   */\n      jump(tag_140)\n    tag_141:\n        /* \"--CODEGEN--\":274:275   */\n      0x1\n        /* \"--CODEGEN--\":267:270   */\n      dup4\n        /* \"--CODEGEN--\":263:265   */\n      0x20\n        /* \"--CODEGEN--\":259:271   */\n      sub\n        /* \"--CODEGEN--\":254:257   */\n      0x100\n        /* \"--CODEGEN--\":250:272   */\n      exp\n        /* \"--CODEGEN--\":246:276   */\n      sub\n        /* \"--CODEGEN--\":315:319   */\n      dup1\n        /* \"--CODEGEN--\":311:320   */\n      not\n        /* \"--CODEGEN--\":305:308   */\n      dup3\n        /* \"--CODEGEN--\":299:309   */\n      mload\n        /* \"--CODEGEN--\":295:321   */\n      and\n        /* \"--CODEGEN--\":356:360   */\n      dup2\n        /* \"--CODEGEN--\":350:353   */\n      dup5\n        /* \"--CODEGEN--\":344:354   */\n      mload\n        /* \"--CODEGEN--\":340:361   */\n      and\n        /* \"--CODEGEN--\":389:396   */\n      dup1\n        /* \"--CODEGEN--\":380:387   */\n      dup3\n        /* \"--CODEGEN--\":377:397   */\n      or\n        /* \"--CODEGEN--\":372:375   */\n      dup6\n        /* \"--CODEGEN--\":365:398   */\n      mstore\n        /* \"--CODEGEN--\":3:402   */\n      pop\n      pop\n      pop\n        /* \"contracts/DragonFactory.sol\":728:744  keccak256(_name) */\n      pop\n      pop\n      pop\n      swap1\n      pop\n      add\n      swap2\n      pop\n      pop\n      mload(0x40)\n      dup1\n      swap2\n      sub\n      swap1\n      keccak256\n        /* \"contracts/DragonFactory.sol\":723:745  uint(keccak256(_name)) */\n      0x1\n      swap1\n      div\n        /* \"contracts/DragonFactory.sol\":723:751  uint(keccak256(_name)) / 100 */\n      dup2\n      iszero\n      iszero\n      tag_143\n      jumpi\n      invalid\n    tag_143:\n      div\n        /* \"contracts/DragonFactory.sol\":721:765  ( uint(keccak256(_name)) / 100 ) % (10 ** 3) */\n      dup2\n      iszero\n      iszero\n      tag_144\n      jumpi\n      invalid\n    tag_144:\n      mod\n        /* \"contracts/DragonFactory.sol\":706:765  uint randAtt = ( uint(keccak256(_name)) / 100 ) % (10 ** 3) */\n      swap3\n      pop\n        /* \"contracts/DragonFactory.sol\":831:838  10 ** 3 */\n      0x3e8\n        /* \"contracts/DragonFactory.sol\":819:825  100000 */\n      0x186a0\n        /* \"contracts/DragonFactory.sol\":809:814  _name */\n      dup7\n        /* \"contracts/DragonFactory.sol\":799:815  keccak256(_name) */\n      mload(0x40)\n      dup1\n      dup3\n      dup1\n      mload\n      swap1\n      0x20\n      add\n      swap1\n      dup1\n      dup4\n      dup4\n        /* \"--CODEGEN--\":36:189   */\n    tag_145:\n        /* \"--CODEGEN--\":66:68   */\n      0x20\n        /* \"--CODEGEN--\":61:64   */\n      dup4\n        /* \"--CODEGEN--\":58:69   */\n      lt\n        /* \"--CODEGEN--\":51:70   */\n      iszero\n        /* \"--CODEGEN--\":36:189   */\n      iszero\n      tag_146\n      jumpi\n        /* \"--CODEGEN--\":182:185   */\n      dup1\n        /* \"--CODEGEN--\":176:186   */\n      mload\n        /* \"--CODEGEN--\":171:174   */\n      dup3\n        /* \"--CODEGEN--\":164:187   */\n      mstore\n        /* \"--CODEGEN--\":98:100   */\n      0x20\n        /* \"--CODEGEN--\":93:96   */\n      dup3\n        /* \"--CODEGEN--\":89:101   */\n      add\n        /* \"--CODEGEN--\":82:101   */\n      swap2\n      pop\n        /* \"--CODEGEN--\":123:125   */\n      0x20\n        /* \"--CODEGEN--\":118:121   */\n      dup2\n        /* \"--CODEGEN--\":114:126   */\n      add\n        /* \"--CODEGEN--\":107:126   */\n      swap1\n      pop\n        /* \"--CODEGEN--\":148:150   */\n      0x20\n        /* \"--CODEGEN--\":143:146   */\n      dup4\n        /* \"--CODEGEN--\":139:151   */\n      sub\n        /* \"--CODEGEN--\":132:151   */\n      swap3\n      pop\n        /* \"--CODEGEN--\":36:189   */\n      jump(tag_145)\n    tag_146:\n        /* \"--CODEGEN--\":274:275   */\n      0x1\n        /* \"--CODEGEN--\":267:270   */\n      dup4\n        /* \"--CODEGEN--\":263:265   */\n      0x20\n        /* \"--CODEGEN--\":259:271   */\n      sub\n        /* \"--CODEGEN--\":254:257   */\n      0x100\n        /* \"--CODEGEN--\":250:272   */\n      exp\n        /* \"--CODEGEN--\":246:276   */\n      sub\n        /* \"--CODEGEN--\":315:319   */\n      dup1\n        /* \"--CODEGEN--\":311:320   */\n      not\n        /* \"--CODEGEN--\":305:308   */\n      dup3\n        /* \"--CODEGEN--\":299:309   */\n      mload\n        /* \"--CODEGEN--\":295:321   */\n      and\n        /* \"--CODEGEN--\":356:360   */\n      dup2\n        /* \"--CODEGEN--\":350:353   */\n      dup5\n        /* \"--CODEGEN--\":344:354   */\n      mload\n        /* \"--CODEGEN--\":340:361   */\n      and\n        /* \"--CODEGEN--\":389:396   */\n      dup1\n        /* \"--CODEGEN--\":380:387   */\n      dup3\n        /* \"--CODEGEN--\":377:397   */\n      or\n        /* \"--CODEGEN--\":372:375   */\n      dup6\n        /* \"--CODEGEN--\":365:398   */\n      mstore\n        /* \"--CODEGEN--\":3:402   */\n      pop\n      pop\n      pop\n        /* \"contracts/DragonFactory.sol\":799:815  keccak256(_name) */\n      pop\n      pop\n      pop\n      swap1\n      pop\n      add\n      swap2\n      pop\n      pop\n      mload(0x40)\n      dup1\n      swap2\n      sub\n      swap1\n      keccak256\n        /* \"contracts/DragonFactory.sol\":794:816  uint(keccak256(_name)) */\n      0x1\n      swap1\n      div\n        /* \"contracts/DragonFactory.sol\":794:825  uint(keccak256(_name)) / 100000 */\n      dup2\n      iszero\n      iszero\n      tag_148\n      jumpi\n      invalid\n    tag_148:\n      div\n        /* \"contracts/DragonFactory.sol\":792:839  ( uint(keccak256(_name)) / 100000 ) % (10 ** 3) */\n      dup2\n      iszero\n      iszero\n      tag_149\n      jumpi\n      invalid\n    tag_149:\n      mod\n        /* \"contracts/DragonFactory.sol\":776:839  uint randLife = ( uint(keccak256(_name)) / 100000 ) % (10 ** 3) */\n      swap2\n      pop\n        /* \"contracts/DragonFactory.sol\":948:949  1 */\n      0x1\n        /* \"contracts/DragonFactory.sol\":860:867  dragons */\n      0x2\n        /* \"contracts/DragonFactory.sol\":873:945  Dragon(_name, randImg, randAtt, randLife, randLife, DragonStatus.Borned) */\n      0xc0\n      mload(0x40)\n      swap1\n      dup2\n      add\n      0x40\n      mstore\n      dup1\n        /* \"contracts/DragonFactory.sol\":880:885  _name */\n      dup9\n        /* \"contracts/DragonFactory.sol\":873:945  Dragon(_name, randImg, randAtt, randLife, randLife, DragonStatus.Borned) */\n      dup2\n      mstore\n      0x20\n      add\n        /* \"contracts/DragonFactory.sol\":887:894  randImg */\n      dup8\n        /* \"contracts/DragonFactory.sol\":873:945  Dragon(_name, randImg, randAtt, randLife, randLife, DragonStatus.Borned) */\n      dup2\n      mstore\n      0x20\n      add\n        /* \"contracts/DragonFactory.sol\":896:903  randAtt */\n      dup7\n        /* \"contracts/DragonFactory.sol\":873:945  Dragon(_name, randImg, randAtt, randLife, randLife, DragonStatus.Borned) */\n      dup2\n      mstore\n      0x20\n      add\n        /* \"contracts/DragonFactory.sol\":905:913  randLife */\n      dup6\n        /* \"contracts/DragonFactory.sol\":873:945  Dragon(_name, randImg, randAtt, randLife, randLife, DragonStatus.Borned) */\n      dup2\n      mstore\n      0x20\n      add\n        /* \"contracts/DragonFactory.sol\":915:923  randLife */\n      dup6\n        /* \"contracts/DragonFactory.sol\":873:945  Dragon(_name, randImg, randAtt, randLife, randLife, DragonStatus.Borned) */\n      dup2\n      mstore\n      0x20\n      add\n        /* \"contracts/DragonFactory.sol\":925:944  DragonStatus.Borned */\n      0x0\n        /* \"contracts/DragonFactory.sol\":873:945  Dragon(_name, randImg, randAtt, randLife, randLife, DragonStatus.Borned) */\n      0x1\n      dup2\n      gt\n      iszero\n      tag_150\n      jumpi\n      invalid\n    tag_150:\n      dup2\n      mstore\n      pop\n        /* \"contracts/DragonFactory.sol\":860:946  dragons.push(Dragon(_name, randImg, randAtt, randLife, randLife, DragonStatus.Borned)) */\n      swap1\n      dup1\n        /* \"--CODEGEN--\":39:40   */\n      0x1\n        /* \"--CODEGEN--\":33:36   */\n      dup2\n        /* \"--CODEGEN--\":27:37   */\n      sload\n        /* \"--CODEGEN--\":23:41   */\n      add\n        /* \"--CODEGEN--\":57:67   */\n      dup1\n        /* \"--CODEGEN--\":52:55   */\n      dup3\n        /* \"--CODEGEN--\":45:68   */\n      sstore\n        /* \"--CODEGEN--\":79:89   */\n      dup1\n        /* \"--CODEGEN--\":72:89   */\n      swap2\n      pop\n        /* \"--CODEGEN--\":0:93   */\n      pop\n        /* \"contracts/DragonFactory.sol\":860:946  dragons.push(Dragon(_name, randImg, randAtt, randLife, randLife, DragonStatus.Borned)) */\n      swap1\n      0x1\n      dup3\n      sub\n      swap1\n      0x0\n      mstore\n      keccak256(0x0, 0x20)\n      swap1\n      0x6\n      mul\n      add\n      0x0\n      swap1\n      swap2\n      swap3\n      swap1\n      swap2\n      swap1\n      swap2\n      pop\n      0x0\n      dup3\n      add\n      mload\n      dup2\n      0x0\n      add\n      swap1\n      dup1\n      mload\n      swap1\n      0x20\n      add\n      swap1\n      tag_152\n      swap3\n      swap2\n      swap1\n      jump\t// in(tag_153)\n    tag_152:\n      pop\n      0x20\n      dup3\n      add\n      mload\n      dup2\n      0x1\n      add\n      sstore\n      0x40\n      dup3\n      add\n      mload\n      dup2\n      0x2\n      add\n      sstore\n      0x60\n      dup3\n      add\n      mload\n      dup2\n      0x3\n      add\n      sstore\n      0x80\n      dup3\n      add\n      mload\n      dup2\n      0x4\n      add\n      sstore\n      0xa0\n      dup3\n      add\n      mload\n      dup2\n      0x5\n      add\n      exp(0x100, 0x0)\n      dup2\n      sload\n      dup2\n      0xff\n      mul\n      not\n      and\n      swap1\n      dup4\n      0x1\n      dup2\n      gt\n      iszero\n      tag_154\n      jumpi\n      invalid\n    tag_154:\n      mul\n      or\n      swap1\n      sstore\n      pop\n      pop\n      pop\n        /* \"contracts/DragonFactory.sol\":860:949  dragons.push(Dragon(_name, randImg, randAtt, randLife, randLife, DragonStatus.Borned)) -1 */\n      sub\n        /* \"contracts/DragonFactory.sol\":850:949  uint id = dragons.push(Dragon(_name, randImg, randAtt, randLife, randLife, DragonStatus.Borned)) -1 */\n      swap1\n      pop\n        /* \"contracts/DragonFactory.sol\":974:992  dragonAlive.add(1) */\n      tag_155\n        /* \"contracts/DragonFactory.sol\":990:991  1 */\n      0x1\n        /* \"contracts/DragonFactory.sol\":974:985  dragonAlive */\n      dup1\n      sload\n        /* \"contracts/DragonFactory.sol\":974:989  dragonAlive.add */\n      tag_100\n      swap1\n        /* \"contracts/DragonFactory.sol\":974:992  dragonAlive.add(1) */\n      swap2\n      swap1\n      0xffffffff\n      and\n      jump\t// in\n    tag_155:\n        /* \"contracts/DragonFactory.sol\":960:971  dragonAlive */\n      0x1\n        /* \"contracts/DragonFactory.sol\":960:992  dragonAlive = dragonAlive.add(1) */\n      dup2\n      swap1\n      sstore\n      pop\n        /* \"contracts/DragonFactory.sol\":1018:1020  id */\n      dup1\n        /* \"contracts/DragonFactory.sol\":1008:1056  NewDragon(id, _name, randImg, randAtt, randLife) */\n      0x1d1fad81dbfb09b882a6ae7281c6da343d79ba71c61eb0b9357c263fe94139dc\n        /* \"contracts/DragonFactory.sol\":1022:1027  _name */\n      dup7\n        /* \"contracts/DragonFactory.sol\":1029:1036  randImg */\n      dup7\n        /* \"contracts/DragonFactory.sol\":1038:1045  randAtt */\n      dup7\n        /* \"contracts/DragonFactory.sol\":1047:1055  randLife */\n      dup7\n        /* \"contracts/DragonFactory.sol\":1008:1056  NewDragon(id, _name, randImg, randAtt, randLife) */\n      mload(0x40)\n      dup1\n      dup1\n      0x20\n      add\n      dup6\n      dup2\n      mstore\n      0x20\n      add\n      dup5\n      dup2\n      mstore\n      0x20\n      add\n      dup4\n      dup2\n      mstore\n      0x20\n      add\n      dup3\n      dup2\n      sub\n      dup3\n      mstore\n      dup7\n      dup2\n      dup2\n      mload\n      dup2\n      mstore\n      0x20\n      add\n      swap2\n      pop\n      dup1\n      mload\n      swap1\n      0x20\n      add\n      swap1\n      dup1\n      dup4\n      dup4\n        /* \"--CODEGEN--\":23:24   */\n      0x0\n        /* \"--CODEGEN--\":8:108   */\n    tag_156:\n        /* \"--CODEGEN--\":33:36   */\n      dup4\n        /* \"--CODEGEN--\":30:31   */\n      dup2\n        /* \"--CODEGEN--\":27:37   */\n      lt\n        /* \"--CODEGEN--\":8:108   */\n      iszero\n      tag_157\n      jumpi\n        /* \"--CODEGEN--\":99:100   */\n      dup1\n        /* \"--CODEGEN--\":94:97   */\n      dup3\n        /* \"--CODEGEN--\":90:101   */\n      add\n        /* \"--CODEGEN--\":84:102   */\n      mload\n        /* \"--CODEGEN--\":80:81   */\n      dup2\n        /* \"--CODEGEN--\":75:78   */\n      dup5\n        /* \"--CODEGEN--\":71:82   */\n      add\n        /* \"--CODEGEN--\":64:103   */\n      mstore\n        /* \"--CODEGEN--\":52:54   */\n      0x20\n        /* \"--CODEGEN--\":49:50   */\n      dup2\n        /* \"--CODEGEN--\":45:55   */\n      add\n        /* \"--CODEGEN--\":40:55   */\n      swap1\n      pop\n        /* \"--CODEGEN--\":8:108   */\n      jump(tag_156)\n    tag_157:\n        /* \"--CODEGEN--\":12:26   */\n      pop\n        /* \"contracts/DragonFactory.sol\":1008:1056  NewDragon(id, _name, randImg, randAtt, randLife) */\n      pop\n      pop\n      pop\n      swap1\n      pop\n      swap1\n      dup2\n      add\n      swap1\n      0x1f\n      and\n      dup1\n      iszero\n      tag_159\n      jumpi\n      dup1\n      dup3\n      sub\n      dup1\n      mload\n      0x1\n      dup4\n      0x20\n      sub\n      0x100\n      exp\n      sub\n      not\n      and\n      dup2\n      mstore\n      0x20\n      add\n      swap2\n      pop\n    tag_159:\n      pop\n      swap6\n      pop\n      pop\n      pop\n      pop\n      pop\n      pop\n      mload(0x40)\n      dup1\n      swap2\n      sub\n      swap1\n      log2\n        /* \"contracts/DragonFactory.sol\":546:1064  function _createRandomDragon(string _name) private {\r... */\n      pop\n      pop\n      pop\n      pop\n      pop\n      jump\t// out\n        /* \"contracts/Battle.sol\":112:2532  contract Battle is Ownable, DragonFactory {\r... */\n    tag_153:\n      dup3\n      dup1\n      sload\n      0x1\n      dup2\n      0x1\n      and\n      iszero\n      0x100\n      mul\n      sub\n      and\n      0x2\n      swap1\n      div\n      swap1\n      0x0\n      mstore\n      keccak256(0x0, 0x20)\n      swap1\n      0x1f\n      add\n      0x20\n      swap1\n      div\n      dup2\n      add\n      swap3\n      dup3\n      0x1f\n      lt\n      tag_161\n      jumpi\n      dup1\n      mload\n      not(0xff)\n      and\n      dup4\n      dup1\n      add\n      or\n      dup6\n      sstore\n      jump(tag_160)\n    tag_161:\n      dup3\n      dup1\n      add\n      0x1\n      add\n      dup6\n      sstore\n      dup3\n      iszero\n      tag_160\n      jumpi\n      swap2\n      dup3\n      add\n    tag_162:\n      dup3\n      dup2\n      gt\n      iszero\n      tag_163\n      jumpi\n      dup3\n      mload\n      dup3\n      sstore\n      swap2\n      0x20\n      add\n      swap2\n      swap1\n      0x1\n      add\n      swap1\n      jump(tag_162)\n    tag_163:\n    tag_160:\n      pop\n      swap1\n      pop\n      tag_164\n      swap2\n      swap1\n      jump\t// in(tag_165)\n    tag_164:\n      pop\n      swap1\n      jump\t// out\n    tag_165:\n      tag_166\n      swap2\n      swap1\n    tag_167:\n      dup1\n      dup3\n      gt\n      iszero\n      tag_168\n      jumpi\n      0x0\n      dup2\n      0x0\n      swap1\n      sstore\n      pop\n      0x1\n      add\n      jump(tag_167)\n    tag_168:\n      pop\n      swap1\n      jump\n    tag_166:\n      swap1\n      jump\t// out\n\n    auxdata: 0xa165627a7a723058209ccc9c56f920667582fb2a2f01ba3e0477f209f8d0999909be66549506a09ab80029\n}\n",
				"bytecode": {
					"linkReferences": {},
					"object": "6080604052610708600355336000806101000a81548173ffffffffffffffffffffffffffffffffffffffff021916908373ffffffffffffffffffffffffffffffffffffffff16021790555061148c806100596000396000f3006080604052600436106100e6576000357c0100000000000000000000000000000000000000000000000000000000900463ffffffff16806317db085f146100eb57806338ced05314610138578063393e6f35146101995780636ad0f3dc14610201578063715018a61461026257806376a0ab151461027957806385c9bed8146102a45780638da5cb5b146102fb5780639c7a709a14610352578063b319c6b71461037d578063d0a9c498146103a8578063d2a59d69146103e9578063f2fde38b146104c0578063f3fc7b2414610503578063f82e6e6214610552578063fdccc83e146105b7575b600080fd5b3480156100f757600080fd5b5061013660048036038101908080359060200190929190803573ffffffffffffffffffffffffffffffffffffffff169060200190929190505050610620565b005b34801561014457600080fd5b50610183600480360381019080803573ffffffffffffffffffffffffffffffffffffffff1690602001909291908035906020019092919050505061067d565b6040518082815260200191505060405180910390f35b3480156101a557600080fd5b506101e460048036038101908080359060200190929190803573ffffffffffffffffffffffffffffffffffffffff1690602001909291905050506106ad565b604051808381526020018281526020019250505060405180910390f35b34801561020d57600080fd5b5061024c60048036038101908080359060200190929190803573ffffffffffffffffffffffffffffffffffffffff1690602001909291905050506106de565b6040518082815260200191505060405180910390f35b34801561026e57600080fd5b5061027761073e565b005b34801561028557600080fd5b5061028e610840565b6040518082815260200191505060405180910390f35b3480156102b057600080fd5b506102e5600480360381019080803573ffffffffffffffffffffffffffffffffffffffff16906020019092919050505061084d565b6040518082815260200191505060405180910390f35b34801561030757600080fd5b50610310610899565b604051808273ffffffffffffffffffffffffffffffffffffffff1673ffffffffffffffffffffffffffffffffffffffff16815260200191505060405180910390f35b34801561035e57600080fd5b506103676108be565b6040518082815260200191505060405180910390f35b34801561038957600080fd5b506103926108c4565b6040518082815260200191505060405180910390f35b3480156103b457600080fd5b506103d3600480360381019080803590602001909291905050506108ca565b6040518082815260200191505060405180910390f35b3480156103f557600080fd5b50610414600480360381019080803590602001909291905050506108e2565b604051808060200187815260200186815260200185815260200184815260200183600181111561044057fe5b60ff168152602001828103825288818151815260200191508051906020019080838360005b83811015610480578082015181840152602081019050610465565b50505050905090810190601f1680156104ad5780820380516001836020036101000a031916815260200191505b5097505050505050505060405180910390f35b3480156104cc57600080fd5b50610501600480360381019080803573ffffffffffffffffffffffffffffffffffffffff1690602001909291905050506109d2565b005b34801561050f57600080fd5b506105386004803603810190808035906020019092919080359060200190929190505050610b27565b604051808215151515815260200191505060405180910390f35b34801561055e57600080fd5b5061059d60048036038101908080359060200190929190803573ffffffffffffffffffffffffffffffffffffffff169060200190929190505050610f0f565b604051808215151515815260200191505060405180910390f35b3480156105c357600080fd5b5061061e600480360381019080803590602001908201803590602001908080601f0160208091040260200160405190810160405280939291908181526020018383808284378201915050505050509192919290505050610f70565b005b60006005600084815260200190815260200160002060008373ffffffffffffffffffffffffffffffffffffffff1673ffffffffffffffffffffffffffffffffffffffff168152602001908152602001600020600101819055505050565b60046020528160005260406000208181548110151561069857fe5b90600052602060002001600091509150505481565b6005602052816000526040600020602052806000526040600020600091509150508060000154908060010154905082565b6000426005600085815260200190815260200160002060008473ffffffffffffffffffffffffffffffffffffffff1673ffffffffffffffffffffffffffffffffffffffff1681526020019081526020016000206001015403905092915050565b6000809054906101000a900473ffffffffffffffffffffffffffffffffffffffff1673ffffffffffffffffffffffffffffffffffffffff163373ffffffffffffffffffffffffffffffffffffffff1614151561079957600080fd5b6000809054906101000a900473ffffffffffffffffffffffffffffffffffffffff1673ffffffffffffffffffffffffffffffffffffffff167ff8df31144d9c2f0f6b59d69b8b98abd5459d07f2742c4df920b25aae33c6482060405160405180910390a260008060006101000a81548173ffffffffffffffffffffffffffffffffffffffff021916908373ffffffffffffffffffffffffffffffffffffffff160217905550565b6000600280549050905090565b6000600460008373ffffffffffffffffffffffffffffffffffffffff1673ffffffffffffffffffffffffffffffffffffffff168152602001908152602001600020805490509050919050565b6000809054906101000a900473ffffffffffffffffffffffffffffffffffffffff1681565b60015481565b60035481565b60066020528060005260406000206000915090505481565b6002818154811015156108f157fe5b9060005260206000209060060201600091509050806000018054600181600116156101000203166002900480601f01602080910402602001604051908101604052809291908181526020018280546001816001161561010002031660029004801561099d5780601f106109725761010080835404028352916020019161099d565b820191906000526020600020905b81548152906001019060200180831161098057829003601f168201915b5050505050908060010154908060020154908060030154908060040154908060050160009054906101000a900460ff16905086565b6000809054906101000a900473ffffffffffffffffffffffffffffffffffffffff1673ffffffffffffffffffffffffffffffffffffffff163373ffffffffffffffffffffffffffffffffffffffff16141515610a2d57600080fd5b600073ffffffffffffffffffffffffffffffffffffffff168173ffffffffffffffffffffffffffffffffffffffff1614151515610a6957600080fd5b8073ffffffffffffffffffffffffffffffffffffffff166000809054906101000a900473ffffffffffffffffffffffffffffffffffffffff1673ffffffffffffffffffffffffffffffffffffffff167f8be0079c531659141344cd1fd0a4f28419497f9722a3daafe3b4186f6b6457e060405160405180910390a3806000806101000a81548173ffffffffffffffffffffffffffffffffffffffff021916908373ffffffffffffffffffffffffffffffffffffffff16021790555050565b60008060009050600180811115610b3a57fe5b600285815481101515610b4957fe5b906000526020600020906006020160050160009054906101000a900460ff166001811115610b7357fe5b14151515610be9576040517f08c379a00000000000000000000000000000000000000000000000000000000081526004018080602001828103825260188152602001807f447261676f6e20697320616c6561647920646561642e2e2e000000000000000081525060200191505060405180910390fd5b610bf38433610f0f565b1515610bfe57600080fd5b60008314151515610c0e57600080fd5b60006005600086815260200190815260200160002060003373ffffffffffffffffffffffffffffffffffffffff1673ffffffffffffffffffffffffffffffffffffffff168152602001908152602001600020600001541415610d1257610c9160016006600087815260200190815260200160002054610fd790919063ffffffff16565b6006600086815260200190815260200160002081905550600460003373ffffffffffffffffffffffffffffffffffffffff1673ffffffffffffffffffffffffffffffffffffffff1681526020019081526020016000208490806001815401808255809150509060018203906000526020600020016000909192909190915055505b82600285815481101515610d2257fe5b906000526020600020906006020160040154111515610d9457600284815481101515610d4a57fe5b90600052602060002090600602016004015492506000600285815481101515610d6f57fe5b906000526020600020906006020160040181905550610d8d84610ff5565b9050610dec565b610dc783600286815481101515610da757fe5b90600052602060002090600602016004015461105d90919063ffffffff16565b600285815481101515610dd657fe5b9060005260206000209060060201600401819055505b610e52836005600087815260200190815260200160002060003373ffffffffffffffffffffffffffffffffffffffff1673ffffffffffffffffffffffffffffffffffffffff16815260200190815260200160002060000154610fd790919063ffffffff16565b6005600086815260200190815260200160002060003373ffffffffffffffffffffffffffffffffffffffff1673ffffffffffffffffffffffffffffffffffffffff1681526020019081526020016000206000018190555042600354016005600086815260200190815260200160002060003373ffffffffffffffffffffffffffffffffffffffff1673ffffffffffffffffffffffffffffffffffffffff168152602001908152602001600020600101819055508091505092915050565b6000426005600085815260200190815260200160002060008473ffffffffffffffffffffffffffffffffffffffff1673ffffffffffffffffffffffffffffffffffffffff168152602001908152602001600020600101541115905092915050565b6000809054906101000a900473ffffffffffffffffffffffffffffffffffffffff1673ffffffffffffffffffffffffffffffffffffffff163373ffffffffffffffffffffffffffffffffffffffff16141515610fcb57600080fd5b610fd481611076565b50565b6000808284019050838110151515610feb57fe5b8091505092915050565b6000600160028381548110151561100857fe5b906000526020600020906006020160050160006101000a81548160ff0219169083600181111561103457fe5b021790555061104e6001805461105d90919063ffffffff16565b60018190555060019050919050565b600082821115151561106b57fe5b818303905092915050565b600080600080600060015414151561108d57600080fd5b600a856040518082805190602001908083835b6020831015156110c557805182526020820191506020810190506020830392506110a0565b6001836020036101000a0380198251168184511680821785525050505050509050019150506040518091039020600190048115156110ff57fe5b0693506103e86064866040518082805190602001908083835b60208310151561113d5780518252602082019150602081019050602083039250611118565b6001836020036101000a03801982511681845116808217855250505050505090500191505060405180910390206001900481151561117757fe5b0481151561118157fe5b0692506103e8620186a0866040518082805190602001908083835b6020831015156111c1578051825260208201915060208101905060208303925061119c565b6001836020036101000a0380198251168184511680821785525050505050509050019150506040518091039020600190048115156111fb57fe5b0481151561120557fe5b0691506001600260c0604051908101604052808881526020018781526020018681526020018581526020018581526020016000600181111561124357fe5b81525090806001815401808255809150509060018203906000526020600020906006020160009091929091909150600082015181600001908051906020019061128d9291906113bb565b506020820151816001015560408201518160020155606082015181600301556080820151816004015560a08201518160050160006101000a81548160ff021916908360018111156112da57fe5b021790555050500390506112f960018054610fd790919063ffffffff16565b600181905550807f1d1fad81dbfb09b882a6ae7281c6da343d79ba71c61eb0b9357c263fe94139dc868686866040518080602001858152602001848152602001838152602001828103825286818151815260200191508051906020019080838360005b8381101561137757808201518184015260208101905061135c565b50505050905090810190601f1680156113a45780820380516001836020036101000a031916815260200191505b509550505050505060405180910390a25050505050565b828054600181600116156101000203166002900490600052602060002090601f016020900481019282601f106113fc57805160ff191683800117855561142a565b8280016001018555821561142a579182015b8281111561142957825182559160200191906001019061140e565b5b509050611437919061143b565b5090565b61145d91905b80821115611459576000816000905550600101611441565b5090565b905600a165627a7a723058209ccc9c56f920667582fb2a2f01ba3e0477f209f8d0999909be66549506a09ab80029",
					"opcodes": "PUSH1 0x80 PUSH1 0x40 MSTORE PUSH2 0x708 PUSH1 0x3 SSTORE CALLER PUSH1 0x0 DUP1 PUSH2 0x100 EXP DUP2 SLOAD DUP2 PUSH20 0xFFFFFFFFFFFFFFFFFFFFFFFFFFFFFFFFFFFFFFFF MUL NOT AND SWAP1 DUP4 PUSH20 0xFFFFFFFFFFFFFFFFFFFFFFFFFFFFFFFFFFFFFFFF AND MUL OR SWAP1 SSTORE POP PUSH2 0x148C DUP1 PUSH2 0x59 PUSH1 0x0 CODECOPY PUSH1 0x0 RETURN STOP PUSH1 0x80 PUSH1 0x40 MSTORE PUSH1 0x4 CALLDATASIZE LT PUSH2 0xE6 JUMPI PUSH1 0x0 CALLDATALOAD PUSH29 0x100000000000000000000000000000000000000000000000000000000 SWAP1 DIV PUSH4 0xFFFFFFFF AND DUP1 PUSH4 0x17DB085F EQ PUSH2 0xEB JUMPI DUP1 PUSH4 0x38CED053 EQ PUSH2 0x138 JUMPI DUP1 PUSH4 0x393E6F35 EQ PUSH2 0x199 JUMPI DUP1 PUSH4 0x6AD0F3DC EQ PUSH2 0x201 JUMPI DUP1 PUSH4 0x715018A6 EQ PUSH2 0x262 JUMPI DUP1 PUSH4 0x76A0AB15 EQ PUSH2 0x279 JUMPI DUP1 PUSH4 0x85C9BED8 EQ PUSH2 0x2A4 JUMPI DUP1 PUSH4 0x8DA5CB5B EQ PUSH2 0x2FB JUMPI DUP1 PUSH4 0x9C7A709A EQ PUSH2 0x352 JUMPI DUP1 PUSH4 0xB319C6B7 EQ PUSH2 0x37D JUMPI DUP1 PUSH4 0xD0A9C498 EQ PUSH2 0x3A8 JUMPI DUP1 PUSH4 0xD2A59D69 EQ PUSH2 0x3E9 JUMPI DUP1 PUSH4 0xF2FDE38B EQ PUSH2 0x4C0 JUMPI DUP1 PUSH4 0xF3FC7B24 EQ PUSH2 0x503 JUMPI DUP1 PUSH4 0xF82E6E62 EQ PUSH2 0x552 JUMPI DUP1 PUSH4 0xFDCCC83E EQ PUSH2 0x5B7 JUMPI JUMPDEST PUSH1 0x0 DUP1 REVERT JUMPDEST CALLVALUE DUP1 ISZERO PUSH2 0xF7 JUMPI PUSH1 0x0 DUP1 REVERT JUMPDEST POP PUSH2 0x136 PUSH1 0x4 DUP1 CALLDATASIZE SUB DUP2 ADD SWAP1 DUP1 DUP1 CALLDATALOAD SWAP1 PUSH1 0x20 ADD SWAP1 SWAP3 SWAP2 SWAP1 DUP1 CALLDATALOAD PUSH20 0xFFFFFFFFFFFFFFFFFFFFFFFFFFFFFFFFFFFFFFFF AND SWAP1 PUSH1 0x20 ADD SWAP1 SWAP3 SWAP2 SWAP1 POP POP POP PUSH2 0x620 JUMP JUMPDEST STOP JUMPDEST CALLVALUE DUP1 ISZERO PUSH2 0x144 JUMPI PUSH1 0x0 DUP1 REVERT JUMPDEST POP PUSH2 0x183 PUSH1 0x4 DUP1 CALLDATASIZE SUB DUP2 ADD SWAP1 DUP1 DUP1 CALLDATALOAD PUSH20 0xFFFFFFFFFFFFFFFFFFFFFFFFFFFFFFFFFFFFFFFF AND SWAP1 PUSH1 0x20 ADD SWAP1 SWAP3 SWAP2 SWAP1 DUP1 CALLDATALOAD SWAP1 PUSH1 0x20 ADD SWAP1 SWAP3 SWAP2 SWAP1 POP POP POP PUSH2 0x67D JUMP JUMPDEST PUSH1 0x40 MLOAD DUP1 DUP3 DUP2 MSTORE PUSH1 0x20 ADD SWAP2 POP POP PUSH1 0x40 MLOAD DUP1 SWAP2 SUB SWAP1 RETURN JUMPDEST CALLVALUE DUP1 ISZERO PUSH2 0x1A5 JUMPI PUSH1 0x0 DUP1 REVERT JUMPDEST POP PUSH2 0x1E4 PUSH1 0x4 DUP1 CALLDATASIZE SUB DUP2 ADD SWAP1 DUP1 DUP1 CALLDATALOAD SWAP1 PUSH1 0x20 ADD SWAP1 SWAP3 SWAP2 SWAP1 DUP1 CALLDATALOAD PUSH20 0xFFFFFFFFFFFFFFFFFFFFFFFFFFFFFFFFFFFFFFFF AND SWAP1 PUSH1 0x20 ADD SWAP1 SWAP3 SWAP2 SWAP1 POP POP POP PUSH2 0x6AD JUMP JUMPDEST PUSH1 0x40 MLOAD DUP1 DUP4 DUP2 MSTORE PUSH1 0x20 ADD DUP3 DUP2 MSTORE PUSH1 0x20 ADD SWAP3 POP POP POP PUSH1 0x40 MLOAD DUP1 SWAP2 SUB SWAP1 RETURN JUMPDEST CALLVALUE DUP1 ISZERO PUSH2 0x20D JUMPI PUSH1 0x0 DUP1 REVERT JUMPDEST POP PUSH2 0x24C PUSH1 0x4 DUP1 CALLDATASIZE SUB DUP2 ADD SWAP1 DUP1 DUP1 CALLDATALOAD SWAP1 PUSH1 0x20 ADD SWAP1 SWAP3 SWAP2 SWAP1 DUP1 CALLDATALOAD PUSH20 0xFFFFFFFFFFFFFFFFFFFFFFFFFFFFFFFFFFFFFFFF AND SWAP1 PUSH1 0x20 ADD SWAP1 SWAP3 SWAP2 SWAP1 POP POP POP PUSH2 0x6DE JUMP JUMPDEST PUSH1 0x40 MLOAD DUP1 DUP3 DUP2 MSTORE PUSH1 0x20 ADD SWAP2 POP POP PUSH1 0x40 MLOAD DUP1 SWAP2 SUB SWAP1 RETURN JUMPDEST CALLVALUE DUP1 ISZERO PUSH2 0x26E JUMPI PUSH1 0x0 DUP1 REVERT JUMPDEST POP PUSH2 0x277 PUSH2 0x73E JUMP JUMPDEST STOP JUMPDEST CALLVALUE DUP1 ISZERO PUSH2 0x285 JUMPI PUSH1 0x0 DUP1 REVERT JUMPDEST POP PUSH2 0x28E PUSH2 0x840 JUMP JUMPDEST PUSH1 0x40 MLOAD DUP1 DUP3 DUP2 MSTORE PUSH1 0x20 ADD SWAP2 POP POP PUSH1 0x40 MLOAD DUP1 SWAP2 SUB SWAP1 RETURN JUMPDEST CALLVALUE DUP1 ISZERO PUSH2 0x2B0 JUMPI PUSH1 0x0 DUP1 REVERT JUMPDEST POP PUSH2 0x2E5 PUSH1 0x4 DUP1 CALLDATASIZE SUB DUP2 ADD SWAP1 DUP1 DUP1 CALLDATALOAD PUSH20 0xFFFFFFFFFFFFFFFFFFFFFFFFFFFFFFFFFFFFFFFF AND SWAP1 PUSH1 0x20 ADD SWAP1 SWAP3 SWAP2 SWAP1 POP POP POP PUSH2 0x84D JUMP JUMPDEST PUSH1 0x40 MLOAD DUP1 DUP3 DUP2 MSTORE PUSH1 0x20 ADD SWAP2 POP POP PUSH1 0x40 MLOAD DUP1 SWAP2 SUB SWAP1 RETURN JUMPDEST CALLVALUE DUP1 ISZERO PUSH2 0x307 JUMPI PUSH1 0x0 DUP1 REVERT JUMPDEST POP PUSH2 0x310 PUSH2 0x899 JUMP JUMPDEST PUSH1 0x40 MLOAD DUP1 DUP3 PUSH20 0xFFFFFFFFFFFFFFFFFFFFFFFFFFFFFFFFFFFFFFFF AND PUSH20 0xFFFFFFFFFFFFFFFFFFFFFFFFFFFFFFFFFFFFFFFF AND DUP2 MSTORE PUSH1 0x20 ADD SWAP2 POP POP PUSH1 0x40 MLOAD DUP1 SWAP2 SUB SWAP1 RETURN JUMPDEST CALLVALUE DUP1 ISZERO PUSH2 0x35E JUMPI PUSH1 0x0 DUP1 REVERT JUMPDEST POP PUSH2 0x367 PUSH2 0x8BE JUMP JUMPDEST PUSH1 0x40 MLOAD DUP1 DUP3 DUP2 MSTORE PUSH1 0x20 ADD SWAP2 POP POP PUSH1 0x40 MLOAD DUP1 SWAP2 SUB SWAP1 RETURN JUMPDEST CALLVALUE DUP1 ISZERO PUSH2 0x389 JUMPI PUSH1 0x0 DUP1 REVERT JUMPDEST POP PUSH2 0x392 PUSH2 0x8C4 JUMP JUMPDEST PUSH1 0x40 MLOAD DUP1 DUP3 DUP2 MSTORE PUSH1 0x20 ADD SWAP2 POP POP PUSH1 0x40 MLOAD DUP1 SWAP2 SUB SWAP1 RETURN JUMPDEST CALLVALUE DUP1 ISZERO PUSH2 0x3B4 JUMPI PUSH1 0x0 DUP1 REVERT JUMPDEST POP PUSH2 0x3D3 PUSH1 0x4 DUP1 CALLDATASIZE SUB DUP2 ADD SWAP1 DUP1 DUP1 CALLDATALOAD SWAP1 PUSH1 0x20 ADD SWAP1 SWAP3 SWAP2 SWAP1 POP POP POP PUSH2 0x8CA JUMP JUMPDEST PUSH1 0x40 MLOAD DUP1 DUP3 DUP2 MSTORE PUSH1 0x20 ADD SWAP2 POP POP PUSH1 0x40 MLOAD DUP1 SWAP2 SUB SWAP1 RETURN JUMPDEST CALLVALUE DUP1 ISZERO PUSH2 0x3F5 JUMPI PUSH1 0x0 DUP1 REVERT JUMPDEST POP PUSH2 0x414 PUSH1 0x4 DUP1 CALLDATASIZE SUB DUP2 ADD SWAP1 DUP1 DUP1 CALLDATALOAD SWAP1 PUSH1 0x20 ADD SWAP1 SWAP3 SWAP2 SWAP1 POP POP POP PUSH2 0x8E2 JUMP JUMPDEST PUSH1 0x40 MLOAD DUP1 DUP1 PUSH1 0x20 ADD DUP8 DUP2 MSTORE PUSH1 0x20 ADD DUP7 DUP2 MSTORE PUSH1 0x20 ADD DUP6 DUP2 MSTORE PUSH1 0x20 ADD DUP5 DUP2 MSTORE PUSH1 0x20 ADD DUP4 PUSH1 0x1 DUP2 GT ISZERO PUSH2 0x440 JUMPI INVALID JUMPDEST PUSH1 0xFF AND DUP2 MSTORE PUSH1 0x20 ADD DUP3 DUP2 SUB DUP3 MSTORE DUP9 DUP2 DUP2 MLOAD DUP2 MSTORE PUSH1 0x20 ADD SWAP2 POP DUP1 MLOAD SWAP1 PUSH1 0x20 ADD SWAP1 DUP1 DUP4 DUP4 PUSH1 0x0 JUMPDEST DUP4 DUP2 LT ISZERO PUSH2 0x480 JUMPI DUP1 DUP3 ADD MLOAD DUP2 DUP5 ADD MSTORE PUSH1 0x20 DUP2 ADD SWAP1 POP PUSH2 0x465 JUMP JUMPDEST POP POP POP POP SWAP1 POP SWAP1 DUP2 ADD SWAP1 PUSH1 0x1F AND DUP1 ISZERO PUSH2 0x4AD JUMPI DUP1 DUP3 SUB DUP1 MLOAD PUSH1 0x1 DUP4 PUSH1 0x20 SUB PUSH2 0x100 EXP SUB NOT AND DUP2 MSTORE PUSH1 0x20 ADD SWAP2 POP JUMPDEST POP SWAP8 POP POP POP POP POP POP POP POP PUSH1 0x40 MLOAD DUP1 SWAP2 SUB SWAP1 RETURN JUMPDEST CALLVALUE DUP1 ISZERO PUSH2 0x4CC JUMPI PUSH1 0x0 DUP1 REVERT JUMPDEST POP PUSH2 0x501 PUSH1 0x4 DUP1 CALLDATASIZE SUB DUP2 ADD SWAP1 DUP1 DUP1 CALLDATALOAD PUSH20 0xFFFFFFFFFFFFFFFFFFFFFFFFFFFFFFFFFFFFFFFF AND SWAP1 PUSH1 0x20 ADD SWAP1 SWAP3 SWAP2 SWAP1 POP POP POP PUSH2 0x9D2 JUMP JUMPDEST STOP JUMPDEST CALLVALUE DUP1 ISZERO PUSH2 0x50F JUMPI PUSH1 0x0 DUP1 REVERT JUMPDEST POP PUSH2 0x538 PUSH1 0x4 DUP1 CALLDATASIZE SUB DUP2 ADD SWAP1 DUP1 DUP1 CALLDATALOAD SWAP1 PUSH1 0x20 ADD SWAP1 SWAP3 SWAP2 SWAP1 DUP1 CALLDATALOAD SWAP1 PUSH1 0x20 ADD SWAP1 SWAP3 SWAP2 SWAP1 POP POP POP PUSH2 0xB27 JUMP JUMPDEST PUSH1 0x40 MLOAD DUP1 DUP3 ISZERO ISZERO ISZERO ISZERO DUP2 MSTORE PUSH1 0x20 ADD SWAP2 POP POP PUSH1 0x40 MLOAD DUP1 SWAP2 SUB SWAP1 RETURN JUMPDEST CALLVALUE DUP1 ISZERO PUSH2 0x55E JUMPI PUSH1 0x0 DUP1 REVERT JUMPDEST POP PUSH2 0x59D PUSH1 0x4 DUP1 CALLDATASIZE SUB DUP2 ADD SWAP1 DUP1 DUP1 CALLDATALOAD SWAP1 PUSH1 0x20 ADD SWAP1 SWAP3 SWAP2 SWAP1 DUP1 CALLDATALOAD PUSH20 0xFFFFFFFFFFFFFFFFFFFFFFFFFFFFFFFFFFFFFFFF AND SWAP1 PUSH1 0x20 ADD SWAP1 SWAP3 SWAP2 SWAP1 POP POP POP PUSH2 0xF0F JUMP JUMPDEST PUSH1 0x40 MLOAD DUP1 DUP3 ISZERO ISZERO ISZERO ISZERO DUP2 MSTORE PUSH1 0x20 ADD SWAP2 POP POP PUSH1 0x40 MLOAD DUP1 SWAP2 SUB SWAP1 RETURN JUMPDEST CALLVALUE DUP1 ISZERO PUSH2 0x5C3 JUMPI PUSH1 0x0 DUP1 REVERT JUMPDEST POP PUSH2 0x61E PUSH1 0x4 DUP1 CALLDATASIZE SUB DUP2 ADD SWAP1 DUP1 DUP1 CALLDATALOAD SWAP1 PUSH1 0x20 ADD SWAP1 DUP3 ADD DUP1 CALLDATALOAD SWAP1 PUSH1 0x20 ADD SWAP1 DUP1 DUP1 PUSH1 0x1F ADD PUSH1 0x20 DUP1 SWAP2 DIV MUL PUSH1 0x20 ADD PUSH1 0x40 MLOAD SWAP1 DUP2 ADD PUSH1 0x40 MSTORE DUP1 SWAP4 SWAP3 SWAP2 SWAP1 DUP2 DUP2 MSTORE PUSH1 0x20 ADD DUP4 DUP4 DUP1 DUP3 DUP5 CALLDATACOPY DUP3 ADD SWAP2 POP POP POP POP POP POP SWAP2 SWAP3 SWAP2 SWAP3 SWAP1 POP POP POP PUSH2 0xF70 JUMP JUMPDEST STOP JUMPDEST PUSH1 0x0 PUSH1 0x5 PUSH1 0x0 DUP5 DUP2 MSTORE PUSH1 0x20 ADD SWAP1 DUP2 MSTORE PUSH1 0x20 ADD PUSH1 0x0 KECCAK256 PUSH1 0x0 DUP4 PUSH20 0xFFFFFFFFFFFFFFFFFFFFFFFFFFFFFFFFFFFFFFFF AND PUSH20 0xFFFFFFFFFFFFFFFFFFFFFFFFFFFFFFFFFFFFFFFF AND DUP2 MSTORE PUSH1 0x20 ADD SWAP1 DUP2 MSTORE PUSH1 0x20 ADD PUSH1 0x0 KECCAK256 PUSH1 0x1 ADD DUP2 SWAP1 SSTORE POP POP POP JUMP JUMPDEST PUSH1 0x4 PUSH1 0x20 MSTORE DUP2 PUSH1 0x0 MSTORE PUSH1 0x40 PUSH1 0x0 KECCAK256 DUP2 DUP2 SLOAD DUP2 LT ISZERO ISZERO PUSH2 0x698 JUMPI INVALID JUMPDEST SWAP1 PUSH1 0x0 MSTORE PUSH1 0x20 PUSH1 0x0 KECCAK256 ADD PUSH1 0x0 SWAP2 POP SWAP2 POP POP SLOAD DUP2 JUMP JUMPDEST PUSH1 0x5 PUSH1 0x20 MSTORE DUP2 PUSH1 0x0 MSTORE PUSH1 0x40 PUSH1 0x0 KECCAK256 PUSH1 0x20 MSTORE DUP1 PUSH1 0x0 MSTORE PUSH1 0x40 PUSH1 0x0 KECCAK256 PUSH1 0x0 SWAP2 POP SWAP2 POP POP DUP1 PUSH1 0x0 ADD SLOAD SWAP1 DUP1 PUSH1 0x1 ADD SLOAD SWAP1 POP DUP3 JUMP JUMPDEST PUSH1 0x0 TIMESTAMP PUSH1 0x5 PUSH1 0x0 DUP6 DUP2 MSTORE PUSH1 0x20 ADD SWAP1 DUP2 MSTORE PUSH1 0x20 ADD PUSH1 0x0 KECCAK256 PUSH1 0x0 DUP5 PUSH20 0xFFFFFFFFFFFFFFFFFFFFFFFFFFFFFFFFFFFFFFFF AND PUSH20 0xFFFFFFFFFFFFFFFFFFFFFFFFFFFFFFFFFFFFFFFF AND DUP2 MSTORE PUSH1 0x20 ADD SWAP1 DUP2 MSTORE PUSH1 0x20 ADD PUSH1 0x0 KECCAK256 PUSH1 0x1 ADD SLOAD SUB SWAP1 POP SWAP3 SWAP2 POP POP JUMP JUMPDEST PUSH1 0x0 DUP1 SWAP1 SLOAD SWAP1 PUSH2 0x100 EXP SWAP1 DIV PUSH20 0xFFFFFFFFFFFFFFFFFFFFFFFFFFFFFFFFFFFFFFFF AND PUSH20 0xFFFFFFFFFFFFFFFFFFFFFFFFFFFFFFFFFFFFFFFF AND CALLER PUSH20 0xFFFFFFFFFFFFFFFFFFFFFFFFFFFFFFFFFFFFFFFF AND EQ ISZERO ISZERO PUSH2 0x799 JUMPI PUSH1 0x0 DUP1 REVERT JUMPDEST PUSH1 0x0 DUP1 SWAP1 SLOAD SWAP1 PUSH2 0x100 EXP SWAP1 DIV PUSH20 0xFFFFFFFFFFFFFFFFFFFFFFFFFFFFFFFFFFFFFFFF AND PUSH20 0xFFFFFFFFFFFFFFFFFFFFFFFFFFFFFFFFFFFFFFFF AND PUSH32 0xF8DF31144D9C2F0F6B59D69B8B98ABD5459D07F2742C4DF920B25AAE33C64820 PUSH1 0x40 MLOAD PUSH1 0x40 MLOAD DUP1 SWAP2 SUB SWAP1 LOG2 PUSH1 0x0 DUP1 PUSH1 0x0 PUSH2 0x100 EXP DUP2 SLOAD DUP2 PUSH20 0xFFFFFFFFFFFFFFFFFFFFFFFFFFFFFFFFFFFFFFFF MUL NOT AND SWAP1 DUP4 PUSH20 0xFFFFFFFFFFFFFFFFFFFFFFFFFFFFFFFFFFFFFFFF AND MUL OR SWAP1 SSTORE POP JUMP JUMPDEST PUSH1 0x0 PUSH1 0x2 DUP1 SLOAD SWAP1 POP SWAP1 POP SWAP1 JUMP JUMPDEST PUSH1 0x0 PUSH1 0x4 PUSH1 0x0 DUP4 PUSH20 0xFFFFFFFFFFFFFFFFFFFFFFFFFFFFFFFFFFFFFFFF AND PUSH20 0xFFFFFFFFFFFFFFFFFFFFFFFFFFFFFFFFFFFFFFFF AND DUP2 MSTORE PUSH1 0x20 ADD SWAP1 DUP2 MSTORE PUSH1 0x20 ADD PUSH1 0x0 KECCAK256 DUP1 SLOAD SWAP1 POP SWAP1 POP SWAP2 SWAP1 POP JUMP JUMPDEST PUSH1 0x0 DUP1 SWAP1 SLOAD SWAP1 PUSH2 0x100 EXP SWAP1 DIV PUSH20 0xFFFFFFFFFFFFFFFFFFFFFFFFFFFFFFFFFFFFFFFF AND DUP2 JUMP JUMPDEST PUSH1 0x1 SLOAD DUP2 JUMP JUMPDEST PUSH1 0x3 SLOAD DUP2 JUMP JUMPDEST PUSH1 0x6 PUSH1 0x20 MSTORE DUP1 PUSH1 0x0 MSTORE PUSH1 0x40 PUSH1 0x0 KECCAK256 PUSH1 0x0 SWAP2 POP SWAP1 POP SLOAD DUP2 JUMP JUMPDEST PUSH1 0x2 DUP2 DUP2 SLOAD DUP2 LT ISZERO ISZERO PUSH2 0x8F1 JUMPI INVALID JUMPDEST SWAP1 PUSH1 0x0 MSTORE PUSH1 0x20 PUSH1 0x0 KECCAK256 SWAP1 PUSH1 0x6 MUL ADD PUSH1 0x0 SWAP2 POP SWAP1 POP DUP1 PUSH1 0x0 ADD DUP1 SLOAD PUSH1 0x1 DUP2 PUSH1 0x1 AND ISZERO PUSH2 0x100 MUL SUB AND PUSH1 0x2 SWAP1 DIV DUP1 PUSH1 0x1F ADD PUSH1 0x20 DUP1 SWAP2 DIV MUL PUSH1 0x20 ADD PUSH1 0x40 MLOAD SWAP1 DUP2 ADD PUSH1 0x40 MSTORE DUP1 SWAP3 SWAP2 SWAP1 DUP2 DUP2 MSTORE PUSH1 0x20 ADD DUP3 DUP1 SLOAD PUSH1 0x1 DUP2 PUSH1 0x1 AND ISZERO PUSH2 0x100 MUL SUB AND PUSH1 0x2 SWAP1 DIV DUP1 ISZERO PUSH2 0x99D JUMPI DUP1 PUSH1 0x1F LT PUSH2 0x972 JUMPI PUSH2 0x100 DUP1 DUP4 SLOAD DIV MUL DUP4 MSTORE SWAP2 PUSH1 0x20 ADD SWAP2 PUSH2 0x99D JUMP JUMPDEST DUP3 ADD SWAP2 SWAP1 PUSH1 0x0 MSTORE PUSH1 0x20 PUSH1 0x0 KECCAK256 SWAP1 JUMPDEST DUP2 SLOAD DUP2 MSTORE SWAP1 PUSH1 0x1 ADD SWAP1 PUSH1 0x20 ADD DUP1 DUP4 GT PUSH2 0x980 JUMPI DUP3 SWAP1 SUB PUSH1 0x1F AND DUP3 ADD SWAP2 JUMPDEST POP POP POP POP POP SWAP1 DUP1 PUSH1 0x1 ADD SLOAD SWAP1 DUP1 PUSH1 0x2 ADD SLOAD SWAP1 DUP1 PUSH1 0x3 ADD SLOAD SWAP1 DUP1 PUSH1 0x4 ADD SLOAD SWAP1 DUP1 PUSH1 0x5 ADD PUSH1 0x0 SWAP1 SLOAD SWAP1 PUSH2 0x100 EXP SWAP1 DIV PUSH1 0xFF AND SWAP1 POP DUP7 JUMP JUMPDEST PUSH1 0x0 DUP1 SWAP1 SLOAD SWAP1 PUSH2 0x100 EXP SWAP1 DIV PUSH20 0xFFFFFFFFFFFFFFFFFFFFFFFFFFFFFFFFFFFFFFFF AND PUSH20 0xFFFFFFFFFFFFFFFFFFFFFFFFFFFFFFFFFFFFFFFF AND CALLER PUSH20 0xFFFFFFFFFFFFFFFFFFFFFFFFFFFFFFFFFFFFFFFF AND EQ ISZERO ISZERO PUSH2 0xA2D JUMPI PUSH1 0x0 DUP1 REVERT JUMPDEST PUSH1 0x0 PUSH20 0xFFFFFFFFFFFFFFFFFFFFFFFFFFFFFFFFFFFFFFFF AND DUP2 PUSH20 0xFFFFFFFFFFFFFFFFFFFFFFFFFFFFFFFFFFFFFFFF AND EQ ISZERO ISZERO ISZERO PUSH2 0xA69 JUMPI PUSH1 0x0 DUP1 REVERT JUMPDEST DUP1 PUSH20 0xFFFFFFFFFFFFFFFFFFFFFFFFFFFFFFFFFFFFFFFF AND PUSH1 0x0 DUP1 SWAP1 SLOAD SWAP1 PUSH2 0x100 EXP SWAP1 DIV PUSH20 0xFFFFFFFFFFFFFFFFFFFFFFFFFFFFFFFFFFFFFFFF AND PUSH20 0xFFFFFFFFFFFFFFFFFFFFFFFFFFFFFFFFFFFFFFFF AND PUSH32 0x8BE0079C531659141344CD1FD0A4F28419497F9722A3DAAFE3B4186F6B6457E0 PUSH1 0x40 MLOAD PUSH1 0x40 MLOAD DUP1 SWAP2 SUB SWAP1 LOG3 DUP1 PUSH1 0x0 DUP1 PUSH2 0x100 EXP DUP2 SLOAD DUP2 PUSH20 0xFFFFFFFFFFFFFFFFFFFFFFFFFFFFFFFFFFFFFFFF MUL NOT AND SWAP1 DUP4 PUSH20 0xFFFFFFFFFFFFFFFFFFFFFFFFFFFFFFFFFFFFFFFF AND MUL OR SWAP1 SSTORE POP POP JUMP JUMPDEST PUSH1 0x0 DUP1 PUSH1 0x0 SWAP1 POP PUSH1 0x1 DUP1 DUP2 GT ISZERO PUSH2 0xB3A JUMPI INVALID JUMPDEST PUSH1 0x2 DUP6 DUP2 SLOAD DUP2 LT ISZERO ISZERO PUSH2 0xB49 JUMPI INVALID JUMPDEST SWAP1 PUSH1 0x0 MSTORE PUSH1 0x20 PUSH1 0x0 KECCAK256 SWAP1 PUSH1 0x6 MUL ADD PUSH1 0x5 ADD PUSH1 0x0 SWAP1 SLOAD SWAP1 PUSH2 0x100 EXP SWAP1 DIV PUSH1 0xFF AND PUSH1 0x1 DUP2 GT ISZERO PUSH2 0xB73 JUMPI INVALID JUMPDEST EQ ISZERO ISZERO ISZERO PUSH2 0xBE9 JUMPI PUSH1 0x40 MLOAD PUSH32 0x8C379A000000000000000000000000000000000000000000000000000000000 DUP2 MSTORE PUSH1 0x4 ADD DUP1 DUP1 PUSH1 0x20 ADD DUP3 DUP2 SUB DUP3 MSTORE PUSH1 0x18 DUP2 MSTORE PUSH1 0x20 ADD DUP1 PUSH32 0x447261676F6E20697320616C6561647920646561642E2E2E0000000000000000 DUP2 MSTORE POP PUSH1 0x20 ADD SWAP2 POP POP PUSH1 0x40 MLOAD DUP1 SWAP2 SUB SWAP1 REVERT JUMPDEST PUSH2 0xBF3 DUP5 CALLER PUSH2 0xF0F JUMP JUMPDEST ISZERO ISZERO PUSH2 0xBFE JUMPI PUSH1 0x0 DUP1 REVERT JUMPDEST PUSH1 0x0 DUP4 EQ ISZERO ISZERO ISZERO PUSH2 0xC0E JUMPI PUSH1 0x0 DUP1 REVERT JUMPDEST PUSH1 0x0 PUSH1 0x5 PUSH1 0x0 DUP7 DUP2 MSTORE PUSH1 0x20 ADD SWAP1 DUP2 MSTORE PUSH1 0x20 ADD PUSH1 0x0 KECCAK256 PUSH1 0x0 CALLER PUSH20 0xFFFFFFFFFFFFFFFFFFFFFFFFFFFFFFFFFFFFFFFF AND PUSH20 0xFFFFFFFFFFFFFFFFFFFFFFFFFFFFFFFFFFFFFFFF AND DUP2 MSTORE PUSH1 0x20 ADD SWAP1 DUP2 MSTORE PUSH1 0x20 ADD PUSH1 0x0 KECCAK256 PUSH1 0x0 ADD SLOAD EQ ISZERO PUSH2 0xD12 JUMPI PUSH2 0xC91 PUSH1 0x1 PUSH1 0x6 PUSH1 0x0 DUP8 DUP2 MSTORE PUSH1 0x20 ADD SWAP1 DUP2 MSTORE PUSH1 0x20 ADD PUSH1 0x0 KECCAK256 SLOAD PUSH2 0xFD7 SWAP1 SWAP2 SWAP1 PUSH4 0xFFFFFFFF AND JUMP JUMPDEST PUSH1 0x6 PUSH1 0x0 DUP7 DUP2 MSTORE PUSH1 0x20 ADD SWAP1 DUP2 MSTORE PUSH1 0x20 ADD PUSH1 0x0 KECCAK256 DUP2 SWAP1 SSTORE POP PUSH1 0x4 PUSH1 0x0 CALLER PUSH20 0xFFFFFFFFFFFFFFFFFFFFFFFFFFFFFFFFFFFFFFFF AND PUSH20 0xFFFFFFFFFFFFFFFFFFFFFFFFFFFFFFFFFFFFFFFF AND DUP2 MSTORE PUSH1 0x20 ADD SWAP1 DUP2 MSTORE PUSH1 0x20 ADD PUSH1 0x0 KECCAK256 DUP5 SWAP1 DUP1 PUSH1 0x1 DUP2 SLOAD ADD DUP1 DUP3 SSTORE DUP1 SWAP2 POP POP SWAP1 PUSH1 0x1 DUP3 SUB SWAP1 PUSH1 0x0 MSTORE PUSH1 0x20 PUSH1 0x0 KECCAK256 ADD PUSH1 0x0 SWAP1 SWAP2 SWAP3 SWAP1 SWAP2 SWAP1 SWAP2 POP SSTORE POP JUMPDEST DUP3 PUSH1 0x2 DUP6 DUP2 SLOAD DUP2 LT ISZERO ISZERO PUSH2 0xD22 JUMPI INVALID JUMPDEST SWAP1 PUSH1 0x0 MSTORE PUSH1 0x20 PUSH1 0x0 KECCAK256 SWAP1 PUSH1 0x6 MUL ADD PUSH1 0x4 ADD SLOAD GT ISZERO ISZERO PUSH2 0xD94 JUMPI PUSH1 0x2 DUP5 DUP2 SLOAD DUP2 LT ISZERO ISZERO PUSH2 0xD4A JUMPI INVALID JUMPDEST SWAP1 PUSH1 0x0 MSTORE PUSH1 0x20 PUSH1 0x0 KECCAK256 SWAP1 PUSH1 0x6 MUL ADD PUSH1 0x4 ADD SLOAD SWAP3 POP PUSH1 0x0 PUSH1 0x2 DUP6 DUP2 SLOAD DUP2 LT ISZERO ISZERO PUSH2 0xD6F JUMPI INVALID JUMPDEST SWAP1 PUSH1 0x0 MSTORE PUSH1 0x20 PUSH1 0x0 KECCAK256 SWAP1 PUSH1 0x6 MUL ADD PUSH1 0x4 ADD DUP2 SWAP1 SSTORE POP PUSH2 0xD8D DUP5 PUSH2 0xFF5 JUMP JUMPDEST SWAP1 POP PUSH2 0xDEC JUMP JUMPDEST PUSH2 0xDC7 DUP4 PUSH1 0x2 DUP7 DUP2 SLOAD DUP2 LT ISZERO ISZERO PUSH2 0xDA7 JUMPI INVALID JUMPDEST SWAP1 PUSH1 0x0 MSTORE PUSH1 0x20 PUSH1 0x0 KECCAK256 SWAP1 PUSH1 0x6 MUL ADD PUSH1 0x4 ADD SLOAD PUSH2 0x105D SWAP1 SWAP2 SWAP1 PUSH4 0xFFFFFFFF AND JUMP JUMPDEST PUSH1 0x2 DUP6 DUP2 SLOAD DUP2 LT ISZERO ISZERO PUSH2 0xDD6 JUMPI INVALID JUMPDEST SWAP1 PUSH1 0x0 MSTORE PUSH1 0x20 PUSH1 0x0 KECCAK256 SWAP1 PUSH1 0x6 MUL ADD PUSH1 0x4 ADD DUP2 SWAP1 SSTORE POP JUMPDEST PUSH2 0xE52 DUP4 PUSH1 0x5 PUSH1 0x0 DUP8 DUP2 MSTORE PUSH1 0x20 ADD SWAP1 DUP2 MSTORE PUSH1 0x20 ADD PUSH1 0x0 KECCAK256 PUSH1 0x0 CALLER PUSH20 0xFFFFFFFFFFFFFFFFFFFFFFFFFFFFFFFFFFFFFFFF AND PUSH20 0xFFFFFFFFFFFFFFFFFFFFFFFFFFFFFFFFFFFFFFFF AND DUP2 MSTORE PUSH1 0x20 ADD SWAP1 DUP2 MSTORE PUSH1 0x20 ADD PUSH1 0x0 KECCAK256 PUSH1 0x0 ADD SLOAD PUSH2 0xFD7 SWAP1 SWAP2 SWAP1 PUSH4 0xFFFFFFFF AND JUMP JUMPDEST PUSH1 0x5 PUSH1 0x0 DUP7 DUP2 MSTORE PUSH1 0x20 ADD SWAP1 DUP2 MSTORE PUSH1 0x20 ADD PUSH1 0x0 KECCAK256 PUSH1 0x0 CALLER PUSH20 0xFFFFFFFFFFFFFFFFFFFFFFFFFFFFFFFFFFFFFFFF AND PUSH20 0xFFFFFFFFFFFFFFFFFFFFFFFFFFFFFFFFFFFFFFFF AND DUP2 MSTORE PUSH1 0x20 ADD SWAP1 DUP2 MSTORE PUSH1 0x20 ADD PUSH1 0x0 KECCAK256 PUSH1 0x0 ADD DUP2 SWAP1 SSTORE POP TIMESTAMP PUSH1 0x3 SLOAD ADD PUSH1 0x5 PUSH1 0x0 DUP7 DUP2 MSTORE PUSH1 0x20 ADD SWAP1 DUP2 MSTORE PUSH1 0x20 ADD PUSH1 0x0 KECCAK256 PUSH1 0x0 CALLER PUSH20 0xFFFFFFFFFFFFFFFFFFFFFFFFFFFFFFFFFFFFFFFF AND PUSH20 0xFFFFFFFFFFFFFFFFFFFFFFFFFFFFFFFFFFFFFFFF AND DUP2 MSTORE PUSH1 0x20 ADD SWAP1 DUP2 MSTORE PUSH1 0x20 ADD PUSH1 0x0 KECCAK256 PUSH1 0x1 ADD DUP2 SWAP1 SSTORE POP DUP1 SWAP2 POP POP SWAP3 SWAP2 POP POP JUMP JUMPDEST PUSH1 0x0 TIMESTAMP PUSH1 0x5 PUSH1 0x0 DUP6 DUP2 MSTORE PUSH1 0x20 ADD SWAP1 DUP2 MSTORE PUSH1 0x20 ADD PUSH1 0x0 KECCAK256 PUSH1 0x0 DUP5 PUSH20 0xFFFFFFFFFFFFFFFFFFFFFFFFFFFFFFFFFFFFFFFF AND PUSH20 0xFFFFFFFFFFFFFFFFFFFFFFFFFFFFFFFFFFFFFFFF AND DUP2 MSTORE PUSH1 0x20 ADD SWAP1 DUP2 MSTORE PUSH1 0x20 ADD PUSH1 0x0 KECCAK256 PUSH1 0x1 ADD SLOAD GT ISZERO SWAP1 POP SWAP3 SWAP2 POP POP JUMP JUMPDEST PUSH1 0x0 DUP1 SWAP1 SLOAD SWAP1 PUSH2 0x100 EXP SWAP1 DIV PUSH20 0xFFFFFFFFFFFFFFFFFFFFFFFFFFFFFFFFFFFFFFFF AND PUSH20 0xFFFFFFFFFFFFFFFFFFFFFFFFFFFFFFFFFFFFFFFF AND CALLER PUSH20 0xFFFFFFFFFFFFFFFFFFFFFFFFFFFFFFFFFFFFFFFF AND EQ ISZERO ISZERO PUSH2 0xFCB JUMPI PUSH1 0x0 DUP1 REVERT JUMPDEST PUSH2 0xFD4 DUP2 PUSH2 0x1076 JUMP JUMPDEST POP JUMP JUMPDEST PUSH1 0x0 DUP1 DUP3 DUP5 ADD SWAP1 POP DUP4 DUP2 LT ISZERO ISZERO ISZERO PUSH2 0xFEB JUMPI INVALID JUMPDEST DUP1 SWAP2 POP POP SWAP3 SWAP2 POP POP JUMP JUMPDEST PUSH1 0x0 PUSH1 0x1 PUSH1 0x2 DUP4 DUP2 SLOAD DUP2 LT ISZERO ISZERO PUSH2 0x1008 JUMPI INVALID JUMPDEST SWAP1 PUSH1 0x0 MSTORE PUSH1 0x20 PUSH1 0x0 KECCAK256 SWAP1 PUSH1 0x6 MUL ADD PUSH1 0x5 ADD PUSH1 0x0 PUSH2 0x100 EXP DUP2 SLOAD DUP2 PUSH1 0xFF MUL NOT AND SWAP1 DUP4 PUSH1 0x1 DUP2 GT ISZERO PUSH2 0x1034 JUMPI INVALID JUMPDEST MUL OR SWAP1 SSTORE POP PUSH2 0x104E PUSH1 0x1 DUP1 SLOAD PUSH2 0x105D SWAP1 SWAP2 SWAP1 PUSH4 0xFFFFFFFF AND JUMP JUMPDEST PUSH1 0x1 DUP2 SWAP1 SSTORE POP PUSH1 0x1 SWAP1 POP SWAP2 SWAP1 POP JUMP JUMPDEST PUSH1 0x0 DUP3 DUP3 GT ISZERO ISZERO ISZERO PUSH2 0x106B JUMPI INVALID JUMPDEST DUP2 DUP4 SUB SWAP1 POP SWAP3 SWAP2 POP POP JUMP JUMPDEST PUSH1 0x0 DUP1 PUSH1 0x0 DUP1 PUSH1 0x0 PUSH1 0x1 SLOAD EQ ISZERO ISZERO PUSH2 0x108D JUMPI PUSH1 0x0 DUP1 REVERT JUMPDEST PUSH1 0xA DUP6 PUSH1 0x40 MLOAD DUP1 DUP3 DUP1 MLOAD SWAP1 PUSH1 0x20 ADD SWAP1 DUP1 DUP4 DUP4 JUMPDEST PUSH1 0x20 DUP4 LT ISZERO ISZERO PUSH2 0x10C5 JUMPI DUP1 MLOAD DUP3 MSTORE PUSH1 0x20 DUP3 ADD SWAP2 POP PUSH1 0x20 DUP2 ADD SWAP1 POP PUSH1 0x20 DUP4 SUB SWAP3 POP PUSH2 0x10A0 JUMP JUMPDEST PUSH1 0x1 DUP4 PUSH1 0x20 SUB PUSH2 0x100 EXP SUB DUP1 NOT DUP3 MLOAD AND DUP2 DUP5 MLOAD AND DUP1 DUP3 OR DUP6 MSTORE POP POP POP POP POP POP SWAP1 POP ADD SWAP2 POP POP PUSH1 0x40 MLOAD DUP1 SWAP2 SUB SWAP1 KECCAK256 PUSH1 0x1 SWAP1 DIV DUP2 ISZERO ISZERO PUSH2 0x10FF JUMPI INVALID JUMPDEST MOD SWAP4 POP PUSH2 0x3E8 PUSH1 0x64 DUP7 PUSH1 0x40 MLOAD DUP1 DUP3 DUP1 MLOAD SWAP1 PUSH1 0x20 ADD SWAP1 DUP1 DUP4 DUP4 JUMPDEST PUSH1 0x20 DUP4 LT ISZERO ISZERO PUSH2 0x113D JUMPI DUP1 MLOAD DUP3 MSTORE PUSH1 0x20 DUP3 ADD SWAP2 POP PUSH1 0x20 DUP2 ADD SWAP1 POP PUSH1 0x20 DUP4 SUB SWAP3 POP PUSH2 0x1118 JUMP JUMPDEST PUSH1 0x1 DUP4 PUSH1 0x20 SUB PUSH2 0x100 EXP SUB DUP1 NOT DUP3 MLOAD AND DUP2 DUP5 MLOAD AND DUP1 DUP3 OR DUP6 MSTORE POP POP POP POP POP POP SWAP1 POP ADD SWAP2 POP POP PUSH1 0x40 MLOAD DUP1 SWAP2 SUB SWAP1 KECCAK256 PUSH1 0x1 SWAP1 DIV DUP2 ISZERO ISZERO PUSH2 0x1177 JUMPI INVALID JUMPDEST DIV DUP2 ISZERO ISZERO PUSH2 0x1181 JUMPI INVALID JUMPDEST MOD SWAP3 POP PUSH2 0x3E8 PUSH3 0x186A0 DUP7 PUSH1 0x40 MLOAD DUP1 DUP3 DUP1 MLOAD SWAP1 PUSH1 0x20 ADD SWAP1 DUP1 DUP4 DUP4 JUMPDEST PUSH1 0x20 DUP4 LT ISZERO ISZERO PUSH2 0x11C1 JUMPI DUP1 MLOAD DUP3 MSTORE PUSH1 0x20 DUP3 ADD SWAP2 POP PUSH1 0x20 DUP2 ADD SWAP1 POP PUSH1 0x20 DUP4 SUB SWAP3 POP PUSH2 0x119C JUMP JUMPDEST PUSH1 0x1 DUP4 PUSH1 0x20 SUB PUSH2 0x100 EXP SUB DUP1 NOT DUP3 MLOAD AND DUP2 DUP5 MLOAD AND DUP1 DUP3 OR DUP6 MSTORE POP POP POP POP POP POP SWAP1 POP ADD SWAP2 POP POP PUSH1 0x40 MLOAD DUP1 SWAP2 SUB SWAP1 KECCAK256 PUSH1 0x1 SWAP1 DIV DUP2 ISZERO ISZERO PUSH2 0x11FB JUMPI INVALID JUMPDEST DIV DUP2 ISZERO ISZERO PUSH2 0x1205 JUMPI INVALID JUMPDEST MOD SWAP2 POP PUSH1 0x1 PUSH1 0x2 PUSH1 0xC0 PUSH1 0x40 MLOAD SWAP1 DUP2 ADD PUSH1 0x40 MSTORE DUP1 DUP9 DUP2 MSTORE PUSH1 0x20 ADD DUP8 DUP2 MSTORE PUSH1 0x20 ADD DUP7 DUP2 MSTORE PUSH1 0x20 ADD DUP6 DUP2 MSTORE PUSH1 0x20 ADD DUP6 DUP2 MSTORE PUSH1 0x20 ADD PUSH1 0x0 PUSH1 0x1 DUP2 GT ISZERO PUSH2 0x1243 JUMPI INVALID JUMPDEST DUP2 MSTORE POP SWAP1 DUP1 PUSH1 0x1 DUP2 SLOAD ADD DUP1 DUP3 SSTORE DUP1 SWAP2 POP POP SWAP1 PUSH1 0x1 DUP3 SUB SWAP1 PUSH1 0x0 MSTORE PUSH1 0x20 PUSH1 0x0 KECCAK256 SWAP1 PUSH1 0x6 MUL ADD PUSH1 0x0 SWAP1 SWAP2 SWAP3 SWAP1 SWAP2 SWAP1 SWAP2 POP PUSH1 0x0 DUP3 ADD MLOAD DUP2 PUSH1 0x0 ADD SWAP1 DUP1 MLOAD SWAP1 PUSH1 0x20 ADD SWAP1 PUSH2 0x128D SWAP3 SWAP2 SWAP1 PUSH2 0x13BB JUMP JUMPDEST POP PUSH1 0x20 DUP3 ADD MLOAD DUP2 PUSH1 0x1 ADD SSTORE PUSH1 0x40 DUP3 ADD MLOAD DUP2 PUSH1 0x2 ADD SSTORE PUSH1 0x60 DUP3 ADD MLOAD DUP2 PUSH1 0x3 ADD SSTORE PUSH1 0x80 DUP3 ADD MLOAD DUP2 PUSH1 0x4 ADD SSTORE PUSH1 0xA0 DUP3 ADD MLOAD DUP2 PUSH1 0x5 ADD PUSH1 0x0 PUSH2 0x100 EXP DUP2 SLOAD DUP2 PUSH1 0xFF MUL NOT AND SWAP1 DUP4 PUSH1 0x1 DUP2 GT ISZERO PUSH2 0x12DA JUMPI INVALID JUMPDEST MUL OR SWAP1 SSTORE POP POP POP SUB SWAP1 POP PUSH2 0x12F9 PUSH1 0x1 DUP1 SLOAD PUSH2 0xFD7 SWAP1 SWAP2 SWAP1 PUSH4 0xFFFFFFFF AND JUMP JUMPDEST PUSH1 0x1 DUP2 SWAP1 SSTORE POP DUP1 PUSH32 0x1D1FAD81DBFB09B882A6AE7281C6DA343D79BA71C61EB0B9357C263FE94139DC DUP7 DUP7 DUP7 DUP7 PUSH1 0x40 MLOAD DUP1 DUP1 PUSH1 0x20 ADD DUP6 DUP2 MSTORE PUSH1 0x20 ADD DUP5 DUP2 MSTORE PUSH1 0x20 ADD DUP4 DUP2 MSTORE PUSH1 0x20 ADD DUP3 DUP2 SUB DUP3 MSTORE DUP7 DUP2 DUP2 MLOAD DUP2 MSTORE PUSH1 0x20 ADD SWAP2 POP DUP1 MLOAD SWAP1 PUSH1 0x20 ADD SWAP1 DUP1 DUP4 DUP4 PUSH1 0x0 JUMPDEST DUP4 DUP2 LT ISZERO PUSH2 0x1377 JUMPI DUP1 DUP3 ADD MLOAD DUP2 DUP5 ADD MSTORE PUSH1 0x20 DUP2 ADD SWAP1 POP PUSH2 0x135C JUMP JUMPDEST POP POP POP POP SWAP1 POP SWAP1 DUP2 ADD SWAP1 PUSH1 0x1F AND DUP1 ISZERO PUSH2 0x13A4 JUMPI DUP1 DUP3 SUB DUP1 MLOAD PUSH1 0x1 DUP4 PUSH1 0x20 SUB PUSH2 0x100 EXP SUB NOT AND DUP2 MSTORE PUSH1 0x20 ADD SWAP2 POP JUMPDEST POP SWAP6 POP POP POP POP POP POP PUSH1 0x40 MLOAD DUP1 SWAP2 SUB SWAP1 LOG2 POP POP POP POP POP JUMP JUMPDEST DUP3 DUP1 SLOAD PUSH1 0x1 DUP2 PUSH1 0x1 AND ISZERO PUSH2 0x100 MUL SUB AND PUSH1 0x2 SWAP1 DIV SWAP1 PUSH1 0x0 MSTORE PUSH1 0x20 PUSH1 0x0 KECCAK256 SWAP1 PUSH1 0x1F ADD PUSH1 0x20 SWAP1 DIV DUP2 ADD SWAP3 DUP3 PUSH1 0x1F LT PUSH2 0x13FC JUMPI DUP1 MLOAD PUSH1 0xFF NOT AND DUP4 DUP1 ADD OR DUP6 SSTORE PUSH2 0x142A JUMP JUMPDEST DUP3 DUP1 ADD PUSH1 0x1 ADD DUP6 SSTORE DUP3 ISZERO PUSH2 0x142A JUMPI SWAP2 DUP3 ADD JUMPDEST DUP3 DUP2 GT ISZERO PUSH2 0x1429 JUMPI DUP3 MLOAD DUP3 SSTORE SWAP2 PUSH1 0x20 ADD SWAP2 SWAP1 PUSH1 0x1 ADD SWAP1 PUSH2 0x140E JUMP JUMPDEST JUMPDEST POP SWAP1 POP PUSH2 0x1437 SWAP2 SWAP1 PUSH2 0x143B JUMP JUMPDEST POP SWAP1 JUMP JUMPDEST PUSH2 0x145D SWAP2 SWAP1 JUMPDEST DUP1 DUP3 GT ISZERO PUSH2 0x1459 JUMPI PUSH1 0x0 DUP2 PUSH1 0x0 SWAP1 SSTORE POP PUSH1 0x1 ADD PUSH2 0x1441 JUMP JUMPDEST POP SWAP1 JUMP JUMPDEST SWAP1 JUMP STOP LOG1 PUSH6 0x627A7A723058 KECCAK256 SWAP13 0xcc SWAP13 JUMP 0xf9 KECCAK256 PUSH7 0x7582FB2A2F01BA RETURNDATACOPY DIV PUSH24 0xF209F8D0999909BE66549506A09AB8002900000000000000 "
				},
				"gasEstimates": {
					"creation": {
						"codeDepositCost": "1052000",
						"executionCost": "41342",
						"totalCost": "1093342"
					},
					"external": {
						"cooldownTime()": "592",
						"createRandomDragon(string)": "infinite",
						"damage(uint256,uint256)": "infinite",
						"dragonAlive()": "570",
						"dragonAttacker(uint256,address)": "914",
						"dragonAttackerCount(uint256)": "746",
						"dragons(uint256)": "infinite",
						"dragonsOfAttacker(address,uint256)": "869",
						"getBornedDragons()": "520",
						"getDragonsOfAttackerSize(address)": "699",
						"isReady(uint256,address)": "1000",
						"owner()": "596",
						"remainNextAttackTime(uint256,address)": "743",
						"renounceOwnership()": "22161",
						"resetCoolTime(uint256,address)": "5414",
						"transferOwnership(address)": "22829"
					},
					"internal": {
						"_killedDragon(uint256)": "infinite"
					}
				},
				"methodIdentifiers": {
					"cooldownTime()": "b319c6b7",
					"createRandomDragon(string)": "fdccc83e",
					"damage(uint256,uint256)": "f3fc7b24",
					"dragonAlive()": "9c7a709a",
					"dragonAttacker(uint256,address)": "393e6f35",
					"dragonAttackerCount(uint256)": "d0a9c498",
					"dragons(uint256)": "d2a59d69",
					"dragonsOfAttacker(address,uint256)": "38ced053",
					"getBornedDragons()": "76a0ab15",
					"getDragonsOfAttackerSize(address)": "85c9bed8",
					"isReady(uint256,address)": "f82e6e62",
					"owner()": "8da5cb5b",
					"remainNextAttackTime(uint256,address)": "6ad0f3dc",
					"renounceOwnership()": "715018a6",
					"resetCoolTime(uint256,address)": "17db085f",
					"transferOwnership(address)": "f2fde38b"
				}
			},
			"userdoc": {
				"methods": {}
			}
		}
	}
}