{
	"contracts/CrowdSale.sol": {
		"AllowanceCrowdsale": {
			"abi": [
				{
					"constant": true,
					"inputs": [],
					"name": "rate",
					"outputs": [
						{
							"name": "",
							"type": "uint256"
						}
					],
					"payable": false,
					"stateMutability": "view",
					"type": "function"
				},
				{
					"constant": true,
					"inputs": [],
					"name": "weiRaised",
					"outputs": [
						{
							"name": "",
							"type": "uint256"
						}
					],
					"payable": false,
					"stateMutability": "view",
					"type": "function"
				},
				{
					"constant": true,
					"inputs": [],
					"name": "wallet",
					"outputs": [
						{
							"name": "",
							"type": "address"
						}
					],
					"payable": false,
					"stateMutability": "view",
					"type": "function"
				},
				{
					"constant": true,
					"inputs": [],
					"name": "remainingTokens",
					"outputs": [
						{
							"name": "",
							"type": "uint256"
						}
					],
					"payable": false,
					"stateMutability": "view",
					"type": "function"
				},
				{
					"constant": true,
					"inputs": [],
					"name": "tokenWallet",
					"outputs": [
						{
							"name": "",
							"type": "address"
						}
					],
					"payable": false,
					"stateMutability": "view",
					"type": "function"
				},
				{
					"constant": false,
					"inputs": [
						{
							"name": "_beneficiary",
							"type": "address"
						}
					],
					"name": "buyTokens",
					"outputs": [],
					"payable": true,
					"stateMutability": "payable",
					"type": "function"
				},
				{
					"constant": true,
					"inputs": [],
					"name": "token",
					"outputs": [
						{
							"name": "",
							"type": "address"
						}
					],
					"payable": false,
					"stateMutability": "view",
					"type": "function"
				},
				{
					"inputs": [
						{
							"name": "_rate",
							"type": "uint256"
						},
						{
							"name": "_wallet",
							"type": "address"
						},
						{
							"name": "_token",
							"type": "address"
						},
						{
							"name": "_tokenWallet",
							"type": "address"
						}
					],
					"payable": false,
					"stateMutability": "nonpayable",
					"type": "constructor"
				},
				{
					"payable": true,
					"stateMutability": "payable",
					"type": "fallback"
				},
				{
					"anonymous": false,
					"inputs": [
						{
							"indexed": true,
							"name": "purchaser",
							"type": "address"
						},
						{
							"indexed": true,
							"name": "beneficiary",
							"type": "address"
						},
						{
							"indexed": false,
							"name": "value",
							"type": "uint256"
						},
						{
							"indexed": false,
							"name": "amount",
							"type": "uint256"
						}
					],
					"name": "TokenPurchase",
					"type": "event"
				}
			],
			"devdoc": {
				"methods": {}
			},
			"evm": {
				"assembly": "    /* \"contracts/CrowdSale.sol\":4647:5303  contract AllowanceCrowdsale is Crowdsale {\r... */\n  mstore(0x40, 0x80)\n    /* \"contracts/CrowdSale.sol\":4765:4977  constructor(uint256 _rate, address _wallet, ERC20 _token, address _tokenWallet) Crowdsale(_rate, _wallet, _token) public {\r... */\n  callvalue\n    /* \"--CODEGEN--\":8:17   */\n  dup1\n    /* \"--CODEGEN--\":5:7   */\n  iszero\n  tag_1\n  jumpi\n    /* \"--CODEGEN--\":30:31   */\n  0x0\n    /* \"--CODEGEN--\":27:28   */\n  dup1\n    /* \"--CODEGEN--\":20:32   */\n  revert\n    /* \"--CODEGEN--\":5:7   */\ntag_1:\n    /* \"contracts/CrowdSale.sol\":4765:4977  constructor(uint256 _rate, address _wallet, ERC20 _token, address _tokenWallet) Crowdsale(_rate, _wallet, _token) public {\r... */\n  pop\n  mload(0x40)\n  0x80\n  dup1\n  bytecodeSize\n  dup4\n  codecopy\n  dup2\n  add\n  dup1\n  0x40\n  mstore\n  dup2\n  add\n  swap1\n  dup1\n  dup1\n  mload\n  swap1\n  0x20\n  add\n  swap1\n  swap3\n  swap2\n  swap1\n  dup1\n  mload\n  swap1\n  0x20\n  add\n  swap1\n  swap3\n  swap2\n  swap1\n  dup1\n  mload\n  swap1\n  0x20\n  add\n  swap1\n  swap3\n  swap2\n  swap1\n  dup1\n  mload\n  swap1\n  0x20\n  add\n  swap1\n  swap3\n  swap2\n  swap1\n  pop\n  pop\n  pop\n    /* \"contracts/CrowdSale.sol\":4855:4860  _rate */\n  dup4\n    /* \"contracts/CrowdSale.sol\":4862:4869  _wallet */\n  dup4\n    /* \"contracts/CrowdSale.sol\":4871:4877  _token */\n  dup4\n    /* \"contracts/CrowdSale.sol\":2114:2115  0 */\n  0x0\n    /* \"contracts/CrowdSale.sol\":2106:2111  _rate */\n  dup4\n    /* \"contracts/CrowdSale.sol\":2106:2115  _rate > 0 */\n  gt\n    /* \"contracts/CrowdSale.sol\":2098:2116  require(_rate > 0) */\n  iszero\n  iszero\n  tag_5\n  jumpi\n  0x0\n  dup1\n  revert\ntag_5:\n    /* \"contracts/CrowdSale.sol\":2154:2155  0 */\n  0x0\n    /* \"contracts/CrowdSale.sol\":2135:2156  _wallet != address(0) */\n  0xffffffffffffffffffffffffffffffffffffffff\n  and\n    /* \"contracts/CrowdSale.sol\":2135:2142  _wallet */\n  dup3\n    /* \"contracts/CrowdSale.sol\":2135:2156  _wallet != address(0) */\n  0xffffffffffffffffffffffffffffffffffffffff\n  and\n  eq\n  iszero\n    /* \"contracts/CrowdSale.sol\":2127:2157  require(_wallet != address(0)) */\n  iszero\n  iszero\n  tag_6\n  jumpi\n  0x0\n  dup1\n  revert\ntag_6:\n    /* \"contracts/CrowdSale.sol\":2194:2195  0 */\n  0x0\n    /* \"contracts/CrowdSale.sol\":2176:2196  _token != address(0) */\n  0xffffffffffffffffffffffffffffffffffffffff\n  and\n    /* \"contracts/CrowdSale.sol\":2176:2182  _token */\n  dup2\n    /* \"contracts/CrowdSale.sol\":2176:2196  _token != address(0) */\n  0xffffffffffffffffffffffffffffffffffffffff\n  and\n  eq\n  iszero\n    /* \"contracts/CrowdSale.sol\":2168:2197  require(_token != address(0)) */\n  iszero\n  iszero\n  tag_7\n  jumpi\n  0x0\n  dup1\n  revert\ntag_7:\n    /* \"contracts/CrowdSale.sol\":2217:2222  _rate */\n  dup3\n    /* \"contracts/CrowdSale.sol\":2210:2214  rate */\n  0x2\n    /* \"contracts/CrowdSale.sol\":2210:2222  rate = _rate */\n  dup2\n  swap1\n  sstore\n  pop\n    /* \"contracts/CrowdSale.sol\":2242:2249  _wallet */\n  dup2\n    /* \"contracts/CrowdSale.sol\":2233:2239  wallet */\n  0x1\n  0x0\n    /* \"contracts/CrowdSale.sol\":2233:2249  wallet = _wallet */\n  0x100\n  exp\n  dup2\n  sload\n  dup2\n  0xffffffffffffffffffffffffffffffffffffffff\n  mul\n  not\n  and\n  swap1\n  dup4\n  0xffffffffffffffffffffffffffffffffffffffff\n  and\n  mul\n  or\n  swap1\n  sstore\n  pop\n    /* \"contracts/CrowdSale.sol\":2268:2274  _token */\n  dup1\n    /* \"contracts/CrowdSale.sol\":2260:2265  token */\n  0x0\n  dup1\n    /* \"contracts/CrowdSale.sol\":2260:2274  token = _token */\n  0x100\n  exp\n  dup2\n  sload\n  dup2\n  0xffffffffffffffffffffffffffffffffffffffff\n  mul\n  not\n  and\n  swap1\n  dup4\n  0xffffffffffffffffffffffffffffffffffffffff\n  and\n  mul\n  or\n  swap1\n  sstore\n  pop\n    /* \"contracts/CrowdSale.sol\":2022:2282  constructor(uint256 _rate, address _wallet, ERC20 _token) public {\r... */\n  pop\n  pop\n  pop\n    /* \"contracts/CrowdSale.sol\":4929:4930  0 */\n  0x0\n    /* \"contracts/CrowdSale.sol\":4905:4931  _tokenWallet != address(0) */\n  0xffffffffffffffffffffffffffffffffffffffff\n  and\n    /* \"contracts/CrowdSale.sol\":4905:4917  _tokenWallet */\n  dup2\n    /* \"contracts/CrowdSale.sol\":4905:4931  _tokenWallet != address(0) */\n  0xffffffffffffffffffffffffffffffffffffffff\n  and\n  eq\n  iszero\n    /* \"contracts/CrowdSale.sol\":4897:4932  require(_tokenWallet != address(0)) */\n  iszero\n  iszero\n  tag_9\n  jumpi\n  0x0\n  dup1\n  revert\ntag_9:\n    /* \"contracts/CrowdSale.sol\":4957:4969  _tokenWallet */\n  dup1\n    /* \"contracts/CrowdSale.sol\":4943:4954  tokenWallet */\n  0x4\n  0x0\n    /* \"contracts/CrowdSale.sol\":4943:4969  tokenWallet = _tokenWallet */\n  0x100\n  exp\n  dup2\n  sload\n  dup2\n  0xffffffffffffffffffffffffffffffffffffffff\n  mul\n  not\n  and\n  swap1\n  dup4\n  0xffffffffffffffffffffffffffffffffffffffff\n  and\n  mul\n  or\n  swap1\n  sstore\n  pop\n    /* \"contracts/CrowdSale.sol\":4765:4977  constructor(uint256 _rate, address _wallet, ERC20 _token, address _tokenWallet) Crowdsale(_rate, _wallet, _token) public {\r... */\n  pop\n  pop\n  pop\n  pop\n    /* \"contracts/CrowdSale.sol\":4647:5303  contract AllowanceCrowdsale is Crowdsale {\r... */\n  dataSize(sub_0)\n  dup1\n  dataOffset(sub_0)\n  0x0\n  codecopy\n  0x0\n  return\nstop\n\nsub_0: assembly {\n        /* \"contracts/CrowdSale.sol\":4647:5303  contract AllowanceCrowdsale is Crowdsale {\r... */\n      mstore(0x40, 0x80)\n      jumpi(tag_1, lt(calldatasize, 0x4))\n      calldataload(0x0)\n      0x100000000000000000000000000000000000000000000000000000000\n      swap1\n      div\n      0xffffffff\n      and\n      dup1\n      0x2c4e722e\n      eq\n      tag_2\n      jumpi\n      dup1\n      0x4042b66f\n      eq\n      tag_3\n      jumpi\n      dup1\n      0x521eb273\n      eq\n      tag_4\n      jumpi\n      dup1\n      0xbf583903\n      eq\n      tag_5\n      jumpi\n      dup1\n      0xbff99c6c\n      eq\n      tag_6\n      jumpi\n      dup1\n      0xec8ac4d8\n      eq\n      tag_7\n      jumpi\n      dup1\n      0xfc0c546a\n      eq\n      tag_8\n      jumpi\n    tag_1:\n        /* \"contracts/CrowdSale.sol\":2328:2349  buyTokens(msg.sender) */\n      tag_11\n        /* \"contracts/CrowdSale.sol\":2338:2348  msg.sender */\n      caller\n        /* \"contracts/CrowdSale.sol\":2328:2337  buyTokens */\n      tag_12\n        /* \"contracts/CrowdSale.sol\":2328:2349  buyTokens(msg.sender) */\n      jump\t// in\n    tag_11:\n        /* \"contracts/CrowdSale.sol\":4647:5303  contract AllowanceCrowdsale is Crowdsale {\r... */\n      stop\n        /* \"contracts/CrowdSale.sol\":1774:1793  uint256 public rate */\n    tag_2:\n      callvalue\n        /* \"--CODEGEN--\":8:17   */\n      dup1\n        /* \"--CODEGEN--\":5:7   */\n      iszero\n      tag_13\n      jumpi\n        /* \"--CODEGEN--\":30:31   */\n      0x0\n        /* \"--CODEGEN--\":27:28   */\n      dup1\n        /* \"--CODEGEN--\":20:32   */\n      revert\n        /* \"--CODEGEN--\":5:7   */\n    tag_13:\n        /* \"contracts/CrowdSale.sol\":1774:1793  uint256 public rate */\n      pop\n      tag_14\n      jump(tag_15)\n    tag_14:\n      mload(0x40)\n      dup1\n      dup3\n      dup2\n      mstore\n      0x20\n      add\n      swap2\n      pop\n      pop\n      mload(0x40)\n      dup1\n      swap2\n      sub\n      swap1\n      return\n        /* \"contracts/CrowdSale.sol\":1831:1855  uint256 public weiRaised */\n    tag_3:\n      callvalue\n        /* \"--CODEGEN--\":8:17   */\n      dup1\n        /* \"--CODEGEN--\":5:7   */\n      iszero\n      tag_16\n      jumpi\n        /* \"--CODEGEN--\":30:31   */\n      0x0\n        /* \"--CODEGEN--\":27:28   */\n      dup1\n        /* \"--CODEGEN--\":20:32   */\n      revert\n        /* \"--CODEGEN--\":5:7   */\n    tag_16:\n        /* \"contracts/CrowdSale.sol\":1831:1855  uint256 public weiRaised */\n      pop\n      tag_17\n      jump(tag_18)\n    tag_17:\n      mload(0x40)\n      dup1\n      dup3\n      dup2\n      mstore\n      0x20\n      add\n      swap2\n      pop\n      pop\n      mload(0x40)\n      dup1\n      swap2\n      sub\n      swap1\n      return\n        /* \"contracts/CrowdSale.sol\":1694:1715  address public wallet */\n    tag_4:\n      callvalue\n        /* \"--CODEGEN--\":8:17   */\n      dup1\n        /* \"--CODEGEN--\":5:7   */\n      iszero\n      tag_19\n      jumpi\n        /* \"--CODEGEN--\":30:31   */\n      0x0\n        /* \"--CODEGEN--\":27:28   */\n      dup1\n        /* \"--CODEGEN--\":20:32   */\n      revert\n        /* \"--CODEGEN--\":5:7   */\n    tag_19:\n        /* \"contracts/CrowdSale.sol\":1694:1715  address public wallet */\n      pop\n      tag_20\n      jump(tag_21)\n    tag_20:\n      mload(0x40)\n      dup1\n      dup3\n      0xffffffffffffffffffffffffffffffffffffffff\n      and\n      0xffffffffffffffffffffffffffffffffffffffff\n      and\n      dup2\n      mstore\n      0x20\n      add\n      swap2\n      pop\n      pop\n      mload(0x40)\n      dup1\n      swap2\n      sub\n      swap1\n      return\n        /* \"contracts/CrowdSale.sol\":4985:5102  function remainingTokens() public view returns (uint256) {\r... */\n    tag_5:\n      callvalue\n        /* \"--CODEGEN--\":8:17   */\n      dup1\n        /* \"--CODEGEN--\":5:7   */\n      iszero\n      tag_22\n      jumpi\n        /* \"--CODEGEN--\":30:31   */\n      0x0\n        /* \"--CODEGEN--\":27:28   */\n      dup1\n        /* \"--CODEGEN--\":20:32   */\n      revert\n        /* \"--CODEGEN--\":5:7   */\n    tag_22:\n        /* \"contracts/CrowdSale.sol\":4985:5102  function remainingTokens() public view returns (uint256) {\r... */\n      pop\n      tag_23\n      jump(tag_24)\n    tag_23:\n      mload(0x40)\n      dup1\n      dup3\n      dup2\n      mstore\n      0x20\n      add\n      swap2\n      pop\n      pop\n      mload(0x40)\n      dup1\n      swap2\n      sub\n      swap1\n      return\n        /* \"contracts/CrowdSale.sol\":4730:4756  address public tokenWallet */\n    tag_6:\n      callvalue\n        /* \"--CODEGEN--\":8:17   */\n      dup1\n        /* \"--CODEGEN--\":5:7   */\n      iszero\n      tag_25\n      jumpi\n        /* \"--CODEGEN--\":30:31   */\n      0x0\n        /* \"--CODEGEN--\":27:28   */\n      dup1\n        /* \"--CODEGEN--\":20:32   */\n      revert\n        /* \"--CODEGEN--\":5:7   */\n    tag_25:\n        /* \"contracts/CrowdSale.sol\":4730:4756  address public tokenWallet */\n      pop\n      tag_26\n      jump(tag_27)\n    tag_26:\n      mload(0x40)\n      dup1\n      dup3\n      0xffffffffffffffffffffffffffffffffffffffff\n      and\n      0xffffffffffffffffffffffffffffffffffffffff\n      and\n      dup2\n      mstore\n      0x20\n      add\n      swap2\n      pop\n      pop\n      mload(0x40)\n      dup1\n      swap2\n      sub\n      swap1\n      return\n        /* \"contracts/CrowdSale.sol\":2365:3039  function buyTokens(address _beneficiary) public payable {\r... */\n    tag_7:\n      tag_28\n      0x4\n      dup1\n      calldatasize\n      sub\n      dup2\n      add\n      swap1\n      dup1\n      dup1\n      calldataload\n      0xffffffffffffffffffffffffffffffffffffffff\n      and\n      swap1\n      0x20\n      add\n      swap1\n      swap3\n      swap2\n      swap1\n      pop\n      pop\n      pop\n      jump(tag_12)\n    tag_28:\n      stop\n        /* \"contracts/CrowdSale.sol\":1625:1643  ERC20 public token */\n    tag_8:\n      callvalue\n        /* \"--CODEGEN--\":8:17   */\n      dup1\n        /* \"--CODEGEN--\":5:7   */\n      iszero\n      tag_29\n      jumpi\n        /* \"--CODEGEN--\":30:31   */\n      0x0\n        /* \"--CODEGEN--\":27:28   */\n      dup1\n        /* \"--CODEGEN--\":20:32   */\n      revert\n        /* \"--CODEGEN--\":5:7   */\n    tag_29:\n        /* \"contracts/CrowdSale.sol\":1625:1643  ERC20 public token */\n      pop\n      tag_30\n      jump(tag_31)\n    tag_30:\n      mload(0x40)\n      dup1\n      dup3\n      0xffffffffffffffffffffffffffffffffffffffff\n      and\n      0xffffffffffffffffffffffffffffffffffffffff\n      and\n      dup2\n      mstore\n      0x20\n      add\n      swap2\n      pop\n      pop\n      mload(0x40)\n      dup1\n      swap2\n      sub\n      swap1\n      return\n        /* \"contracts/CrowdSale.sol\":2365:3039  function buyTokens(address _beneficiary) public payable {\r... */\n    tag_12:\n        /* \"contracts/CrowdSale.sol\":2434:2451  uint256 weiAmount */\n      0x0\n        /* \"contracts/CrowdSale.sol\":2581:2595  uint256 tokens */\n      dup1\n        /* \"contracts/CrowdSale.sol\":2454:2463  msg.value */\n      callvalue\n        /* \"contracts/CrowdSale.sol\":2434:2463  uint256 weiAmount = msg.value */\n      swap2\n      pop\n        /* \"contracts/CrowdSale.sol\":2474:2519  _preValidatePurchase(_beneficiary, weiAmount) */\n      tag_33\n        /* \"contracts/CrowdSale.sol\":2495:2507  _beneficiary */\n      dup4\n        /* \"contracts/CrowdSale.sol\":2509:2518  weiAmount */\n      dup4\n        /* \"contracts/CrowdSale.sol\":2474:2494  _preValidatePurchase */\n      tag_34\n        /* \"contracts/CrowdSale.sol\":2474:2519  _preValidatePurchase(_beneficiary, weiAmount) */\n      jump\t// in\n    tag_33:\n        /* \"contracts/CrowdSale.sol\":2598:2624  _getTokenAmount(weiAmount) */\n      tag_35\n        /* \"contracts/CrowdSale.sol\":2614:2623  weiAmount */\n      dup3\n        /* \"contracts/CrowdSale.sol\":2598:2613  _getTokenAmount */\n      tag_36\n        /* \"contracts/CrowdSale.sol\":2598:2624  _getTokenAmount(weiAmount) */\n      jump\t// in\n    tag_35:\n        /* \"contracts/CrowdSale.sol\":2581:2624  uint256 tokens = _getTokenAmount(weiAmount) */\n      swap1\n      pop\n        /* \"contracts/CrowdSale.sol\":2674:2698  weiRaised.add(weiAmount) */\n      tag_37\n        /* \"contracts/CrowdSale.sol\":2688:2697  weiAmount */\n      dup3\n        /* \"contracts/CrowdSale.sol\":2674:2683  weiRaised */\n      sload(0x3)\n        /* \"contracts/CrowdSale.sol\":2674:2687  weiRaised.add */\n      tag_38\n      swap1\n        /* \"contracts/CrowdSale.sol\":2674:2698  weiRaised.add(weiAmount) */\n      swap2\n      swap1\n      0xffffffff\n      and\n      jump\t// in\n    tag_37:\n        /* \"contracts/CrowdSale.sol\":2662:2671  weiRaised */\n      0x3\n        /* \"contracts/CrowdSale.sol\":2662:2698  weiRaised = weiRaised.add(weiAmount) */\n      dup2\n      swap1\n      sstore\n      pop\n        /* \"contracts/CrowdSale.sol\":2711:2749  _processPurchase(_beneficiary, tokens) */\n      tag_39\n        /* \"contracts/CrowdSale.sol\":2728:2740  _beneficiary */\n      dup4\n        /* \"contracts/CrowdSale.sol\":2742:2748  tokens */\n      dup3\n        /* \"contracts/CrowdSale.sol\":2711:2727  _processPurchase */\n      tag_40\n        /* \"contracts/CrowdSale.sol\":2711:2749  _processPurchase(_beneficiary, tokens) */\n      jump\t// in\n    tag_39:\n        /* \"contracts/CrowdSale.sol\":2818:2830  _beneficiary */\n      dup3\n        /* \"contracts/CrowdSale.sol\":2765:2886  TokenPurchase(\r... */\n      0xffffffffffffffffffffffffffffffffffffffff\n      and\n        /* \"contracts/CrowdSale.sol\":2793:2803  msg.sender */\n      caller\n        /* \"contracts/CrowdSale.sol\":2765:2886  TokenPurchase(\r... */\n      0xffffffffffffffffffffffffffffffffffffffff\n      and\n      0x623b3804fa71d67900d064613da8f94b9617215ee90799290593e1745087ad18\n        /* \"contracts/CrowdSale.sol\":2845:2854  weiAmount */\n      dup5\n        /* \"contracts/CrowdSale.sol\":2869:2875  tokens */\n      dup5\n        /* \"contracts/CrowdSale.sol\":2765:2886  TokenPurchase(\r... */\n      mload(0x40)\n      dup1\n      dup4\n      dup2\n      mstore\n      0x20\n      add\n      dup3\n      dup2\n      mstore\n      0x20\n      add\n      swap3\n      pop\n      pop\n      pop\n      mload(0x40)\n      dup1\n      swap2\n      sub\n      swap1\n      log3\n        /* \"contracts/CrowdSale.sol\":2899:2946  _updatePurchasingState(_beneficiary, weiAmount) */\n      tag_41\n        /* \"contracts/CrowdSale.sol\":2922:2934  _beneficiary */\n      dup4\n        /* \"contracts/CrowdSale.sol\":2936:2945  weiAmount */\n      dup4\n        /* \"contracts/CrowdSale.sol\":2899:2921  _updatePurchasingState */\n      tag_42\n        /* \"contracts/CrowdSale.sol\":2899:2946  _updatePurchasingState(_beneficiary, weiAmount) */\n      jump\t// in\n    tag_41:\n        /* \"contracts/CrowdSale.sol\":2959:2974  _forwardFunds() */\n      tag_43\n        /* \"contracts/CrowdSale.sol\":2959:2972  _forwardFunds */\n      tag_44\n        /* \"contracts/CrowdSale.sol\":2959:2974  _forwardFunds() */\n      jump\t// in\n    tag_43:\n        /* \"contracts/CrowdSale.sol\":2985:3031  _postValidatePurchase(_beneficiary, weiAmount) */\n      tag_45\n        /* \"contracts/CrowdSale.sol\":3007:3019  _beneficiary */\n      dup4\n        /* \"contracts/CrowdSale.sol\":3021:3030  weiAmount */\n      dup4\n        /* \"contracts/CrowdSale.sol\":2985:3006  _postValidatePurchase */\n      tag_46\n        /* \"contracts/CrowdSale.sol\":2985:3031  _postValidatePurchase(_beneficiary, weiAmount) */\n      jump\t// in\n    tag_45:\n        /* \"contracts/CrowdSale.sol\":2365:3039  function buyTokens(address _beneficiary) public payable {\r... */\n      pop\n      pop\n      pop\n      jump\t// out\n        /* \"contracts/CrowdSale.sol\":1774:1793  uint256 public rate */\n    tag_15:\n      sload(0x2)\n      dup2\n      jump\t// out\n        /* \"contracts/CrowdSale.sol\":1831:1855  uint256 public weiRaised */\n    tag_18:\n      sload(0x3)\n      dup2\n      jump\t// out\n        /* \"contracts/CrowdSale.sol\":1694:1715  address public wallet */\n    tag_21:\n      0x1\n      0x0\n      swap1\n      sload\n      swap1\n      0x100\n      exp\n      swap1\n      div\n      0xffffffffffffffffffffffffffffffffffffffff\n      and\n      dup2\n      jump\t// out\n        /* \"contracts/CrowdSale.sol\":4985:5102  function remainingTokens() public view returns (uint256) {\r... */\n    tag_24:\n        /* \"contracts/CrowdSale.sol\":5033:5040  uint256 */\n      0x0\n        /* \"contracts/CrowdSale.sol\":5060:5065  token */\n      dup1\n      0x0\n      swap1\n      sload\n      swap1\n      0x100\n      exp\n      swap1\n      div\n      0xffffffffffffffffffffffffffffffffffffffff\n      and\n        /* \"contracts/CrowdSale.sol\":5060:5075  token.allowance */\n      0xffffffffffffffffffffffffffffffffffffffff\n      and\n      0xdd62ed3e\n        /* \"contracts/CrowdSale.sol\":5076:5087  tokenWallet */\n      0x4\n      0x0\n      swap1\n      sload\n      swap1\n      0x100\n      exp\n      swap1\n      div\n      0xffffffffffffffffffffffffffffffffffffffff\n      and\n        /* \"contracts/CrowdSale.sol\":5089:5093  this */\n      address\n        /* \"contracts/CrowdSale.sol\":5060:5094  token.allowance(tokenWallet, this) */\n      mload(0x40)\n      dup4\n      0xffffffff\n      and\n      0x100000000000000000000000000000000000000000000000000000000\n      mul\n      dup2\n      mstore\n      0x4\n      add\n      dup1\n      dup4\n      0xffffffffffffffffffffffffffffffffffffffff\n      and\n      0xffffffffffffffffffffffffffffffffffffffff\n      and\n      dup2\n      mstore\n      0x20\n      add\n      dup3\n      0xffffffffffffffffffffffffffffffffffffffff\n      and\n      0xffffffffffffffffffffffffffffffffffffffff\n      and\n      dup2\n      mstore\n      0x20\n      add\n      swap3\n      pop\n      pop\n      pop\n      0x20\n      mload(0x40)\n      dup1\n      dup4\n      sub\n      dup2\n      0x0\n      dup8\n      dup1\n      extcodesize\n      iszero\n        /* \"--CODEGEN--\":8:17   */\n      dup1\n        /* \"--CODEGEN--\":5:7   */\n      iszero\n      tag_48\n      jumpi\n        /* \"--CODEGEN--\":30:31   */\n      0x0\n        /* \"--CODEGEN--\":27:28   */\n      dup1\n        /* \"--CODEGEN--\":20:32   */\n      revert\n        /* \"--CODEGEN--\":5:7   */\n    tag_48:\n        /* \"contracts/CrowdSale.sol\":5060:5094  token.allowance(tokenWallet, this) */\n      pop\n      gas\n      call\n      iszero\n        /* \"--CODEGEN--\":8:17   */\n      dup1\n        /* \"--CODEGEN--\":5:7   */\n      iszero\n      tag_49\n      jumpi\n        /* \"--CODEGEN--\":45:61   */\n      returndatasize\n        /* \"--CODEGEN--\":42:43   */\n      0x0\n        /* \"--CODEGEN--\":39:40   */\n      dup1\n        /* \"--CODEGEN--\":24:62   */\n      returndatacopy\n        /* \"--CODEGEN--\":77:93   */\n      returndatasize\n        /* \"--CODEGEN--\":74:75   */\n      0x0\n        /* \"--CODEGEN--\":67:94   */\n      revert\n        /* \"--CODEGEN--\":5:7   */\n    tag_49:\n        /* \"contracts/CrowdSale.sol\":5060:5094  token.allowance(tokenWallet, this) */\n      pop\n      pop\n      pop\n      pop\n      mload(0x40)\n      returndatasize\n        /* \"--CODEGEN--\":13:15   */\n      0x20\n        /* \"--CODEGEN--\":8:11   */\n      dup2\n        /* \"--CODEGEN--\":5:16   */\n      lt\n        /* \"--CODEGEN--\":2:4   */\n      iszero\n      tag_50\n      jumpi\n        /* \"--CODEGEN--\":29:30   */\n      0x0\n        /* \"--CODEGEN--\":26:27   */\n      dup1\n        /* \"--CODEGEN--\":19:31   */\n      revert\n        /* \"--CODEGEN--\":2:4   */\n    tag_50:\n        /* \"contracts/CrowdSale.sol\":5060:5094  token.allowance(tokenWallet, this) */\n      dup2\n      add\n      swap1\n      dup1\n      dup1\n      mload\n      swap1\n      0x20\n      add\n      swap1\n      swap3\n      swap2\n      swap1\n      pop\n      pop\n      pop\n        /* \"contracts/CrowdSale.sol\":5053:5094  return token.allowance(tokenWallet, this) */\n      swap1\n      pop\n        /* \"contracts/CrowdSale.sol\":4985:5102  function remainingTokens() public view returns (uint256) {\r... */\n      swap1\n      jump\t// out\n        /* \"contracts/CrowdSale.sol\":4730:4756  address public tokenWallet */\n    tag_27:\n      0x4\n      0x0\n      swap1\n      sload\n      swap1\n      0x100\n      exp\n      swap1\n      div\n      0xffffffffffffffffffffffffffffffffffffffff\n      and\n      dup2\n      jump\t// out\n        /* \"contracts/CrowdSale.sol\":1625:1643  ERC20 public token */\n    tag_31:\n      0x0\n      dup1\n      swap1\n      sload\n      swap1\n      0x100\n      exp\n      swap1\n      div\n      0xffffffffffffffffffffffffffffffffffffffff\n      and\n      dup2\n      jump\t// out\n        /* \"contracts/CrowdSale.sol\":3047:3252  function _preValidatePurchase(\r... */\n    tag_34:\n        /* \"contracts/CrowdSale.sol\":3206:3207  0 */\n      0x0\n        /* \"contracts/CrowdSale.sol\":3182:3208  _beneficiary != address(0) */\n      0xffffffffffffffffffffffffffffffffffffffff\n      and\n        /* \"contracts/CrowdSale.sol\":3182:3194  _beneficiary */\n      dup3\n        /* \"contracts/CrowdSale.sol\":3182:3208  _beneficiary != address(0) */\n      0xffffffffffffffffffffffffffffffffffffffff\n      and\n      eq\n      iszero\n        /* \"contracts/CrowdSale.sol\":3174:3209  require(_beneficiary != address(0)) */\n      iszero\n      iszero\n      tag_52\n      jumpi\n      0x0\n      dup1\n      revert\n    tag_52:\n        /* \"contracts/CrowdSale.sol\":3242:3243  0 */\n      0x0\n        /* \"contracts/CrowdSale.sol\":3228:3238  _weiAmount */\n      dup2\n        /* \"contracts/CrowdSale.sol\":3228:3243  _weiAmount != 0 */\n      eq\n      iszero\n        /* \"contracts/CrowdSale.sol\":3220:3244  require(_weiAmount != 0) */\n      iszero\n      iszero\n      tag_53\n      jumpi\n      0x0\n      dup1\n      revert\n    tag_53:\n        /* \"contracts/CrowdSale.sol\":3047:3252  function _preValidatePurchase(\r... */\n      pop\n      pop\n      jump\t// out\n        /* \"contracts/CrowdSale.sol\":3951:4084  function _getTokenAmount(uint256 _weiAmount)\r... */\n    tag_36:\n        /* \"contracts/CrowdSale.sol\":4024:4031  uint256 */\n      0x0\n        /* \"contracts/CrowdSale.sol\":4056:4076  _weiAmount.mul(rate) */\n      tag_55\n        /* \"contracts/CrowdSale.sol\":4071:4075  rate */\n      sload(0x2)\n        /* \"contracts/CrowdSale.sol\":4056:4066  _weiAmount */\n      dup4\n        /* \"contracts/CrowdSale.sol\":4056:4070  _weiAmount.mul */\n      tag_56\n      swap1\n        /* \"contracts/CrowdSale.sol\":4056:4076  _weiAmount.mul(rate) */\n      swap2\n      swap1\n      0xffffffff\n      and\n      jump\t// in\n    tag_55:\n        /* \"contracts/CrowdSale.sol\":4049:4076  return _weiAmount.mul(rate) */\n      swap1\n      pop\n        /* \"contracts/CrowdSale.sol\":3951:4084  function _getTokenAmount(uint256 _weiAmount)\r... */\n      swap2\n      swap1\n      pop\n      jump\t// out\n        /* \"contracts/CrowdSale.sol\":1379:1526  function add(uint256 a, uint256 b) internal pure returns (uint256) {\r... */\n    tag_38:\n        /* \"contracts/CrowdSale.sol\":1437:1444  uint256 */\n      0x0\n        /* \"contracts/CrowdSale.sol\":1457:1466  uint256 c */\n      dup1\n        /* \"contracts/CrowdSale.sol\":1473:1474  b */\n      dup3\n        /* \"contracts/CrowdSale.sol\":1469:1470  a */\n      dup5\n        /* \"contracts/CrowdSale.sol\":1469:1474  a + b */\n      add\n        /* \"contracts/CrowdSale.sol\":1457:1474  uint256 c = a + b */\n      swap1\n      pop\n        /* \"contracts/CrowdSale.sol\":1497:1498  a */\n      dup4\n        /* \"contracts/CrowdSale.sol\":1492:1493  c */\n      dup2\n        /* \"contracts/CrowdSale.sol\":1492:1498  c >= a */\n      lt\n      iszero\n        /* \"contracts/CrowdSale.sol\":1485:1499  assert(c >= a) */\n      iszero\n      iszero\n      tag_58\n      jumpi\n      invalid\n    tag_58:\n        /* \"contracts/CrowdSale.sol\":1517:1518  c */\n      dup1\n        /* \"contracts/CrowdSale.sol\":1510:1518  return c */\n      swap2\n      pop\n        /* \"contracts/CrowdSale.sol\":1379:1526  function add(uint256 a, uint256 b) internal pure returns (uint256) {\r... */\n      pop\n      swap3\n      swap2\n      pop\n      pop\n      jump\t// out\n        /* \"contracts/CrowdSale.sol\":3604:3779  function _processPurchase(\r... */\n    tag_40:\n        /* \"contracts/CrowdSale.sol\":3729:3771  _deliverTokens(_beneficiary, _tokenAmount) */\n      tag_60\n        /* \"contracts/CrowdSale.sol\":3744:3756  _beneficiary */\n      dup3\n        /* \"contracts/CrowdSale.sol\":3758:3770  _tokenAmount */\n      dup3\n        /* \"contracts/CrowdSale.sol\":3729:3743  _deliverTokens */\n      tag_61\n        /* \"contracts/CrowdSale.sol\":3729:3771  _deliverTokens(_beneficiary, _tokenAmount) */\n      jump\t// in\n    tag_60:\n        /* \"contracts/CrowdSale.sol\":3604:3779  function _processPurchase(\r... */\n      pop\n      pop\n      jump\t// out\n        /* \"contracts/CrowdSale.sol\":3787:3943  function _updatePurchasingState(\r... */\n    tag_42:\n      pop\n      pop\n      jump\t// out\n        /* \"contracts/CrowdSale.sol\":4092:4171  function _forwardFunds() internal {\r... */\n    tag_44:\n        /* \"contracts/CrowdSale.sol\":4137:4143  wallet */\n      0x1\n      0x0\n      swap1\n      sload\n      swap1\n      0x100\n      exp\n      swap1\n      div\n      0xffffffffffffffffffffffffffffffffffffffff\n      and\n        /* \"contracts/CrowdSale.sol\":4137:4152  wallet.transfer */\n      0xffffffffffffffffffffffffffffffffffffffff\n      and\n        /* \"contracts/CrowdSale.sol\":4137:4163  wallet.transfer(msg.value) */\n      0x8fc\n        /* \"contracts/CrowdSale.sol\":4153:4162  msg.value */\n      callvalue\n        /* \"contracts/CrowdSale.sol\":4137:4163  wallet.transfer(msg.value) */\n      swap1\n      dup2\n      iszero\n      mul\n      swap1\n      mload(0x40)\n      0x0\n      mload(0x40)\n      dup1\n      dup4\n      sub\n      dup2\n      dup6\n      dup9\n      dup9\n      call\n      swap4\n      pop\n      pop\n      pop\n      pop\n      iszero\n        /* \"--CODEGEN--\":8:17   */\n      dup1\n        /* \"--CODEGEN--\":5:7   */\n      iszero\n      tag_64\n      jumpi\n        /* \"--CODEGEN--\":45:61   */\n      returndatasize\n        /* \"--CODEGEN--\":42:43   */\n      0x0\n        /* \"--CODEGEN--\":39:40   */\n      dup1\n        /* \"--CODEGEN--\":24:62   */\n      returndatacopy\n        /* \"--CODEGEN--\":77:93   */\n      returndatasize\n        /* \"--CODEGEN--\":74:75   */\n      0x0\n        /* \"--CODEGEN--\":67:94   */\n      revert\n        /* \"--CODEGEN--\":5:7   */\n    tag_64:\n        /* \"contracts/CrowdSale.sol\":4137:4163  wallet.transfer(msg.value) */\n      pop\n        /* \"contracts/CrowdSale.sol\":4092:4171  function _forwardFunds() internal {\r... */\n      jump\t// out\n        /* \"contracts/CrowdSale.sol\":3260:3415  function _postValidatePurchase(\r... */\n    tag_46:\n      pop\n      pop\n      jump\t// out\n        /* \"contracts/CrowdSale.sol\":736:944  function mul(uint256 a, uint256 b) internal pure returns (uint256) {\r... */\n    tag_56:\n        /* \"contracts/CrowdSale.sol\":794:801  uint256 */\n      0x0\n        /* \"contracts/CrowdSale.sol\":871:880  uint256 c */\n      dup1\n        /* \"contracts/CrowdSale.sol\":823:824  0 */\n      0x0\n        /* \"contracts/CrowdSale.sol\":818:819  a */\n      dup5\n        /* \"contracts/CrowdSale.sol\":818:824  a == 0 */\n      eq\n        /* \"contracts/CrowdSale.sol\":814:861  if (a == 0) {\r... */\n      iszero\n      tag_67\n      jumpi\n        /* \"contracts/CrowdSale.sol\":848:849  0 */\n      0x0\n        /* \"contracts/CrowdSale.sol\":841:849  return 0 */\n      swap2\n      pop\n      jump(tag_66)\n        /* \"contracts/CrowdSale.sol\":814:861  if (a == 0) {\r... */\n    tag_67:\n        /* \"contracts/CrowdSale.sol\":887:888  b */\n      dup3\n        /* \"contracts/CrowdSale.sol\":883:884  a */\n      dup5\n        /* \"contracts/CrowdSale.sol\":883:888  a * b */\n      mul\n        /* \"contracts/CrowdSale.sol\":871:888  uint256 c = a * b */\n      swap1\n      pop\n        /* \"contracts/CrowdSale.sol\":915:916  b */\n      dup3\n        /* \"contracts/CrowdSale.sol\":910:911  a */\n      dup5\n        /* \"contracts/CrowdSale.sol\":906:907  c */\n      dup3\n        /* \"contracts/CrowdSale.sol\":906:911  c / a */\n      dup2\n      iszero\n      iszero\n      tag_68\n      jumpi\n      invalid\n    tag_68:\n      div\n        /* \"contracts/CrowdSale.sol\":906:916  c / a == b */\n      eq\n        /* \"contracts/CrowdSale.sol\":899:917  assert(c / a == b) */\n      iszero\n      iszero\n      tag_69\n      jumpi\n      invalid\n    tag_69:\n        /* \"contracts/CrowdSale.sol\":935:936  c */\n      dup1\n        /* \"contracts/CrowdSale.sol\":928:936  return c */\n      swap2\n      pop\n        /* \"contracts/CrowdSale.sol\":736:944  function mul(uint256 a, uint256 b) internal pure returns (uint256) {\r... */\n    tag_66:\n      pop\n      swap3\n      swap2\n      pop\n      pop\n      jump\t// out\n        /* \"contracts/CrowdSale.sol\":5110:5300  function _deliverTokens(\r... */\n    tag_61:\n        /* \"contracts/CrowdSale.sol\":5233:5238  token */\n      0x0\n      dup1\n      swap1\n      sload\n      swap1\n      0x100\n      exp\n      swap1\n      div\n      0xffffffffffffffffffffffffffffffffffffffff\n      and\n        /* \"contracts/CrowdSale.sol\":5233:5251  token.transferFrom */\n      0xffffffffffffffffffffffffffffffffffffffff\n      and\n      0x23b872dd\n        /* \"contracts/CrowdSale.sol\":5252:5263  tokenWallet */\n      0x4\n      0x0\n      swap1\n      sload\n      swap1\n      0x100\n      exp\n      swap1\n      div\n      0xffffffffffffffffffffffffffffffffffffffff\n      and\n        /* \"contracts/CrowdSale.sol\":5265:5277  _beneficiary */\n      dup5\n        /* \"contracts/CrowdSale.sol\":5279:5291  _tokenAmount */\n      dup5\n        /* \"contracts/CrowdSale.sol\":5233:5292  token.transferFrom(tokenWallet, _beneficiary, _tokenAmount) */\n      mload(0x40)\n      dup5\n      0xffffffff\n      and\n      0x100000000000000000000000000000000000000000000000000000000\n      mul\n      dup2\n      mstore\n      0x4\n      add\n      dup1\n      dup5\n      0xffffffffffffffffffffffffffffffffffffffff\n      and\n      0xffffffffffffffffffffffffffffffffffffffff\n      and\n      dup2\n      mstore\n      0x20\n      add\n      dup4\n      0xffffffffffffffffffffffffffffffffffffffff\n      and\n      0xffffffffffffffffffffffffffffffffffffffff\n      and\n      dup2\n      mstore\n      0x20\n      add\n      dup3\n      dup2\n      mstore\n      0x20\n      add\n      swap4\n      pop\n      pop\n      pop\n      pop\n      0x20\n      mload(0x40)\n      dup1\n      dup4\n      sub\n      dup2\n      0x0\n      dup8\n      dup1\n      extcodesize\n      iszero\n        /* \"--CODEGEN--\":8:17   */\n      dup1\n        /* \"--CODEGEN--\":5:7   */\n      iszero\n      tag_71\n      jumpi\n        /* \"--CODEGEN--\":30:31   */\n      0x0\n        /* \"--CODEGEN--\":27:28   */\n      dup1\n        /* \"--CODEGEN--\":20:32   */\n      revert\n        /* \"--CODEGEN--\":5:7   */\n    tag_71:\n        /* \"contracts/CrowdSale.sol\":5233:5292  token.transferFrom(tokenWallet, _beneficiary, _tokenAmount) */\n      pop\n      gas\n      call\n      iszero\n        /* \"--CODEGEN--\":8:17   */\n      dup1\n        /* \"--CODEGEN--\":5:7   */\n      iszero\n      tag_72\n      jumpi\n        /* \"--CODEGEN--\":45:61   */\n      returndatasize\n        /* \"--CODEGEN--\":42:43   */\n      0x0\n        /* \"--CODEGEN--\":39:40   */\n      dup1\n        /* \"--CODEGEN--\":24:62   */\n      returndatacopy\n        /* \"--CODEGEN--\":77:93   */\n      returndatasize\n        /* \"--CODEGEN--\":74:75   */\n      0x0\n        /* \"--CODEGEN--\":67:94   */\n      revert\n        /* \"--CODEGEN--\":5:7   */\n    tag_72:\n        /* \"contracts/CrowdSale.sol\":5233:5292  token.transferFrom(tokenWallet, _beneficiary, _tokenAmount) */\n      pop\n      pop\n      pop\n      pop\n      mload(0x40)\n      returndatasize\n        /* \"--CODEGEN--\":13:15   */\n      0x20\n        /* \"--CODEGEN--\":8:11   */\n      dup2\n        /* \"--CODEGEN--\":5:16   */\n      lt\n        /* \"--CODEGEN--\":2:4   */\n      iszero\n      tag_73\n      jumpi\n        /* \"--CODEGEN--\":29:30   */\n      0x0\n        /* \"--CODEGEN--\":26:27   */\n      dup1\n        /* \"--CODEGEN--\":19:31   */\n      revert\n        /* \"--CODEGEN--\":2:4   */\n    tag_73:\n        /* \"contracts/CrowdSale.sol\":5233:5292  token.transferFrom(tokenWallet, _beneficiary, _tokenAmount) */\n      dup2\n      add\n      swap1\n      dup1\n      dup1\n      mload\n      swap1\n      0x20\n      add\n      swap1\n      swap3\n      swap2\n      swap1\n      pop\n      pop\n      pop\n      pop\n        /* \"contracts/CrowdSale.sol\":5110:5300  function _deliverTokens(\r... */\n      pop\n      pop\n      jump\t// out\n\n    auxdata: 0xa165627a7a72305820c0536992f0b4c63eb339c05a2e4a7d161a51f0cf9806f6ddf6b202b0e397f0550029\n}\n",
				"bytecode": {
					"linkReferences": {},
					"object": "608060405234801561001057600080fd5b506040516080806109ad8339810180604052810190808051906020019092919080519060200190929190805190602001909291908051906020019092919050505083838360008311151561006357600080fd5b600073ffffffffffffffffffffffffffffffffffffffff168273ffffffffffffffffffffffffffffffffffffffff161415151561009f57600080fd5b600073ffffffffffffffffffffffffffffffffffffffff168173ffffffffffffffffffffffffffffffffffffffff16141515156100db57600080fd5b8260028190555081600160006101000a81548173ffffffffffffffffffffffffffffffffffffffff021916908373ffffffffffffffffffffffffffffffffffffffff160217905550806000806101000a81548173ffffffffffffffffffffffffffffffffffffffff021916908373ffffffffffffffffffffffffffffffffffffffff160217905550505050600073ffffffffffffffffffffffffffffffffffffffff168173ffffffffffffffffffffffffffffffffffffffff16141515156101a257600080fd5b80600460006101000a81548173ffffffffffffffffffffffffffffffffffffffff021916908373ffffffffffffffffffffffffffffffffffffffff160217905550505050506107b7806101f66000396000f300608060405260043610610083576000357c0100000000000000000000000000000000000000000000000000000000900463ffffffff1680632c4e722e1461008e5780634042b66f146100b9578063521eb273146100e4578063bf5839031461013b578063bff99c6c14610166578063ec8ac4d8146101bd578063fc0c546a146101f3575b61008c3361024a565b005b34801561009a57600080fd5b506100a3610318565b6040518082815260200191505060405180910390f35b3480156100c557600080fd5b506100ce61031e565b6040518082815260200191505060405180910390f35b3480156100f057600080fd5b506100f9610324565b604051808273ffffffffffffffffffffffffffffffffffffffff1673ffffffffffffffffffffffffffffffffffffffff16815260200191505060405180910390f35b34801561014757600080fd5b5061015061034a565b6040518082815260200191505060405180910390f35b34801561017257600080fd5b5061017b61049e565b604051808273ffffffffffffffffffffffffffffffffffffffff1673ffffffffffffffffffffffffffffffffffffffff16815260200191505060405180910390f35b6101f1600480360381019080803573ffffffffffffffffffffffffffffffffffffffff16906020019092919050505061024a565b005b3480156101ff57600080fd5b506102086104c4565b604051808273ffffffffffffffffffffffffffffffffffffffff1673ffffffffffffffffffffffffffffffffffffffff16815260200191505060405180910390f35b60008034915061025a83836104e9565b61026382610539565b905061027a8260035461055790919063ffffffff16565b60038190555061028a8382610575565b8273ffffffffffffffffffffffffffffffffffffffff163373ffffffffffffffffffffffffffffffffffffffff167f623b3804fa71d67900d064613da8f94b9617215ee90799290593e1745087ad188484604051808381526020018281526020019250505060405180910390a36103018383610583565b610309610587565b61031383836105f2565b505050565b60025481565b60035481565b600160009054906101000a900473ffffffffffffffffffffffffffffffffffffffff1681565b60008060009054906101000a900473ffffffffffffffffffffffffffffffffffffffff1673ffffffffffffffffffffffffffffffffffffffff1663dd62ed3e600460009054906101000a900473ffffffffffffffffffffffffffffffffffffffff16306040518363ffffffff167c0100000000000000000000000000000000000000000000000000000000028152600401808373ffffffffffffffffffffffffffffffffffffffff1673ffffffffffffffffffffffffffffffffffffffff1681526020018273ffffffffffffffffffffffffffffffffffffffff1673ffffffffffffffffffffffffffffffffffffffff16815260200192505050602060405180830381600087803b15801561045e57600080fd5b505af1158015610472573d6000803e3d6000fd5b505050506040513d602081101561048857600080fd5b8101908080519060200190929190505050905090565b600460009054906101000a900473ffffffffffffffffffffffffffffffffffffffff1681565b6000809054906101000a900473ffffffffffffffffffffffffffffffffffffffff1681565b600073ffffffffffffffffffffffffffffffffffffffff168273ffffffffffffffffffffffffffffffffffffffff161415151561052557600080fd5b6000811415151561053557600080fd5b5050565b6000610550600254836105f690919063ffffffff16565b9050919050565b600080828401905083811015151561056b57fe5b8091505092915050565b61057f8282610631565b5050565b5050565b600160009054906101000a900473ffffffffffffffffffffffffffffffffffffffff1673ffffffffffffffffffffffffffffffffffffffff166108fc349081150290604051600060405180830381858888f193505050501580156105ef573d6000803e3d6000fd5b50565b5050565b600080600084141561060b576000915061062a565b828402905082848281151561061c57fe5b0414151561062657fe5b8091505b5092915050565b6000809054906101000a900473ffffffffffffffffffffffffffffffffffffffff1673ffffffffffffffffffffffffffffffffffffffff166323b872dd600460009054906101000a900473ffffffffffffffffffffffffffffffffffffffff1684846040518463ffffffff167c0100000000000000000000000000000000000000000000000000000000028152600401808473ffffffffffffffffffffffffffffffffffffffff1673ffffffffffffffffffffffffffffffffffffffff1681526020018373ffffffffffffffffffffffffffffffffffffffff1673ffffffffffffffffffffffffffffffffffffffff1681526020018281526020019350505050602060405180830381600087803b15801561074b57600080fd5b505af115801561075f573d6000803e3d6000fd5b505050506040513d602081101561077557600080fd5b81019080805190602001909291905050505050505600a165627a7a72305820c0536992f0b4c63eb339c05a2e4a7d161a51f0cf9806f6ddf6b202b0e397f0550029",
					"opcodes": "PUSH1 0x80 PUSH1 0x40 MSTORE CALLVALUE DUP1 ISZERO PUSH2 0x10 JUMPI PUSH1 0x0 DUP1 REVERT JUMPDEST POP PUSH1 0x40 MLOAD PUSH1 0x80 DUP1 PUSH2 0x9AD DUP4 CODECOPY DUP2 ADD DUP1 PUSH1 0x40 MSTORE DUP2 ADD SWAP1 DUP1 DUP1 MLOAD SWAP1 PUSH1 0x20 ADD SWAP1 SWAP3 SWAP2 SWAP1 DUP1 MLOAD SWAP1 PUSH1 0x20 ADD SWAP1 SWAP3 SWAP2 SWAP1 DUP1 MLOAD SWAP1 PUSH1 0x20 ADD SWAP1 SWAP3 SWAP2 SWAP1 DUP1 MLOAD SWAP1 PUSH1 0x20 ADD SWAP1 SWAP3 SWAP2 SWAP1 POP POP POP DUP4 DUP4 DUP4 PUSH1 0x0 DUP4 GT ISZERO ISZERO PUSH2 0x63 JUMPI PUSH1 0x0 DUP1 REVERT JUMPDEST PUSH1 0x0 PUSH20 0xFFFFFFFFFFFFFFFFFFFFFFFFFFFFFFFFFFFFFFFF AND DUP3 PUSH20 0xFFFFFFFFFFFFFFFFFFFFFFFFFFFFFFFFFFFFFFFF AND EQ ISZERO ISZERO ISZERO PUSH2 0x9F JUMPI PUSH1 0x0 DUP1 REVERT JUMPDEST PUSH1 0x0 PUSH20 0xFFFFFFFFFFFFFFFFFFFFFFFFFFFFFFFFFFFFFFFF AND DUP2 PUSH20 0xFFFFFFFFFFFFFFFFFFFFFFFFFFFFFFFFFFFFFFFF AND EQ ISZERO ISZERO ISZERO PUSH2 0xDB JUMPI PUSH1 0x0 DUP1 REVERT JUMPDEST DUP3 PUSH1 0x2 DUP2 SWAP1 SSTORE POP DUP2 PUSH1 0x1 PUSH1 0x0 PUSH2 0x100 EXP DUP2 SLOAD DUP2 PUSH20 0xFFFFFFFFFFFFFFFFFFFFFFFFFFFFFFFFFFFFFFFF MUL NOT AND SWAP1 DUP4 PUSH20 0xFFFFFFFFFFFFFFFFFFFFFFFFFFFFFFFFFFFFFFFF AND MUL OR SWAP1 SSTORE POP DUP1 PUSH1 0x0 DUP1 PUSH2 0x100 EXP DUP2 SLOAD DUP2 PUSH20 0xFFFFFFFFFFFFFFFFFFFFFFFFFFFFFFFFFFFFFFFF MUL NOT AND SWAP1 DUP4 PUSH20 0xFFFFFFFFFFFFFFFFFFFFFFFFFFFFFFFFFFFFFFFF AND MUL OR SWAP1 SSTORE POP POP POP POP PUSH1 0x0 PUSH20 0xFFFFFFFFFFFFFFFFFFFFFFFFFFFFFFFFFFFFFFFF AND DUP2 PUSH20 0xFFFFFFFFFFFFFFFFFFFFFFFFFFFFFFFFFFFFFFFF AND EQ ISZERO ISZERO ISZERO PUSH2 0x1A2 JUMPI PUSH1 0x0 DUP1 REVERT JUMPDEST DUP1 PUSH1 0x4 PUSH1 0x0 PUSH2 0x100 EXP DUP2 SLOAD DUP2 PUSH20 0xFFFFFFFFFFFFFFFFFFFFFFFFFFFFFFFFFFFFFFFF MUL NOT AND SWAP1 DUP4 PUSH20 0xFFFFFFFFFFFFFFFFFFFFFFFFFFFFFFFFFFFFFFFF AND MUL OR SWAP1 SSTORE POP POP POP POP POP PUSH2 0x7B7 DUP1 PUSH2 0x1F6 PUSH1 0x0 CODECOPY PUSH1 0x0 RETURN STOP PUSH1 0x80 PUSH1 0x40 MSTORE PUSH1 0x4 CALLDATASIZE LT PUSH2 0x83 JUMPI PUSH1 0x0 CALLDATALOAD PUSH29 0x100000000000000000000000000000000000000000000000000000000 SWAP1 DIV PUSH4 0xFFFFFFFF AND DUP1 PUSH4 0x2C4E722E EQ PUSH2 0x8E JUMPI DUP1 PUSH4 0x4042B66F EQ PUSH2 0xB9 JUMPI DUP1 PUSH4 0x521EB273 EQ PUSH2 0xE4 JUMPI DUP1 PUSH4 0xBF583903 EQ PUSH2 0x13B JUMPI DUP1 PUSH4 0xBFF99C6C EQ PUSH2 0x166 JUMPI DUP1 PUSH4 0xEC8AC4D8 EQ PUSH2 0x1BD JUMPI DUP1 PUSH4 0xFC0C546A EQ PUSH2 0x1F3 JUMPI JUMPDEST PUSH2 0x8C CALLER PUSH2 0x24A JUMP JUMPDEST STOP JUMPDEST CALLVALUE DUP1 ISZERO PUSH2 0x9A JUMPI PUSH1 0x0 DUP1 REVERT JUMPDEST POP PUSH2 0xA3 PUSH2 0x318 JUMP JUMPDEST PUSH1 0x40 MLOAD DUP1 DUP3 DUP2 MSTORE PUSH1 0x20 ADD SWAP2 POP POP PUSH1 0x40 MLOAD DUP1 SWAP2 SUB SWAP1 RETURN JUMPDEST CALLVALUE DUP1 ISZERO PUSH2 0xC5 JUMPI PUSH1 0x0 DUP1 REVERT JUMPDEST POP PUSH2 0xCE PUSH2 0x31E JUMP JUMPDEST PUSH1 0x40 MLOAD DUP1 DUP3 DUP2 MSTORE PUSH1 0x20 ADD SWAP2 POP POP PUSH1 0x40 MLOAD DUP1 SWAP2 SUB SWAP1 RETURN JUMPDEST CALLVALUE DUP1 ISZERO PUSH2 0xF0 JUMPI PUSH1 0x0 DUP1 REVERT JUMPDEST POP PUSH2 0xF9 PUSH2 0x324 JUMP JUMPDEST PUSH1 0x40 MLOAD DUP1 DUP3 PUSH20 0xFFFFFFFFFFFFFFFFFFFFFFFFFFFFFFFFFFFFFFFF AND PUSH20 0xFFFFFFFFFFFFFFFFFFFFFFFFFFFFFFFFFFFFFFFF AND DUP2 MSTORE PUSH1 0x20 ADD SWAP2 POP POP PUSH1 0x40 MLOAD DUP1 SWAP2 SUB SWAP1 RETURN JUMPDEST CALLVALUE DUP1 ISZERO PUSH2 0x147 JUMPI PUSH1 0x0 DUP1 REVERT JUMPDEST POP PUSH2 0x150 PUSH2 0x34A JUMP JUMPDEST PUSH1 0x40 MLOAD DUP1 DUP3 DUP2 MSTORE PUSH1 0x20 ADD SWAP2 POP POP PUSH1 0x40 MLOAD DUP1 SWAP2 SUB SWAP1 RETURN JUMPDEST CALLVALUE DUP1 ISZERO PUSH2 0x172 JUMPI PUSH1 0x0 DUP1 REVERT JUMPDEST POP PUSH2 0x17B PUSH2 0x49E JUMP JUMPDEST PUSH1 0x40 MLOAD DUP1 DUP3 PUSH20 0xFFFFFFFFFFFFFFFFFFFFFFFFFFFFFFFFFFFFFFFF AND PUSH20 0xFFFFFFFFFFFFFFFFFFFFFFFFFFFFFFFFFFFFFFFF AND DUP2 MSTORE PUSH1 0x20 ADD SWAP2 POP POP PUSH1 0x40 MLOAD DUP1 SWAP2 SUB SWAP1 RETURN JUMPDEST PUSH2 0x1F1 PUSH1 0x4 DUP1 CALLDATASIZE SUB DUP2 ADD SWAP1 DUP1 DUP1 CALLDATALOAD PUSH20 0xFFFFFFFFFFFFFFFFFFFFFFFFFFFFFFFFFFFFFFFF AND SWAP1 PUSH1 0x20 ADD SWAP1 SWAP3 SWAP2 SWAP1 POP POP POP PUSH2 0x24A JUMP JUMPDEST STOP JUMPDEST CALLVALUE DUP1 ISZERO PUSH2 0x1FF JUMPI PUSH1 0x0 DUP1 REVERT JUMPDEST POP PUSH2 0x208 PUSH2 0x4C4 JUMP JUMPDEST PUSH1 0x40 MLOAD DUP1 DUP3 PUSH20 0xFFFFFFFFFFFFFFFFFFFFFFFFFFFFFFFFFFFFFFFF AND PUSH20 0xFFFFFFFFFFFFFFFFFFFFFFFFFFFFFFFFFFFFFFFF AND DUP2 MSTORE PUSH1 0x20 ADD SWAP2 POP POP PUSH1 0x40 MLOAD DUP1 SWAP2 SUB SWAP1 RETURN JUMPDEST PUSH1 0x0 DUP1 CALLVALUE SWAP2 POP PUSH2 0x25A DUP4 DUP4 PUSH2 0x4E9 JUMP JUMPDEST PUSH2 0x263 DUP3 PUSH2 0x539 JUMP JUMPDEST SWAP1 POP PUSH2 0x27A DUP3 PUSH1 0x3 SLOAD PUSH2 0x557 SWAP1 SWAP2 SWAP1 PUSH4 0xFFFFFFFF AND JUMP JUMPDEST PUSH1 0x3 DUP2 SWAP1 SSTORE POP PUSH2 0x28A DUP4 DUP3 PUSH2 0x575 JUMP JUMPDEST DUP3 PUSH20 0xFFFFFFFFFFFFFFFFFFFFFFFFFFFFFFFFFFFFFFFF AND CALLER PUSH20 0xFFFFFFFFFFFFFFFFFFFFFFFFFFFFFFFFFFFFFFFF AND PUSH32 0x623B3804FA71D67900D064613DA8F94B9617215EE90799290593E1745087AD18 DUP5 DUP5 PUSH1 0x40 MLOAD DUP1 DUP4 DUP2 MSTORE PUSH1 0x20 ADD DUP3 DUP2 MSTORE PUSH1 0x20 ADD SWAP3 POP POP POP PUSH1 0x40 MLOAD DUP1 SWAP2 SUB SWAP1 LOG3 PUSH2 0x301 DUP4 DUP4 PUSH2 0x583 JUMP JUMPDEST PUSH2 0x309 PUSH2 0x587 JUMP JUMPDEST PUSH2 0x313 DUP4 DUP4 PUSH2 0x5F2 JUMP JUMPDEST POP POP POP JUMP JUMPDEST PUSH1 0x2 SLOAD DUP2 JUMP JUMPDEST PUSH1 0x3 SLOAD DUP2 JUMP JUMPDEST PUSH1 0x1 PUSH1 0x0 SWAP1 SLOAD SWAP1 PUSH2 0x100 EXP SWAP1 DIV PUSH20 0xFFFFFFFFFFFFFFFFFFFFFFFFFFFFFFFFFFFFFFFF AND DUP2 JUMP JUMPDEST PUSH1 0x0 DUP1 PUSH1 0x0 SWAP1 SLOAD SWAP1 PUSH2 0x100 EXP SWAP1 DIV PUSH20 0xFFFFFFFFFFFFFFFFFFFFFFFFFFFFFFFFFFFFFFFF AND PUSH20 0xFFFFFFFFFFFFFFFFFFFFFFFFFFFFFFFFFFFFFFFF AND PUSH4 0xDD62ED3E PUSH1 0x4 PUSH1 0x0 SWAP1 SLOAD SWAP1 PUSH2 0x100 EXP SWAP1 DIV PUSH20 0xFFFFFFFFFFFFFFFFFFFFFFFFFFFFFFFFFFFFFFFF AND ADDRESS PUSH1 0x40 MLOAD DUP4 PUSH4 0xFFFFFFFF AND PUSH29 0x100000000000000000000000000000000000000000000000000000000 MUL DUP2 MSTORE PUSH1 0x4 ADD DUP1 DUP4 PUSH20 0xFFFFFFFFFFFFFFFFFFFFFFFFFFFFFFFFFFFFFFFF AND PUSH20 0xFFFFFFFFFFFFFFFFFFFFFFFFFFFFFFFFFFFFFFFF AND DUP2 MSTORE PUSH1 0x20 ADD DUP3 PUSH20 0xFFFFFFFFFFFFFFFFFFFFFFFFFFFFFFFFFFFFFFFF AND PUSH20 0xFFFFFFFFFFFFFFFFFFFFFFFFFFFFFFFFFFFFFFFF AND DUP2 MSTORE PUSH1 0x20 ADD SWAP3 POP POP POP PUSH1 0x20 PUSH1 0x40 MLOAD DUP1 DUP4 SUB DUP2 PUSH1 0x0 DUP8 DUP1 EXTCODESIZE ISZERO DUP1 ISZERO PUSH2 0x45E JUMPI PUSH1 0x0 DUP1 REVERT JUMPDEST POP GAS CALL ISZERO DUP1 ISZERO PUSH2 0x472 JUMPI RETURNDATASIZE PUSH1 0x0 DUP1 RETURNDATACOPY RETURNDATASIZE PUSH1 0x0 REVERT JUMPDEST POP POP POP POP PUSH1 0x40 MLOAD RETURNDATASIZE PUSH1 0x20 DUP2 LT ISZERO PUSH2 0x488 JUMPI PUSH1 0x0 DUP1 REVERT JUMPDEST DUP2 ADD SWAP1 DUP1 DUP1 MLOAD SWAP1 PUSH1 0x20 ADD SWAP1 SWAP3 SWAP2 SWAP1 POP POP POP SWAP1 POP SWAP1 JUMP JUMPDEST PUSH1 0x4 PUSH1 0x0 SWAP1 SLOAD SWAP1 PUSH2 0x100 EXP SWAP1 DIV PUSH20 0xFFFFFFFFFFFFFFFFFFFFFFFFFFFFFFFFFFFFFFFF AND DUP2 JUMP JUMPDEST PUSH1 0x0 DUP1 SWAP1 SLOAD SWAP1 PUSH2 0x100 EXP SWAP1 DIV PUSH20 0xFFFFFFFFFFFFFFFFFFFFFFFFFFFFFFFFFFFFFFFF AND DUP2 JUMP JUMPDEST PUSH1 0x0 PUSH20 0xFFFFFFFFFFFFFFFFFFFFFFFFFFFFFFFFFFFFFFFF AND DUP3 PUSH20 0xFFFFFFFFFFFFFFFFFFFFFFFFFFFFFFFFFFFFFFFF AND EQ ISZERO ISZERO ISZERO PUSH2 0x525 JUMPI PUSH1 0x0 DUP1 REVERT JUMPDEST PUSH1 0x0 DUP2 EQ ISZERO ISZERO ISZERO PUSH2 0x535 JUMPI PUSH1 0x0 DUP1 REVERT JUMPDEST POP POP JUMP JUMPDEST PUSH1 0x0 PUSH2 0x550 PUSH1 0x2 SLOAD DUP4 PUSH2 0x5F6 SWAP1 SWAP2 SWAP1 PUSH4 0xFFFFFFFF AND JUMP JUMPDEST SWAP1 POP SWAP2 SWAP1 POP JUMP JUMPDEST PUSH1 0x0 DUP1 DUP3 DUP5 ADD SWAP1 POP DUP4 DUP2 LT ISZERO ISZERO ISZERO PUSH2 0x56B JUMPI INVALID JUMPDEST DUP1 SWAP2 POP POP SWAP3 SWAP2 POP POP JUMP JUMPDEST PUSH2 0x57F DUP3 DUP3 PUSH2 0x631 JUMP JUMPDEST POP POP JUMP JUMPDEST POP POP JUMP JUMPDEST PUSH1 0x1 PUSH1 0x0 SWAP1 SLOAD SWAP1 PUSH2 0x100 EXP SWAP1 DIV PUSH20 0xFFFFFFFFFFFFFFFFFFFFFFFFFFFFFFFFFFFFFFFF AND PUSH20 0xFFFFFFFFFFFFFFFFFFFFFFFFFFFFFFFFFFFFFFFF AND PUSH2 0x8FC CALLVALUE SWAP1 DUP2 ISZERO MUL SWAP1 PUSH1 0x40 MLOAD PUSH1 0x0 PUSH1 0x40 MLOAD DUP1 DUP4 SUB DUP2 DUP6 DUP9 DUP9 CALL SWAP4 POP POP POP POP ISZERO DUP1 ISZERO PUSH2 0x5EF JUMPI RETURNDATASIZE PUSH1 0x0 DUP1 RETURNDATACOPY RETURNDATASIZE PUSH1 0x0 REVERT JUMPDEST POP JUMP JUMPDEST POP POP JUMP JUMPDEST PUSH1 0x0 DUP1 PUSH1 0x0 DUP5 EQ ISZERO PUSH2 0x60B JUMPI PUSH1 0x0 SWAP2 POP PUSH2 0x62A JUMP JUMPDEST DUP3 DUP5 MUL SWAP1 POP DUP3 DUP5 DUP3 DUP2 ISZERO ISZERO PUSH2 0x61C JUMPI INVALID JUMPDEST DIV EQ ISZERO ISZERO PUSH2 0x626 JUMPI INVALID JUMPDEST DUP1 SWAP2 POP JUMPDEST POP SWAP3 SWAP2 POP POP JUMP JUMPDEST PUSH1 0x0 DUP1 SWAP1 SLOAD SWAP1 PUSH2 0x100 EXP SWAP1 DIV PUSH20 0xFFFFFFFFFFFFFFFFFFFFFFFFFFFFFFFFFFFFFFFF AND PUSH20 0xFFFFFFFFFFFFFFFFFFFFFFFFFFFFFFFFFFFFFFFF AND PUSH4 0x23B872DD PUSH1 0x4 PUSH1 0x0 SWAP1 SLOAD SWAP1 PUSH2 0x100 EXP SWAP1 DIV PUSH20 0xFFFFFFFFFFFFFFFFFFFFFFFFFFFFFFFFFFFFFFFF AND DUP5 DUP5 PUSH1 0x40 MLOAD DUP5 PUSH4 0xFFFFFFFF AND PUSH29 0x100000000000000000000000000000000000000000000000000000000 MUL DUP2 MSTORE PUSH1 0x4 ADD DUP1 DUP5 PUSH20 0xFFFFFFFFFFFFFFFFFFFFFFFFFFFFFFFFFFFFFFFF AND PUSH20 0xFFFFFFFFFFFFFFFFFFFFFFFFFFFFFFFFFFFFFFFF AND DUP2 MSTORE PUSH1 0x20 ADD DUP4 PUSH20 0xFFFFFFFFFFFFFFFFFFFFFFFFFFFFFFFFFFFFFFFF AND PUSH20 0xFFFFFFFFFFFFFFFFFFFFFFFFFFFFFFFFFFFFFFFF AND DUP2 MSTORE PUSH1 0x20 ADD DUP3 DUP2 MSTORE PUSH1 0x20 ADD SWAP4 POP POP POP POP PUSH1 0x20 PUSH1 0x40 MLOAD DUP1 DUP4 SUB DUP2 PUSH1 0x0 DUP8 DUP1 EXTCODESIZE ISZERO DUP1 ISZERO PUSH2 0x74B JUMPI PUSH1 0x0 DUP1 REVERT JUMPDEST POP GAS CALL ISZERO DUP1 ISZERO PUSH2 0x75F JUMPI RETURNDATASIZE PUSH1 0x0 DUP1 RETURNDATACOPY RETURNDATASIZE PUSH1 0x0 REVERT JUMPDEST POP POP POP POP PUSH1 0x40 MLOAD RETURNDATASIZE PUSH1 0x20 DUP2 LT ISZERO PUSH2 0x775 JUMPI PUSH1 0x0 DUP1 REVERT JUMPDEST DUP2 ADD SWAP1 DUP1 DUP1 MLOAD SWAP1 PUSH1 0x20 ADD SWAP1 SWAP3 SWAP2 SWAP1 POP POP POP POP POP POP JUMP STOP LOG1 PUSH6 0x627A7A723058 KECCAK256 0xc0 MSTORE8 PUSH10 0x92F0B4C63EB339C05A2E 0x4a PUSH30 0x161A51F0CF9806F6DDF6B202B0E397F05500290000000000000000000000 "
				},
				"gasEstimates": {
					"creation": {
						"codeDepositCost": "395000",
						"executionCost": "81603",
						"totalCost": "476603"
					},
					"external": {
						"": "infinite",
						"buyTokens(address)": "infinite",
						"rate()": "394",
						"remainingTokens()": "infinite",
						"token()": "574",
						"tokenWallet()": "530",
						"wallet()": "486",
						"weiRaised()": "416"
					},
					"internal": {
						"_deliverTokens(address,uint256)": "infinite"
					}
				},
				"methodIdentifiers": {
					"buyTokens(address)": "ec8ac4d8",
					"rate()": "2c4e722e",
					"remainingTokens()": "bf583903",
					"token()": "fc0c546a",
					"tokenWallet()": "bff99c6c",
					"wallet()": "521eb273",
					"weiRaised()": "4042b66f"
				}
			},
			"userdoc": {
				"methods": {}
			}
		}
	}
}